:020000040800F2
:1000000000000220011700085510000857100008D2
:10001000591000085B1000085D1000080000000087
:100020000000000000000000000000005F10000859
:10003000611000080000000063100008651000084F
:1000400051170008511700085117000851170008F0
:1000500051170008511700085117000851170008E0
:1000600051170008511700085117000851170008D0
:1000700051170008511700085117000851170008C0
:100080005117000851170008511700080000000020
:1000900000000000000000000000000051170008F0
:1000A0006D1000087D1000088D1000089D100008DC
:1000B000AD100008BD100008CD1000085117000851
:1000C0005117000851170008511700085117000870
:1000D0005117000851170008DD100008000000004B
:1000E00051170008511700085117000800000000C0
:1000F0000000000000000000000000005117000890
:10010000000000005117000851170008511700089F
:1001100000000000000000000000000000000000DF
:10012000511700085117000851170008511700080F
:10013000511700080000000000000000000000004F
:10014000000000000000000000000000511700083F
:1001500051170008511700085117000851170008DF
:1001600051170008511700080000000000000000AF
:10017000000000000000000000000000000000007F
:1001800000000000511700080000000000000000FF
:08019000511700085117000887
:1001980010B5054C237833B9044B13B10448AFF3B9
:1001A80000800123237010BD4C08002000000000CF
:1001B8007456000808B5034B1BB103490348AFF355
:1001C800008008BD00000000500800207456000898
:1001D80053B94AB9002908BF00281CBF4FF0FF31A6
:1001E8004FF0FF3000F074B9ADF1080C6DE904CEA2
:1001F80000F006F8DDF804E0DDE9022304B07047FA
:100208002DE9F047089E0D4604468846002B4DD13F
:100218008A42944668D9B2FA82F252B101FA02F3DC
:10022800C2F1200120FA01F10CFA02FC41EA0308AC
:1002380094404FEA1C45210CB8FBF5FE1FFA8CF7D9
:1002480005FB1E8341EA03430EFB07F199420BD9D4
:100258001CEB03030EF1FF3080F01E81994240F23F
:100268001B81AEF1020E63445B1AA4B2B3FBF5F036
:1002780005FB103344EA034400FB07F7A7420AD9F9
:100288001CEB040400F1FF3380F00881A74240F220
:10029800058164440238E41B40EA0E4000211EB187
:1002A800D4400023C6E90043BDE8F0878B4208D953
:1002B800002E00F0EE800021C6E900050846BDE8E2
:1002C800F087B3FA83F100294AD1AB4202D38242C4
:1002D80000F2F980841A65EB030301209846002E8A
:1002E800E2D0C6E90048DFE702B9FFDEB2FA82F2DF
:1002F800002A40F09180A1EB0C054FEA1C471FFA39
:100308008CFE0121B5FBF7F307FB1350250C45EADA
:1003180000450EFB03F0A84208D91CEB050503F1C4
:10032800FF3802D2A84200F2CB8043462D1AA4B26D
:10033800B5FBF7F007FB105544EA05440EFB00FE39
:10034800A64508D91CEB040400F1FF3502D2A645E6
:1003580000F2BB802846A4EB0E0440EA03409EE767
:10036800C1F120078B4022FA07FC4CEA030C20FA63
:1003780007F405FA01F31C43FD404FEA1C4900FA53
:1003880001F3B5FBF9F8200C1FFA8CFE09FB185590
:1003980040EA054508FB0EF0A84202FA01F20BD923
:1003A8001CEB050508F1FF3A80F08880A84240F26E
:1003B8008580A8F1020865442D1AA4B2B5FBF9F0AE
:1003C80009FB105544EA054500FB0EFEAE4508D969
:1003D8001CEB050500F1FF346CD2AE456AD9023832
:1003E800654440EA0840A0FB0294A5EB0E05A5422F
:1003F800C846A64656D353D05EB1B3EB080265EBA8
:100408000E0505FA07F722FA01F3CD401F43C6E9A6
:1004180000750021BDE8F087C2F1200320FA03F13E
:100428000CFA02FC25FA03F395400D434FEA1C47EA
:100438001FFA8CFEB3FBF7F107FB11302B0C43EAD4
:10044800004301FB0EF0984204FA02F408D91CEBB1
:10045800030301F1FF382FD298422DD902396344A2
:100468001B1AADB2B3FBF7F007FB103345EA03459F
:1004780000FB0EF3AB4208D91CEB050500F1FF3871
:1004880016D2AB4214D902386544ED1A40EA01414C
:1004980038E73146304607E78646E5E61846FAE685
:1004A8004B45A9D2B9EB020864EB0C0E0138A3E75F
:1004B8004046EAE7204694E74146D1E7D0467BE745
:1004C800023B654432E7084609E76444023842E7DC
:1004D800704700BF014B1860704700BF6C080020D0
:1004E80008B50121344801F0C9FB012840D0334B3D
:1004F8001B6800221A8002212F4801F0BFFB012847
:100508003BD02E4B1B6800225A8010212A4801F04C
:10051800B5FB012836D0294B1B6800229A80202180
:10052800254801F0ABFB012831D0244B1B68002281
:10053800DA804021204801F0A1FB01282CD01F4B74
:100548001B6800221A8180211B4801F097FB0128B3
:1005580027D01A4B1B6800225A810121184801F044
:100568008DFB012822D0154B1B6800229A8108BDFB
:10057800124B1B6801221A80BDE7104B1B68012231
:100588005A80C2E70D4B1B6801229A80C7E70B4BC4
:100598001B680122DA80CCE7084B1B6801221A810C
:1005A800D1E7064B1B6801225A81D6E7034B1B682B
:1005B80001229A81DBE700BF000002406C0800209E
:1005C8000004024008B5FFF78BFF0A2003F090FEF5
:1005D8004FF400510E4801F05EFB0E4B00221A70DA
:1005E80001236FF0040203E0023252B20133DBB29E
:1005F800062B0AD80849096831F813100129F3D1E4
:100608000448017811440170EEE7024808BD00BFB4
:1006180000080240680800206C080020024B18609F
:10062800024B1960704700BF700800207408002052
:10063800F0B589B0002403940494059406940794B3
:100648000094294B1A6B42F080021A631A6B02F06D
:1006580080020092009A01941A6B42F001021A6318
:100668001A6B02F001020192019A02941A6B42F08D
:1006780002021A631B6B03F002030293029B1B4ED8
:1006880022464FF47041304601F0FFFA184D2246D9
:100698004FF4F851284601F0F8FAF3230393049431
:1006A800059403A9284601F081F9052303930494CE
:1006B800059403A9304601F079F94FF47043039388
:1006C800012704970594069403A9304601F06EF9B2
:1006D8004FF4F853039304970594069403A9284606
:1006E80001F064F909B0F0BD00380240000402408E
:1006F8000000024008B50B480B4B03600B4B4360EE
:1007080000238360C3604FF48042026143618361C8
:10071800C361036201F08EFC00B908BD00F0AEF8B9
:10072800FBE700BF7808002000540040A0860100C5
:1007380030B589B000230393049305930693079378
:100748000268144B9A4201D009B030BD00250195CA
:10075800114C236B43F002032363236B03F0020362
:100768000193019BC023039312230493032306934D
:100778000423079303A9094801F018F90295236C8B
:1007880043F400132364236C03F400130293029BC5
:10079800DAE700BF0054004000380240000402407D
:1007A80002680A4B9A4200D0704710B5084A136C89
:1007B80023F400131364074C4021204601F0D6F9B6
:1007C8008021204601F0D2F910BD00BF005400403E
:1007D800003802400004024008B5054B834200D0AF
:1007E80008BD05220349184603F0E9FCF8E700BFF5
:1007F800980E0020E008002002680F4B9A4200D0B3
:10080800704710B50D4B1B784BB90D480368002293
:100818005A6202F09BFA094B01221A7010BD084C6B
:10082800204602F0CFFA23685A6A064B1A60034B37
:1008380002221A70F2E700BF00040040E508002019
:10084800500E0020DC08002008B50268074B9A42C9
:1008580000D008BD064B4FF6FF721A60054B022206
:100868001A70054802F0AEFAF3E700BF000800402E
:10087800DC080020E5080020500E002072B6FEE7D4
:1008880000B595B03022002108A803F0DFFC002352
:100898000393049305930693079301931F4A116CDE
:1008A80041F080511164126C02F080520192019A59
:1008B80002931B4B1A6842F440421A601B6803F407
:1008C80040430293029B012308934FF4803309931A
:1008D80002230E934FF480020F920C221092602292
:1008E800119212930423139308A801F009FE88B902
:1008F8000F23039302230493002305934FF480529C
:1009080006920793032103A802F048F820B915B00E
:100918005DF804FBFFF7B2FFFFF7B0FF00380240B5
:100928000070004008B500F037FF2A4D284600F057
:1009380001FBFFF7A5FFFFF77BFEFFF7DBFE00F0EB
:10094800F7FB00F099FD00F001FE00F07DFE00F0DD
:1009580061FC21492148FFF761FE214C0C2120460A
:1009680002F0F4FE05221F49284603F028FC1E4D1C
:100978000021284602F0A4FD0021204602F0A0FD37
:100988000421284602F09CFD0421204602F098FD2F
:10099800322000F08DF8322000F094F8322000F078
:1009A8009BF8322000F0A2F84FF47A7000F020FF94
:1009B8000E48FFF78FFD00F04BFA802000F0C6F9D3
:1009C800002000F0B3F9002000F0D8F900F014F985
:1009D800FCE700BF980E0020E5080020DC08002096
:1009E800080E0020E0080020C00D0020CC080020E0
:1009F800014B024A9A61704700000240001000084B
:100A0800014B024A9A61704700000240000800103A
:100A1800014B024A9A61704700000240000400023C
:100A2800014B024A9A61704700000240000200042C
:100A3800044B4FF080729A6103F580634FF40042D3
:100A48009A61704700000240044B4FF480729A612B
:100A580003F580634FF000429A617047000002403E
:100A6800014B024A9A61704700040240002000408E
:100A7800014B024A9A61704700040240004000207E
:100A880008B5FFF7C5FFFFF7D3FF08BD08B5FFF7A7
:100A9800AFFFFFF7E5FF08BD08B5FFF7C1FFFFF798
:100AA800D3FF08BD08B5FFF7ABFFFFF7E1FF08BDAF
:100AB800034B1B68C0EB001040005863704700BF31
:100AC800080E0020034B1B68C0EB00104000986321
:100AD800704700BF080E0020034B1B68C0EB0010D6
:100AE80040009863704700BFC00D0020034B1B688F
:100AF800C0EB001040005863704700BFC00D0020D5
:100B080008B5FFF7BDFFFFF7C1FF2320FFF7D0FFB0
:100B18002320FFF7E1FF2320FFF7D4FF2320FFF76F
:100B2800E5FF08BD08B5FFF7B7FFFFF7AFFF2320C4
:100B3800FFF7BEFF2320FFF7CFFF2320FFF7C2FFF9
:100B48002320FFF7D3FF08BD08B5FFF799FFFFF78C
:100B5800A9FF2320FFF7ACFF2320FFF7BDFF2320C9
:100B6800FFF7B0FF2320FFF7C1FF08BD08B5FFF767
:100B780087FFFFF797FF2320FFF79AFF2320FFF750
:100B8800ABFF2320FFF79EFF2320FFF7AFFF642072
:100B980000F02EFE08BD08B5FFF778FFFFF77CFFD1
:100BA8002320FFF785FF2320FFF796FF2320FFF779
:100BB80089FF2320FFF79AFF642000F019FE08BD83
:100BC80008B5FFF769FFFFF761FF3220FFF770FFF5
:100BD8003220FFF781FF3220FFF774FF3220FFF742
:100BE80085FF4FF4967000F003FEFFF789FF14208D
:100BF80000F0FEFD08BD000038B5FFF7E3FC044631
:100C080090F9013013B1204B1B78C3B11F4B1B78EF
:100C18002BB994F9013013B91B4B1B78BBB994F964
:100C2800003013F1090F1FD013F1030F1FD0002B51
:100C380020DB13B3052B23D0FFF786FF38BD124BFB
:100C480001221A700021124802F0B2FCDEE70F4BB5
:100C580001221A700E4D0021284602F037FD2B683C
:100C68005A6A0C4B1A60DAE7FFF7AAFFE6E7FFF7C4
:100C780092FFE3E7FFF756FFE0E7FFF741FFDDE705
:100C8800FFF774FFDAE700BFEC080020ED0800204A
:100C9800780D0020E8080020022800D0704730B501
:100CA80087B0154801F0A4FA002401940294039433
:100CB800049405944023019311230293032304937E
:100CC80001A90E4800F072FE0FE00C4D00224021F1
:100CD800284600F0DAFF002000F08AFD01224021BA
:100CE800284600F0D2FF0134E4B2072CEDD90248BF
:100CF80001F0A0F907B030BD7808002000040240D8
:100D080000B585B08DF80C108DF80D000A230093FE
:100D1800022303AA7821044801F084FAFFF7BCFFF4
:100D280005B05DF804FB00BF7808002010B5044644
:100D380010B1012C05D010BD0021A620FFF7E0FF5F
:100D4800F7E70021A720FFF7DBFFF4E700B585B040
:100D580078218DF80C1081238DF80D308DF80E0058
:100D68000A230093032303AA034801F05BFAFFF761
:100D780093FF05B05DF804FB7808002010B5044621
:100D880010B1012C09D010BD0021C820FFF7B8FF11
:100D98000021A120FFF7B4FFF3E70021C020FFF7EF
:100DA800AFFF0021A020FFF7ABFFECE710B5A4B020
:100DB80000241DE0184A02EBC302115D03F1900202
:100DC8006A4402F8801C0133DBB213F0800FF1D0C3
:100DD800322302938023019304AB00930123402222
:100DE80078210E4801F0DAFAFFF756FF0134E4B231
:100DF800072C0FD8A4F150000021C0B2FFF780FFE4
:100E080000210846FFF77CFF00211020FFF778FF3C
:100E18000023DAE724B010BDF0080020780800208D
:100E280008B500200BE0094A02EBC3020021115467
:100E38000133DBB213F0800FF5D00130C0B20728C0
:100E480001D80023F6E7FFF7B1FF08BDF00800203E
:100E580008B5052000F0CCFC0021E320FFF750FF87
:100E68000021AE20FFF74CFF642000F0C1FC0021F8
:100E78000846FFF745FF00211020FFF741FF00213A
:100E88000846FFF73DFF0021B020FFF739FF00219A
:100E98008120FFF735FF0021FF20FFF731FF0021F8
:100EA800A120FFF72DFF0021A620FFF729FF002131
:100EB800C820FFF725FF0021D320FFF721FF0021DD
:100EC8000846FFF71DFF0021D520FFF719FF002175
:100ED8008020FFF715FF0021D920FFF711FF00211F
:100EE8001F20FFF70DFF0021A820FFF709FF0021B1
:100EF8003F20FFF705FF0021DA20FFF701FF00215F
:100F08001220FFF7FDFE0021DB20FFF7F9FE00218C
:100F18004020FFF7F5FE00218D20FFF7F1FE0021AC
:100F28001420FFF7EDFEFFF77BFF0021AF20FFF74E
:100F3800E7FE08BD08B5054B1860054B1868002387
:100F480002221946806803F0DBF908BD700D002005
:100F58000C000020022801D80120704708B503F0D2
:100F68004BF909230360002008BD000010B50138C3
:100F780001280AD814464FF0FF3392B20748006898
:100F880002F059FE40B9204610BD03F035F9092397
:100F980003604FF0FF30F7E70520F5E7700D0020FC
:100FA800022801D80020704708B503F025F9092365
:100FB80003604FF0FF3008BD08B503F01DF90923A1
:100FC80003604FF0FF3008BD08B548B94FF0FF3354
:100FD80001220848006802F09AFE40B9012008BDC5
:100FE80003F00AF9092303604FF0FF30F7E7052003
:100FF800F5E700BF700D002008B5022804D84FF4AB
:1010080000534B60002008BD03F0F6F80923036085
:10101800F8E7000082B0002100910B4B5A6C42F4B3
:1010280080425A645A6C02F480420092009A0191FC
:101038001A6C42F080521A641B6C03F080530193BF
:10104800019B02B0704700BF00380240FEE7FEE790
:10105800FEE7FEE7FEE770477047704708B500F007
:10106800B5FB08BD08B5024801F0CAFE08BD00BFBF
:10107800780D002008B5024801F0C2FE08BD00BF87
:10108800780D002008B5024801F0BAFE08BD00BF7F
:10109800780D002008B5024801F0B2FE08BD00BF77
:1010A800780D002008B5024801F0AAFE08BD00BF6F
:1010B800C00D002008B5024801F0A2FE08BD00BF1F
:1010C800080E002008B5024801F09AFE08BD00BFCE
:1010D800500E002008B5024802F014FF08BD00BFFA
:1010E800980E002010B503460C4A0D490D480068BB
:1010F80040B10C4800680344521A934206D8094A82
:10110800136010BD0748084C0460F2E703F074F858
:101118000C2303604FF0FF30F3E700BF000002200C
:1011280000040000740D0020280F00207047000004
:1011380010B596B000241294139414941594109436
:10114800119409940A940B940C940D940E940F9492
:101158002022214601A803F079F82C482C4B036083
:1011680040F2E733436084604BF67E33C36004612A
:101178004461846101F050FF002834D14FF480535A
:10118800129312A9214802F00DF900282ED11F4808
:1011980001F06EFF00282CD100231093119310A9A1
:1011A8001A4802F085FB38BB6023099300220A9293
:1011B8000B920C920D920E920F9209A9134801F00E
:1011C800E1FFE0B90023019302930393049305938D
:1011D8004FF400520692089301A90C4802F0A6FBAE
:1011E80080B916B010BDFFF749FBC7E7FFF746FB0C
:1011F800CDE7FFF743FBCFE7FFF740FBD4E7FFF767
:101208003DFBDFE7FFF73AFBEBE700BF780D002077
:101218000000014000B587B00023029303930493B4
:101228000593009301931548154A026040F2E7328E
:10123800426083604BF67F32C2600361836101F0D4
:10124800EBFE90B94FF48053029302A90B4802F0C9
:10125800A9F868B90023009301936946074802F08A
:1012680027FB40B907B05DF804FBFFF707FBE9E788
:10127800FFF704FBEEE7FFF701FBF3E7500E002052
:101288000008004010B58AB0002305930693079321
:10129800089309930368454A93420AD0B3F1804FF3
:1012A80034D0434A934246D0424A93426AD00AB065
:1012B80010BD00240094404B5A6C42F001025A645D
:1012C8005B6C03F001030093009B22462146182023
:1012D80000F0B4FA182000F0E9FA22462146192055
:1012E80000F0ACFA192000F0E1FA224621461A2053
:1012F80000F0A4FA1A2000F0D9FA224621461B2051
:1013080000F09CFA1B2000F0D1FAD0E700210191EF
:1013180003F50E331A6C42F001021A641B6C03F0D9
:1013280001030193019B0A461C2000F087FA1C2048
:1013380000F0BCFABBE7002402941F4B1A6C42F081
:1013480002021A641A6C02F002020292029A0394D0
:101358001A6B42F002021A631B6B03F00203039339
:10136800039B022305930693099305A9134800F0EC
:101378001DFB224621461D2000F060FA1D2000F0CA
:1013880095FA94E7002104910B4B1A6C42F0040281
:101398001A641B6C03F004030493049B0A461E2082
:1013A80000F04CFA1E2000F081FA80E700000140AE
:1013B80000040040000800400038024000040240D9
:1013C80070B588B00023039304930593069307939D
:1013D8000368B3F1804F04D0234A93422ED008B05B
:1013E80070BD0024009403F50E331A6B42F001021D
:1013F8001A631A6B02F001020092009A01941A6BA8
:1014080042F002021A631B6B03F002030193019B73
:101418004FF400430393022604960125079503A978
:10142800124800F0C3FA082303930496059406941F
:10143800079503A90E4800F0B9FAD0E700230293F4
:101448000C4B1A6B42F002021A631B6B03F0020387
:101458000293029B3023039302230493079303A967
:10146800034800F0A3FABAE7000400400000024075
:10147800000402400038024000B58FB000230A93F0
:101488000B930C930D930893099301930293039381
:1014980004930593069307932B484FF0804202600C
:1014A80063224260836040F67F42C26003618361C9
:1014B80001F0B2FD002831D14FF480530A930AA9F4
:1014C800214801F06FFF60BB1F4801F0D1FD58BBF8
:1014D80000230893099308A91B4802F0E9F930BBD7
:1014E80060230193002202920392059201A91648F3
:1014F80001F048FEF0B904220DEB0201124801F098
:1015080041FED0B9082201A90F4801F03BFEB8B945
:101518000D48FFF755FF0FB05DF804FBFFF7AEF974
:10152800CAE7FFF7ABF9CFE7FFF7A8F9D0E7FFF76E
:10153800A5F9D5E7FFF7A2F9DDE7FFF79FF9E1E79E
:10154800FFF79CF9E4E700BFC00D002000B593B099
:1015580000230E930F93109311930C930D930593FF
:1015680006930793089309930A930B9301930293A5
:10157800039304933248334A0260632242608360D3
:1015880040F67F42C2600361836101F045FD002897
:101598003ED14FF480530E930EA9294801F002FF63
:1015A800002838D1264801F063FD002836D12448A8
:1015B80001F08AFD002834D100230C930D930CA967
:1015C8001F4802F075F978BB602305930022069244
:1015D8000792099205A91A4801F0D4FD38BB0422E4
:1015E80005A9174801F0CEFD20BB0A23019301236A
:1015F80002930023039304930C2201A9104801F0DD
:1016080063FED0B90E48FFF7DBFE13B05DF804FBAC
:10161800FFF734F9BDE7FFF731F9C3E7FFF72EF914
:10162800C5E7FFF72BF9C7E7FFF728F9CCE7FFF77E
:1016380025F9D4E7FFF722F9D7E7FFF71FF9E1E724
:10164800080E00200004004008B50A480A4B036051
:101658004FF4E133436000238360C36003610C22CD
:1016680042618361C36102F0B7FA00B908BDFFF7B0
:1016780005F9FBE7980E00200044004010B588B03B
:101688000023039304930593069307930268184B6A
:101698009A4201D008B010BD0024019403F5FA3332
:1016A8001A6C42F400321A641A6C02F40032019285
:1016B800019A02941A6B42F001021A631B6B03F041
:1016C80001030293029B0C23039302230493032335
:1016D80006930723079303A9064800F067F92246F3
:1016E8002146262000F0AAF8262000F0DFF8D1E7EE
:1016F8000044004000000240DFF834D00D480E4995
:101708000E4A002302E0D458C4500433C4188C4253
:10171800F9D30B4A0B4C002301E013600432A242B8
:10172800FBD3FFF703FD02F06DFDFFF7FBF87047F1
:1017380000000220000000204C080020BC560008D1
:101748004C080020280F0020FEE7000010B50446D2
:101758000E4B18784FF47A73B3FBF0F30C4A106809
:10176800B0FBF3F000F0B0F868B90F2C01D90120F4
:101778000AE0002221464FF0FF3000F05FF8054BE9
:101788001C60002000E0012010BD00BF0400002004
:10179800000000200800002008B50B4B1A6842F42E
:1017A80000721A601A6842F480621A601A6842F479
:1017B80080721A60032000F02FF80F20FFF7C6FF91
:1017C800FFF728FC002008BD003C0240034A1168CE
:1017D800034B1B780B441360704700BFDC0E0020DE
:1017E80004000020014B1868704700BFDC0E002081
:1017F80038B50446FFF7F6FF0546B4F1FF3F02D0BF
:10180800044B1B781C44FFF7EDFF401BA042FAD3A2
:1018180038BD00BF04000020074AD36823F4E06302
:101828001B041B0C000200F4E060034343F0BF6399
:1018380043F40033D360704700ED00E000B5194B66
:10184800DB68C3F30223C3F1070CBCF1040F28BF04
:101858004FF0040C03F1040EBEF1060F18D9033B38
:101868004FF0FF3E0EFA0CFC21EA0C0199400EFAEB
:1018780003F322EA0303194300280BDB0901C9B269
:1018880000F1604000F5614080F800135DF804FB4A
:101898000023E5E700F00F000901C9B2024B195413
:1018A800F4E700BF00ED00E014ED00E0002807DBDE
:1018B80000F01F02400901239340024A42F82030F9
:1018C800704700BF00E100E00138B0F1807F0BD223
:1018D8004FF0E0235861054AF02182F823100020D8
:1018E800986107221A6170470120704700ED00E0F7
:1018F80070B50446866DFFF775FF94F83530DBB296
:10190800022B06D080236365002384F8343001203D
:1019180070BD05462268136823F016031360226819
:10192800536923F080035361236CE3B12268136881
:1019380023F0080313602268136823F0010313607F
:1019480023681B6813F0010F11D0FFF74BFF431BEF
:10195800052BF5D920236365032084F8350000237F
:1019680084F83430D4E7A36C002BDFD1E3E7E26DD1
:101978003F239340B360012384F83530002084F876
:101988003400C5E790F83530DBB2022B03D0802352
:10199800436501207047052380F8353002681368D5
:1019A80023F00103136000207047000000230F2B71
:1019B80000F2D28070B582B060E085685E000324D2
:1019C800B44025EA0405CC68B4402C4384604568DB
:1019D80025EA02054C68C4F300129A402A43426083
:1019E8005AE0DC08083450F8246003F00702950038
:1019F8000F22AA4026EA020E0A69AA4042EA0E020B
:101A080040F824205CE0042200E0002202FA0EF2F2
:101A18002A430234514D45F82420514A94686FEA0C
:101A28000C0224EA0C054E6816F4801F01D04CEA1B
:101A380004054B4CA560E46802EA04054E6816F4F8
:101A4800001F01D04CEA0405454CE560646802EAD1
:101A580004054E6816F4003F01D04CEA0405404CDA
:101A68006560246822404D6815F4803F01D04CEA37
:101A780004023B4C226001330F2B6BD801229A40A1
:101A88000C6804EA020C32EA0404F4D14C6804F04D
:101A98000304013C012C90D94A6802F00302032A8E
:101AA80009D0C4685D000322AA4024EA02048A68B7
:101AB800AA402243C2604A6802F00302022A90D078
:101AC80004684FEA430E032202FA0EF224EA0204E3
:101AD8004A6802F0030202FA0EF2224302604A68E0
:101AE80012F4403FC7D0002201921E4A546C44F4BD
:101AF80080445464526C02F480420192019A9C081A
:101B0800A51C164A52F8255003F003024FEA820E2C
:101B18000F2202FA0EF225EA0205134A90423FF418
:101B280074AF02F5806290420ED002F58062904256
:101B38000CD002F5806290420AD002F58062904291
:101B48003FF461AF072261E701225FE702225DE708
:101B580003225BE702B070BD704700BF0038014048
:101B6800003C0140003802400000024000230F2BD7
:101B78007CD8F0B52DE0042500E0002505FA0CFC22
:101B8800A44557D004685D004FF0030C0CFA05FC1F
:101B980024EA0C0404604FEAD30E0EF1080E50F844
:101BA8002E4003F00705AE000F25B54024EA0504D2
:101BB80040F82E40C46824EA0C04C460446824EA4F
:101BC80002024260826822EA0C02826001330F2B13
:101BD8004BD801229A4002EA010632EA0104F5D103
:101BE8004FEA930E0EF10205214C54F8254003F0FC
:101BF800030C4FEA8C0C0F2505FA0CF73C401D4DE1
:101C0800A842BAD005F58065A8420DD005F58065D3
:101C1800A8420BD005F58065A84209D005F5806576
:101C2800A842A8D00725A9E70125A7E70225A5E727
:101C38000325A3E7104C256825EA06052560656895
:101C480025EA06056560E56825EA0605E560A568F4
:101C580025EA0606A660064E0EF1020456F8245040
:101C680025EA070546F824508CE7F0BD704700BF09
:101C78000038014000000240003C0140036919425D
:101C880001D001207047002070470AB18161704778
:101C9800090481617047436901EA030221EA0301EB
:101CA80041EA02418161704703685A6912F4806F02
:101CB80001D1002070476FF480625A6100230363EA
:101CC800202280F83D2080F83E30026C42F0040269
:101CD800026480F83C30012070472DE9F041074646
:101CE8000D4690461E4624E0FFF77CFD069BC01A71
:101CF800B04200D8EEB900233B63202287F83D208C
:101D080087F83E303A6C42F020023A6487F83C305B
:101D180001201EE03B689C6925EA040C1FFA8CFC34
:101D2800BCFA8CFC4FEA5C1CE04511D1B6F1FF3FD0
:101D3800DAD1C5F30743012BECD13B685B6925EA8F
:101D4800030C1FFA8CFCBCFA8CFC4FEA5C1CEBE71A
:101D58000020BDE8F0812DE9F04105460E46174602
:101D680098463DE01A6842F400721A602B686FF4D6
:101D780080625A6100232B63202285F83D2085F874
:101D88003E302A6C42F004022A6485F83C30012077
:101D980034E0FFF727FDA0EB0800B84200D8FFB9F0
:101DA80000232B63202285F83D2085F83E302A6CDD
:101DB80042F020022A6485F83C3001201EE02B689E
:101DC8009C6926EA0404A4B2003C18BF0124A4B10B
:101DD8002B685A6912F4806FC4D1B7F1FF3FD8D18C
:101DE800C6F30743012BEAD12B685C6926EA040491
:101DF800A4B2003C18BF0124E9E70020BDE8F08147
:101E0800F0B583B004460D4616461F46C36A082B34
:101E18000DD0012B0BD013F5803F08D0036B122B8C
:101E28000AD10268136843F48073136004E02268DF
:101E3800136843F4807313600097334600224FF011
:101E480001112046FFF749FF80B92369B3F5804F98
:101E580016D1236805F0FE051D613B46324613493D
:101E68002046FFF778FFF8B903B0F0BD23681B6878
:101E780013F4807F02D04FF4007323640320F3E748
:101E8800EB11226803F0060343F0F00313613B46AD
:101E9800324607492046FFF75EFF18B92368EDB2BE
:101EA8001D61DAE70120DFE70120DDE7020001001C
:101EB8000800010070B504460D46164623685B69A4
:101EC80013F0800F1CD12046FFF7EEFED0B9B5F114
:101ED800FF3FF3D0FFF786FC801BA84201D8002DF6
:101EE800ECD100232363202284F83D2084F83E307F
:101EF800226C42F02002226484F83C30012000E089
:101F0800002070BD0120FCE72DE9F04385B00446B0
:101F18000D4691461F46DDF830800D9E036819680E
:101F280041F4807119600096434600224FF0011178
:101F3800FFF7D3FE60B9236805F0FE051D6133463F
:101F4800424626492046FFF706FF68B1012008E00F
:101F580023681B6813F4807F02D04FF40073236456
:101F6800032005B0BDE8F0830023039323685A6972
:101F780003929B690393039B324641462046FFF731
:101F880099FF30B9012F0FD123685FFA89F61E61D6
:101F9800E7E7236C042B01D00120E2E722681368ED
:101FA80043F400731360F7E723684FEA19221A61B4
:101FB800324641462046FFF77DFF20B923685FFA85
:101FC80089F61E61CDE7236C042B01D00120C8E7F8
:101FD8002268136843F400731360F7E702000100F6
:101FE80070B504460D46164623685B6913F0040F66
:101FF8001CD12046FFF758FED0B9B5F1FF3FF3D00A
:10200800FFF7F0FB801BA84201D8002DECD100237C
:102018002363202284F83D2084F83E30226C42F06D
:102028002002226484F83C30012000E0002070BDCA
:102038000120FCE7002800F0CC8070B5044690F839
:102048003D30002B77D0242384F83D302268136874
:1020580023F0010313602268136843F400431360FC
:102068002268136823F40043136000F04DFD626892
:102078005A4B9A4264D85A4B98428CBF002301238A
:10208800002B40F0A8805749A1FB00318B0C256834
:102098006A6822F03F0242EA91426A6021680A6A4D
:1020A80022F03F0266684D4DAE424FD801331343CC
:1020B8000B622168CA6922F44F4222F0FF02666867
:1020C800464B9E424CD8431E7600B3FBF6F30133D1
:1020D80040F6FC70034278D0C3F30B031343CB6183
:1020E80021680B6823F0C003E269206A02431343A6
:1020F8000B6021688B6823F4034323F0FF032269F4
:10210800E068024313438B602168CB6823F0FF0328
:102118006269A06902431343CB602268136843F0E5
:102128000103136000202064202384F83D302063DD
:1021380084F83E0070BD80F83C30FEF7F9FA82E77B
:10214800294B98428CBF0023012399E74FF49675D9
:1021580005FB03F3254DA5FB03539B090133A6E7B4
:10216800A368BBB9451E06EB460CB5FBFCF501356B
:10217800C5F30B05B5FA85F56D0945BBC3B901383B
:1021880006EB4603B0FBF3F30133C3F30B0343F44D
:102198000043A3E7451E06EB860C0CEB8C0CB5FB45
:1021A800FCF50135C5F30B05B5FA85F56D09E4E7CE
:1021B800013806EB860303EB8303B0FBF3F301332B
:1021C800C3F30B0343F4404388E7042386E7012362
:1021D80084E7012070470120ACE700BFA08601001A
:1021E8007F841E0083DE1B43FF083D00D34D621031
:1021F800A8B110B50446242380F83D30026813685E
:1022080023F001031360FEF7CBFA0020206484F862
:102218003D00206384F83E0084F83C0010BD012096
:10222800704700002DE9F04385B004460F469146FB
:1022380098460C9EFFF7D6FA054694F83D00C0B2C2
:10224800202804D00227384605B0BDE8F083009561
:10225800192301224F492046FFF73FFD002840F08F
:10226800928094F83C30012B00F08F80012384F891
:102278003C3023681A6812F0010F03D11A6842F043
:1022880001021A602268136823F400631360212393
:1022980084F83D30102384F83E3000232364C4F8CA
:1022A8002490A4F82A80638D23853B4BE3622B4658
:1022B800324639462046FFF7A3FD0746002866D177
:1022C8000023039323685A6903929B690393039B32
:1022D80011E0236C042B01D00127B4E722681368AE
:1022E80043F400731360F7E72A4631462046FFF7A8
:1022F80077FE00282ED1238D002B36D02A46314672
:102308002046FFF7D7FD0028E3D1626A23681278D8
:102318001A61606A431C6362618D89B2013989B2AE
:102328006185238D013B9BB223852268516911F099
:10233800040FD9D0002BD7D043781361636A0133D7
:102348006362638D9BB2013B9BB26385238D013B26
:102358002385C9E7236C042B01D0012773E7226882
:10236800136843F400731360F7E72268136843F4B3
:1023780000731360202384F83D30002384F83E3036
:1023880084F83C305FE702275DE702275BE7012717
:1023980059E700BF020010000000FFFF2DE9F043DD
:1023A80083B004460F46904699460C9EFFF71AFAEA
:1023B800054694F83D00C0B2202803D0022003B09F
:1023C800BDE8F0830095192301224B492046FFF709
:1023D80084FC002840F0898094F83C30012B00F000
:1023E8008680012384F83C3023681A6812F0010FB4
:1023F80003D11A6842F001021A602268136823F4B4
:1024080000631360212384F83D30402384F83E3074
:10241800002323640A9B6362BDF82C306385638DB7
:102428002385364BE362019500964B464246394672
:102438002046FFF769FD00285BD1238D002B35D09E
:102448002A4631462046FFF735FD20BB626A2368DD
:1024580012781A61626A531C6362218D013989B24C
:102468002185638D9BB2013B9BB2638523685869C4
:1024780010F0040FE1D00029DFD052781A61636AA6
:1024880001336362238D013B2385638D9BB2013B3E
:102498009BB26385D1E7236C042B01D001208EE722
:1024A8002268136843F400731360F7E72A4631463D
:1024B8002046FFF795FD50B1236C042B01D0012075
:1024C8007DE72268136843F400731360F7E7226816
:1024D800136843F400731360202384F83D3000230D
:1024E80084F83E3084F83C3069E7022067E7022030
:1024F80065E7012063E700BF020010000000FFFF4E
:10250800002800F0E08170B582B00446036813F03B
:10251800010F3BD09F4B9B6803F00C03042B2CD07E
:102528009C4B9B6803F00C03082B21D06368B3F520
:10253800803F4FD0B3F5A02F52D0964B1A6822F4A3
:1025480080321A601A6822F480221A606368002BAD
:1025580050D0FFF747F905468E4B1B6813F4003F30
:1025680014D1FFF73FF9401B6428F5D90320B1E1E6
:10257800884B5B6813F4800FD8D0864B1B6813F424
:10258800003F03D06368002B00F09F81236813F09D
:10259800020F54D07F4B9B6813F00C0F3ED07D4B3D
:1025A8009B6803F00C03082B33D0E368002B68D03A
:1025B800794B01221A60FFF715F90546754B1B6820
:1025C80013F0020F54D1FFF70DF9401B0228F5D97B
:1025D80003207FE16F4A136843F480331360B5E743
:1025E8006C4B1A6842F480221A601A6842F48032EE
:1025F8001A60ABE7FFF7F6F80546664B1B6813F45D
:10260800003FC3D0FFF7EEF8401B6428F5D903203C
:1026180060E1604B5B6813F4800FC6D15D4B1B68AB
:1026280013F0020F03D0E368012B40F05081594AA0
:10263800136823F0F803216943EAC1031360236890
:1026480013F0080F42D063696BB3534B0122C3F8F0
:10265800802EFFF7C7F805464E4B5B6F13F0020F4D
:1026680034D1FFF7BFF8401B0228F5D9032031E128
:10267800484A136823F0F803216943EAC103136049
:10268800DDE7454B00221A60FFF7ACF80546414BE1
:102698001B6813F0020FD2D0FFF7A4F8401B0228E2
:1026A800F5D9032016E13C4B0022C3F8802EFFF732
:1026B80099F80546374B5B6F13F0020F06D0FFF70A
:1026C80091F8401B0228F5D9032003E1236813F091
:1026D800040F77D02F4B1B6C13F0805F33D100238E
:1026E80001932C4B1A6C42F080521A641B6C03F055
:1026F80080530193019B0125284B1B6813F4807FAD
:1027080023D0A368012B34D0052B38D0214B1A6F66
:1027180022F001021A671A6F22F004021A67A368EE
:10272800002B3DD0FFF75EF806461A4B1B6F13F0DF
:10273800020F46D1FFF756F8801B41F288339842C2
:10274800F3D90320C6E00025D6E7144A136843F4FA
:1027580080731360FFF746F80646104B1B6813F4A6
:10276800807FCED1FFF73EF8801B0228F5D90320E1
:10277800B0E0084A136F43F001031367CFE7054B36
:102788001A6F42F004021A671A6F42F001021A67C0
:10279800C5E700BF00380240000047420070004013
:1027A800FFF720F80646524B1B6F13F0020F08D0B4
:1027B800FFF718F8801B41F288339842F3D90320B9
:1027C80088E0EDB9A369002B00F08380484A92683D
:1027D80002F00C02082A51D0022B17D0454B0022D8
:1027E8001A66FEF7FFFF0446414B1B6813F0007F93
:1027F80042D0FEF7F7FF001B0228F5D9032069E055
:102808003B4A136C23F080531364DBE7394B0022F7
:102818001A66FEF7E7FF0546354B1B6813F0007F85
:1028280006D0FEF7DFFF401B0228F5D9032051E050
:10283800E369226A1343626A43EA8213A26A52086E
:10284800013A43EA0243E26A43EA0263284A5360D0
:10285800284B01221A66FEF7C5FF0446244B1B6865
:1028680013F0007F06D1FEF7BDFF001B0228F5D943
:1028780003202FE000202DE000202BE0012B2BD09F
:102888001B4B5B6803F48001E269914226D103F097
:102898003F02216A8A4223D1616A47F6C0721A4010
:1028A800B2EB811F1ED103F44031A26A5208013AEB
:1028B800B1EB024F18D103F07063E26AB3EB026F19
:1028C80014D1002006E001207047012002E0012019
:1028D80000E0002002B070BD0120FBE70120F9E70D
:1028E8000120F7E70120F5E70120F3E70120F1E7F0
:1028F800003802400000474208B5254B9B6803F0AA
:102908000C03042B3FD0082B3FD1214B5A6802F00F
:102918003F025B6813F4800F12D01D4B5968C1F356
:1029280088111C480023A1FB0001FDF751FC184B3E
:102938005B68C3F3014301335B00B0FBF3F025E0B0
:10294800134B5968C1F3881C4FEA4C11B1EB0C00CA
:102958006EEB0E0E4FEA8E1343EA90638101091A5B
:1029680063EB0E03DB0043EA5173C90011EB0C0C57
:1029780043F10003990200234FEA8C2041EA9C515D
:10298800FDF726FCD3E7034800E0034808BD00BF75
:102998000038024040787D010024F400002800F04F
:1029A8009B8070B50D4604464F4B1B6803F0070328
:1029B8008B4208D2CBB24C4A1370136803F007035A
:1029C8008B4240F08B80236813F0020F17D013F06E
:1029D800040F04D0454A936843F4E0539360236896
:1029E80013F0080F04D0414A936843F4604393609E
:1029F8003E4A936823F0F003A1680B439360236871
:102A080013F0010F32D06368012B21D09A1E012ADE
:102A180025D9364A126812F0020F61D033498A6804
:102A280022F0030213438B60FEF7DCFE06462F4BB1
:102A38009B6803F00C036268B3EB820F16D0FEF7B5
:102A4800D1FE801B41F288339842F0D9032042E03E
:102A5800264A126812F4003FE0D101203BE0234AE5
:102A6800126812F0007FD9D1012034E01E4B1B6898
:102A780003F00703AB4207D9EAB21B4B1A701B6875
:102A880003F00703AB422DD1236813F0040F06D0DF
:102A9800164A936823F4E053E1680B439360236874
:102AA80013F0080F07D0114A936823F46043216993
:102AB80043EAC1039360FFF71FFF0C4B9B68C3F306
:102AC80003130B4AD35CD8400A4B18600A4B1868AA
:102AD800FEF73CFE002070BD012070470120FAE798
:102AE8000120F8E70120F6E7003C024000380240E8
:102AF8008C5600080000002008000020014B1868D0
:102B0800704700BF0000002008B5FFF7F7FF044B2F
:102B18009B68C3F38223034AD35CD84008BD00BF37
:102B2800003802409C56000808B5FFF7E7FF044B41
:102B38009B68C3F34233034AD35CD84008BD00BF47
:102B4800003802409C56000870B4036A23F0010361
:102B58000362036A4668826922F073020C6844EAD9
:102B6800020523F002028B6813430D4CA04209D0E2
:102B78000B4CA0420DD0466085614A6842630362EF
:102B880070BC704723F00803CA68134323F004039A
:102B9800EEE726F440764A6932438E691643EAE73F
:102BA8000000014030B4036A23F480730362036AAF
:102BB8004568C26922F073020C68224323F400734B
:102BC8008C6843EA04230F4CA04209D00D4CA04264
:102BD8000ED04560C2614A68C263036230BC704768
:102BE80023F40063CC6843EA042323F48063EDE70D
:102BF80025F440554C6945EA04158C6945EA0415E5
:102C0800E7E700BF0000014030B4036A23F48053B3
:102C18000362036A4468C26922F4E6420D6842EA24
:102C2800052223F400538D6843EA0533074DA84273
:102C380006D04460C2614A680264036230BC7047CF
:102C480024F480444D6944EA8514F2E70000014009
:102C580010B4036A046A24F001040462846924F04D
:102C6800F00C4CEA021223F00A030B438261036260
:102C780010BC704730B4046A24F0100404628469FC
:102C8800056A24F4407C4CEA022C2CF4704C1B039B
:102C98009BB243EA0C0325F0A005090101F0A0014D
:102CA80029438361016230BC704710B4046A24F080
:102CB800100404628469036A24F4704C4CEA0232FA
:102CC80023F0A00343EA01138261036210BC70473A
:102CD80030B4046A24F480740462C469056A24F078
:102CE800030C4CEA020C2CF0F00C1B01DBB243EA9B
:102CF8000C0325F42065090201F420612943C3610E
:102D0800016230BC704730B4046A24F48054046211
:102D1800C469056A24F4407C4CEA022C2CF4704CFB
:102D28001B039BB243EA0C0325F42045090301F475
:102D380020412943C361016230BC7047836823F096
:102D480070030B4343F007038360704790F83D30EE
:102D5800DBB2012B2FD1022380F83D300268D36803
:102D680043F00103D3600368154A934218D0B3F1C6
:102D7800804F15D0A2F57C42934211D002F58062B3
:102D880093420DD002F58062934209D002F59A323F
:102D9800934205D01A6842F001021A600020704779
:102DA8009A6802F00702062A07D01A6842F0010260
:102DB8001A6000207047012070470020704700BF4C
:102DC800000001400268D36823F00103D360036860
:102DD800196A41F21112114208D1196A40F24442AB
:102DE800114203D11A6822F001021A60012380F807
:102DF8003D300020704770477047704770477047F4
:102E080010B5044603681A6912F0020F11D0DA6887
:102E180012F0020F0DD06FF002021A61012303773E
:102E280003689B6913F0030F70D0FDF7E5FC0023DE
:102E3800237723681A6912F0040F12D0DA6812F0A7
:102E4800040F0ED06FF004021A610223237723685F
:102E58009B6913F4407F5FD02046FDF7CDFC00232B
:102E6800237723681A6912F0080F12D0DA6812F073
:102E7800080F0ED06FF008021A6104232377236825
:102E8800DB6913F0030F4ED02046FDF7B5FC002395
:102E9800237723681A6912F0100F12D0DA6812F03B
:102EA800100F0ED06FF010021A61082323772368E1
:102EB800DB6913F4407F3DD02046FDF79DFC0023DD
:102EC800237723681A6912F0010F03D0DA6812F029
:102ED800010F36D123681A6912F0800F03D0DA681F
:102EE80012F0800F34D123681A6912F0400F03D012
:102EF800DA6812F0400F32D123681A6912F0200FF5
:102F080003D0DA6812F0200F30D110BDFFF775FF3B
:102F18002046FFF773FF8AE72046FFF76EFF20463B
:102F2800FFF76CFF9BE72046FFF767FF2046FFF798
:102F380065FFACE72046FFF760FF2046FFF75EFF1E
:102F4800BDE76FF001021A612046FDF77DFCC1E77D
:102F58006FF080021A61204600F012FDC3E76FF09F
:102F680040021A612046FFF74AFFC5E76FF02002CA
:102F78001A61204600F003FDC7E700000368254AF0
:102F880090420ED0B0F1804F0BD0A2F57C42904217
:102F980007D002F58062904203D002F58062904229
:102FA80003D123F070034A6813431A4A90421AD097
:102FB800B0F1804F17D0A2F57C42904213D002F5B1
:102FC800806290420FD002F5806290420BD002F5E9
:102FD8009A32904207D002F58062904203D002F5FF
:102FE8008062904203D123F44073CA68134323F0EC
:102FF80080034A69134303608B68C3620B6883626A
:10300800044B984202D00123436170470B69036364
:10301800F9E700BF0000014040B310B5044690F83E
:103028003D30F3B1022384F83D30214651F8040BBA
:10303800FFF7A4FF012384F8463084F83E3084F873
:103048003F3084F8403084F8413084F8423084F8C6
:10305800433084F8443084F8453084F83D3000200B
:1030680010BD80F83C30FEF70DF9DBE70120704712
:1030780040B310B5044690F83D30F3B1022384F80C
:103088003D30214651F8040BFFF778FF012384F8FF
:10309800463084F83E3084F83F3084F8403084F875
:1030A800413084F8423084F8433084F8443084F85E
:1030B800453084F83D30002010BD80F83C30FFF7E3
:1030C8009AFEDBE70120704740B310B5044690F83C
:1030D8003D30F3B1022384F83D30214651F8040B0A
:1030E800FFF74CFF012384F8463084F83E3084F81B
:1030F8003F3084F8403084F8413084F8423084F816
:10310800433084F8443084F8453084F83D3000205A
:1031180010BD80F83C30FFF76FFEDBE701207047F9
:1031280030B4036A23F010030362036A44688269B7
:1031380022F4E6420D6842EA052223F020038D6856
:1031480043EA05130E4DA84209D00D4DA8420ED0F2
:10315800446082614A688263036230BC704723F02E
:103168008003CD6843EA051323F04003EDE724F418
:1031780040644D6944EA85048D6944EA8504E7E7BB
:103188000000014038B590F83C30012B66D0044669
:103198000D46012380F83C300C2A5AD8DFE802F0AB
:1031A800075959591B5959593059595944000068F8
:1031B800FFF7CAFC2268936943F008039361226809
:1031C800936923F0040393612268936929690B4387
:1031D800936100203EE00068FFF7A2FF2268936930
:1031E80043F4006393612268936923F480639361D5
:1031F80022689369296943EA01239361002029E041
:103208000068FFF7CFFC2268D36943F00803D36155
:103218002268D36923F00403D3612268D36929693A
:103228000B43D361002015E00068FFF7EDFC22682E
:10323800D36943F40063D3612268D36923F48063BC
:10324800D3612268D369296943EA0123D361002045
:1032580000E00120002384F83C3038BD0220FCE760
:1032680070B4046A24F0010404628469066A154D86
:10327800A84215D0B0F1804F12D0A5F57C45A842E0
:103288000ED005F58065A8420AD005F58065A842EC
:1032980006D005F59A35A84202D044F0010202E0B2
:1032A80024F00304224322F0F0021B01DBB2134393
:1032B80026F00A0201F00A0111438361016270BC21
:1032C800704700BF0000014038B590F83C30012B32
:1032D8005AD004460D46012380F83C3052B1042AE6
:1032E8001AD0082A2BD00C2A3BD00120002384F8BE
:1032F8003C3038BDCB684A6809680068FFF7B0FF02
:103308002268936923F00C03936122689369A96882
:103318000B4393610020E9E7CB684A6809680068B5
:10332800FFF7A8FC2268936923F44063936122683D
:103338009369A96843EA012393610020D6E7CB6823
:103348004A6809680068FFF7C3FC2268D36923F05C
:103358000C03D3612268D369A9680B43D3610020A9
:10336800C4E7CB684A6809680068FFF7CCFC2268A4
:10337800D36923F44063D3612268D369A96843EA17
:103388000123D3610020B1E70220B2E710B48468BA
:1033980024F47F4C42EA03220A4342EA0C02826088
:1033A80010BC704790F83C30012B78D010B504461B
:1033B800012380F83C30022380F83D30026893688E
:1033C80023F47F4323F0770393600B68602B4CD082
:1033D80029D8402B54D00CD9502B22D1CA6849681F
:1033E8000068FFF735FC50212068FFF7A7FC002094
:1033F80005E0202B0DD009D9302B0AD0012001235C
:1034080084F83D30002384F83C3010BD0BB1102BFC
:1034180005D119462068FFF791FC0020EFE701204D
:10342800EDE70120EBE7B3F5805F34D0B3F5005F3B
:103438000CD1CB684A6889680068FFF7A7FF226843
:10344800936843F4804393600020D8E7702B24D11D
:10345800CB684A6889680068FFF798FF2268936814
:1034680043F0770393600020C9E7CA684968006899
:10347800FFF71BFC60212068FFF760FC0020BEE717
:10348800CA6849680068FFF7E3FB40212068FFF736
:1034980055FC0020B3E70020B1E70120AFE7022088
:1034A800704701F01F01012303FA01FC036A23EAB4
:1034B8000C030362036A02FA01F10B4303627047CB
:1034C80010B504460846002932D194F83E30DBB2E4
:1034D800013B18BF0123002B63D1002841D10223EF
:1034E80084F83E30012201462068FFF7DAFF23689E
:1034F8002E4A934245D023682C4A934246D0B3F1D2
:10350800804F43D0A2F57C4293423FD002F58062BF
:1035180093423BD002F58062934237D002F59A324B
:10352800934233D01A6842F001021A60002037E053
:10353800042908D008290DD094F84130DBB2013BAA
:1035480018BF0123C7E794F83F30DBB2013B18BF2F
:103558000123C0E794F84030DBB2013B18BF0123D8
:10356800B9E7042805D0082807D0022384F8413099
:10357800B8E7022384F83F30B4E7022384F84030E8
:10358800B0E75A6C42F400425A64B4E79A6802F011
:103598000702062A07D01A6842F001021A600020C2
:1035A80010BD0120FCE70020FAE700BF0000014041
:1035B80010B504460B46002937D190F83E00C0B23A
:1035C800002B42D194F84220D2B2012878D1012AA6
:1035D80077D1002B49D1022284F83E20002B54D108
:1035E800022284F84220012219462068FFF759FF79
:1035F8002368354A934258D0B3F1804F55D0A2F58D
:103608007C42934251D002F5806293424DD002F53C
:103618008062934249D002F59A32934245D01A68A3
:1036280042F001021A6000204BE0042905D0082965
:1036380007D090F84100C0B2C2E790F83F00C0B28E
:10364800BEE790F84000C0B2BAE7042B05D0082BBB
:1036580007D094F84520D2B2B7E794F84320D2B205
:10366800B3E794F84420D2B2AFE7042B05D0082B77
:1036780007D0022284F84120B0E7022284F83F20D4
:10368800ACE7022284F84020A8E7042B05D0082BD9
:1036980007D0022284F84520A5E7022284F84320B7
:1036A800A1E7022284F844209DE79A6802F0070205
:1036B800062A07D01A6842F001021A60002000E0CA
:1036C800012010BD0020FCE70000014038B5044689
:1036D8000D4600220068FFF7E4FE2368196A41F2EC
:1036E8001112114208D1196A40F24442114203D121
:1036F8001A6822F001021A6045B9012384F83E30A5
:10370800A5B9012384F84230002038BD042D05D026
:10371800082D07D0012384F84130F1E7012384F80C
:103728003F30EDE7012384F84030E9E7042D05D068
:10373800082D07D0012384F84530E5E7012384F8F4
:103748004330E1E7012384F84430DDE710B504464F
:103758000B4609BB90F83E00C0B26BBB94F8422000
:10376800D2B2012840F09C80012A40F09A809BBB8D
:10377800022184F83E10002B3ED1022184F8421029
:103788000C2B00F28F80DFE803F0478D8D8D6E8D56
:103798008D8D748D8D8D7A00042905D0082907D068
:1037A80090F84100C0B2D8E790F83F00C0B2D4E723
:1037B80090F84000C0B2D0E7042B05D0082B07D002
:1037C80094F84520D2B2CCE794F84320D2B2C8E7A7
:1037D80094F84420D2B2C4E7042B05D0082B07D0B4
:1037E800022184F84110C6E7022184F83F10C2E79D
:1037F800022184F84010BEE7042B05D0082B07D01F
:10380800022184F84510BBE7022184F84310B7E78A
:10381800022184F84410B3E72168CA6842F0020222
:10382800CA60012219462068FFF73BFE23681F4A39
:1038380093422AD0B3F1804F27D0A2F57C4293421D
:1038480023D002F5806293421FD002F58062934232
:103858001BD002F59A32934217D01A6842F001023F
:103868001A6000201DE02168CA6842F00402CA609C
:10387800D7E72168CA6842F00802CA60D1E7216820
:10388800CA6842F01002CA60CBE79A6802F00702E1
:10389800062A09D01A6842F001021A60002000E0E6
:1038A800012010BD1046FCE70020FAE700000140A7
:1038B80090F83C30012B34D010B4012380F83C3010
:1038C800022380F83D3003685A689C6822F0700C27
:1038D8000A6842EA0C025A600368134A934212D0FB
:1038E800B3F1804F0FD0A2F57C4293420BD002F582
:1038F8008062934207D002F58062934203D002F5BA
:103908009A32934204D124F080044A6814439C609C
:10391800012380F83D30002380F83C30184610BC65
:1039280070470220704700BF0000014090F83C300B
:10393800012B22D0012380F83C30CB6823F440735C
:103948008A68134323F480634A68134323F40063AB
:103958000A68134323F480530A69134323F400537A
:103968004A69134323F48043CA69134302685364C2
:10397800002380F83C301846704702207047704793
:103988007047026802F10C0353E8003F23F4907378
:103998000C3242E800310029F3D1026802F1140325
:1039A80053E8003F23F00103143242E800310029B4
:1039B800F3D1036B012B05D0202380F83E30002380
:1039C80003637047026802F10C0353E8003F23F0D9
:1039D80010030C3242E800310029F3D1ECE790F8EB
:1039E8003D30DBB2212B01D0022070478368B3F54C
:1039F800805F17D0036A5A1C02621A7803685A60FB
:103A0800C38C9BB2013B9BB2C3844BB90268D36899
:103A180023F08003D3600268D36843F04003D36087
:103A2800002070470369002BE4D1036A1B880268F1
:103A3800C3F308035360036A02330362E0E700003C
:103A480038B504460268136923F44053C1680B4330
:103A5800136183680269134342691343C2691A43B5
:103A68000168CB6823F4164323F00C031343CB609F
:103A78000268536923F4407381690B4353610368F7
:103A8800314A934206D002F58062934202D0FFF792
:103A98003BF801E0FFF748F8E369B3F5004F29D098
:103AA8000021031849411B1841F10001C90041EAEE
:103AB8005371DB00181863684FEA83024FEA937367
:103AC80041F10001FCF784FB204DA5FB00325109B0
:103AD800642303FB11031B013233A5FB03235B099A
:103AE80003F0F00202EB011203F00F032168134404
:103AF8008B6038BD0023021843EB0301121841F113
:103B08000001C90041EA5271D200101841F10001C8
:103B1800626892185B41FCF75BFB0C4DA5FB003219
:103B28005109642303FB1103DB003233A5FB032394
:103B38005B095A0002F4F87202EB011203F0070362
:103B4800216813448B60D4E7001001401F85EB51B6
:103B58002DE9F84305460F4616469946DDF82080BC
:103B68002C68246837EA04030CBF4FF0010C4FF0AF
:103B7800000CB4452DD1B8F1FF3FF1D0B8F1000FDA
:103B880005D0FDF72FFEA0EB09004045E8D92A68CB
:103B980002F10C0353E8003F23F4D0730C3242E8DF
:103BA80000310029F3D12A6802F1140353E8003FD9
:103BB80023F00103143242E800310029F3D1202315
:103BC80085F83D3085F83E30002385F83C300320E9
:103BD80000E00020BDE8F88358B310B5044690F81B
:103BE8003D300BB3242384F83D302268D36823F496
:103BF8000053D3602046FFF723FF2268136923F49C
:103C0800904313612268536923F02A0353612268A1
:103C1800D36843F40053D36000202064202384F841
:103C28003D3084F83E3010BD80F83C30FDF726FD6D
:103C3800D8E7012070472DE9F04182B01E4690F880
:103C48003D30DBB2202B54D104460D469046002966
:103C580053D0002A53D090F83C30012B51D0012387
:103C680080F83C3000230364212380F83D30FDF7C1
:103C7800B9FD0746A4F82480A4F82680A368B3F504
:103C8800805F05D04FF00008002384F83C3012E034
:103C9800236913B14FF00008F6E7A8460025F3E7BB
:103CA80038F8023B2268C3F308035360E28C92B2EF
:103CB800013A92B2E284E38C9BB273B100963B4620
:103CC800002280212046FFF743FFE0B9002DE7D00E
:103CD80015F8012B23685A60E8E700963B46002256
:103CE80040212046FFF734FF78B9202384F83D307F
:103CF80000E0022002B0BDE8F0810120FAE70120CF
:103D0800F8E70220F6E70320F4E70320F2E72DE9BD
:103D1800F04182B01E4690F83E30DBB2202B5CD1D9
:103D280004460D46904600295BD0002A5BD090F8E7
:103D38003C30012B59D0012380F83C300023036428
:103D4800222280F83E200363FDF74CFD0746A4F8C5
:103D58002C80A4F82E80A368B3F5805F05D04FF0BF
:103D68000008002384F83C3017E0236913B14FF0B2
:103D78000008F6E7A8460025F3E723685B68C3F365
:103D8800080328F8023B03E023685B682B700135C1
:103D9800E28D92B2013A92B2E285E38D9BB2BBB159
:103DA80000963B46002220212046FFF7D1FEF0B9BD
:103DB800002DE2D0A368B3F5805FE5D013B923697D
:103DC800002BE1D023685B6803F07F032B70DEE7EC
:103DD800202384F83E30002000E0022002B0BDE835
:103DE800F0810120FAE70120F8E70220F6E7032036
:103DF800F4E7704708B50168CA6822F04002CA6053
:103E0800202280F83D20FFF7F4FF002008BD70470E
:103E180008B5806B0023C385C384FFF7F8FF08BD8E
:103E2800704790F83E30DBB2222B67D18368B3F538
:103E3800805F4DD0826AB3F5805F04D0002B54D1E7
:103E48000369002B51D103685B681370836A0133DF
:103E58008362C38D9BB2013B9BB2C385002B4FD1BC
:103E680000B583B00268D36823F02003D3600268EA
:103E7800D36823F48073D3600268536923F0010385
:103E88005361202380F83E30036B012B33D100238C
:103E98000363026802F10C0353E8003F23F01003A8
:103EA8000C3242E800310029F3D103681A6812F095
:103EB800100F06D0002201921A6801925B680193E4
:103EC800019B818DFFF7ACFF002003B05DF804FB78
:103ED8000269002AAED1826A03685B68C3F30803EB
:103EE8001380836A02338362B3E703685B6803F075
:103EF8007F031370AAE7FCF76FFCE5E70220704721
:103F08000020704730B583B0044602681368D06853
:103F1800516913F00F0505D113F0200F02D010F0EE
:103F2800200F19D12DB111F0010119D110F4907F92
:103F380016D1216B01297DD013F0800F03D010F02A
:103F4800800F40F0158113F0400F03D010F0400FA0
:103F580040F0128103B030BD2046FFF762FFF9E759
:103F680013F0010F06D010F4807F03D0226C42F0CA
:103F78000102226413F0040F04D019B1226C42F03C
:103F88000202226413F0020F04D019B1226C42F02D
:103F98000402226413F0080F07D010F0200F00D19C
:103FA80019B1226C42F008022264226C002AD1D096
:103FB80013F0200F02D010F0200F29D123685B697D
:103FC80003F04003226C12F0080F00D163B32046BF
:103FD800FFF7D7FC23685B6913F0400F20D02268F5
:103FE80002F1140353E8003F23F04003143242E87F
:103FF80000310029F3D1A36B73B1614A1A65A06B34
:10400800FDF7C0FC0028A5D0A06B036D9847A1E779
:104018002046FFF706FFD1E72046FFF7F8FE99E7AD
:104028002046FFF7F4FE95E72046FFF7F0FE002351
:1040380023648FE713F0100F3FF47EAF10F0100FDA
:104048003FF47AAF002301931368019353680193F7
:10405800019B536913F0400F50D0A26B13685B6843
:104068009BB2002B3FF476AFA18D99427FF672AFD9
:10407800E385D369B3F5807F37D0226802F10C035A
:1040880053E8003F23F480730C3242E800310029E2
:10409800F3D1226802F1140353E8003F23F001032F
:1040A800143242E800310029F3D1226802F11403E6
:1040B80053E8003F23F04003143242E8003100295E
:1040C800F3D1202384F83E3000232363226802F1D1
:1040D8000C0353E8003F23F010030C3242E8003190
:1040E8000029F3D1A06BFDF703FCA18DE38D9BB2F2
:1040F800C91A89B22046FFF793FE2BE7A18DE38DFD
:104108009BB2C91A89B2E38D9BB2002B3FF422AF50
:1041180000293FF41FAF226802F10C0353E8003F67
:1041280023F490730C3242E800300028F3D122685F
:1041380002F1140353E8003F23F00103143242E86C
:1041480000300028F3D1202384F83E300023236375
:10415800226802F10C0353E8003F23F010030C32ED
:1041680042E800300028F3D12046FFF759FEF1E677
:104178002046FFF734FCEDE62046FFF73BFEE9E674
:10418800193E000881628285C285002303642222C9
:1041980080F83E2080F83C30036923B10268D36878
:1041A80043F48073D3600268536943F00103536199
:1041B8000268D36843F02003D3600020704708B535
:1041C80090F83E30DBB2202B0DD171B17AB190F866
:1041D8003C30012B0DD0012380F83C3000230363D1
:1041E800FFF7D0FF00E0022008BD0120FCE7012016
:1041F800FAE70220F8E70000014B1868704700BF93
:104208000C00002070B50D4E0D4D761BB61006D073
:10421800002455F8043B01349847A642F9D1094EC9
:10422800094D761B01F022FAB61006D0002455F885
:10423800043B01349847A642F9D170BDB056000836
:10424800B0560008B8560008B0560008830730B5C5
:1042580048D0541E002A3FD0CAB2034601E0013CB0
:104268003AD303F8012B9D07F9D1032C2DD9CDB2F0
:1042780045EA05250F2C45EA054536D9A4F1100273
:1042880022F00F0C03F1200EE6444FEA121C03F152
:10429800100242E9045542E9025510327245F8D13C
:1042A8000CF1010214F00C0F03EB021204F00F0CD6
:1042B80013D0ACF1040323F003030433134442F88E
:1042C800045B9342FBD10CF003042CB1CAB21C442A
:1042D80003F8012B9C42FBD130BD64461346002CE9
:1042E800F4D1F9E703461446BFE71A46A446E0E7C7
:1042F800024B01461868826800F0A6BF0C00002037
:104308002DE9F043694CD4F8008083B004460E468A
:1043180017461D46B8F1000F03D0D8F83830002BE7
:1043280077D0022F05D0012F00F2AC80002DC0F20B
:10433800A980636EDA0752D52146404600F0C2F9DB
:10434800216B41B104F14003994202D0404600F08C
:10435800E5FA00232363B4F90CC000231CF0800F96
:10436800A361636064D12CF44A6C2CF0030C022F17
:10437800A4F80CC06AD001AB6A462146404600F05A
:104388006FFCA3891843A081002D2FD0002E2ED0BA
:10439800D8F83830002B38D0009B2660AB42B4F9EF
:1043A8000C301CBF43F40063A381012F04BF43F00A
:1043B8000103A3819AB213F00803C4E904652CD061
:1043C800D1075DD56D42A561656E002315F0010525
:1043D800A36027D00025284603B0BDE8F083A38951
:1043E8009B05A9D4A06D00F0C7FBA5E7009D284652
:1043F80000F066FC0646002847D0A38943F08003F6
:10440800A381D8F83830002BC6D1404600F08EF989
:10441800C2E7404600F08AF983E7A360656E15F0AD
:104428000105D7D1930524D5284603B0BDE8F0830C
:104438002169404600F072FAB4F90CC02CF44A6CB9
:104448002CF0030C022FA4F80CC094D100250022F4
:1044580004F14303A2600122C4E904322360636EBD
:104468004CF0020CD807A4F80CC0DDD41CF4007F73
:10447800DAD1A06D00F082FB284603B0BDE8F083D6
:10448800A560CBE74FF0FF35CEE7DDF80090A945F2
:1044980004D0484600F014FC064620B9B4F90CC014
:1044A8004FF0FF35D3E74D46A7E700BF0C000020CB
:1044B80038B5334B1B6805460C460BB19A6B12B3E3
:1044C800B4F90C3018079AB225D5216900292DD0E6
:1044D80012F0010007D00020A06060694042A0618E
:1044E80039B1002038BD950758BF6069A060002920
:1044F800F7D1120658BF0846F4D543F04003A3810C
:104508004FF0FF3038BD184600F010F9B4F90C3000
:1045180018079AB2D9D4D1062AD5520714D42169DA
:1045280043F00803A3819AB20029D1D102F4207084
:10453800B0F5007FCCD02146284600F021FBB4F925
:104548000C3021699AB2C3E7216B51B104F14002E2
:10455800914204D0284600F0E1F9B4F90C30002269
:10456800226321690022C4E9001223F02403D7E75B
:10457800092243F040032A604FF0FF30A38138BD81
:104588000C000020024B13B1024800F005B8704738
:104598000000000059480008002301461A46184642
:1045A80000F052BFB1F90C20F8B50C4611070746C8
:1045B80042D4636842F40062002BA28159DDA56AE7
:1045C800002D54D000233E683B6093B212F4805211
:1045D80053D1E16901233846A847421C63D0A38917
:1045E800A56A5B0705D56368C01A236B0BB1E36B3B
:1045F800C01AE169024600233846A847411C3ED14B
:104608003B68002B3BD01D2B01D0162B52D1A38920
:104618002269226023F4006300216160A381216B79
:104628003E6021B304F14003994202D0384600F0BD
:1046380075F900202063F8BD2669C6B193B22568D4
:1046480026609A070CBF63690023AD1BA3600CE0CA
:10465800D4F824C0E1692B4632463846E047B0F129
:10466800000CA5EB0C05664416DD002DF0DC0020DF
:10467800F8BDE36B002BA2DCF9E7206DB1E7B4F9D4
:104688000C302269226023F40063A3810022DB043A
:104698006260C4D52065C2E7A38943F040034FF0A8
:1046A800FF30A381F8BD3B68002B98D01D2B06D0A6
:1046B800162B04D0A38943F04003A381F8BD3E60C4
:1046C800D5E700BF38B50C46054608B1836BA3B1E2
:1046D800B4F90C00B8B1636EDB0701D4810515D5B8
:1046E80028462146FFF75EFF636EDA07054602D4C7
:1046F800A3899B050ED5284638BD00F017F8B4F9F4
:104708000C000028E7D10546284638BDA06D00F00A
:1047180033FAE5E7A06D00F031FA284638BD00BF4E
:10472800014900F001BA00BF015500082DE9F04722
:104738008246394800F020FADAF83840002C66D171
:10474800DAF80450354ACAF83C200323CAE9B843CA
:10475800DFF8CC90DFF8CC80334F344E04230AF5D1
:104768003B72CAF8E8222146C5E90243C5E900447C
:10477800C5E904446C660822AC6105F15C00FFF7EA
:1047880065FDC5E90759C5E90987EE6205F15800D5
:1047980000F0EEF9DAF80850254BEB602146C5E940
:1047A8000044C5E904446C66AC60AC61082205F1BC
:1047B8005C00FFF74BFDC5E90759C5E90987EE62BB
:1047C80005F1580000F0D4F9DAF80C50194BEB60F9
:1047D8002146C5E90044C5E904446C66AC60AC6197
:1047E800082205F15C00FFF731FD05F15800C5E925
:1047F8000759C5E90A76C5F8248000F0B9F90123FC
:10480800CAF838300448BDE8F04700F0B7B9BDE849
:10481800F047014800F0B2B9EC0E00202947000823
:10482800E95200080D5300084D5300086D53000865
:104838000900010012000200014800F09DB900BF04
:10484800E80E0020014800F099B900BFE80E0020EA
:1048580038B5084B084D5B1B9C1007D0043B1D4422
:10486800013C55F804399847002CF9D1BDE8384087
:1048780000F002BFBC560008B8560008F8B5244F2F
:104888000C46064600F0D4FCBA685568C4F57E6349
:104898000F3325F003052B4423F47F6323F00F0324
:1048A800A3F58054B4F5805F07DB0021304600F0A3
:1048B80005FDBB682B44984204D0304600F0BEFC8E
:1048C8000020F8BD6142304600F0F8FC01300DD000
:1048D800104ABB682D1B45F001055D601368304622
:1048E8001B1B136000F0AAFC0120F8BD0021304614
:1048F80000F0E4FCBA68831A0F2BDEDD43F00103F5
:104908005360054B03491B68C01A0860D5E700BF10
:104918003C040020F00E002044080020002961D04B
:10492800F8B50C46064600F083FC54F8042C7B4F7F
:10493800A4F1080522F0010105EB010CB868DCF8C8
:104948000430604523F0030300F08B80D207CCF8D5
:10495800043032D454F8082CAD1A1144AA6807F16F
:10496800080082426AD00CEB0304D4F804E0EC6837
:10497800D4601EF0010FA26000F0978041F001039F
:104988006B60CCF80010B1F5007F35D27A68CB089F
:1049980048090121013381401143796007EBC302C3
:1049A80057F83310083AC5E9021247F83350CD607A
:1049B8003046BDE8F84000F041BC0CEB03025268F9
:1049C800D00710D4194407F10800DCF808308342F6
:1049D80073D0DCF80C20DA60936041F001036B605F
:1049E8006950D0E7704741F00103B1F5007F44F802
:1049F800043CCCF80010C9D3B1F5206F4FEA51231D
:104A080048D28B0903F1390003F13802C300F818C2
:104A1800FB580838984259D05A6822F003028A4253
:104A280002D99B689842F7D1D868C5E902308560F9
:104A3800DD603046BDE8F84000F000BC0CEB030236
:104A48005268D20763D40B44DCE90212CA60916051
:104A580043F001026A603046EB50BDE8F84000F0D0
:104A6800EDBB0B44D10707D454F8082CAD1A1344F6
:104A7800D5E90212CA60916043F001026A60284ACF
:104A8800BD6012689A4293D8264B30461968FFF7E2
:104A9800F5FE8DE7142B0AD9542B1FD80B0B03F105
:104AA8006F0003F16E02C300B1E719448DE703F10B
:104AB8005C0003F15B02C300A9E741F00103C7E909
:104AC8000455C5E902006B60695071E77968921076
:104AD800012404FA02F20A437A60A6E7B3F5AA7F32
:104AE80006D8CB0B03F1780003F17702C3008EE7F9
:104AF80040F25452934206D88B0C03F17D0003F127
:104B08007C02C30083E74FF47E737E227FE741F087
:104B180001036B60CCF800104AE700BF3C0400209A
:104B280048080020200F00202DE9F8430746884652
:104B380000F538764FF00009D6E90154013D11D44B
:104B4800A389012B05F1FF3508D9B4F90E300133DB
:104B5800214603D03846C04749EA00096B1C04F1D6
:104B68006804EDD13668002EE6D14846BDE8F883E2
:104B7800704700BF704700BF704700BF704700BF55
:104B88002DE9F0418B890C46990796B008D504F1B8
:104B980043030122C4E90432236016B0BDE8F08162
:104BA800B4F90E100029064627DB6A4600F00AFD14
:104BB800002821DB019D05F47045A5F50055B5FADF
:104BC80085F54FF480686D094FF40067414630461B
:104BD80000F07EF8B4F90C30F0B1204AF26343F0EB
:104BE8008003C4F81480A3812060206135BB3B4357
:104BF800A38116B0BDE8F081A38913F0800519D010
:104C08004FF040084146304600F062F80025B4F9FC
:104C18000C302F460028E0D19A05BED423F00303B8
:104C280004F1430243F002030121C4E90421A381F2
:104C38002260B2E74FF480682F46C7E7B4F90E1038
:104C4800304600F0D5FC10B9B4F90C30CFE7A38991
:104C580023F0030343F001031BB2C8E72947000808
:104C680070B50C46B1F90E10002996B015461E46CF
:104C780014DB6A4600F0A6FC00280FDB019A02F458
:104C88007042A2F50052B2FA82F24FF480635209E0
:104C98004FF4006032602B6016B070BDB4F90C1090
:104CA800002311F08000336004D0402218462A60A7
:104CB80016B070BD4FF480632B6016B070BD00BF96
:104CC800024B0146186800F003B800BF0C00002032
:104CD8002DE9F04F01F10B06162E83B0044624D8B7
:104CE800102900F2BA8000F0A3FA10261822022038
:104CF800B54F3A44A2F1080153688B4200F0BA80DC
:104D08005A68D96822F003021A449D68E9608D60E8
:104D1800516841F001012046516003F1080500F097
:104D28008DFA284603B0BDE8F08F36F0070600F18B
:104D38009480B14200F2918000F07AFAB6F5FC7FD7
:104D4800C0F09A81730A00F08F80042B00F26F8103
:104D5800B30903F1390003F1380CC3009A4F3B44FF
:104D6800A3F108055B689D4206D10CE0002980F29A
:104D78002781DB689D4206D05A6822F00302911B06
:104D88000F29F3DD60463D69DFF840C265457CD0F8
:104D98006A6822F00302931B0F2B00F37B81002B20
:104DA800C7E904CC80F26C81B2F5007F80F01A81EB
:104DB800D308796801334FEA521E012202FA0EF233
:104DC8000A4357F833E0C5F808E007EBC301083990
:104DD800E9607A6047F83350CEF80C50831001210F
:104DE8009940914257D8114206D120F0030049005A
:104DF800114200F10400FAD007EBC0094D4686467F
:104E0800D5F80C80454508D11DE1002B80F224819E
:104E1800D8F80C80454500F01681D8F8042022F017
:104E28000302931B0F2BF0DD2046D8E9025408EB50
:104E3800060146F00106C8F80460EC60A56043F07E
:104E48000104C7E90411C1E902CC4C6048F80230FA
:104E580000F0F4F908F1080502E00C2323600025AE
:104E6800284603B0BDE8F08F4FF4007340204FF0A0
:104E78003F0C73E7D3689A4208BF02307FF440AF13
:104E88003D69DFF848C1654582D17A688310012100
:104E980099409142A7D9BD686B6823F003094E4534
:104EA80003D8A9EB06030F2B7ADCDFF824B1494BB2
:104EB800DBF800201B680132334405EB090A00F0D7
:104EC800338103F580530F3323F47F6828F00F08EC
:104ED8004146204600F0F2F9411C024600F0F380FA
:104EE800824500F2EE803C4B19684144196008463F
:104EF80000F04E81DBF80010019301311BBFA2EBDB
:104F08000A0A5044CBF80020186012F0070B00F092
:104F18001781CBF108010A44CBF580519044083140
:104F2800A1EB0801C1F30B0A51462046009200F09C
:104F3800C5F9421CDDE9002300F04F81801A00EB1F
:104F48000A081968BA6048F001005144BD4250602F
:104F5800196000F02981B9F10F0F40F227816868C4
:104F6800A9F10C0C2CF0070C00F0010040EA0C0031
:104F780068604FF0050E05EB0C00BCF10F0FC0E99F
:104F880001EE00F2328150681546144B1A688A42C5
:104F980038BF1960124B1A688A4238BF196094E00A
:104FA800AA1943F0010346F001066E602046BA6074
:104FB800536000F043F90835284603B0BDE8F08F88
:104FC800D9681A44A1E600BF3C040020440400202C
:104FD80044080020200F0020F00E0020180F0020A9
:104FE8001C0F0020B2F5206F4FEA522363D3142B15
:104FF80000F2B78003F15C01C9005B3307EB010ED7
:105008007958AEF1080E8E4500F091804B6823F078
:105018000303934202D989688E45F7D1D1F80CE091
:105028007A68C5E9021ECEF80850CD60D6E6142B82
:1050380059D9542B00F29D80330B03F16F0003F113
:105048006E0CC3008AE60EF1010E1EF0030F05F187
:1050580008057FF4D5AE51E0424445465368D8F878
:105068000C1043F00103536055F8083F2046D960FF
:105078008B6000F0E3F8F3E6F00806F1080237E683
:105088002A442046536843F001035360083500F072
:10509800D5F8E5E6A919204646F0010643F00104D3
:1050A8006E60C7E90411C1E902CC4C60AB5000F056
:1050B800C5F80835D4E6930903F13901C900383336
:1050C8009CE7BD425FD0BD68686820F0030846458C
:1050D800A8EB060302D80F2B3FF762AF204600F07B
:1050E800ADF80025BCE603F15C0003F15B0CC300DE
:1050F80034E659F808394B4540F0968010F0030F14
:1051080000F1FF30F5D17B6823EA01037B60490099
:1051180099423FF6C0AE19B9BDE649000EF1040E3A
:105128001942FAD0704667E603F11008D0E69A10E3
:105138004FF001087B6808FA02F21A437A6070E7B8
:1051480002EB08014942C1F30B0A5146204600927E
:1051580000F0B4F8431CDDE900237FF4EFAEDA4633
:10516800EFE6542B25D8130B03F16F01C9006E33FA
:1051780044E7B3F5AA7F25D8F30B03F1780003F1D0
:10518800770CC300EAE5294B186840441860B1E67B
:10519800CAF30B0CBCF1000F7FF4ACAEBD68C84479
:1051A80048F001006860F0E61546EEE6012353601A
:1051B80094E7B3F5AA7F23D8D30B03F17801C9008C
:1051C80077331BE740F25452934223D8B30C03F1D0
:1051D8007D0003F17C0CC300C0E5ABF1080BD8449B
:1051E800A8EB02084FF0000AABE605F108012046DB
:1051F8000093FFF793FBBD68009B68681968C4E6D5
:1052080040F254518B420BD8930C03F17D01C90035
:105218007C33F3E64FF47E737F204FF07E0C9DE5E0
:105228004FF47E717E23E9E67B6870E7F00E00207C
:105238000148FFF7A1BC00BFE40E00200148FFF7BA
:105248009DBC00BFE40E002070B50E46144605460E
:1052580008B1836BEBB1636ED80702D4A3899905B3
:1052680023D5A368013B002BA3601CDAA2699342F3
:1052780012DBF0B20A280FD023685A1C22600546B8
:105288001E70636EDA0702D4A3899B0511D52846E0
:1052980070BDFFF74BFADEE728462246314600F09C
:1052A80065F80546EDE7F0B2E6E7A06DFFF764FCA8
:1052B800D7E7A06DFFF762FC284670BD38B5074DEB
:1052C8000022044608462A60FBF70CFF431C00D066
:1052D80038BD2B68002BFBD0236038BD240F00207D
:1052E80010B50C46B1F90E1000F0AAF9002803DB3E
:1052F800236D0344236510BDA38923F48053A38140
:1053080010BD00BF2DE9F0410C46B1F90C101F4645
:10531800CB05054616460BD421F48051A1813B46A6
:10532800B4F90E1032462846BDE8F04100F076B8D0
:10533800B4F90E100223002200F06CF9B4F90C1035
:10534800EAE700BF10B50C46B1F90E1000F062F99B
:10535800A389421C0EBF23F4805343F48053206575
:10536800A38110BDB1F90E1000F0B4B8F8B50D4620
:105378001446064610B1836B002B43D0B4F90C20B9
:10538800A369A360170790B21BD52369CBB1EDB20F
:1053980081042F4622D522686169D31A994229DDF2
:1053A8000133A1680139A160511C2160157062693F
:1053B8009A422AD0A389DB0701D50A2D25D0384681
:1053C800F8BD21463046FFF773F820BBB4F90C202E
:1053D800236990B2EDB281042F46DCD442F4005226
:1053E800A281626E616922F4005262662268D31A51
:1053F8009942D5DC21463046FFF764F958B922684E
:105408000123CEE7FFF792F9B8E721463046FFF7C8
:1054180059F90028D3D04FF0FF37D0E738B50C46FC
:10542800084D8446114620461A4600232B606446E0
:10543800FBF79CFD431C00D038BD2B68002BFBD02C
:10544800236038BD240F00202DE9F047DFF87CA049
:105458000646DAF8000098460F469146FFF78CFB9F
:105468001B4B1B68D3F8484124B365681F2D26DC05
:105478005EB96B1C0235DAF80000636044F82570E9
:10548800FFF77CFB0020BDE8F08704EB85010123D2
:10549800C1F88890D4F88821AB401A43022EC4F88A
:1054A8008821C1F80881E4D1D4F88C211343C4F8C9
:1054B8008C31DEE703F5A674C3F84841D5E7DAF87E
:1054C8000000FFF75BFB4FF0FF30DCE738040020FB
:1054D800A456000838B5074D0022044608462A603D
:1054E800FBF75EFD431C00D038BD2B68002BFBD0BA
:1054F800236038BD240F002070B500294BD0064624
:105508000C4610B1836B002B48D0636ED80734D596
:10551800B4F90C30002B3ED021463046FFF742F854
:10552800E36A054633B1E169304698470028B8BFB9
:105538004FF0FF35A3891A063BD4216B41B104F122
:105548004003994202D03046FFF7E8F9002323636D
:10555800616C21B13046FFF7E1F900236364FFF77E
:105568006BF9636E0022DB07A28127D5A06DFFF7D8
:1055780001FBFFF767F9284670BDA3899905CBD4CD
:10558800A06DFFF7F9FAB4F90C30002BC4D1656EA1
:1055980015F0010508D00025284670BDFFF7C6F8AC
:1055A800636ED807B4D4E8E7A06DFFF7E7FA28469A
:1055B80070BD21693046FFF7B1F9BEE7A06DFFF76E
:1055C800DDFAD3E770B50C46084D034600262046A1
:1055D80011461C462E60FBF70FFD431C00D070BD22
:1055E8002B68002BFBD0236070BD00BF240F002068
:1055F80038B5074D0022044608462A60FBF7AAFC86
:10560800431C00D038BD2B68002BFBD0236038BD6D
:10561800240F002038B50C46084D84461146204614
:105628001A4600232B606446FBF7C6FC431C00D0D7
:1056380038BD2B68002BFBD0236038BD240F002019
:1056480038B50C46084D8446114620461A460023B4
:105658002B606446FBF7B8FC431C00D038BD2B68B0
:10566800002BFBD0236038BD240F0020F8B500BF05
:10567800F8BC08BC9E467047F8B500BFF8BC08BC2B
:045688009E46704783
:10568C0000000000000000000102030406070809E6
:0C569C00000000000102030410000020C8
:0856A80060ABFF7F0100000070
:0856B0008D450008BD01000852
:0456B800990100084C
:1056BC000024F40001000000100000001000002085
:1056CC0000000000FC02002064030020CC0300203A
:1056DC0000000000000000000000000000000000BE
:1056EC0000000000000000000000000000000000AE
:1056FC00000000000000000000000000000000009E
:10570C00000000000000000000000000000000008D
:10571C00000000000000000000000000000000007D
:10572C00000000000000000000000000000000006D
:10573C00000000000000000000000000000000005D
:10574C00000000000000000000000000000000004D
:10575C00000000000000000000000000000000003D
:10576C00000000000000000001000000000000002C
:10577C000E33CDAB34126DE6ECDE05000B000000F1
:10578C00000000000000000000000000000000000D
:10579C0000000000000000000000000000000000FD
:1057AC0000000000000000000000000000000000ED
:1057BC0000000000000000000000000000000000DD
:105AEC000000000000000000E00E0020000000009C
:105AFC00000000003C0400203C0400204404002072
:105B0C00440400204C0400204C04002054040020C9
:105B1C00540400205C0400205C0400206404002079
:105B2C00640400206C0400206C0400207404002029
:105B3C00740400207C0400207C04002084040020D9
:105B4C00840400208C0400208C0400209404002089
:105B5C00940400209C0400209C040020A404002039
:105B6C00A4040020AC040020AC040020B4040020E9
:105B7C00B4040020BC040020BC040020C404002099
:105B8C00C4040020CC040020CC040020D404002049
:105B9C00D4040020DC040020DC040020E4040020F9
:105BAC00E4040020EC040020EC040020F4040020A9
:105BBC00F4040020FC040020FC0400200405002058
:105BCC00040500200C0500200C0500201405002005
:105BDC00140500201C0500201C05002024050020B5
:105BEC00240500202C0500202C0500203405002065
:105BFC00340500203C0500203C0500204405002015
:105C0C00440500204C0500204C05002054050020C4
:105C1C00540500205C0500205C0500206405002074
:105C2C00640500206C0500206C0500207405002024
:105C3C00740500207C0500207C05002084050020D4
:105C4C00840500208C0500208C0500209405002084
:105C5C00940500209C0500209C050020A405002034
:105C6C00A4050020AC050020AC050020B4050020E4
:105C7C00B4050020BC050020BC050020C405002094
:105C8C00C4050020CC050020CC050020D405002044
:105C9C00D4050020DC050020DC050020E4050020F4
:105CAC00E4050020EC050020EC050020F4050020A4
:105CBC00F4050020FC050020FC0500200406002053
:105CCC00040600200C0600200C0600201406002000
:105CDC00140600201C0600201C06002024060020B0
:105CEC00240600202C0600202C0600203406002060
:105CFC00340600203C0600203C0600204406002010
:105D0C00440600204C0600204C06002054060020BF
:105D1C00540600205C0600205C060020640600206F
:105D2C00640600206C0600206C060020740600201F
:105D3C00740600207C0600207C06002084060020CF
:105D4C00840600208C0600208C060020940600207F
:105D5C00940600209C0600209C060020A40600202F
:105D6C00A4060020AC060020AC060020B4060020DF
:105D7C00B4060020BC060020BC060020C40600208F
:105D8C00C4060020CC060020CC060020D40600203F
:105D9C00D4060020DC060020DC060020E4060020EF
:105DAC00E4060020EC060020EC060020F40600209F
:105DBC00F4060020FC060020FC060020040700204E
:105DCC00040700200C0700200C07002014070020FB
:105DDC00140700201C0700201C07002024070020AB
