:020000040800F2
:10000000000002201D240008051E0008071E00082D
:10001000091E00080B1E00080D1E0008000000004D
:100020000000000000000000000000000F1E00089B
:10003000111E000800000000131E0008151E000815
:100040006D2400086D2400086D2400086D2400084C
:100050006D2400086D2400086D2400086D2400083C
:100060006D2400086D2400086D2400086D2400082C
:100070006D2400086D2400086D2400086D2400081C
:100080006D2400086D2400081D1E000800000000FB
:100090000000000000000000000000006D240008C7
:1000A0006D2400082D1E00086D2400083D1E000868
:1000B0004D1E00085D1E00086D2400086D24000818
:1000C0006D2400086D2400086D2400086D240008CC
:1000D0006D2400086D2400086D2400080000000055
:1000E0006D2400086D2400086D2400080000000045
:1000F0000000000000000000000000006D24000867
:10010000000000006D2400086D2400086D24000824
:1001100000000000000000000000000000000000DF
:100120006D1E00086D2400086D2400086D24000871
:100130006D24000800000000000000000000000026
:100140000000000000000000000000006D24000816
:100150006D2400086D2400086D2400086D2400083B
:100160006D2400086D24000800000000000000005D
:10017000000000000000000000000000000000007F
:10018000000000006D2400080000000000000000D6
:080190006D2400086D24000835
:1001C00081F0004102E000BF83F0004330B54FEA08
:1001D00041044FEA430594EA050F08BF90EA020F75
:1001E0001FBF54EA000C55EA020C7FEA645C7FEA08
:1001F000655C00F0E2804FEA5454D4EB5555B8BF2B
:100200006D420CDD2C4480EA020281EA030382EA9B
:10021000000083EA010180EA020281EA0303362D2D
:1002200088BF30BD11F0004F4FEA01314FF4801C00
:100230004CEA113102D0404261EB410113F0004F12
:100240004FEA03334CEA133302D0524263EB4303C9
:1002500094EA050F00F0A780A4F10104D5F1200E67
:100260000DDB02FA0EFC22FA05F2801841F10001C2
:1002700003FA0EF2801843FA05F359410EE0A5F196
:1002800020050EF1200E012A03FA0EFC28BF4CF0C7
:10029000020C43FA05F3C01851EBE37101F000457D
:1002A00007D54FF0000EDCF1000C7EEB00006EEB8A
:1002B0000101B1F5801F1BD3B1F5001F0CD3490814
:1002C0005FEA30004FEA3C0C04F101044FEA44526B
:1002D00012F5800F80F09A80BCF1004F08BF5FEAF2
:1002E000500C50F1000041EB045141EA050130BDD2
:1002F0005FEA4C0C404141EB0101013C28BFB1F5E4
:10030000801FE9D291F0000F04BF01460020B1FA2E
:1003100081F308BF2033A3F10B03B3F120020CDA01
:100320000C3208DD02F1140CC2F10C0201FA0CF0DF
:1003300021FA02F10CE002F11402D8BFC2F1200C44
:1003400001FA02F120FA0CFCDCBF41EA0C019040FA
:10035000E41AA2BF01EB0451294330BD6FEA040443
:100360001F3C1CDA0C340EDC04F11404C4F120022E
:1003700020FA04F001FA02F340EA030021FA04F340
:1003800045EA030130BDC4F10C04C4F1200220FA97
:1003900002F001FA04F340EA0300294630BD21FAD5
:1003A00004F0294630BD94F0000F83F4801306BF9B
:1003B00081F480110134013D4EE77FEA645C18BF8F
:1003C0007FEA655C29D094EA050F08BF90EA020F26
:1003D00005D054EA000C04BF1946104630BD91EA1E
:1003E000030F1EBF0021002030BD5FEA545C05D121
:1003F0004000494128BF41F0004130BD14F5800460
:100400003CBF01F5801130BD01F0004545F0FE41D3
:1004100041F470014FF0000030BD7FEA645C1ABF08
:10042000194610467FEA655C1CBF0B46024650EA3F
:10043000013406BF52EA033591EA030F41F400216B
:1004400030BD00BF90F0000F04BF0021704730B5F1
:100450004FF4806404F132044FF000054FF00001C6
:1004600050E700BF90F0000F04BF0021704730B587
:100470004FF4806404F1320410F0004548BF40425C
:100480004FF000013EE700BF42004FEAE2014FEAB1
:1004900031014FEA02701FBF12F07F4393F07F4F8C
:1004A00081F06051704732F07F4208BF704793F08F
:1004B0007F4F04BF41F40021704730B54FF46074A2
:1004C00001F0004521F000411CE700BF50EA0102A5
:1004D00008BF704730B54FF000050AE050EA01024E
:1004E00008BF704730B511F0004502D5404261EBBE
:1004F00041014FF4806404F132045FEA915C3FF4FF
:10050000D8AE4FF003025FEADC0C18BF03325FEA9B
:10051000DC0C18BF033202EBDC02C2F1200300FA4C
:1005200003FC20FA02F001FA03FE40EA0E0021FA71
:1005300002F11444BDE600BF80F0004002E000BFBD
:1005400081F0004142001FBF5FEA410392EA030FBE
:100550007FEA226C7FEA236C6AD04FEA1262D2EB08
:100560001363C1BFD218414048404140B8BF5B420D
:10057000192B88BF704710F0004F40F4000020F0A6
:100580007F4018BF404211F0004F41F4000121F0BC
:100590007F4118BF494292EA030F3FD0A2F1010206
:1005A00041FA03FC10EB0C00C3F1200301FA03F144
:1005B00000F0004302D5494260EB4000B0F5000F67
:1005C00013D3B0F1807F06D340084FEA310102F126
:1005D0000102FE2A51D2B1F1004F40EBC25008BFD8
:1005E00020F0010040EA03007047490040EB0000A2
:1005F000013A28BFB0F5000FEDD2B0FA80FCACF1A3
:10060000080CB2EB0C0200FA0CF0AABF00EBC250CF
:1006100052421843BCBFD0401843704792F0000FBD
:1006200081F4000106BF80F400000132013BB5E710
:100630004FEA41037FEA226C18BF7FEA236C21D086
:1006400092EA030F04D092F0000F08BF08467047EB
:1006500090EA010F1CBF0020704712F07F4F04D1B9
:10066000400028BF40F00040704712F100723CBFCC
:1006700000F50000704700F0004343F0FE4040F4F6
:10068000000070477FEA226216BF08467FEA2363B4
:100690000146420206BF5FEA412390EA010F40F49F
:1006A000800070474FF0000304E000BF10F00043EB
:1006B00048BF40425FEA000C08BF704743F09643D2
:1006C00001464FF000001CE050EA010208BF7047ED
:1006D0004FF000030AE000BF50EA010208BF704774
:1006E00011F0004302D5404261EB41015FEA010C89
:1006F00002BF84460146002043F0B64308BFA3F181
:100700008053A3F50003BCFA8CF2083AA3EBC25362
:1007100010DB01FA02FC634400FA02FCC2F1200281
:10072000BCF1004F20FA02F243EB020008BF20F0B8
:100730000100704702F1200201FA02FCC2F120021E
:1007400050EA4C0021FA02F243EB020008BF20EA13
:10075000DC7070474FF0FF0C1CEAD0521EBF1CEA41
:10076000D15392EA0C0F93EA0C0F6FD01A4480EA2F
:10077000010C400218BF5FEA41211ED04FF0006318
:1007800043EA501043EA5111A0FB01310CF0004044
:10079000B1F5000F3EBF490041EAD3715B0040EA6A
:1007A000010062F17F02FD2A1DD8B3F1004F40EB3A
:1007B000C25008BF20F00100704790F0000F0CF00D
:1007C000004C08BF49024CEA502040EA51207F3AD1
:1007D000C2BFD2F1FF0340EAC250704740F40000AC
:1007E0004FF00003013A5DDC12F1190FDCBF00F09D
:1007F00000407047C2F10002410021FA02F1C2F14B
:10080000200200FA02FC5FEA310040F1000053EAE6
:100810004C0308BF20EADC70704792F0000F00F034
:10082000004C02BF400010F4000F013AF9D040EA3A
:100830000C0093F0000F01F0004C02BF490011F4CE
:10084000000F013BF9D041EA0C018FE70CEAD153CC
:1008500092EA0C0F18BF93EA0C0F0AD030F0004C4C
:1008600018BF31F0004CD8D180EA010000F0004000
:10087000704790F0000F17BF90F0004F084691F0BE
:10088000000F91F0004F14D092EA0C0F01D14202F8
:100890000FD193EA0C0F03D14B0218BF084608D1C1
:1008A00080EA010000F0004040F0FE4040F400000B
:1008B000704740F0FE4040F4400070474FF0FF0C9E
:1008C0001CEAD0521EBF1CEAD15392EA0C0F93EAE5
:1008D0000C0F69D0A2EB030280EA010C49024FEA37
:1008E000402037D04FF0805343EA111143EA1013F0
:1008F0000CF000408B4238BF5B0042F17D024FF4A8
:10090000000C8B4224BF5B1A40EA0C00B3EB510F82
:1009100024BFA3EB510340EA5C00B3EB910F24BF6B
:10092000A3EB910340EA9C00B3EBD10F24BFA3EBF0
:10093000D10340EADC001B0118BF5FEA1C1CE0D1B8
:10094000FD2A3FF650AF8B4240EBC25008BF20F06B
:10095000010070470CF0004C4CEA50207F32C2BFBF
:10096000D2F1FF0340EAC250704740F400004FF05C
:100970000003013A37E792F0000F00F0004C02BF8D
:10098000400010F4000F013AF9D040EA0C0093F057
:10099000000F01F0004C02BF490011F4000F013BB1
:1009A000F9D041EA0C0195E70CEAD15392EA0C0F19
:1009B00008D142027FF47DAF93EA0C0F7FF470AF51
:1009C000084676E793EA0C0F04D14B023FF44CAF94
:1009D00008466EE730F0004C18BF31F0004CCAD129
:1009E00030F000427FF45CAF31F000437FF43CAF65
:1009F0005FE700BF53B94AB9002908BF00281CBFF0
:100A00004FF0FF314FF0FF3000F00CB8ADF1080CA3
:100A10006DE904CE04F09CFCDDF804E0DDE902237E
:100A200004B07047704700BF0000000000000000E5
:100A300001F0FF01102A2BDB10F0070F08D010F88F
:100A4000013B013A8B422DD010F0070F42B3F6D193
:100A5000F0B441EA012141EA014122F007047FF0AC
:100A600000070023F0E80256083C85EA010586EA03
:100A7000010685FA47F5A3FA87F586FA47F6A5FA3F
:100A800087F68EB9EED1F0BC01F0FF0102F007024B
:100A900032B110F8013B013A83EA010313B1F8D1F6
:100AA0000020704701387047002D06BF35460338D7
:100AB000073815F0010F07D1013015F4807F02BF10
:100AC000013015F4C03F0130F0BC0138704700BF61
:100AD000844641EA000313F003036DD1403A41D349
:100AE00051F8043B40F8043B51F8043B40F8043B08
:100AF00051F8043B40F8043B51F8043B40F8043BF8
:100B000051F8043B40F8043B51F8043B40F8043BE7
:100B100051F8043B40F8043B51F8043B40F8043BD7
:100B200051F8043B40F8043B51F8043B40F8043BC7
:100B300051F8043B40F8043B51F8043B40F8043BB7
:100B400051F8043B40F8043B51F8043B40F8043BA7
:100B500051F8043B40F8043B51F8043B40F8043B97
:100B6000403ABDD2303211D351F8043B40F8043B37
:100B700051F8043B40F8043B51F8043B40F8043B77
:100B800051F8043B40F8043B103AEDD20C3205D347
:100B900051F8043B40F8043B043AF9D2043208D03F
:100BA000D2071CBF11F8013B00F8013B01D30B88B1
:100BB00003806046704700BF082A13D38B078DD08F
:100BC00010F003038AD0C3F10403D21ADB071CBF61
:100BD00011F8013B00F8013B80D331F8023B20F8CB
:100BE000023B7BE7043AD9D3013A11F8013B00F804
:100BF000013BF9D20B7803704B7843708B7883708C
:100C00006046704700000000000000000000000087
:100C100000000000000000000000000000000000D4
:100C200000000000000000000000000000000000C4
:100C300000000000000000000000000000000000B4
:100C400030B490F800F020F007016FF0000C10F0C5
:100C5000070491F820F040F048804FF000046FF056
:100C60000700D1E9002391F840F000F1080082FA72
:100C70004CF2A4FA8CF283FA4CF3A2FA8CF34BBB3D
:100C8000D1E9022382FA4CF200F10800A4FA8CF2B6
:100C900083FA4CF3A2FA8CF3E3B9D1E9042382FA84
:100CA0004CF200F10800A4FA8CF283FA4CF3A2FA99
:100CB0008CF37BB9D1E9062301F1200182FA4CF2D1
:100CC00000F10800A4FA8CF283FA4CF3A2FA8CF338
:100CD000002BC6D0002A04BF04301A4612BAB2FA5A
:100CE00082F200EBD20030BC7047D1E9002304F05F
:100CF0000305C4F100004FEAC50514F0040F91F894
:100D000040F00CFA05F562EA05021CBF63EA050330
:100D100062464FF00004AAE770B54FF0FF0C4CF4A8
:100D2000E06C1CEA11541DBF1CEA135594EA0C0F29
:100D300095EA0C0F00F0DEF82C4481EA030621EA64
:100D40004C5123EA4C5350EA013518BF52EA03359F
:100D500041F4801143F4801338D0A0FB02CE4FF051
:100D60000005E1FB02E506F00042E0FB03E54FF081
:100D70000006E1FB03569CF0000F18BF4EF0010E79
:100D8000A4F1FF04B6F5007F64F5407404D25FEA75
:100D90004E0E6D4146EB060642EAC62141EA555128
:100DA0004FEAC52040EA5E504FEACE2EB4F1FD0C6A
:100DB00088BFBCF5E06F1ED8BEF1004F08BF5FEAE8
:100DC000500E50F1000041EB045170BD06F000469A
:100DD00046EA010140EA020081EA0301B4EB5C0447
:100DE000C2BFD4EB0C0541EA045170BD41F480113F
:100DF0004FF0000E013C00F3AB8014F1360FDEBF64
:100E0000002001F0004170BDC4F10004203C35DA3F
:100E10000C341BDC04F11404C4F1200500FA05F3C2
:100E200020FA04F001FA05F240EA020001F0004263
:100E300021F0004110EBD37021FA04F642EB0601D9
:100E40005EEA430E08BF20EAD37070BDC4F10C0403
:100E5000C4F1200500FA04F320FA05F001FA04F2C7
:100E600040EA020001F0004110EBD37041F10001B3
:100E70005EEA430E08BF20EAD37070BDC4F12005BE
:100E800000FA05F24EEA020E20FA04F301FA05F226
:100E900043EA020321FA04F001F0004121FA04F2CE
:100EA00020EA020000EBD3705EEA430E08BF20EA9E
:100EB000D37070BD94F0000F0FD101F000464000D8
:100EC00041EB010111F4801F08BF013CF7D041EA5A
:100ED000060195F0000F18BF704703F0004652005E
:100EE00043EB030313F4801F08BF013DF7D043EA2F
:100EF0000603704794EA0C0F0CEA135518BF95EAE5
:100F00000C0F0CD050EA410618BF52EA4306D1D16B
:100F100081EA030101F000414FF0000070BD50EA8A
:100F2000410606BF1046194652EA430619D094EA14
:100F30000C0F02D150EA013613D195EA0C0F05D1FE
:100F400052EA03361CBF104619460AD181EA030152
:100F500001F0004141F0FE4141F470014FF000000A
:100F600070BD41F0FE4141F4780170BD70B54FF0A5
:100F7000FF0C4CF4E06C1CEA11541DBF1CEA135525
:100F800094EA0C0F95EA0C0F00F0A7F8A4EB050407
:100F900081EA030E52EA03354FEA013100F08880FE
:100FA0004FEA03334FF0805545EA131343EA1263C7
:100FB0004FEA022245EA111545EA10654FEA00267C
:100FC0000EF000419D4208BF964244F1FD0404F535
:100FD000407402D25B084FEA3202B61A65EB030591
:100FE0005B084FEA32024FF480104FF4002CB6EB4E
:100FF000020E75EB030E22BFB61A754640EA0C00CE
:101000005B084FEA3202B6EB020E75EB030E22BF0D
:10101000B61A754640EA5C005B084FEA3202B6EB4E
:10102000020E75EB030E22BFB61A754640EA9C000D
:101030005B084FEA3202B6EB020E75EB030E22BFDD
:10104000B61A754640EADC0055EA060E18D04FEA9B
:10105000051545EA16754FEA06164FEAC30343EA3B
:1010600052734FEAC2025FEA1C1CC0D111F4801F08
:101070000BD141EA00014FF000004FF0004CB6E701
:1010800011F4801F04BF01430020B4F1FD0C88BFA0
:10109000BCF5E06F3FF6AFAEB5EB030C04BFB6EBAB
:1010A000020C5FEA500C50F1000041EB045170BD9E
:1010B0000EF0004E4EEA113114EB5C04C2BFD4EBCB
:1010C0000C0541EA045170BD41F480114FF0000E4F
:1010D000013C90E645EA060E8DE60CEA135594EACB
:1010E0000C0F08BF95EA0C0F3FF43BAF94EA0C0FCE
:1010F0000AD150EA01347FF434AF95EA0C0F7FF443
:1011000025AF104619462CE795EA0C0F06D152EA96
:1011100003353FF4FDAE1046194622E750EA41067A
:1011200018BF52EA43067FF4C5AE50EA41047FF48B
:101130000DAF52EA43057FF4EBAE12E74FF0FF3CF0
:1011400006E000BF4FF0010C02E000BF4FF0010CC1
:101150004DF804CD4FEA410C7FEA6C5C4FEA430C3A
:1011600018BF7FEA6C5C1BD001B050EA410C0CBF89
:1011700052EA430C91EA030F02BF90EA020F0020EB
:10118000704710F1000F91EA030F58BF994208BF52
:1011900090422CBFD8176FEAE37040F0010070470F
:1011A0004FEA410C7FEA6C5C02D150EA013C07D166
:1011B0004FEA430C7FEA6C5CD6D152EA033CD3D0B1
:1011C0005DF8040B704700BF8446104662468C46AB
:1011D0001946634600E000BF01B5FFF7B7FF0028DE
:1011E00048BF10F1000F01BD4DF808EDFFF7F4FF07
:1011F0000CBF012000205DF808FB00BF4DF808ED92
:10120000FFF7EAFF34BF012000205DF808FB00BFB4
:101210004DF808EDFFF7E0FF94BF012000205DF8D6
:1012200008FB00BF4DF808EDFFF7CEFF94BF01208B
:1012300000205DF808FB00BF4DF808EDFFF7C4FF84
:1012400034BF012000205DF808FB00BF4FEA410CCD
:101250007FEA6C5C02D150EA013C0AD14FEA430CB0
:101260007FEA6C5C02D152EA033C02D14FF00000ED
:1012700070474FF0010070474FEA410212F500122B
:1012800015D211D56FF47873B3EB625212D94FEACD
:10129000C12343F0004343EA505311F0004F23FAB7
:1012A00002F018BF404270474FF00000704750EA0C
:1012B000013005D111F0004008BF6FF000407047C9
:1012C0004FF00000704700BF0348044B834202D038
:1012D000034B03B118477047C4060020C406002022
:1012E000000000000548064B1B1AD90F01EBA301B3
:1012F000491002D0034B03B118477047C4060020C1
:10130000C40600200000000010B5064C237843B945
:10131000FFF7DAFF044B13B10448AFF30080012359
:10132000237010BDC40600200000000024BB00088C
:1013300008B5054B1BB105490548AFF30080BDE872
:101340000840FFF7CFBF00BF00000000C806002024
:1013500024BB0008014B1860704700BFE406002062
:1013600082B0ADF8060000BF00BF00BF00BF00BFE5
:1013700000BF00BF00BF00BF00BFBDF806309BB27A
:101380005A1E92B2ADF80620002BECD102B0704785
:1013900010B5054C4FF48053A3610F20FFF7E0FF19
:1013A0004FF08053A36110BD0004024008B5144BF8
:1013B0001A6800231360134A1360FFF7E9FF02E085
:1013C0000133104A13600E4B1B68186820B90D4B8F
:1013D0001B68B3F5003FF3D34FF6FF7398420BD071
:1013E00050B1FFF75FF90849FFF7B4F90749FFF774
:1013F00065FA074B186008BDFFF754F9FBE700BF1B
:10140000E4060020E006002000002D4300401C46BA
:10141000E806002000B585B00023009301930293F5
:1014200003933B483B4A02604FF480324260836042
:1014300001220261027680F82030C362364981625F
:10144000C3600721C16180F83020436101F010F9C9
:10145000002844D10023009301230193029369469D
:101460002B4801F02DFB00283CD1012300930223DF
:1014700001936946264801F023FB002835D1042357
:101480000093032301936946214801F019FB78BBBF
:10149000052300930423019369461D4801F010FBC6
:1014A00048BB06230093052301936946184801F0C1
:1014B00007FB18BB072300930623019369461448D2
:1014C00001F0FEFAE8B90823009307230193694667
:1014D0000F4801F0F5FAB8B905B05DF804FB00F06B
:1014E000D3F9B7E700F0D0F9BFE700F0CDF9C6E7D0
:1014F00000F0CAF9CCE700F0C7F9D2E700F0C4F970
:10150000D8E700F0C1F9DEE700F0BEF9E4E700BF7C
:101510004C070020002001400100000F70B588B08A
:10152000002303930493059306930793026803F142
:10153000804303F590339A4201D008B070BD044651
:101540000025009503F58C335A6C42F480725A647E
:101550005A6C02F480720092009A01951A6B42F064
:1015600001021A631A6B02F001020192019A0295BC
:101570001A6B42F002021A631B6B03F00203029320
:10158000029BF32303930326049603A9184801F052
:10159000EFFD012303930496059503A9154801F077
:1015A000E7FD1548154B036045608560C5604FF445
:1015B000806303614FF4006343614FF40053836120
:1015C0004FF48073C3610562456201F047FC58B96E
:1015D000094BA3639C6300221146122001F08EFB8D
:1015E000122001F09BFBA8E700F04EF9F0E700BFE6
:1015F0000000024000040240EC060020106402409B
:1016000000B583B000210191094B1A6B42F48002AE
:101610001A631B6B03F480030193019B0A46382075
:1016200001F06CFB382001F079FB03B05DF804FB9E
:10163000003802402DE9F0418AB000240594069458
:1016400007940894099401942F4B1A6B42F00402FA
:101650001A631A6B02F004020192019A02941A6B47
:1016600042F080021A631A6B02F080020292029A20
:1016700003941A6B42F001021A631A6B02F0010222
:101680000392039A04941A6B42F002021A631B6BD2
:1016900003F002030493049BDFF8708022464FF4AA
:1016A000C041404601F0D4FE194F22464FF470412C
:1016B000384601F0CDFE174E22464FF4F851304621
:1016C00001F0C6FE4FF4C04305930125069507942B
:1016D000089405A9404601F04BFD4FF47043059373
:1016E00006950794089405A9384601F041FD4FF48A
:1016F000F853059306950794089405A9304601F020
:1017000037FD0AB0BDE8F081003802400008024011
:10171000000402400000024008B50B480B4B036078
:101720000B4B436000238360C3604FF4804202612F
:1017300043618361C361036202F056F800B908BDDA
:1017400000F0A2F8FBE700BF94070020005400401F
:10175000A086010030B589B000230393049305935C
:10176000069307930268144B9A4201D009B030BD2A
:1017700000250195114C236B43F002032363236B77
:1017800003F002030193019BC023039312230493EC
:10179000032306930423079303A9094801F0E8FCF7
:1017A0000295236C43F400132364236C03F40013A9
:1017B0000293029BDAE700BF005400400038024069
:1017C0000004024002680A4B9A4200D0704710B5EC
:1017D000084A136C23F400131364074C402120467D
:1017E00001F0AEFD8021204601F0AAFD10BD00BF32
:1017F00000540040003802400004024008B502686E
:10180000074B9A4200D008BD0821064803F0F8FAB9
:10181000054B00221A70054B4FF6FF721A60F2E773
:1018200000040040880C0020E8070020EC0700209E
:101830000268114B9A4200D0704710B50F4B1B68DD
:101840006FF010021A610E4A127842B95A620821EA
:101850000A4803F029FA0A4B01221A7010BD074CFE
:101860000821204603F0CCFA23685A6A054B1A6017
:10187000034B00221A70F1E700040040880C00209E
:10188000E8070020EC07002072B6FEE700B595B02F
:101890003022002108A804F0D9F800230393049310
:1018A00005930693079301931F4A116C41F08051F1
:1018B0001164126C02F080520192019A02931B4B48
:1018C0001A6842F440421A601B6803F440430293D2
:1018D000029B012308934FF48033099302230E9354
:1018E0004FF480020F920C221092602211921293F8
:1018F0000423139308A802F0DDF988B90F2303939A
:1019000002230493002305934FF480520692079319
:10191000032103A802F01EFC20B915B05DF804FBFA
:10192000FFF7B2FFFFF7B0FF003802400070004041
:1019300008B500F0C3FD2B4800F0D8F9FFF7A6FF6B
:10194000FFF778FEFFF75CFEFFF764FDFFF7E4FEAC
:1019500000F0CAFA00F01EFC00F086FC00F00CFD5E
:101960002148FFF7F7FC214C23686FF001021A6150
:1019700004211F4803F020F90421204603F01CF93C
:10198000322000F03DF8322000F044F8322000F020
:101990004BF8322000F052F8164D0722164928461F
:1019A00000F0EEFE3221284600F08DFE0C2120468C
:1019B00003F07AF900F028F9802000F0A3F8002065
:1019C00000F090F8002000F0B5F8FFF7EFFCFEF70C
:1019D0005BFD02460B46094803F00AFF642000F055
:1019E00099FDF2E7600D0020EC070020880C002034
:1019F000D00C00204C070020F007002040BB00085E
:101A0000034B1B68C0EB001040005863704700BFD9
:101A1000880C0020034B1B68C0EB0010400098634B
:101A2000704700BF880C0020034B1B68C0EB001000
:101A300040009863704700BFD00C0020034B1B6828
:101A4000C0EB001040005863704700BFD00C00206E
:101A5000022800D0704730B587B0154801F0A2FFCA
:101A60000024019402940394049405944023019368
:101A7000112302930323049301A90E4801F078FB7C
:101A80000FE00C4D00224021284601F0E1FC00202F
:101A900000F040FD01224021284601F0D9FC01342C
:101AA000E4B2072CEDD9024801F09EFE07B030BD2C
:101AB000940700200004024000B585B08DF80C109A
:101AC0008DF80D000A230093022303AA782104480D
:101AD00001F082FFFFF7BCFF05B05DF804FB00BF1B
:101AE0009407002010B5044610B1012C05D010BD9C
:101AF0000021A620FFF7E0FFF7E70021A720FFF76E
:101B0000DBFFF4E700B585B078218DF80C10812358
:101B10008DF80D308DF80E000A230093032303AADD
:101B2000034801F059FFFFF793FF05B05DF804FB90
:101B30009407002010B5044610B1012C09D010BD47
:101B40000021C820FFF7B8FF0021A120FFF7B4FF54
:101B5000F3E70021C020FFF7AFFF0021A020FFF72F
:101B6000ABFFECE710B5A4B000241DE0184A02EB6F
:101B7000C302115D03F190026A4402F8801C013334
:101B8000DBB213F0800FF1D0322302938023019354
:101B900004AB00930123402278210E4801F0D8FFC6
:101BA000FFF756FF0134E4B2072C0FD8A4F1500020
:101BB0000021C0B2FFF780FF00210846FFF77CFF3D
:101BC00000211020FFF778FF0023DAE724B010BDD2
:101BD000000800209407002008B500200BE0094A07
:101BE00002EBC302002111540133DBB213F0800F6A
:101BF000F5D00130C0B2072801D80023F6E7FFF77F
:101C0000B1FF08BD0008002008B5052000F082FCE7
:101C10000021E320FFF750FF0021AE20FFF74CFF2B
:101C2000642000F077FC00210846FFF745FF002103
:101C30001020FFF741FF00210846FFF73DFF00217C
:101C4000B020FFF739FF00218120FFF735FF002189
:101C5000FF20FFF731FF0021A120FFF72DFF00211A
:101C6000A620FFF729FF0021C820FFF725FF00214C
:101C7000D320FFF721FF00210846FFF71DFF0021B9
:101C8000D520FFF719FF00218020FFF715FF002165
:101C9000D920FFF711FF00211F20FFF70DFF0021C2
:101CA000A820FFF709FF00213F20FFF705FF0021D3
:101CB000DA20FFF701FF00211220FFF7FDFE0021CF
:101CC000DB20FFF7F9FE00214020FFF7F5FE0021A1
:101CD0008D20FFF7F1FE00211420FFF7EDFEFFF746
:101CE0007BFF0021AF20FFF7E7FE08BD08B5054BDD
:101CF0001860054B1868002302221946806803F01B
:101D00008BFD08BD800C002018000020022801D89F
:101D10000120704708B503F03FFF0923036000204E
:101D200008BD000010B5013801280AD814464FF04C
:101D3000FF3392B20748006803F02BFA40B92046FF
:101D400010BD03F029FF092303604FF0FF30F7E7D0
:101D50000520F5E7800C0020022801D800207047FC
:101D600008B503F019FF092303604FF0FF3008BDE9
:101D700008B503F011FF092303604FF0FF3008BDE1
:101D800008B548B94FF0FF3301220848006803F056
:101D90006CFA40B9012008BD03F0FEFE0923036080
:101DA0004FF0FF30F7E70520F5E700BF800C00207B
:101DB00008B5022804D84FF400534B60002008BD3A
:101DC00003F0EAFE09230360F8E7000082B0002177
:101DD00000910B4B5A6C42F480425A645A6C02F4E4
:101DE00080420092009A01911A6C42F080521A646B
:101DF0001B6C03F080530193019B02B0704700BF3E
:101E000000380240FEE7FEE7FEE7FEE7FEE7704728
:101E10007047704708B500F06BFB08BD08B5024875
:101E200000F069FD08BD00BF4C07002008B502485E
:101E300002F065FB08BD00BF180D002008B5024880
:101E400002F05DFB08BD00BF180D002008B5024878
:101E500002F055FB08BD00BFD00C002008B50248B9
:101E600002F04DFB08BD00BF880C002008B50248F9
:101E700001F090F808BD00BFEC060020012070477B
:101E800008B503F089FE162303604FF0FF3008BD4C
:101E900008B54FF0FF31FFF7F3FFFEE710B503463B
:101EA0000C4A0D490D48006840B10C4800680344D5
:101EB000521A934206D8094A136010BD0748084CCD
:101EC0000460F2E703F068FE0C2303604FF0FF307C
:101ED000F3E700BF0000022000040000840C002093
:101EE000C01000207047000010B596B00024129476
:101EF0001394149415941094119409940A940B94C7
:101F00000C940D940E940F942022214601A803F006
:101F10009DFD3548354B03606323436084604BF679
:101F20007E33C36004614461846102F0F3FB0028E6
:101F300041D14FF48053129312A92B4802F0AEFD09
:101F400000283BD1284802F011FC002839D1002399
:101F50001093119310A9244802F0B8FF002833D140
:101F60006023099300220A920B920C920D920E921A
:101F70000F9209A91C4802F07FFC40BB042209A96A
:101F8000194802F079FC28BB082209A9164802F07A
:101F900073FC10BB002301930293039304930593F6
:101FA0004FF400520692089301A90F4802F0CCFFAB
:101FB000B0B916B010BDFFF767FCBAE7FFF764FCD5
:101FC000C0E7FFF761FCC2E7FFF75EFCC8E7FFF779
:101FD0005BFCD3E7FFF758FCD6E7FFF755FCD9E7E2
:101FE000FFF752FCE5E700BF180D0020000001409C
:101FF00010B58AB0002305930693079308930993BD
:102000000368324A934207D0B3F1804F21D0304A5F
:10201000934233D00AB010BD002401942D4B5A6C6A
:1020200042F001025A645B6C03F001030193019BCF
:1020300022462146192000F061FE192000F06EFEB4
:10204000224621461B2000F059FE1B2000F066FEB0
:10205000E0E70021029103F50E331A6C42F0010211
:102060001A641B6C03F001030293029B0A461C20B6
:1020700000F044FE1C2000F051FECBE70024039446
:10208000144B1A6C42F002021A641A6C02F002023B
:102090000392039A04941A6B42F002021A631B6BB8
:1020A00003F002030493049B022305930693099310
:1020B00005A9094801F05CF8224621461D2000F0E0
:1020C0001DFE1D2000F02AFEA4E700BF0000014015
:1020D00000040040003802400004024070B588B09F
:1020E0000023039304930593069307930368B3F1C6
:1020F000804F04D0234A93422ED008B070BD0024F4
:10210000009403F50E331A6B42F001021A631A6B46
:1021100002F001020092009A01941A6B42F002024E
:102120001A631B6B03F002030193019B4FF40043FE
:102130000393022604960125079503A9124801F08E
:1021400017F808230393049605940694079503A9AA
:102150000E4801F00DF8D0E7002302930C4B1A6BE8
:1021600042F002021A631B6B03F002030293029B0C
:102170003023039302230493079303A9034800F039
:10218000F7FFBAE7000400400000024000040240EC
:102190000038024000B58FB000230A930B930C93D4
:1021A0000D9308930993019302930393049305936A
:1021B000069307932B484FF08042026063224260EF
:1021C000836040F6B732C2600361836102F0A2FA15
:1021D000002831D14FF480530A930AA9214802F014
:1021E0005DFC60BB1F4802F0C1FA58BB0023089396
:1021F000099308A91B4802F069FE30BB60230193D4
:10220000002202920392059201A9164802F034FBC3
:10221000F0B904220DEB0201124802F02DFBD0B9F7
:10222000082201A90F4802F027FBB8B90D48FFF7B3
:1022300055FF0FB05DF804FBFFF726FBCAE7FFF779
:1022400023FBCFE7FFF720FBD0E7FFF71DFBD5E728
:10225000FFF71AFBDDE7FFF717FBE1E7FFF714FBDA
:10226000E4E700BFD00C002000B593B000230E932C
:102270000F93109311930C930D930593069307936B
:10228000089309930A930B93019302930393049386
:102290003748384A026063224260836040F6B732B2
:1022A000C2600361836102F035FA002845D14FF422
:1022B00080530E930EA92E4802F0F0FB00283FD168
:1022C0002B4802F053FA00283DD1294802F07AFA4F
:1022D00000283BD100230C930D930CA9244802F055
:1022E000F5FD002835D16023059300220692079260
:1022F000099205A91E4802F0BFFA68BB042205A98D
:102300001B4802F0B9FA50BB082205A9184802F090
:10231000B3FA38BB0A2301930123029300230393EA
:1023200004930C2201A9124802F04AFBE8B91048B4
:10233000FFF7D4FE13B05DF804FBFFF7A5FAB6E78C
:10234000FFF7A2FABCE7FFF79FFABEE7FFF79CFA98
:10235000C0E7FFF799FAC6E7FFF796FACEE7FFF76F
:1023600093FAD1E7FFF790FAD4E7FFF78DFADEE7AB
:10237000880C00200004004008B50A480A4B03609E
:102380004FF4E133436000238360C36003610C2298
:1023900042618361C36102F0CDFE00B908BDFFF761
:1023A00073FAFBE7600D00200044004000B589B0DF
:1023B0000023039304930593069307930268154B38
:1023C0009A4202D009B05DF804FB0021019103F5A7
:1023D000FA331A6C42F400321A641A6C02F40032B6
:1023E0000192019A02911A6B42F001021A631B6B6F
:1023F00003F001030293029B0C2303930223049333
:10240000032306930723079303A9034800F0B0FEB4
:10241000D8E700BF0044004000000240DFF834D09D
:102420000D480E490E4A002302E0D458C45004332C
:10243000C4188C42F9D30B4A0B4C002301E0136003
:102440000432A242FBD3FFF74DFD03F0ABFBFFF7D5
:102450006FFA70470000022000000020C406002030
:1024600060BF0008C4060020BC100020FEE700008A
:1024700010B504460E4B1A784FF47A73B3FBF2F39F
:102480000C4A1068B0FBF3F000F056FC68B90F2C52
:1024900001D901200AE0002221464FF0FF3000F070
:1024A0002DFC054B1C60002000E0012010BD00BF8A
:1024B00004000020000000200800002008B50B4B9D
:1024C0001A6842F400721A601A6842F480621A6054
:1024D0001A6842F480721A60032000F0FDFB0F209E
:1024E000FFF7C6FFFFF772FC002008BD003C02406A
:1024F000034A1168034B1B780B441360704700BFFD
:10250000A40D002004000020014B1868704700BF94
:10251000A40D002038B50446FFF7F6FF0546B4F1D8
:10252000FF3F02D0044B1B781C44FFF7EDFF401B1C
:10253000A042FAD338BD00BF040000204A4B5A68BD
:1025400022F440325A605A6841680A435A6002686D
:10255000536823F48073536002685368016943EA47
:10256000012353600268536823F04073536002688C
:10257000536881680B4353600268936823F40063D7
:10258000936002689368C1680B439360826A374B1B
:102590009A4257D00268936823F070639360026890
:1025A0009368816A0B4393600268936823F04053F9
:1025B000936002689368C16A0B43936002689368F2
:1025C00023F00203936002689368017E43EA4103AB
:1025D000936090F82030002B3FD00268536843F49A
:1025E000006353600268536823F4604353600168DA
:1025F0004B68426A013A43EA42334B600268D36A4D
:1026000023F47003D3620168CB6AC269013A43EADA
:102610000253CB620268936823F4007393600268EC
:10262000936890F8301043EA4123936002689368FE
:1026300023F48063936002689368416943EA8123CD
:10264000936070470268936823F070639360026838
:10265000936823F040539360B0E70268536823F413
:1026600000635360CAE700BF002301400100000F70
:1026700038B310B50446036C43B1236C13F0100F4C
:102680000BD00120002384F83C3010BDFEF746FF3C
:102690000023636484F83C30EFE7236C23F4885311
:1026A00023F0020343F0020323642046FFF746FFB2
:1026B00000206064236C23F0030343F001032364D0
:1026C000E0E70120704770B504460D4603689A683C
:1026D00012F4806F03D09B6813F4807F19D1FFF749
:1026E00013FF064623681A6812F0020F20D1B5F1D5
:1026F000FF3FF7D0B5B923681B6813F0020FF1D183
:10270000236C43F004032364002384F83C3003204B
:1027100032E0036C43F020030364002380F83C3074
:10272000012029E0FFF7F0FE801BA842DAD9E2E79A
:102730006FF012021A60236C43F400732364236861
:102740009A6812F0405F16D1207EB0B9DA6A12F4AE
:10275000700F03D09B6813F4806F0DD1236C23F4AA
:1027600080732364236C13F4805F05D1236C43F0E2
:102770000103236400E0002070BD0020FCE700009E
:1027800010B582B013460022019290F83C20012A35
:1027900000F094800446012280F83C200268906892
:1027A00010F0010F13D1906840F001009060464A8C
:1027B0001068464AA2FB0020800C00EB400001900C
:1027C00002E001980138019001980028F9D12268AF
:1027D000906810F4807F03D0906820F4807090603F
:1027E0002268906810F0010F5DD0206C20F4E0604A
:1027F00020F0010040F480702064526812F4806F71
:1028000005D0226C22F4405242F480522264226CA1
:1028100012F4805F34D0626C22F0060262640022FF
:1028200084F83C20A26B2A48D063A26B294810642C
:10283000A26B2948D06422686FF0220010602068E3
:10284000426842F0806242602068826842F480728E
:10285000826020680A4600F14C01A06B00F064FB26
:102860001E4B5B6813F01F0F0DD123689A6812F09E
:10287000405F25D19A6842F080429A6000201BE0B8
:1028800000226264CBE72368154A934201D00020FE
:1028900012E09A6812F0405F14D19A6842F08042C8
:1028A0009A60002008E0236C43F010032364636CFB
:1028B00043F001036364002002B010BD0220FBE777
:1028C0000020F9E70020F7E70000002083DE1B432B
:1028D0004F2A0008E9280008392A0008002301408F
:1028E000002001407047704708B5806BFFF7FBFF81
:1028F00008BD7047704770B5044603681E685D6880
:1029000016F0020F2FD005F0200262B3026C12F015
:10291000100F03D1026C42F4007202649A6812F044
:10292000405F19D1227EBAB9DA6A12F4700F03D06F
:102930009A6812F4806F0FD15A6822F020025A6010
:10294000236C23F480732364236C13F4805F03D11E
:10295000236C43F0010323642046FFF7C3FF236881
:102960006FF012021A6005F0800316F0040F37D0E2
:10297000002B35D0236C13F0100F03D1236C43F4DC
:102980000053236423689A6812F4401F21D19A6B84
:1029900012F4401F03D09A6812F4806F19D15A685C
:1029A00012F4806F15D19A6812F0405F11D1227E27
:1029B0007AB95A6822F080025A60236C23F480535B
:1029C0002364236C13F4807F03D1236C43F0010351
:1029D0002364204600F04AF923686FF00C021A6065
:1029E00005F0400316F0010F05D023B123681B68E2
:1029F00013F0010F06D105F0806516F0200F00D00E
:102A000065B970BD236C43F4803323642046FFF71F
:102A100070FF23686FF001021A60ECE7636C43F00B
:102A20000203636423686FF020051D602046FFF7F2
:102A300061FF23681D60E4E708B5806B40230364F1
:102A4000436C43F004034364FFF754FF08BD08B52B
:102A50000346806B026C12F0500F25D1036C43F4D7
:102A60000073036403689A6812F0405F19D1027E14
:102A7000BAB9DA6A12F4700F03D09A6812F4806F50
:102A80000FD15A6822F020025A60036C23F480733D
:102A90000364036C13F4805F03D1036C43F0010300
:102AA0000364FFF71FFF08BD026C12F0100F04D182
:102AB000826BD26C18469047F5E7FFF71BFFF2E7F1
:102AC00030B482B00022019290F83C20012A00F03C
:102AD000C0800346012280F83C200A68092A40D9B8
:102AE0000468E06892B202EB42021E3A4FF0070C13
:102AF0000CFA02F220EA0202E2601C68E0680A882E
:102B000002EB42021E3A8D6805FA02F20243E260CD
:102B10004A68062A3CD81C68606B02EB8202053AC0
:102B20004FF01F0C0CFA02F220EA020262631C68EA
:102B3000606B4A6802EB8202053AB1F800C00CFAF9
:102B400002F2024362631868434A904250D0186808
:102B5000414A904259D0002083F83C0002B030BC7A
:102B600070470468206992B202EB42024FF0070CF2
:102B70000CFA02F220EA020222611C6820690A882B
:102B800002EB42028D6805FA02F202432261BFE7BE
:102B90000C2A16D81D68286B02EB8202233A1F24E8
:102BA00004FA02F220EA02022A631D68286B4A68CE
:102BB00002EB8202233A0C8804FA02F202432A63EF
:102BC000C1E71D68E86A02EB8202413A1F2404FA59
:102BD00002F220EA0202EA621D68E86A4A6802EB31
:102BE0008202413A0C8804FA02F20243EA62AAE73E
:102BF0000A68122AABD1194A506820F400005060CC
:102C0000506840F480005060A1E70A68144882428E
:102C100001D0112A9FD1114A506820F480005060E1
:102C2000506840F40000506009680D4A914292D10A
:102C30000C4A12680C49A1FB0212920C02EB8202B0
:102C400052000192019A002A85D0019A013A01921C
:102C5000F8E7022082E700BF002001400023014086
:102C6000120000100000002083DE1B4370470000AC
:102C7000002808DB0901C9B200F1604000F561409D
:102C800080F80013704700F00F000901C9B2014B32
:102C90001954704714ED00E000B500F00700C0F1D2
:102CA000070CBCF1040F28BF4FF0040C031D062BCA
:102CB0000FD9C31E4FF0FF3E0EFA0CF021EA0001BF
:102CC00099400EFA03FE22EA0E0241EA02005DF884
:102CD00004FB0023EEE70000074AD36823F4E06317
:102CE0001B041B0C000200F4E060034343F0BF63CD
:102CF00043F40033D360704700ED00E010B50446A4
:102D0000054BD868C0F30220FFF7C6FF01462046F6
:102D1000FFF7AEFF10BD00BF00ED00E0002807DBAD
:102D200000F01F02400901239340024A42F820307C
:102D3000704700BF00E100E00138B0F1807F0BD2A6
:102D40004FF0E0235861054AF02182F8231000205B
:102D5000986107221A6170470120704700ED00E07A
:102D600030B405682C6824F480242C600468636007
:102D70008368402B05D0036899600368DA6030BC33
:102D8000704703689A600368D960F8E710B4036875
:102D9000D9B210390B4AA2FB014212090A4CA25CBB
:102DA000C2655F2908D923F47F7323F0030304333A
:102DB0008365806D10BC704723F47F7323F0030399
:102DC0008365F6E7ABAAAAAA5CBB0008836A82699E
:102DD00092B9012B0AD0022B02D00BB10020704710
:102DE000C36A13F0807F28D100207047C36AB3F113
:102DF000C07F24D000207047B2F5005F09D0022BBD
:102E000025D9032B25D1C36A13F0807F23D100205D
:102E10007047032B03D8DFE803F01404140A0020E2
:102E20007047C36A13F0807F0DD100207047C36ADA
:102E3000B3F1C07F09D00020704701207047012006
:102E40007047012070470120704701207047012022
:102E500070470020704701207047000070B504469D
:102E6000FFF752FB002C5BD00546022384F8353077
:102E7000002384F834302268136823F001031360C0
:102E800023681A6812F0010F0AD0FFF73DFB431BBD
:102E9000052BF5D920236365032084F8350070BD28
:102EA0001A68204911406268A0680243E068024342
:102EB0002069024360690243A0690243E06902435A
:102EC000206A02430A43616A04291ED01A602668F8
:102ED000756925F00705636A1D43042B07D1A36AB2
:102EE0001D43E36A1BB12046FFF770FF90B975617F
:102EF0002046FFF74BFFE26D3F23934083600020A5
:102F00006065012384F83530C9E7E16A206B01432D
:102F10000A43DBE740236365012084F83500BEE700
:102F20000120BCE73F8010F038B50446856D90F86D
:102F3000340001282BD0012084F8340094F83500A7
:102F4000C0B2012804D0002384F83430022038BDF8
:102F5000022084F83500002060652046FFF700FF5E
:102F6000E26D3F239340AB602268136843F0160381
:102F70001360236C23B12268136843F008031360C5
:102F80002268136843F0010313600020DFE702208A
:102F9000DDE70000F0B583B0044600230193724BD7
:102FA0001D68724BA3FB0535AD0A876D3E68C26D87
:102FB00008239340334210D003681A6812F0040FBC
:102FC0000BD01A6822F004021A60C26D08239340E5
:102FD000BB60436D43F001034365E26D0123934001
:102FE000334209D02268526912F0800F04D0BB60CE
:102FF000636D43F002036365E26D04239340334243
:1030000009D02268126812F0020F04D0BB60636D11
:1030100043F004036365E26D10239340334224D0F0
:103020002268126812F0080F1FD0BB6023681A686C
:1030300012F4802F0DD01B6813F4002F04D1236CE1
:103040009BB12046984710E0A36C73B12046984787
:103050000BE01A6812F4807F03D11A6822F008028C
:103060001A60236C0BB120469847E26D20239340F1
:10307000334255D02268126812F0100F50D0BB6056
:1030800094F83530DBB2052B0ED023681A6812F4A1
:10309000802F33D01B6813F4002F2AD1636C002BD0
:1030A0003ED0204698473BE02268136823F0160381
:1030B00013602268536923F080035361236CA3B12A
:1030C0002268136823F008031360E26D3F239340E6
:1030D000BB60012384F83530002384F83430236D3D
:1030E000002B3FD0204698473CE0A36C002BE7D153
:1030F000EBE7E36BA3B12046984711E01A6812F49E
:10310000807F09D11A6822F010021A60012384F826
:103110003530002384F83430E36B0BB120469847F8
:10312000636DFBB1636D13F0010F17D0052384F8B5
:1031300035302268136823F001031360019B0133CB
:103140000193AB4204D823681B6813F0010FF5D13B
:10315000012384F83530002384F83430E36C0BB15C
:103160002046984703B0F0BD00000020B5814E1BFB
:1031700000230F2B00F2DA8030B583B068E0856859
:103180004FEA430E032404FA0EF425EA0405CC6842
:1031900004FA0EF42C438460446824EA02044A686A
:1031A000C2F300129A40224342605FE0DC08083418
:1031B00050F8242003F00705AD004FF00F0E0EFA73
:1031C00005FE22EA0E0E0A69AA4042EA0E0240F803
:1031D00024205FE0042200E0002202FA0EF22A43DB
:1031E0000234534D45F82420524A94686FEA0C0289
:1031F00024EA0C05D1F804E01EF4801F01D04CEA4B
:1032000004054C4CA560E46802EA0405D1F804E02A
:103210001EF4001F01D04CEA0405464CE5606468CA
:1032200002EA0405D1F804E01EF4003F01D04CEAA4
:103230000405404C6560246822404D6815F4803FC9
:1032400001D04CEA04023B4C226001330F2B6BD8B7
:1032500001229A400C6804EA020C32EA0404F4D118
:103260004C6804F00304013C012C88D94A6802F040
:103270000302032A09D0C4685D000322AA4024EA9D
:1032800002048A68AA402243C2604A6802F003022C
:10329000022A8BD004684FEA430E032202FA0EF290
:1032A00024EA02044A6802F0030202FA0EF2224300
:1032B00002604A6812F4403FC7D0002201921E4AC1
:1032C000546C44F480445464526C02F48042019281
:1032D000019A9C08A51C164A52F8255003F0030ECB
:1032E0004FEA8E0E0F2202FA0EF225EA0205134A69
:1032F00090423FF471AF02F5806290420ED002F529
:10330000806290420CD002F5806290420AD002F5B1
:10331000806290423FF45EAF07225EE701225CE7E5
:1033200002225AE7032258E703B030BD704700BFBE
:1033300000380140003C01400038024000000240DB
:1033400000230F2B7CD8F0B52DE0042500E00025EC
:1033500005FA0CF5A54257D004685D004FF0030C48
:103360000CFA05FC24EA0C0404604FEAD30E0EF1BB
:10337000080E50F82E4003F00706B6000F25B540A2
:1033800024EA050440F82E40C46824EA0C04C46012
:10339000446824EA02024260826822EA0C028260E7
:1033A00001330F2B4BD801229A4002EA010632EA80
:1033B0000104F5D14FEA930E0EF10205214C54F8A9
:1033C000254003F0030C4FEA8C0C0F2505FA0CF78F
:1033D0003C401D4DA842BAD005F58065A8420DD0ED
:1033E00005F58065A8420BD005F58065A84209D097
:1033F00005F58065A842A8D00725A9E70125A7E71C
:103400000225A5E70325A3E7104C256825EA060554
:103410002560656825EA06056560E56825EA060514
:10342000E560A56825EA0605A560064E0EF10204D2
:1034300056F8245025EA070546F824508CE7F0BDDD
:10344000704700BF0038014000000240003C0140CE
:103450000AB18161704709048161704703685A6944
:1034600012F4806F01D1002070476FF480625A61BE
:1034700000230363202280F83D2080F83E30026C58
:1034800042F00402026480F83C30012070472DE9CC
:10349000F04107460D4690461E4624E0FFF734F8FB
:1034A000069BC01AB04200D8EEB900233B6320222D
:1034B00087F83D2087F83E303A6C42F020023A64AB
:1034C00087F83C3001201EE03B689C6925EA040C2B
:1034D0001FFA8CFCBCFA8CFC4FEA5C1CE04511D155
:1034E000B6F1FF3FDAD1C5F30743012BECD13B68BE
:1034F0005B6925EA030C1FFA8CFCBCFA8CFC4FEAD2
:103500005C1CEBE70020BDE8F0812DE9F0410546A9
:103510000E46174698463DE01A6842F400721A605B
:103520002B686FF480625A6100232B63202285F898
:103530003D2085F83E302A6C42F004022A6485F86A
:103540003C30012034E0FEF7DFFFA0EB0800B8427A
:1035500000D8FFB900232B63202285F83D2085F891
:103560003E302A6C42F020022A6485F83C3001206B
:103570001EE02B689C6926EA0404A4B2003C18BF34
:103580000124A4B12B685A6912F4806FC4D1B7F139
:10359000FF3FD8D1C6F30743012BEAD12B685C6902
:1035A00026EA0404A4B2003C18BF0124E9E7002085
:1035B000BDE8F081F0B583B004460D4616461F46BF
:1035C000C36A082B0DD0012B0BD013F5803F08D018
:1035D000036B122B0AD10268136843F480731360E3
:1035E00004E02268136843F4807313600097334645
:1035F00000224FF001112046FFF749FF80B92369EF
:10360000B3F5804F16D1236805F0FE051D613B46DA
:10361000324613492046FFF778FFF8B903B0F0BDF2
:1036200023681B6813F4807F02D04FF40073236477
:103630000320F3E7EB11226803F0060343F0F003E5
:1036400013613B46324607492046FFF75EFF18B933
:103650002368EDB21D61DAE70120DFE70120DDE735
:10366000020001000800010070B504460D46164630
:1036700023685B6913F0800F1CD12046FFF7EEFE34
:10368000D0B9B5F1FF3FF3D0FEF73EFF801BA84253
:1036900001D8002DECD100232363202284F83D20A3
:1036A00084F83E30226C42F02002226484F83C30E0
:1036B000012000E0002070BD0120FCE72DE9F0436F
:1036C00085B004460D4691461F46DDF830800D9EBC
:1036D0000368196841F4807119600096434600221E
:1036E0004FF00111FFF7D3FE60B9236805F0FE0526
:1036F0001D613346424626492046FFF706FF68B162
:10370000012008E023681B6813F4807F02D04FF487
:1037100000732364032005B0BDE8F0830023039306
:1037200023685A6903929B690393039B324641467F
:103730002046FFF799FF30B9012F0FD123685FFAB8
:1037400089F61E61E7E7236C042B01D00120E2E734
:103750002268136843F400731360F7E723684FEAA5
:1037600019221A61324641462046FFF77DFF20B9F3
:1037700023685FFA89F61E61CDE7236C042B01D024
:103780000120C8E72268136843F400731360F7E769
:103790000200010070B504460D46164623685B69B9
:1037A00013F0040F1CD12046FFF758FED0B9B5F135
:1037B000FF3FF3D0FEF7A8FE801BA84201D8002DE2
:1037C000ECD100232363202284F83D2084F83E308E
:1037D000226C42F02002226484F83C30012000E098
:1037E000002070BD0120FCE7002800F0CC8070B5FF
:1037F000044690F83D30002B77D0242384F83D30E8
:103800002268136823F0010313602268136843F4ED
:10381000004313602268136823F40043136000F030
:103820004FFD62685A4B9A4264D85A4B98428CBFFB
:1038300000230123002B40F0A8805749A1FB003151
:103840008B0C25686A6822F03F0242EA91426A6066
:1038500021680A6A22F03F0266684D4DAE424FD899
:10386000013313430B622168CA6922F44F4222F0EC
:10387000FF026568464B9D424CD8431E6D00B3FB6A
:10388000F5F3013340F6FC70034278D0C3F30B0329
:103890001A43CA6121680B6823F0C003E269206AF9
:1038A000024313430B6021688B6823F4034323F026
:1038B000FF032269E068024313438B602168CB68F1
:1038C00023F0FF036269A06902431343CB602268BF
:1038D000136843F00103136000202064202384F860
:1038E0003D30206384F83E0070BD80F83C30FDF729
:1038F00031FF82E7294B98428CBF0023012399E7CF
:103900004FF4967505FB03F3254DA5FB03539B0967
:103910000133A6E7A668BEB9431E05EB450CB3FB11
:10392000FCF30133C3F30B03B3FA83F35B0943BB2B
:10393000C6B9431E05EB4505B3FBF5F30133C3F3ED
:103940000B0343F40043A3E7431E05EB850C0CEB8C
:103950008C0CB3FBFCF30133C3F30B03B3FA83F317
:103960005B09E4E7431E05EB850505EB8505B3FB25
:10397000F5F30133C3F30B0343F4404388E7042317
:1039800086E7012384E7012070470120ACE700BFF0
:10399000A08601007F841E0083DE1B43FF083D00DC
:1039A000D34D6210A8B110B50446242380F83D30F1
:1039B0000268136823F001031360FDF703FF002082
:1039C000206484F83D00206384F83E0084F83C00C5
:1039D00010BD0120704700002DE9F04385B004467A
:1039E0000F46914698460C9EFEF78EFD054694F8CC
:1039F0003D00C0B2202804D00227384605B0BDE8FB
:103A0000F0830095192301224F492046FFF73FFD1F
:103A1000002840F0928094F83C30012B00F08F8019
:103A2000012384F83C3023681A6812F0010F03D197
:103A30001A6842F001021A602268136823F40063D6
:103A40001360212384F83D30102384F83E30002396
:103A50002364C4F82490A4F82A80638D23853B4B0B
:103A6000E3622B46324639462046FFF7A3FD074660
:103A7000002866D10023039323685A6903929B6947
:103A80000393039B11E0236C042B01D00127B4E7BF
:103A90002268136843F400731360F7E72A4631463F
:103AA0002046FFF777FE00282ED1238D002B36D03D
:103AB0002A4631462046FFF7D7FD0028E3D1626A47
:103AC000236812781A61606A431C6362618D89B24F
:103AD000013989B26185238D013B9BB22385226820
:103AE000516911F0040FD9D0002BD7D0437813615E
:103AF000636A01336362638D9BB2013B9BB2638552
:103B0000238D013B2385C9E7236C042B01D00127BA
:103B100073E72268136843F400731360F7E72268C1
:103B2000136843F400731360202384F83D300023AE
:103B300084F83E3084F83C305FE702275DE70227D7
:103B40005BE7012759E700BF020010000000FFFFFC
:103B50002DE9F04383B004460F46904699460C9EEB
:103B6000FEF7D2FC054694F83D00C0B2202803D0F1
:103B7000022003B0BDE8F0830095192301224B49D0
:103B80002046FFF784FC002840F0898094F83C3000
:103B9000012B00F08680012384F83C3023681A68EA
:103BA00012F0010F03D11A6842F001021A60226874
:103BB000136823F400631360212384F83D3040230D
:103BC00084F83E30002323640A9B6362BDF82C30E6
:103BD0006385638D2385364BE362019500964B46E2
:103BE000424639462046FFF769FD00285BD1238D08
:103BF000002B35D02A4631462046FFF735FD20BB45
:103C0000626A236812781A61626A531C6362218DAA
:103C1000013989B22185638D9BB2013B9BB26385DB
:103C20002368586910F0040FE1D00029DFD05278E2
:103C30001A61636A01336362238D013B2385638DBF
:103C40009BB2013B9BB26385D1E7236C042B01D06F
:103C500001208EE72268136843F400731360F7E7CE
:103C60002A4631462046FFF795FD50B1236C042BC0
:103C700001D001207DE72268136843F400731360CC
:103C8000F7E72268136843F400731360202384F875
:103C90003D30002384F83E3084F83C3069E7022050
:103CA00067E7022065E7012063E700BF020010001C
:103CB0000000FFFF002800F0E08170B582B00446EC
:103CC000036813F0010F3BD09F4B9B6803F00C037C
:103CD000042B2CD09C4B9B6803F00C03082B21D0A9
:103CE0006368B3F5803F4FD0B3F5A02F52D0964B09
:103CF0001A6822F480321A601A6822F480221A604C
:103D00006368002B50D0FEF7FFFB05468E4B1B6807
:103D100013F4003F14D1FEF7F7FB401B6428F5D9DC
:103D20000320B1E1884B5B6813F4800FD8D0864B39
:103D30001B6813F4003F03D06368002B00F09F81E1
:103D4000236813F0020F54D07F4B9B6813F00C0FC5
:103D50003ED07D4B9B6803F00C03082B33D0E36807
:103D6000002B68D0794B01221A60FEF7CDFB054687
:103D7000754B1B6813F0020F54D1FEF7C5FB401BB7
:103D80000228F5D903207FE16F4A136843F480339A
:103D90001360B5E76C4B1A6842F480221A601A6807
:103DA00042F480321A60ABE7FEF7AEFB0546664B85
:103DB0001B6813F4003FC3D0FEF7A6FB401B64282A
:103DC000F5D9032060E1604B5B6813F4800FC6D126
:103DD0005D4B1B6813F0020F03D0E368012B40F02A
:103DE0005081594A136823F0F803216943EAC1035B
:103DF0001360236813F0080F42D063696BB3534B11
:103E00000122C3F8802EFEF77FFB05464E4B5B6F09
:103E100013F0020F34D1FEF777FB401B0228F5D9CF
:103E2000032031E1484A136823F0F803216943EA8B
:103E3000C1031360DDE7454B00221A60FEF764FB07
:103E40000546414B1B6813F0020FD2D0FEF75CFB16
:103E5000401B0228F5D9032016E13C4B0022C3F891
:103E6000802EFEF751FB0546374B5B6F13F0020FB8
:103E700006D0FEF749FB401B0228F5D9032003E1D9
:103E8000236813F0040F77D02F4B1B6C13F0805F67
:103E900033D1002301932C4B1A6C42F080521A64E8
:103EA0001B6C03F080530193019B0125284B1B6879
:103EB00013F4807F23D0A368012B34D0052B38D096
:103EC000214B1A6F22F001021A671A6F22F00402C6
:103ED0001A67A368002B3DD0FEF716FB06461A4B67
:103EE0001B6F13F0020F46D1FEF70EFB801B41F251
:103EF00088339842F3D90320C6E00025D6E7144A58
:103F0000136843F480731360FEF7FEFA0646104B05
:103F10001B6813F4807FCED1FEF7F6FA801B0228CF
:103F2000F5D90320B0E0084A136F43F0010313678B
:103F3000CFE7054B1A6F42F004021A671A6F42F07E
:103F400001021A67C5E700BF00380240000047427F
:103F500000700040FEF7D8FA0646524B1B6F13F074
:103F6000020F08D0FEF7D0FA801B41F28833984246
:103F7000F3D9032088E0EDB9A369002B00F083801A
:103F8000484A926802F00C02082A51D0022B17D03E
:103F9000454B00221A66FEF7B7FA0446414B1B68F0
:103FA00013F0007F42D0FEF7AFFA001B0228F5D9CC
:103FB000032069E03B4A136C23F080531364DBE772
:103FC000394B00221A66FEF79FFA0546354B1B68EF
:103FD00013F0007F06D0FEF797FA401B0228F5D9B0
:103FE000032051E0E369226A1343626A43EA8213C1
:103FF000A26A5208013A43EA0243E26A43EA0263D0
:10400000284A5360284B01221A66FEF77DFA0446BF
:10401000244B1B6813F0007F06D1FEF775FA001BD6
:104020000228F5D903202FE000202DE000202BE00E
:10403000012B2BD01B4B5B6803F48001E26991429A
:1040400026D103F03F02216A8A4223D1616A47F6F2
:10405000C0721A40B2EB811F1ED103F44031A26A34
:104060005208013AB1EB024F18D103F07063E26AD3
:10407000B3EB026F14D1002006E00120704701204D
:1040800002E0012000E0002002B070BD0120FBE74B
:104090000120F9E70120F7E70120F5E70120F3E728
:1040A0000120F1E7003802400000474208B5264BE6
:1040B0009B6803F00C03042B41D0082B41D1224B09
:1040C0005A6802F03F025B6813F4800F12D01E4B57
:1040D0005968C1F388111D480023A1FB0001FCF7BA
:1040E00089FC194B5B68C3F3014301335B00B0FBF0
:1040F000F3F027E0144B5868C0F388104FEA401CD7
:10410000BCEB000C6EEB0E0E4FEA8E1343EA9C6381
:104110004FEA8C11B1EB0C0163EB0E03DB0043EAB9
:104120005173C90011EB000C43F100039902002305
:104130004FEA8C2041EA9C51FCF75CFCD1E7034834
:1041400000E0034808BD00BF0038024040787D0110
:104150000024F400002800F09B8070B50D46044652
:104160004F4B1B6803F007038B4208D2CBB24C4A7B
:104170001370136803F007038B4240F08B802368B1
:1041800013F0020F17D013F0040F04D0454A9368C0
:1041900043F4E0539360236813F0080F04D0414ABE
:1041A000936843F4604393603E4A936823F0F003BE
:1041B000A1680B439360236813F0010F32D063684A
:1041C000012B21D09A1E012A25D9364A126812F0F5
:1041D000020F61D033498A6822F0030213438B60D7
:1041E000FEF792F906462F4B9B6803F00C036268BA
:1041F000B3EB820F16D0FEF787F9801B41F28833AC
:104200009842F0D9032042E0264A126812F4003F97
:10421000E0D101203BE0234A126812F0007FD9D19F
:10422000012034E01E4B1B6803F00703AB4207D9A3
:10423000EAB21B4B1A701B6803F00703AB422DD187
:10424000236813F0040F06D0164A936823F4E05352
:10425000E1680B439360236813F0080F07D0114AFD
:10426000936823F46043216943EAC1039360FFF735
:104270001DFF0C4B9B68C3F303130B4AD35CD84060
:104280000A4B18600A4B1868FEF7F2F8002070BD60
:10429000012070470120FAE70120F8E70120F6E746
:1042A000003C0240003802404CBB000800000020E7
:1042B00008000020014B1868704700BF0000002074
:1042C00008B5FFF7F7FF044B9B68C3F38223034A4B
:1042D000D35CD84008BD00BF0038024044BB000892
:1042E00008B5FFF7E7FF044B9B68C3F34233034A6B
:1042F000D35CD84008BD00BF0038024044BB000872
:1043000030B4036A23F001030362026A45688369DB
:1043100023F073030C681C4322F002028B681343E2
:104320000B4A904206D0456084614A68426303624A
:1043300030BC704723F00803CA681A4322F0040314
:1043400025F440754A692A438D691543EBE700BFA0
:104350000000014030B4036A23F480730362036AEF
:104360004468C26922F073020D68154323F4007398
:104370008A6843EA02230D4A904206D04460C56130
:104380004A68C263036230BC704723F40063CA68A2
:1043900043EA022323F4806324F440544A6944EA44
:1043A00002148A6944EA0214E8E700BF00000140F1
:1043B00030B4036A23F480530362036A4468C26919
:1043C00022F4E6420D6842EA052223F400538D6888
:1043D00043EA0533074DA84206D04460C2614A68EB
:1043E0000264036230BC704724F480444D6944EA9F
:1043F0008514F2E70000014010B4036A046A24F057
:1044000001040462846924F0F00C4CEA021223F0E7
:104410000A030B438261036210BC704730B4046A24
:1044200024F0100404628469056A24F4407C4CEA98
:10443000022C2CF4704C1B039BB243EA0C0325F0B6
:10444000A005090101F0A00129438361016230BC8C
:10445000704710B4036A23F0100303628469036A8F
:1044600024F4704C4CEA023223F0A00343EA011317
:104470008261036210BC704730B4046A24F4807413
:104480000462C469056A24F0030C4CEA020C2CF0A7
:10449000F00C1B01DBB243EA0C0325F42065090292
:1044A00001F420612943C361016230BC704730B41C
:1044B000046A24F480540462C469056A24F4407CCC
:1044C0004CEA022C2CF4704C1B039BB243EA0C0305
:1044D00025F42045090301F420412943C361016209
:1044E00030BC7047836823F070030B4343F007032D
:1044F000836070477047704770477047704710B5CA
:10450000044603681A6912F0020F11D0DA6812F03B
:10451000020F0DD06FF002021A61012303770368C6
:104520009B6913F0030F70D0FDF782F90023237706
:1045300023681A6912F0040F12D0DA6812F0040F1F
:104540000ED06FF004021A610223237723689B695F
:1045500013F4407F5FD02046FDF76AF900232377EC
:1045600023681A6912F0080F12D0DA6812F0080FE7
:104570000ED06FF008021A61042323772368DB69E9
:1045800013F0030F4ED02046FDF752F90023237796
:1045900023681A6912F0100F12D0DA6812F0100FA7
:1045A0000ED06FF010021A61082323772368DB69AD
:1045B00013F4407F3DD02046FDF73AF900232377DE
:1045C00023681A6912F0010F03D0DA6812F0010FA4
:1045D00036D123681A6912F0800F03D0DA6812F01E
:1045E000800F34D123681A6912F0400F03D0DA68C3
:1045F00012F0400F32D123681A6912F0200F03D055
:10460000DA6812F0200F30D110BDFFF775FF204699
:10461000FFF773FF8AE72046FFF76EFF2046FFF79C
:104620006CFF9BE72046FFF767FF2046FFF765FF1B
:10463000ACE72046FFF760FF2046FFF75EFFBDE7CF
:104640006FF001021A612046FDF7D8F8C1E76FF05C
:1046500080021A61204600F0A1FCC3E76FF040021F
:104660001A612046FFF74AFFC5E76FF020021A6182
:10467000204600F092FCC7E70368254A90420ED01E
:10468000B0F1804F0BD0A2F57C42904207D002F5EA
:104690008062904203D002F58062904203D123F001
:1046A00070034A6813431A4A90421AD0B0F1804FFF
:1046B00017D0A2F57C42904213D002F5806290425E
:1046C0000FD002F5806290420BD002F59A329042F0
:1046D00007D002F58062904203D002F580629042DA
:1046E00003D123F44073CA68134323F080034A695B
:1046F000134303608B68C3620B688362044B984268
:1047000002D00123436170470B690363F9E700BFDF
:104710000000014040B310B5044690F83D30F3B1BD
:10472000022384F83D30214651F8040BFFF7A4FF23
:10473000012384F8463084F83E3084F83F3084F812
:10474000403084F8413084F8423084F8433084F8B3
:10475000443084F8453084F83D30002010BD80F8A6
:104760003C30FDF745FCDBE70120704740B310B556
:10477000044690F83D30F3B1022384F83D302146E1
:1047800051F8040BFFF778FF012384F8463084F8D2
:104790003E3084F83F3084F8403084F8413084F86B
:1047A000423084F8433084F8443084F8453084F84B
:1047B0003D30002010BD80F83C30FFF79BFEDBE76A
:1047C0000120704740B310B5044690F83D30F3B176
:1047D000022384F83D30214651F8040BFFF74CFFCB
:1047E000012384F8463084F83E3084F83F3084F862
:1047F000403084F8413084F8423084F8433084F803
:10480000443084F8453084F83D30002010BD80F8F5
:104810003C30FFF770FEDBE70120704730B4036ADD
:1048200023F010030362036A4468826922F4E642BB
:104830000D6842EA052223F020038D6843EA051340
:104840000C4DA84206D0446082614A6882630362CC
:1048500030BC704723F08003CD6843EA051323F092
:10486000400324F440644D6944EA85048D6944EAB8
:104870008504E8E70000014038B590F83C30012B92
:1048800066D004460D46012380F83C300C2A5AD8E5
:10489000DFE802F0075959591B59595930595959EC
:1048A00044000068FFF72CFD2268936943F0080379
:1048B00093612268936923F00403936122689369EA
:1048C00029690B43936100203EE00068FFF7A6FFD3
:1048D0002268936943F4006393612268936923F427
:1048E0008063936122689369296943EA0123936194
:1048F000002029E00068FFF72DFD2268D36943F00E
:104900000803D3612268D36923F00403D3612268CA
:10491000D36929690B43D361002015E00068FFF7D4
:1049200047FD2268D36943F40063D3612268D369E9
:1049300023F48063D3612268D369296943EA0123A0
:10494000D361002000E00120002384F83C3038BD12
:104950000220FCE770B49446046A24F00104046267
:104960008469066A144DA84214D0B0F1804F11D06A
:10497000124A90420ED002F5806290420AD002F5AF
:104980008062904206D002F59A32904202D044F002
:10499000010203E024F0030242EA0C0222F0F002DA
:1049A0001B01DBB2134326F00A0201F00A01114396
:1049B0008361016270BC7047000001400004004048
:1049C00038B590F83C30012B5AD004460D460123EF
:1049D00080F83C3052B1042A1AD0082A2BD00C2A75
:1049E0003BD00120002384F83C3038BDCB684A68B6
:1049F00009680068FFF7AEFF2268936923F00C0393
:104A0000936122689369A9680B4393610020E9E7E9
:104A1000CB684A6809680068FFF700FD226893695F
:104A200023F44063936122689369A96843EA0123F0
:104A300093610020D6E7CB684A6809680068FFF7F1
:104A40001BFD2268D36923F00C03D3612268D3696C
:104A5000A9680B43D3610020C4E7CB684A680968A2
:104A60000068FFF724FD2268D36923F44063D36113
:104A70002268D369A96843EA0123D3610020B1E722
:104A80000220B2E710B4846824F47F4C42EA032287
:104A90000A4342EA0C02826010BC704790F83C3036
:104AA000012B78D010B50446012380F83C30022356
:104AB00080F83D300268936823F47F4323F0770346
:104AC00093600B68602B4CD029D8402B54D00CD964
:104AD000502B22D1CA6849680068FFF78DFC50212D
:104AE0002068FFF7FFFC002005E0202B0DD009D93E
:104AF000302B0AD00120012384F83D30002384F8B4
:104B00003C3010BD0BB1102B05D119462068FFF7C2
:104B1000E9FC0020EFE70120EDE70120EBE7B3F52A
:104B2000805F34D0B3F5005F0CD1CB684A688968E8
:104B30000068FFF7A7FF2268936843F480439360FF
:104B40000020D8E7702B24D1CB684A6889680068B8
:104B5000FFF798FF2268936843F077039360002083
:104B6000C9E7CA6849680068FFF773FC60212068DC
:104B7000FFF7B8FC0020BEE7CA6849680068FFF785
:104B80003BFC40212068FFF7ADFC0020B3E700208C
:104B9000B1E70120AFE70220704701F01F014FF09D
:104BA000010C0CFA01FC036A23EA0C030362036A9A
:104BB0008A4013430362704710B504460846002933
:104BC00032D194F83E30DBB2013B18BF0123002BF9
:104BD00063D1002841D1022384F83E3001220146EE
:104BE0002068FFF7DAFF23682E4A934245D02368F6
:104BF0002C4A934246D0B3F1804F43D0A2F57C4279
:104C000093423FD002F5806293423BD002F580622E
:104C1000934237D002F59A32934233D01A6842F069
:104C200001021A60002037E0042908D008290DD0BD
:104C300094F84130DBB2013B18BF0123C7E794F879
:104C40003F30DBB2013B18BF0123C0E794F840308E
:104C5000DBB2013B18BF0123B9E7042805D00828BF
:104C600007D0022384F84130B8E7022384F83F30AC
:104C7000B4E7022384F84030B0E75A6C42F40042B3
:104C80005A64B4E79A6802F00702062A07D01A6845
:104C900042F001021A60002010BD0120FCE7002054
:104CA000FAE700BF0000014010B504460B46F1B919
:104CB00090F83E00C0B253BB94F84220D2B2012813
:104CC00040F09680012A40F0948083BB022184F852
:104CD0003E1084F842100C2B00F28C80DFE803F0C9
:104CE000718A8A8A418A8A8A6B8A8A8A7700042929
:104CF00005D0082907D090F84100C0B2DBE790F852
:104D00003F00C0B2D7E790F84000C0B2D3E7042B11
:104D100005D0082B07D094F84520D2B2CFE794F8FD
:104D20004320D2B2CBE794F84420D2B2C7E7042B99
:104D30000CD0082B0ED0022184F84110042B0DD08A
:104D4000082B35D0022184F84510C4E7022184F8ED
:104D50003F10F3E7022184F84010EFE7022284F8C5
:104D600043202168CA6842F00402CA600122194641
:104D70002068FFF712FF2368204A93422DD0B3F139
:104D8000804F2AD0A2F57C42934226D002F5806261
:104D9000934222D002F5806293421ED002F59A32ED
:104DA00093421AD01A6842F001021A60002020E0F3
:104DB000022284F844202168CA6842F00802CA60CE
:104DC000D4E72168CA6842F00202CA60CEE72168CF
:104DD000CA6842F01002CA60C8E79A6802F0070287
:104DE000062A09D01A6842F001021A60002000E089
:104DF000012010BD1046FCE70020FAE7000001404A
:104E000038B505460C460C295DD8DFE801F0075C93
:104E10005C5C285C5C5C2E5C5C5C34000268D36883
:104E200023F00203D360002221462868FFF7B5FE75
:104E30002B68196A41F21112114208D1196A40F225
:104E40004442114203D11A6822F001021A60C4B927
:104E5000012385F83E3085F84230002034E00268B6
:104E6000D36823F00403D360DDE70268D36823F03E
:104E70000803D360D7E70268D36823F01003D36038
:104E8000D1E7042C0DD0082C0FD0012385F8413038
:104E9000042C0ED0082C11D0012385F845300020B9
:104EA00012E0012385F83F30F2E7012385F8403016
:104EB000EEE7012385F84330002005E0012385F863
:104EC0004430002000E0012038BD000090F83C2074
:104ED000012A34D010B40346012280F83C2002227B
:104EE00080F83D2002685068946820F0700C0868D3
:104EF00040EA0C0050601A681248824212D0B2F1A7
:104F0000804F0FD0A0F57C4082420BD000F580602E
:104F1000824207D000F58060824203D000F59A30CB
:104F2000824204D124F08004496821439160012227
:104F300083F83D20002083F83C0010BC704702201D
:104F4000704700BF00000140024690F83C30012B42
:104F500021D0012380F83C30CB6823F4407388686B
:104F6000034323F480634868034323F40063086821
:104F7000034323F480530869034323F4005348692F
:104F8000034323F48043C9690B4311684B64002039
:104F900082F83C007047022070477047704700005D
:104FA00010B504460268136923F44053C1680B43EB
:104FB0001361836802691A4343691A43C3691A4338
:104FC0000168CB6823F4164323F00C031343CB6032
:104FD0000268536923F4407381690B43536103688A
:104FE000314A934206D002F58062934202D0FFF725
:104FF00067F901E0FFF774F9E369B3F5004F29D0D1
:105000000021031849411B1841F10001C90041EA80
:105010005371DB00181863684FEA83024FEA9373F9
:1050200041F10001FBF7E6FC204AA2FB00314909EF
:10503000642303FB11031B013233A2FB03235B092F
:1050400003F0F00202EB011203F00F032168134496
:105050008B6010BD0023021843EB0301121841F1CD
:105060000001C90041EA5271D200101841F100015B
:10507000626892185B41FBF7BDFC0C4AA2FB003151
:105080004909642303FB1103DB003233A2FB032332
:105090005B095A0002F4F87202EB011203F00703F5
:1050A000216813448B60D4E7001001401F85EB5149
:1050B0002DE9F84305460F4616469946DDF820804F
:1050C0002B681C6837EA04040CBF01240024B44296
:1050D0002DD1B8F1FF3FF3D0B8F1000F05D0FDF7A7
:1050E00013FAA0EB09004045EAD92A6802F10C0343
:1050F00053E8003F23F4D0730C3242E8003100291A
:10510000F3D12A6802F1140353E8003F23F00103AE
:10511000143242E800310029F3D1202385F83D30D4
:1051200085F83E30002385F83C30032000E0002065
:10513000BDE8F88358B310B5044690F83D300BB382
:10514000242384F83D302268D36823F40053D360CD
:105150002046FFF725FF2268136923F4904313616B
:105160002268536923F02A0353612268D36843F409
:105170000053D36000202064202384F83D3084F85D
:105180003E3010BD80F83C30FDF710F9D8E7012023
:1051900070472DE9F04182B01E4690F83D30DBB2F9
:1051A000202B54D104460D469046002953D0002AA6
:1051B00053D090F83C30012B51D0012380F83C3083
:1051C00000230364212380F83D30FDF79DF9074655
:1051D000A4F82480A4F82680A368B3F5805F05D0E6
:1051E0004FF00008002384F83C3012E0236913B12B
:1051F0004FF00008F6E7A8460025F3E738F8023B31
:105200002268C3F308035360E28C92B2013A92B26F
:10521000E284E38C9BB273B100963B46002280216E
:105220002046FFF745FFE0B9002DE7D015F8012B28
:1052300023685A60E8E700963B460022402120465A
:10524000FFF736FF78B9202384F83D3000E00220D4
:1052500002B0BDE8F0810120FAE70120F8E7022062
:10526000F6E70320F4E70320F2E72DE9F04182B0EE
:105270001E4690F83E30DBB2202B5CD104460D4632
:10528000904600295BD0002A5BD090F83C30012B7F
:1052900059D0012380F83C3000230364222280F897
:1052A0003E200363FDF730F90746A4F82C80A4F8EC
:1052B0002E80A368B3F5805F05D04FF0000800236F
:1052C00084F83C3017E0236913B14FF00008F6E78B
:1052D000A8460025F3E723685B68C3F3080328F8B2
:1052E000023B03E023685B682B700135E28D92B2CC
:1052F000013A92B2E285E38D9BB2BBB100963B4688
:10530000002220212046FFF7D3FEF0B9002DE2D085
:10531000A368B3F5805FE5D013B92369002BE1D012
:1053200023685B6803F07F032B70DEE7202384F89B
:105330003E30002000E0022002B0BDE8F0810120F4
:10534000FAE70120F8E70220F6E70320F4E700007F
:105350002DE9F047089D0C46002B4ED194468C4514
:105360008646B2FA82F262D94AB1C2F12003914074
:1053700020FA03F30CFA02FC194300FA02FE4FEA8A
:105380001C471FFA8CF6B1FBF7F44FEA1E4307FBEC
:10539000141143EA014304FB06F199420AD91CEBBC
:1053A000030304F1FF3080F01281994240F20F8133
:1053B000023C6344591A1FFA8EF3B1FBF7F007FB66
:1053C000101143EA014300FB06F69E420AD91CEB8A
:1053D000030300F1FF3180F0FC809E4240F2F9802F
:1053E000634402389B1B40EA044000211DB1D340B6
:1053F0000022C5E90032BDE8F0878B4205D90DB126
:10540000C5E9000100210846F5E7B3FA83F1002958
:1054100046D1A34202D39042C0F0F080861A64EBDA
:1054200003030120002DE6D0C5E90063E3E7002A6D
:1054300040F09080A1EB0C044FEA1C481FFA8CF757
:105440000121B4FBF8F64FEA1E4308FB164443EA79
:10545000044307FB06F0984208D91CEB030306F14E
:10546000FF3402D2984200F2CD8026461C1A1FFA61
:105470008EF3B4FBF8F008FB104443EA044300FB4E
:1054800007F79F4208D91CEB030300F1FF3402D257
:105490009F4200F2B0802046DB1B40EA0640A5E7B1
:1054A000C1F120068B4022FA06F71F4320FA06FCC2
:1054B00004FA01F343EA0C03F44000FA01F8380C53
:1054C0004FEA1349B4FBF0FE1FFA87FC00FB1E44B1
:1054D00049EA04440EFB0CF9A14502FA01F20AD98B
:1054E0003C190EF1FF3A80F08480A14540F28180A2
:1054F000AEF1020E3C44A4EB09041FFA83F9B4FB9D
:10550000F0F300FB134449EA044403FB0CFCA445FC
:1055100007D93C1903F1FF3067D2A44565D9023B96
:105520003C4443EA0E40A0FB0293A4EB0C049C42D3
:10553000CE469C4651D34ED055B1B8EB0E0364EB2A
:105540000C0404FA06F6CB401E43CC40C5E90064C7
:10555000002150E7C2F1200320FA03F10CFA02FC0B
:1055600024FA03F394400C434FEA1C4800FA02FE6D
:105570001FFA8CF7B3FBF8F008FB1031230C43EA59
:10558000014300FB07F1994208D91CEB030300F12A
:10559000FF362CD299422AD9023863445B1AA4B24E
:1055A000B3FBF8F108FB113344EA034401FB07F3B2
:1055B000A34208D91CEB040401F1FF3613D2A34225
:1055C00011D902396444E41A41EA004139E704463A
:1055D000F0E6084606E7C845AED2B9EB020E63EB2B
:1055E000070C0138A8E73146EDE7034699E7304656
:1055F000D4E7D6467FE7634402384DE706462346A4
:1056000008460FE7023E634430E700BF024A034901
:10561000034800F0C9B800BF0C000020F591000855
:10562000200000200C4B4168994210B5044601D07F
:1056300003F0E0FDA168094B994202D0204603F037
:10564000D9FDE168064B994204D02046BDE81040E0
:1056500003F0D0BD10BD00BFA80D0020100E00202B
:10566000780E00202DE9F843314C324B3248DFF8F8
:10567000CC90DFF8CC80334F1860002529460423F6
:10568000082204F15C00304EE360C4E90055C4E92F
:105690000455A5606566A56100F0D8F904F15800CD
:1056A000C4E90749C4E90987E66200F0A3FA29467C
:1056B000264B6367082204F1C400C4E91A55C4E903
:1056C0001E552567C4F8CC50C4F8805000F0BEF9D0
:1056D00004F1680304F1C000C4F88430C4E92298DE
:1056E000C4E9247600F086FA194BC4F8DC30294668
:1056F00004F596700822C4E93455C4E93855C4F855
:10570000D850C4F83451C4F8E85000F09FF904F1BF
:10571000D003C4E93D87C4F8F09004F59470C4F850
:10572000FC60C4F8EC30BDE8F84300F063BA00BF99
:10573000A80D0020E00E00200D560008BD590008FD
:10574000E1590008215A0008455A000809000100E3
:105750001200020010B504460A4800F04FFA636BCD
:1057600023B9094B094A1B68626323B1BDE81040A5
:10577000044800F045BAFFF775FFBDE81040014846
:1057800000F03EBAF00E0020E00E00202556000882
:10579000014800F033BA00BFF00E0020014800F0CD
:1057A0002FBA00BFF00E00202DE9F84380460F46C7
:1057B00016464FF00009D6E90154013D11D4A389E2
:1057C000012B05F1FF3508D9B4F90E30013321461C
:1057D00003D04046B84749EA00096B1C04F168044D
:1057E000EDD13668002EE6D14846BDE8F88300BF0B
:1057F0000FB400B5074983B004AB086853F8042B15
:105800008168019300F036FE03B05DF804EB04B04C
:10581000704700BF180000202DE9F043664CD4F813
:10582000008083B004460E4617461D46B8F1000FAF
:1058300004D0D8F83430002B00F0A680022F05D019
:10584000012F00F2A580002DC0F2A280636EDA075E
:1058500051D52146404603F0C1FD216B41B104F111
:105860004003994202D0404600F038FA00232363F7
:10587000B4F90CC000231CF0800FA36163605DD1FC
:105880002CF44A6C2CF0030C022FA4F80CC063D04B
:1058900001AB6A462146404603F0B4FFA389184392
:1058A000A081002D2ED0002E2DD0D8F83430002B22
:1058B00037D0009AB4F90C302660AA421CBF43F4DA
:1058C0000063A381012F04BF43F00103A38113F000
:1058D0000802C4E9046528D0D90753D50022A26084
:1058E000626E6D42D207A56123D49B0521D4A06DC1
:1058F00000F086F91DE0A3899B05AAD4A06D00F0F5
:105900007DF9A6E7009D284600F0E6FA0646002845
:1059100041D0A38943F08003A381D8F83430002B11
:10592000C7D14046FFF716FFC3E7A260626ED207F9
:10593000DBD50025284603B0BDE8F0832169404649
:1059400000F0CCF9B4F90CC02CF44A6C2CF0030C28
:10595000022FA4F80CC09BD100254CF00202A281BA
:10596000002204F14303A2600122C4E9043223604F
:10597000636ED807DED41CF4007FDBD1A06D00F08D
:105980003FF9D7E7A560D1E74046FFF7E3FE55E7CB
:105990004FF0FF35CEE7DDF80090A94506D0484628
:1059A00000F09AFA064608B14D46B2E7B4F90CC0C9
:1059B0004FF0FF35D1E700BF1800002010B50C46AE
:1059C000B1F90E1000F0BCF8002803DB236D03448E
:1059D000236510BDA38923F48053A38110BD00BFAC
:1059E0002DE9F0410C46B1F90C101F46CB050546D8
:1059F00016460BD421F48051A1813B46B4F90E1018
:105A000032462846BDE8F04100F0B0B8B4F90E10B7
:105A10000223002200F07EF8B4F90C10EAE700BF80
:105A200010B50C46B1F90E1000F074F8B4F90C3052
:105A3000421C0EBF23F4805343F480532065A3819E
:105A400010BD00BFB1F90E1000F052B8830730B599
:105A500047D0541E002A3ED0CAB2034601E0013CA2
:105A600039D303F8012B9D07F9D1032C2CD9CDB2E2
:105A700005EB05250F2C05EB054535D9A4F11002E2
:105A800022F00F0C03F1100EE6444FEA121C1A46E6
:105A9000156055609560D56010327245F8D10CF1F3
:105AA000010214F00C0F03EB021204F00F0C13D0E0
:105AB000ACF1040323F003030433134442F8045B02
:105AC0009A42FBD10CF003042CB1C9B21C4403F878
:105AD000011B9C42FBD130BD64461346002CF4D11F
:105AE000F9E703461446C0E71A46A446E0E700BFBC
:105AF00038B5074D0022044608462A60FCF72CF909
