:020000040800F2
:1000000000000220D9220008A91C0008AB1C00082F
:10001000AD1C0008AF1C0008B11C00080000000067
:10002000000000000000000000000000B31C0008F9
:10003000B51C000800000000B71C0008B91C00082F
:100040002923000829230008292300082923000860
:100050002923000829230008292300082923000850
:100060002923000829230008292300082923000840
:100070002923000829230008292300082923000830
:100080002923000829230008292300080000000074
:10009000000000000000000000000000292300080C
:1000A000C11C0008D11C0008E11C0008F11C00085C
:1000B000011D0008111D000829230008292300083C
:1000C00029230008292300082923000829230008E0
:1000D0002923000829230008211D00080000000032
:1000E0002923000829230008292300080000000014
:1000F00000000000000000000000000029230008AC
:1001000000000000292300082923000829230008F3
:1001100000000000000000000000000000000000DF
:10012000292300082923000829230008292300087F
:10013000292300080000000000000000000000006B
:10014000000000000000000000000000292300085B
:10015000292300082923000829230008292300084F
:1001600029230008292300080000000000000000E7
:10017000000000000000000000000000000000007F
:10018000000000002923000800000000000000001B
:080190002923000829230008BF
:1001C00010B5054C237833B9044B13B10448AFF391
:1001D00000800123237010BDB8090020000000003A
:1001E000BCAE000808B5034B1BB103490348AFF38D
:1001F000008008BD00000000BC090020BCAE000863
:1002000053B94AB9002908BF00281CBF4FF0FF317D
:100210004FF0FF3000F074B9ADF1080C6DE904CE79
:1002200000F006F8DDF804E0DDE9022304B07047D1
:100230002DE9F047089E0D4604468846002B4DD117
:100240008A42944668D9B2FA82F252B101FA02F3B4
:10025000C2F1200120FA01F10CFA02FC41EA030884
:1002600094404FEA1C45210CB8FBF5FE1FFA8CF7B1
:1002700005FB1E8341EA03430EFB07F199420BD9AC
:100280001CEB03030EF1FF3080F01E81994240F217
:100290001B81AEF1020E63445B1AA4B2B3FBF5F00E
:1002A00005FB103344EA034400FB07F7A7420AD9D1
:1002B0001CEB040400F1FF3380F00881A74240F2F8
:1002C000058164440238E41B40EA0E4000211EB15F
:1002D000D4400023C6E90043BDE8F0878B4208D92B
:1002E000002E00F0EE800021C6E900050846BDE8BA
:1002F000F087B3FA83F100294AD1AB4202D382429C
:1003000000F2F980841A65EB030301209846002E61
:10031000E2D0C6E90048DFE702B9FFDEB2FA82F2B6
:10032000002A40F09180A1EB0C054FEA1C471FFA10
:100330008CFE0121B5FBF7F307FB1350250C45EAB2
:1003400000450EFB03F0A84208D91CEB050503F19C
:10035000FF3802D2A84200F2CB8043462D1AA4B245
:10036000B5FBF7F007FB105544EA05440EFB00FE11
:10037000A64508D91CEB040400F1FF3502D2A645BE
:1003800000F2BB802846A4EB0E0440EA03409EE73F
:10039000C1F120078B4022FA07FC4CEA030C20FA3B
:1003A00007F405FA01F31C43FD404FEA1C4900FA2B
:1003B00001F3B5FBF9F8200C1FFA8CFE09FB185568
:1003C00040EA054508FB0EF0A84202FA01F20BD9FB
:1003D0001CEB050508F1FF3A80F08880A84240F246
:1003E0008580A8F1020865442D1AA4B2B5FBF9F086
:1003F00009FB105544EA054500FB0EFEAE4508D941
:100400001CEB050500F1FF346CD2AE456AD9023809
:10041000654440EA0840A0FB0294A5EB0E05A54206
:10042000C846A64656D353D05EB1B3EB080265EB7F
:100430000E0505FA07F722FA01F3CD401F43C6E97E
:1004400000750021BDE8F087C2F1200320FA03F116
:100450000CFA02FC25FA03F395400D434FEA1C47C2
:100460001FFA8CFEB3FBF7F107FB11302B0C43EAAC
:10047000004301FB0EF0984204FA02F408D91CEB89
:10048000030301F1FF382FD298422DD9023963447A
:100490001B1AADB2B3FBF7F007FB103345EA034577
:1004A00000FB0EF3AB4208D91CEB050500F1FF3849
:1004B00016D2AB4214D902386544ED1A40EA014124
:1004C00038E73146304607E78646E5E61846FAE65D
:1004D0004B45A9D2B9EB020864EB0C0E0138A3E737
:1004E0004046EAE7204694E74146D1E7D0467BE71D
:1004F000023B654432E7084609E76444023842E7B4
:10050000704700BF00000000000000000000000075
:1005100001F0FF01102A2BDB10F0070F08D010F8B4
:10052000013B013A8B422DD010F0070F42B3F6D1B8
:10053000F0B441EA012141EA014122F007047FF0D1
:1005400000070023F0E80256083C85EA010586EA28
:10055000010685FA47F5A3FA87F586FA47F6A5FA64
:1005600087F68EB9EED1F0BC01F0FF0102F0070270
:1005700032B110F8013B013A83EA010313B1F8D11B
:100580000020704701387047002D06BF35460338FC
:10059000073815F0010F07D1013015F4807F02BF35
:1005A000013015F4C03F0130F0BC0138704700BF86
:1005B000844641EA000313F003036DD1403A41D36E
:1005C00051F8043B40F8043B51F8043B40F8043B2D
:1005D00051F8043B40F8043B51F8043B40F8043B1D
:1005E00051F8043B40F8043B51F8043B40F8043B0D
:1005F00051F8043B40F8043B51F8043B40F8043BFD
:1006000051F8043B40F8043B51F8043B40F8043BEC
:1006100051F8043B40F8043B51F8043B40F8043BDC
:1006200051F8043B40F8043B51F8043B40F8043BCC
:1006300051F8043B40F8043B51F8043B40F8043BBC
:10064000403ABDD2303211D351F8043B40F8043B5C
:1006500051F8043B40F8043B51F8043B40F8043B9C
:1006600051F8043B40F8043B103AEDD20C3205D36C
:1006700051F8043B40F8043B043AF9D2043208D064
:10068000D2071CBF11F8013B00F8013B01D30B88D6
:1006900003806046704700BF082A13D38B078DD0B4
:1006A00010F003038AD0C3F10403D21ADB071CBF86
:1006B00011F8013B00F8013B80D331F8023B20F8F0
:1006C000023B7BE7043AD9D3013A11F8013B00F829
:1006D000013BF9D20B7803704B7843708B788370B1
:1006E00060467047000000000000000000000000AD
:1006F00000000000000000000000000000000000FA
:1007000090F800F06DE9024520F007016FF0000C51
:1007100010F0070491F820F040F049804FF00004F9
:100720006FF00700D1E9002391F840F000F10800D4
:1007300082FA4CF2A4FA8CF283FA4CF3A2FA8CF30C
:100740004BBBD1E9022382FA4CF200F10800A4FA73
:100750008CF283FA4CF3A2FA8CF3E3B9D1E90423C7
:1007600082FA4CF200F10800A4FA8CF283FA4CF3FE
:10077000A2FA8CF37BB9D1E9062301F1200182FAB8
:100780004CF200F10800A4FA8CF283FA4CF3A2FABE
:100790008CF3002BC6D0002A04BF04301A4612BACC
:1007A000B2FA82F2FDE8024500EBD2007047D1E9CF
:1007B000002304F00305C4F100004FEAC50514F05E
:1007C000040F91F840F00CFA05F562EA05021CBF2F
:1007D00063EA050362464FF00004A9E781F0004197
:1007E00002E000BF83F0004330B54FEA41044FEA16
:1007F000430594EA050F08BF90EA020F1FBF54EAB1
:10080000000C55EA020C7FEA645C7FEA655C00F04C
:10081000E2804FEA5454D4EB5555B8BF6D420CDD1D
:100820002C4480EA020281EA030382EA000083EAA0
:10083000010180EA020281EA0303362D88BF30BD40
:1008400011F0004F4FEA01314FF4801C4CEA113196
:1008500002D0404261EB410113F0004F4FEA0333F5
:100860004CEA133302D0524263EB430394EA050F80
:1008700000F0A780A4F10104D5F1200E0DDB02FAEF
:100880000EFC22FA05F2801841F1000103FA0EF283
:10089000801843FA05F359410EE0A5F120050EF149
:1008A000200E012A03FA0EFC28BF4CF0020C43FA7A
:1008B00005F3C01851EBE37101F0004507D54FF087
:1008C000000EDCF1000C7EEB00006EEB0101B1F5D7
:1008D000801F1BD3B1F5001F0CD349085FEA30001D
:1008E0004FEA3C0C04F101044FEA445212F5800F28
:1008F00080F09A80BCF1004F08BF5FEA500C50F1C5
:10090000000041EB045141EA050130BD5FEA4C0CA7
:10091000404141EB0101013C28BFB1F5801FE9D204
:1009200091F0000F04BF01460020B1FA81F308BF27
:100930002033A3F10B03B3F120020CDA0C3208DDF3
:1009400002F1140CC2F10C0201FA0CF021FA02F1CE
:100950000CE002F11402D8BFC2F1200C01FA02F13E
:1009600020FA0CFCDCBF41EA0C019040E41AA2BF63
:1009700001EB0451294330BD6FEA04041F3C1CDA2B
:100980000C340EDC04F11404C4F1200220FA04F04B
:1009900001FA02F340EA030021FA04F345EA0301F5
:1009A00030BDC4F10C04C4F1200220FA02F001FAB7
:1009B00004F340EA0300294630BD21FA04F0294639
:1009C00030BD94F0000F83F4801306BF81F48011D2
:1009D0000134013D4EE77FEA645C18BF7FEA655C45
:1009E00029D094EA050F08BF90EA020F05D054EA17
:1009F000000C04BF1946104630BD91EA030F1EBF1C
:100A00000021002030BD5FEA545C05D1400049411F
:100A100028BF41F0004130BD14F580043CBF01F512
:100A2000801130BD01F0004545F0FE4141F47001F8
:100A30004FF0000030BD7FEA645C1ABF19461046D3
:100A40007FEA655C1CBF0B46024650EA013406BFD4
:100A500052EA033591EA030F41F4002130BD00BF93
:100A600090F0000F04BF0021704730B54FF4806450
:100A700004F132044FF000054FF0000150E700BFD1
:100A800090F0000F04BF0021704730B54FF4806430
:100A900004F1320410F0004548BF40424FF000011D
:100AA0003EE700BF42004FEAE2014FEA31014FEA60
:100AB00002701FBF12F07F4393F07F4F81F06051AF
:100AC000704732F07F4208BF704793F07F4F04BFFA
:100AD00041F40021704730B54FF4607401F00045D7
:100AE00021F000411CE700BF50EA010208BF704737
:100AF00030B54FF000050AE050EA010208BF704728
:100B000030B511F0004502D5404261EB41014FF490
:100B1000806404F132045FEA915C3FF4D8AE4FF098
:100B200003025FEADC0C18BF03325FEADC0C18BF7B
:100B3000033202EBDC02C2F1200300FA03FC20FACC
:100B400002F001FA03FE40EA0E0021FA02F1144419
:100B5000BDE600BF70B54FF0FF0C4CF4E06C1CEA32
:100B600011541DBF1CEA135594EA0C0F95EA0C0FA3
:100B700000F0DEF82C4481EA030621EA4C5123EA16
:100B80004C5350EA013518BF52EA033541F4801145
:100B900043F4801338D0A0FB02CE4FF00005E1FBF8
:100BA00002E506F00042E0FB03E54FF00006E1FB42
:100BB00003569CF0000F18BF4EF0010EA4F1FF0485
:100BC000B6F5007F64F5407404D25FEA4E0E6D41C5
:100BD00046EB060642EAC62141EA55514FEAC520D6
:100BE00040EA5E504FEACE2EB4F1FD0C88BFBCF552
:100BF000E06F1ED8BEF1004F08BF5FEA500E50F103
:100C0000000041EB045170BD06F0004646EA0101C8
:100C100040EA020081EA0301B4EB5C04C2BFD4EBFA
:100C20000C0541EA045170BD41F480114FF0000EF3
:100C3000013C00F3AB8014F1360FDEBF002001F061
:100C4000004170BDC4F10004203C35DA0C341BDCDB
:100C500004F11404C4F1200500FA05F320FA04F0AD
:100C600001FA05F240EA020001F0004221F00041E1
:100C700010EBD37021FA04F642EB06015EEA430E54
:100C800008BF20EAD37070BDC4F10C04C4F1200584
:100C900000FA04F320FA05F001FA04F240EA020037
:100CA00001F0004110EBD37041F100015EEA430E08
:100CB00008BF20EAD37070BDC4F1200500FA05F228
:100CC0004EEA020E20FA04F301FA05F243EA0203A7
:100CD00021FA04F001F0004121FA04F220EA0200B6
:100CE00000EBD3705EEA430E08BF20EAD37070BDFC
:100CF00094F0000F0FD101F00046400041EB0101DC
:100D000011F4801F08BF013CF7D041EA060195F0BD
:100D1000000F18BF704703F00046520043EB030377
:100D200013F4801F08BF013DF7D043EA0603704764
:100D300094EA0C0F0CEA135518BF95EA0C0F0CD06F
:100D400050EA410618BF52EA4306D1D181EA0301B5
:100D500001F000414FF0000070BD50EA410606BFAF
:100D60001046194652EA430619D094EA0C0F02D1F4
:100D700050EA013613D195EA0C0F05D152EA033639
:100D80001CBF104619460AD181EA030101F0004157
:100D900041F0FE4141F470014FF0000070BD41F0A0
:100DA000FE4141F4780170BD70B54FF0FF0C4CF47A
:100DB000E06C1CEA11541DBF1CEA135594EA0C0F99
:100DC00095EA0C0F00F0A7F8A4EB050481EA030EE6
:100DD00052EA03354FEA013100F088804FEA0333CD
:100DE0004FF0805545EA131343EA12634FEA02229B
:100DF00045EA111545EA10654FEA00260EF000415C
:100E00009D4208BF964244F1FD0404F5407402D2AD
:100E10005B084FEA3202B61A65EB03055B084FEA3E
:100E200032024FF480104FF4002CB6EB020E75EB3B
:100E3000030E22BFB61A754640EA0C005B084FEA63
:100E40003202B6EB020E75EB030E22BFB61A7546E0
:100E500040EA5C005B084FEA3202B6EB020E75EB2B
:100E6000030E22BFB61A754640EA9C005B084FEAA3
:100E70003202B6EB020E75EB030E22BFB61A7546B0
:100E800040EADC0055EA060E18D04FEA051545EA9F
:100E900016754FEA06164FEAC30343EA52734FEA48
:100EA000C2025FEA1C1CC0D111F4801F0BD141EAC1
:100EB00000014FF000004FF0004CB6E711F4801F26
:100EC00004BF01430020B4F1FD0C88BFBCF5E06F06
:100ED0003FF6AFAEB5EB030C04BFB6EB020C5FEA16
:100EE000500C50F1000041EB045170BD0EF0004E6B
:100EF0004EEA113114EB5C04C2BFD4EB0C0541EA9D
:100F0000045170BD41F480114FF0000E013C90E699
:100F100045EA060E8DE60CEA135594EA0C0F08BF5D
:100F200095EA0C0F3FF43BAF94EA0C0F0AD150EA5C
:100F300001347FF434AF95EA0C0F7FF425AF1046EF
:100F400019462CE795EA0C0F06D152EA03353FF417
:100F5000FDAE1046194622E750EA410618BF52EA94
:100F600043067FF4C5AE50EA41047FF40DAF52EA68
:100F700043057FF4EBAE12E74FF0FF3C06E000BF05
:100F80004FF0010C02E000BF4FF0010C4DF804CD12
:100F90004FEA410C7FEA6C5C4FEA430C18BF7FEAD2
:100FA0006C5C1BD001B050EA410C0CBF52EA430C00
:100FB00091EA030F02BF90EA020F0020704710F180
:100FC000000F91EA030F58BF994208BF90422CBF0F
:100FD000D8176FEAE37040F0010070474FEA410C08
:100FE0007FEA6C5C02D150EA013C07D14FEA430C26
:100FF0007FEA6C5CD6D152EA033CD3D05DF8040B97
:10100000704700BF8446104662468C4619466346C8
:1010100000E000BF01B5FFF7B7FF002848BF10F19F
:10102000000F01BD4DF808EDFFF7F4FF0CBF0120E4
:1010300000205DF808FB00BF4DF808EDFFF7EAFF60
:1010400034BF012000205DF808FB00BF4DF808ED1B
:10105000FFF7E0FF94BF012000205DF808FB00BF10
:101060004DF808EDFFF7CEFF94BF012000205DF89A
:1010700008FB00BF4DF808EDFFF7C4FF34BF0120A7
:1010800000205DF808FB00BF4FEA410C7FEA6C5C72
:1010900002D150EA013C0AD14FEA430C7FEA6C5C72
:1010A00002D152EA033C02D14FF0000070474FF0EA
:1010B000010070474FEA410212F5001215D211D516
:1010C0006FF47873B3EB625212D94FEAC12343F045
:1010D000004343EA505311F0004F23FA02F018BFC7
:1010E000404270474FF00000704750EA013005D190
:1010F00011F0004008BF6FF0004070474FF0000053
:10110000704700BF014B1860704700BFD80900202E
:1011100008B50121494801F0A1FB012855D0484BF1
:101120001B6800221A80474803F07EFE02214348D4
:1011300001F094FB012850D0414B1B6800225A80DB
:10114000404803F071FE10213C4801F087FB012864
:101150004BD03B4B1B6800229A803A4803F064FE58
:101160002021364801F07AFB012846D0344B1B6819
:101170000022DA80334803F057FE40212F4801F067
:101180006DFB012841D02E4B1B6800221A812D488F
:1011900003F04AFE8021294801F060FB01283CD081
:1011A000274B1B6800225A81264803F03DFE01218F
:1011B000254801F053FB012837D0214B1B68002242
:1011C0009A81204803F030FE08BD1D4B1B680122A8
:1011D0001A801E4803F028FEA8E7194B1B6801225D
:1011E0005A801A4803F020FEADE7154B1B68012218
:1011F0009A80164803F018FEB2E7114B1B680122D3
:10120000DA80124803F010FEB7E70D4B1B6801228D
:101210001A810E4803F008FEBCE7094B1B68012247
:101220005A810A4803F000FEC1E7054B1B68012202
:101230009A81064803F0F8FDC6E700BF00000240AF
:10124000D8090020DCAE000800040240D8AE000837
:1012500008B5FFF75DFF0A2003F0FAFD4FF40051D7
:101260000E4801F008FB0E4B00221A7001236FF0AC
:10127000040203E0023252B20133DBB2062B0AD879
:101280000849096831F813100129F3D1044801789D
:1012900011440170EEE7024808BD00BF000802409B
:1012A000D4090020D8090020024B1860024B1960B5
:1012B000704700BFDC090020E0090020F0B589B0CC
:1012C0000024039404940594069407940094294BF5
:1012D0001A6B42F080021A631A6B02F080020092CD
:1012E000009A01941A6B42F001021A631A6B02F021
:1012F00001020192019A02941A6B42F002021A63EF
:101300001B6B03F002030293029B1B4F22464FF418
:101310007041384601F0A9FA184D22464FF4F851B1
:10132000284601F0A2FAF32303930494059403A939
:10133000284601F02BF9012603960494059403A98D
:10134000384601F023F94FF4704303930496059453
:10135000069403A9384601F019F94FF4F8530393A2
:1013600004960594069403A9284601F00FF909B0E4
:10137000F0BD00BF003802400004024000000240FF
:1013800008B50B480B4B03600B4B43600023836095
:10139000C3604FF48042026143618361C3610362B1
:1013A00001F038FC00B908BD00F098F8FBE700BF79
:1013B000E409002000540040A086010030B589B047
:1013C0000023039304930593069307930268144B39
:1013D0009A4201D009B030BD00250195114C236B14
:1013E00043F002032363236B03F002030193019B89
:1013F000C023039312230493032306930423079328
:1014000003A9094801F0C2F80295236C43F40013C4
:101410002364236C03F400130293029BDAE700BFFA
:1014200000540040003802400004024002680A4BA9
:101430009A4200D0704710B5084A136C23F4001389
:101440001364074C4021204601F080F9802120469A
:1014500001F07CF910BD00BF00540040003802408C
:101460000004024008B5054B834200D008BD0522A8
:101470000349184603F03FFCF8E700BFBC0F00200B
:101480004C0A002008B502680F4B9A4200D008BDF4
:101490000E4B1B785BB90E4B1B6800225A62082169
:1014A0000C4802F021FE094B01221A70EFE70821D7
:1014B000084802F0A7FE064B1B685A6A064B1A60E2
:1014C000024B02221A70E2E700040040510A002099
:1014D000E40E0020740F0020480A002072B6FEE7D8
:1014E00000B595B03022002108A803F04BFC002382
:1014F0000393049305930693079301931F4A116C7A
:1015000041F080511164126C02F080520192019AF4
:1015100002931B4B1A6842F440421A601B6803F4A2
:1015200040430293029B012308934FF480330993B5
:1015300002230E934FF480020F920C22109260222D
:10154000119212930423139308A801F0C9FD88B9DE
:101550000F23039302230493002305934FF4805237
:1015600006920793032103A802F008F820B915B0EA
:101570005DF804FBFFF7B2FFFFF7B0FF0038024051
:101580000070004008B500F0F7FE2A4D284600F034
:10159000FFFAFFF7A5FFFFF791FEFFF7F1FE00F05E
:1015A000FDFB00F04FFD00F0B7FD00F03DFE2249CD
:1015B0002248FFF779FE224C0C21204602F062FE01
:1015C00005222049284603F096FB1F4D002128469E
:1015D00002F012FD0021204602F00EFD04212846F3
:1015E00002F00AFD0421204602F006FD322000F040
:1015F0008FF8322000F094F8322000F099F8322071
:1016000000F09EF84FF47A7000F0E2FE0F48FFF70A
:1016100079FD00F04BFA802000F0C6F9002000F0C0
:10162000B3F9002000F0D8F900F010F9322000F0F2
:10163000CFFEF9E7BC0F0020510A0020480A002025
:10164000740F00204C0A00202C0F0020380A0020C4
:10165000014B024A9A6170470000024000100008E6
:10166000014B024A9A6170470000024000080010D6
:10167000014B024A9A6170470000024000040002D8
:10168000014B024A9A6170470000024000020004C8
:10169000044B4FF080729A6103F580634FF400426F
:1016A0009A61704700000240044B4FF480729A61C7
:1016B00003F580634FF000429A61704700000240DA
:1016C000014B024A9A61704700040240002000402A
:1016D000014B024A9A61704700040240004000201A
:1016E00008B5FFF7B5FFFFF7D3FF08BD08B5FFF753
:1016F000BFFFFFF7E5FF08BD08B5FFF7B1FFFFF734
:10170000D3FF08BD08B5FFF7BBFFFFF7E1FF08BD3A
:10171000024B1B68C0EB001058637047740F002029
:10172000024B1B68C0EB001098637047740F0020D9
:10173000024B1B68C0EB0010986370472C0F002011
:10174000024B1B68C0EB0010586370472C0F002041
:1017500008B5FFF7C5FFFFF7C9FF0F20FFF7D8FF58
:101760000F20FFF7E5FF0F20FFF7DAFF0F20FFF74D
:10177000E7FF08BD08B5FFF7BFFFFFF7B7FF0F2072
:10178000FFF7C6FF0F20FFF7D3FF0F20FFF7C8FFBB
:101790000F20FFF7D5FF08BD08B5FFF7ADFFFFF736
:1017A000A5FF0F20FFF7B4FF0F20FFF7C1FF0F20A9
:1017B000FFF7B6FF0F20FFF7C3FF08BD08B5FFF71F
:1017C0009BFFFFF793FF0F20FFF7A2FF0F20FFF70C
:1017D000AFFF0F20FFF7A4FF0F20FFF7B1FF08BDF9
:1017E00008B5FFF77DFFFFF78DFF1420FFF790FF8F
:1017F0001420FFF79DFF1420FFF792FF1420FFF73E
:101800009FFF08BD08B5FFF76BFFFFF77BFF0F20B9
:10181000FFF77EFF0F20FFF78BFF0F20FFF780FF02
:101820000F20FFF78DFF08BD08B5FFF759FFFFF741
:1018300069FF0F20FFF76CFF0F20FFF779FF0F20E4
:10184000FFF76EFF0F20FFF77BFF08BD38B5FFF7EE
:10185000FFFC044690F9003013B1224B1B78D3B142
:10186000214B1B782BB994F9003013B91D4B1B7811
:10187000CBB994F9013013F1040F21DB13F1020FFE
:1018800021DB002B22DB23B3022B25DD042B26DCFE
:10189000FFF7B8FF16E0134B01221A70002113481E
:1018A00002F022FCDCE7104B01221A700F4D0021E0
:1018B000284602F0A7FC2B685A6A0D4B1A60D8E73D
:1018C000FFF77CFF38BDFFF767FFFBE7FFF752FF2D
:1018D000F8E7FFF73DFFF5E7FFF782FFF2E7FFF7D5
:1018E000A3FFEFE7580A0020590A0020E40E002069
:1018F000540A0020022800D0704730B587B0154840
:1019000001F066FA0024019402940394049405946F
:1019100040230193112302930323049301A90E484A
:1019200000F034FE0FE00C4D00224021284600F06C
:101930009CFF002000F04CFD01224021284600F0D1
:1019400094FF0134E4B2072CEDD9024801F062F9AA
:1019500007B030BDE40900200004024000B585B0A6
:101960008DF80C108DF80D000A230093022303AAB2
:101970007821044801F046FAFFF7BCFF05B05DF896
:1019800004FB00BFE409002010B5044610B1012C8F
:1019900005D010BD0021A620FFF7E0FFF7E70021EA
:1019A000A720FFF7DBFFF4E700B585B078218DF8BD
:1019B0000C1081238DF80D308DF80E000A23009352
:1019C000032303AA034801F01DFAFFF793FF05B0B4
:1019D0005DF804FBE409002010B5044610B1012CA9
:1019E00009D010BD0021C820FFF7B8FF0021A120B9
:1019F000FFF7B4FFF3E70021C020FFF7AFFF00219E
:101A0000A020FFF7ABFFECE710B5A4B000241DE069
:101A1000184A02EBC302115D03F190026A4402F816
:101A2000801C0133DBB213F0800FF1D0322302931C
:101A30008023019304AB00930123402278210E48B8
:101A400001F09CFAFFF756FF0134E4B2072C0FD8DF
:101A5000A4F150000021C0B2FFF780FF002108462A
:101A6000FFF77CFF00211020FFF778FF0023DAE763
:101A700024B010BD5C0A0020E409002008B5002055
:101A80000BE0094A02EBC302002111540133DBB21F
:101A900013F0800FF5D00130C0B2072801D8002321
:101AA000F6E7FFF7B1FF08BD5C0A002008B5052086
:101AB00000F08EFC0021E320FFF750FF0021AE2054
:101AC000FFF74CFF642000F083FC00210846FFF77D
:101AD00045FF00211020FFF741FF00210846FFF7D6
:101AE0003DFF0021B020FFF739FF00218120FFF7E3
:101AF00035FF0021FF20FFF731FF0021A120FFF774
:101B00002DFF0021A620FFF729FF0021C820FFF7A5
:101B100025FF0021D320FFF721FF00210846FFF712
:101B20001DFF0021D520FFF719FF00218020FFF7BE
:101B300015FF0021D920FFF711FF00211F20FFF71B
:101B40000DFF0021A820FFF709FF00213F20FFF72C
:101B500005FF0021DA20FFF701FF00211220FFF727
:101B6000FDFE0021DB20FFF7F9FE00214020FFF7FA
:101B7000F5FE00218D20FFF7F1FE00211420FFF774
:101B8000EDFEFFF77BFF0021AF20FFF7E7FE08BD6A
:101B900008B5054B1860054B18680023022219464A
:101BA000806803F05DF908BDDC0E00200C00002009
:101BB000022801D80120704708B503F0B9F80923BD
:101BC0000360002008BD000010B5013801280AD8C4
:101BD00014464FF0FF3392B20748006802F0C7FD89
:101BE00040B9204610BD03F0A3F8092303604FF06D
:101BF000FF30F7E70520F5E7DC0E0020022801D8CA
:101C00000020704708B503F093F8092303604FF0F4
:101C1000FF3008BD08B503F08BF8092303604FF0CF
:101C2000FF3008BD08B548B94FF0FF33012208481E
:101C3000006802F008FE40B9012008BD03F078F802
:101C4000092303604FF0FF30F7E70520F5E700BFF9
:101C5000DC0E002008B5022804D84FF400534B6076
:101C6000002008BD03F064F809230360F8E70000D2
:101C700082B0002100910B4B5A6C42F480425A64AE
:101C80005A6C02F480420092009A01911A6C42F060
:101C900080521A641B6C03F080530193019B02B0C5
:101CA000704700BF00380240FEE7FEE7FEE7FEE7B0
:101CB000FEE770477047704708B500F077FB08BD36
:101CC00008B5024801F038FE08BD00BFE40E002050
:101CD00008B5024801F030FE08BD00BFE40E002048
:101CE00008B5024801F028FE08BD00BFE40E002040
:101CF00008B5024801F020FE08BD00BFE40E002038
:101D000008B5024801F018FE08BD00BF2C0F0020E6
:101D100008B5024801F010FE08BD00BF740F002096
:101D200008B5024802F08AFE08BD00BFBC0F0020C3
:101D30000120704708B502F0FBFF162303604FF047
:101D4000FF3008BD08B54FF0FF31FFF7F3FFFEE7A6
:101D500010B503460C4A0D490D48006840B10C48C7
:101D600000680344521A934206D8094A136010BD12
:101D70000748084C0460F2E702F0DAFF0C23036026
:101D80004FF0FF30F3E700BF000002200004000026
:101D9000E00E0020501000207047000010B596B0F3
:101DA000002412941394149415941094119409948B
:101DB0000A940B940C940D940E940F9420222146B7
:101DC00001A802F0DFFF2C482C4B036040F2E73300
:101DD000436084604BF67E33C36004614461846178
:101DE00001F0B6FE002834D14FF48053129312A9AB
:101DF000214802F073F800282ED11F4801F0D4FECC
:101E000000282CD100231093119310A91A4802F036
:101E1000EBFA38BB6023099300220A920B920C92D2
:101E20000D920E920F9209A9134801F047FFE0B9F5
:101E30000023019302930393049305934FF40052FC
:101E40000692089301A90C4802F00CFB80B916B069
:101E500010BDFFF743FBC7E7FFF740FBCDE7FFF7F8
:101E60003DFBCFE7FFF73AFBD4E7FFF737FBDFE7B0
:101E7000FFF734FBEBE700BFE40E00200000014059
:101E800010B58AB00023059306930793089309932E
:101E900003683A4A934207D0B3F1804F31D0384AB1
:101EA000934243D00AB010BD00240194354B5A6CC4
:101EB00042F001025A645B6C03F001030193019B41
:101EC00022462146182000F0A9FA182000F0DEFA78
:101ED00022462146192000F0A1FA192000F0D6FA76
:101EE000224621461A2000F099FA1A2000F0CEFA74
:101EF000224621461B2000F091FA1B2000F0C6FA72
:101F0000D0E70021029103F50E331A6C42F0010272
:101F10001A641B6C03F001030293029B0A461C2007
:101F200000F07CFA1C2000F0B1FABBE70024039417
:101F3000144B1A6C42F002021A641A6C02F002028C
:101F40000392039A04941A6B42F002021A631B6B09
:101F500003F002030493049B022305930693099361
:101F600005A9094800F012FB224621461D2000F079
:101F700055FA1D2000F08AFA94E700BF00000140E6
:101F800000040040003802400004024070B588B0F0
:101F90000023039304930593069307930368B3F117
:101FA000804F04D0234A93422ED008B070BD002445
:101FB000009403F50E331A6B42F001021A631A6B98
:101FC00002F001020092009A01941A6B42F00202A0
:101FD0001A631B6B03F002030193019B4FF4004350
:101FE0000393022604960125079503A9124800F0E1
:101FF000CDFA08230393049605940694079503A944
:102000000E4800F0C3FAD0E7002302930C4B1A6B82
:1020100042F002021A631B6B03F002030293029B5D
:102020003023039302230493079303A9034800F08A
:10203000ADFABAE70004004000000240000402408C
:102040000038024000B58FB000230A930B930C9325
:102050000D930893099301930293039304930593BB
:10206000069307932B484FF0804202606322426040
:10207000836040F6B732C2600361836101F068FD9E
:10208000002831D14FF480530A930AA9214801F066
:1020900025FF60BB1F4801F087FD58BB0023089354
:1020A000099308A91B4802F09FF930BB60230193F4
:1020B000002202920392059201A9164801F0FEFD4A
:1020C000F0B904220DEB0201124801F0F7FDD0B97E
:1020D000082201A90F4801F0F1FDB8B90D48FFF73A
:1020E00055FF0FB05DF804FBFFF7F8F9CAE7FFF7FB
:1020F000F5F9CFE7FFF7F2F9D0E7FFF7EFF9D5E70A
:10210000FFF7ECF9DDE7FFF7E9F9E1E7FFF7E6F9BB
:10211000E4E700BF2C0F002000B593B000230E931E
:102120000F93109311930C930D93059306930793BC
:10213000089309930A930B930193029303930493D7
:102140003748384A026063224260836040F6B73203
:10215000C2600361836101F0FBFC002845D14FF4AC
:1021600080530E930EA92E4801F0B8FE00283FD1EF
:102170002B4801F019FD00283DD1294801F040FD10
:1021800000283BD100230C930D930CA9244802F0A6
:102190002BF9002835D1602305930022069207927F
:1021A000099205A91E4801F089FD68BB042205A912
:1021B0001B4801F083FD50BB082205A9184801F017
:1021C0007DFD38BB0A23019301230293002303936F
:1021D00004930C2201A9124801F012FEE8B910483C
:1021E000FFF7D4FE13B05DF804FBFFF777F9B6E70D
:1021F000FFF774F9BCE7FFF771F9BEE7FFF76EF977
:10220000C0E7FFF76BF9C6E7FFF768F9CEE7FFF71E
:1022100065F9D1E7FFF762F9D4E7FFF75FF9DEE789
:10222000740F00200004004008B50A480A4B036000
:102230004FF4E133436000238360C36003610C22E9
:1022400042618361C36102F063FA00B908BDFFF720
:1022500045F9FBE7BC0F00200044004010B588B0F2
:102260000023039304930593069307930268184B86
:102270009A4201D008B010BD0024019403F5FA334E
:102280001A6C42F400321A641A6C02F400320192A1
:10229000019A02941A6B42F001021A631B6B03F05D
:1022A00001030293029B0C23039302230493032351
:1022B00006930723079303A9064800F067F922460F
:1022C0002146262000F0AAF8262000F0DFF8D1E70A
:1022D0000044004000000240DFF834D00D480E49B1
:1022E0000E4A002302E0D458C4500433C4188C4270
:1022F000F9D30B4A0B4C002301E013600432A242D5
:10230000FBD3FFF749FD02F019FDFFF73BF97047DA
:102310000000022000000020B80900200CB30008D3
:10232000B80900204C100020FEE7000010B504465C
:102330000E4B18784FF47A73B3FBF0F30C4A106825
:10234000B0FBF3F000F0B0F868B90F2C01D9012010
:102350000AE0002221464FF0FF3000F05FF8054B05
:102360001C60002000E0012010BD00BF0400002020
:10237000000000200800002008B50B4B1A6842F44A
:1023800000721A601A6842F480621A601A6842F495
:1023900080721A60032000F02FF80F20FFF7C6FFAD
:1023A000FFF766FC002008BD003C0240034A1168AC
:1023B000034B1B780B441360704700BF00100020D4
:1023C00004000020014B1868704700BF0010002077
:1023D00038B50446FFF7F6FF0546B4F1FF3F02D0DB
:1023E000044B1B781C44FFF7EDFF401BA042FAD3BF
:1023F00038BD00BF04000020074AD36823F4E0631F
:102400001B041B0C000200F4E060034343F0BF63B5
:1024100043F40033D360704700ED00E000B5194B82
:10242000DB68C3F30223C3F1070CBCF1040F28BF20
:102430004FF0040C03F1040EBEF1060F18D9033B54
:102440004FF0FF3E0EFA0CFC21EA0C0199400EFA07
:1024500003F322EA0303194300280BDB0901C9B285
:1024600000F1604000F5614080F800135DF804FB66
:102470000023E5E700F00F000901C9B2024B19542F
:10248000F4E700BF00ED00E014ED00E0002807DBFA
:1024900000F01F02400901239340024A42F8203015
:1024A000704700BF00E100E00138B0F1807F0BD23F
:1024B0004FF0E0235861054AF02182F823100020F4
:1024C000986107221A6170470120704700ED00E013
:1024D00070B50446866DFFF775FF94F83530DBB2B2
:1024E000022B06D080236365002384F8343001205A
:1024F00070BD05462268136823F016031360226836
:10250000536923F080035361236CE3B1226813689D
:1025100023F0080313602268136823F0010313609B
:1025200023681B6813F0010F11D0FFF74BFF431B0B
:10253000052BF5D920236365032084F8350000239B
:1025400084F83430D4E7A36C002BDFD1E3E7E26DED
:102550003F239340B360012384F83530002084F892
:102560003400C5E790F83530DBB2022B03D080236E
:10257000436501207047052380F8353002681368F1
:1025800023F00103136000207047000000230F2B8D
:1025900000F2D28070B582B060E085685E000324EE
:1025A000B44025EA0405CC68B4402C4384604568F7
:1025B00025EA02054C68C4F300129A402A4342609F
:1025C0005AE0DC08083450F8246003F00702950054
:1025D0000F22AA4026EA020E0A69AA4042EA0E0227
:1025E00040F824205CE0042200E0002202FA0EF20F
:1025F0002A430234514D45F82420514A94686FEA29
:102600000C0224EA0C054E6816F4801F01D04CEA37
:1026100004054B4CA560E46802EA04054E6816F414
:10262000001F01D04CEA0405454CE560646802EAED
:1026300004054E6816F4003F01D04CEA0405404CF6
:102640006560246822404D6815F4803F01D04CEA53
:1026500004023B4C226001330F2B6BD801229A40BD
:102660000C6804EA020C32EA0404F4D14C6804F069
:102670000304013C012C90D94A6802F00302032AAA
:1026800009D0C4685D000322AA4024EA02048A68D3
:10269000AA402243C2604A6802F00302022A90D094
:1026A00004684FEA430E032202FA0EF224EA0204FF
:1026B0004A6802F0030202FA0EF2224302604A68FC
:1026C00012F4403FC7D0002201921E4A546C44F4D9
:1026D00080445464526C02F480420192019A9C0836
:1026E000A51C164A52F8255003F003024FEA820E49
:1026F0000F2202FA0EF225EA0205134A90423FF435
:1027000074AF02F5806290420ED002F58062904272
:102710000CD002F5806290420AD002F580629042AD
:102720003FF461AF072261E701225FE702225DE724
:1027300003225BE702B070BD704700BF0038014064
:10274000003C0140003802400000024000230F2BF3
:102750007CD8F0B52DE0042500E0002505FA0CFC3E
:10276000A44557D004685D004FF0030C0CFA05FC3B
:1027700024EA0C0404604FEAD30E0EF1080E50F860
:102780002E4003F00705AE000F25B54024EA0504EE
:1027900040F82E40C46824EA0C04C460446824EA6B
:1027A00002024260826822EA0C02826001330F2B2F
:1027B0004BD801229A4002EA010632EA0104F5D11F
:1027C0004FEA930E0EF10205214C54F8254003F018
:1027D000030C4FEA8C0C0F2505FA0CF73C401D4DFD
:1027E000A842BAD005F58065A8420DD005F58065F0
:1027F000A8420BD005F58065A84209D005F5806593
:10280000A842A8D00725A9E70125A7E70225A5E743
:102810000325A3E7104C256825EA060525606568B1
:1028200025EA06056560E56825EA0605E560A56810
:1028300025EA0606A660064E0EF1020456F824505C
:1028400025EA070546F824508CE7F0BD704700BF25
:102850000038014000000240003C01400369194279
:1028600001D001207047002070470AB18161704794
:10287000090481617047436901EA030221EA030107
:1028800041EA02418161704703685A6912F4806F1E
:1028900001D1002070476FF480625A610023036306
:1028A000202280F83D2080F83E30026C42F0040285
:1028B000026480F83C30012070472DE9F041074662
:1028C0000D4690461E4624E0FFF77CFD069BC01A8D
:1028D000B04200D8EEB900233B63202287F83D20A8
:1028E00087F83E303A6C42F020023A6487F83C3078
:1028F00001201EE03B689C6925EA040C1FFA8CFC51
:10290000BCFA8CFC4FEA5C1CE04511D1B6F1FF3FEC
:10291000DAD1C5F30743012BECD13B685B6925EAAB
:10292000030C1FFA8CFCBCFA8CFC4FEA5C1CEBE736
:102930000020BDE8F0812DE9F04105460E4617461E
:1029400098463DE01A6842F400721A602B686FF4F2
:1029500080625A6100232B63202285F83D2085F890
:102960003E302A6C42F004022A6485F83C30012093
:1029700034E0FFF727FDA0EB0800B84200D8FFB90C
:1029800000232B63202285F83D2085F83E302A6CF9
:1029900042F020022A6485F83C3001201EE02B68BA
:1029A0009C6926EA0404A4B2003C18BF0124A4B127
:1029B0002B685A6912F4806FC4D1B7F1FF3FD8D1A8
:1029C000C6F30743012BEAD12B685C6926EA0404AD
:1029D000A4B2003C18BF0124E9E70020BDE8F08163
:1029E000F0B583B004460D4616461F46C36A082B51
:1029F0000DD0012B0BD013F5803F08D0036B122BA9
:102A00000AD10268136843F48073136004E02268FB
:102A1000136843F4807313600097334600224FF02D
:102A200001112046FFF749FF80B92369B3F5804FB4
:102A300016D1236805F0FE051D613B463246134959
:102A40002046FFF778FFF8B903B0F0BD23681B6894
:102A500013F4807F02D04FF4007323640320F3E764
:102A6000EB11226803F0060343F0F00313613B46C9
:102A7000324607492046FFF75EFF18B92368EDB2DA
:102A80001D61DAE70120DFE70120DDE70200010038
:102A90000800010070B504460D46164623685B69C0
:102AA00013F0800F1CD12046FFF7EEFED0B9B5F130
:102AB000FF3FF3D0FFF786FC801BA84201D8002D12
:102AC000ECD100232363202284F83D2084F83E309B
:102AD000226C42F02002226484F83C30012000E0A5
:102AE000002070BD0120FCE72DE9F04385B00446CD
:102AF0000D4691461F46DDF830800D9E036819682B
:102B000041F4807119600096434600224FF0011194
:102B1000FFF7D3FE60B9236805F0FE051D6133465B
:102B2000424626492046FFF706FF68B1012008E02B
:102B300023681B6813F4807F02D04FF40073236472
:102B4000032005B0BDE8F0830023039323685A698E
:102B500003929B690393039B324641462046FFF74D
:102B600099FF30B9012F0FD123685FFA89F61E61F2
:102B7000E7E7236C042B01D00120E2E72268136809
:102B800043F400731360F7E723684FEA19221A61D0
:102B9000324641462046FFF77DFF20B923685FFAA1
:102BA00089F61E61CDE7236C042B01D00120C8E714
:102BB0002268136843F400731360F7E70200010012
:102BC00070B504460D46164623685B6913F0040F82
:102BD0001CD12046FFF758FED0B9B5F1FF3FF3D026
:102BE000FFF7F0FB801BA84201D8002DECD1002399
:102BF0002363202284F83D2084F83E30226C42F08A
:102C00002002226484F83C30012000E0002070BDE6
:102C10000120FCE7002800F0CC8070B5044690F855
:102C20003D30002B77D0242384F83D302268136890
:102C300023F0010313602268136843F40043136018
:102C40002268136823F40043136000F04DFD6268AE
:102C50005A4B9A4264D85A4B98428CBF00230123A6
:102C6000002B40F0A8805749A1FB00318B0C256850
:102C70006A6822F03F0242EA91426A6021680A6A69
:102C800022F03F0266684D4DAE424FD801331343E8
:102C90000B622168CA6922F44F4222F0FF02666883
:102CA000464B9E424CD8431E7600B3FBF6F30133ED
:102CB00040F6FC70034278D0C3F30B031343CB619F
:102CC00021680B6823F0C003E269206A02431343C2
:102CD0000B6021688B6823F4034323F0FF03226910
:102CE000E068024313438B602168CB6823F0FF0345
:102CF0006269A06902431343CB602268136843F002
:102D00000103136000202064202384F83D302063F9
:102D100084F83E0070BD80F83C30FEF74FFB82E740
:102D2000294B98428CBF0023012399E74FF49675F5
:102D300005FB03F3254DA5FB03539B090133A6E7D0
:102D4000A368BBB9451E06EB460CB5FBFCF5013587
:102D5000C5F30B05B5FA85F56D0945BBC3B9013857
:102D600006EB4603B0FBF3F30133C3F30B0343F469
:102D70000043A3E7451E06EB860C0CEB8C0CB5FB61
:102D8000FCF50135C5F30B05B5FA85F56D09E4E7EA
:102D9000013806EB860303EB8303B0FBF3F3013347
:102DA000C3F30B0343F4404388E7042386E701237E
:102DB00084E7012070470120ACE700BFA086010036
:102DC0007F841E0083DE1B43FF083D00D34D62104D
:102DD000A8B110B50446242380F83D30026813687A
:102DE00023F001031360FEF721FB0020206484F828
:102DF0003D00206384F83E0084F83C0010BD0120B3
:102E0000704700002DE9F04385B004460F46914617
:102E100098460C9EFFF7D6FA054694F83D00C0B2DE
:102E2000202804D00227384605B0BDE8F08300957D
:102E3000192301224F492046FFF73FFD002840F0AB
:102E4000928094F83C30012B00F08F80012384F8AD
:102E50003C3023681A6812F0010F03D11A6842F05F
:102E600001021A602268136823F4006313602123AF
:102E700084F83D30102384F83E3000232364C4F8E6
:102E80002490A4F82A80638D23853B4BE3622B4674
:102E9000324639462046FFF7A3FD0746002866D193
:102EA0000023039323685A6903929B690393039B4E
:102EB00011E0236C042B01D00127B4E722681368CA
:102EC00043F400731360F7E72A4631462046FFF7C4
:102ED00077FE00282ED1238D002B36D02A4631468E
:102EE0002046FFF7D7FD0028E3D1626A23681278F5
:102EF0001A61606A431C6362618D89B2013989B2CB
:102F00006185238D013B9BB223852268516911F0B5
:102F1000040FD9D0002BD7D043781361636A0133F3
:102F20006362638D9BB2013B9BB26385238D013B42
:102F30002385C9E7236C042B01D0012773E722689E
:102F4000136843F400731360F7E72268136843F4CF
:102F500000731360202384F83D30002384F83E3052
:102F600084F83C305FE702275DE702275BE7012733
:102F700059E700BF020010000000FFFF2DE9F043F9
:102F800083B004460F46904699460C9EFFF71AFA06
:102F9000054694F83D00C0B2202803D0022003B0BB
:102FA000BDE8F0830095192301224B492046FFF725
:102FB00084FC002840F0898094F83C30012B00F01C
:102FC0008680012384F83C3023681A6812F0010FD0
:102FD00003D11A6842F001021A602268136823F4D0
:102FE00000631360212384F83D30402384F83E3091
:102FF000002323640A9B6362BDF82C306385638DD4
:103000002385364BE362019500964B46424639468E
:103010002046FFF769FD00285BD1238D002B35D0BA
:103020002A4631462046FFF735FD20BB626A2368F9
:1030300012781A61626A531C6362218D013989B268
:103040002185638D9BB2013B9BB2638523685869E0
:1030500010F0040FE1D00029DFD052781A61636AC2
:1030600001336362238D013B2385638D9BB2013B5A
:103070009BB26385D1E7236C042B01D001208EE73E
:103080002268136843F400731360F7E72A46314659
:103090002046FFF795FD50B1236C042B01D0012091
:1030A0007DE72268136843F400731360F7E7226832
:1030B000136843F400731360202384F83D30002329
:1030C00084F83E3084F83C3069E7022067E702204C
:1030D00065E7012063E700BF020010000000FFFF6A
:1030E000002800F0E08170B582B00446036813F058
:1030F000010F3BD09F4B9B6803F00C03042B2CD09B
:103100009C4B9B6803F00C03082B21D06368B3F53C
:10311000803F4FD0B3F5A02F52D0964B1A6822F4BF
:1031200080321A601A6822F480221A606368002BC9
:1031300050D0FFF747F905468E4B1B6813F4003F4C
:1031400014D1FFF73FF9401B6428F5D90320B1E102
:10315000884B5B6813F4800FD8D0864B1B6813F440
:10316000003F03D06368002B00F09F81236813F0B9
:10317000020F54D07F4B9B6813F00C0F3ED07D4B59
:103180009B6803F00C03082B33D0E368002B68D056
:10319000794B01221A60FFF715F90546754B1B683C
:1031A00013F0020F54D1FFF70DF9401B0228F5D997
:1031B00003207FE16F4A136843F480331360B5E75F
:1031C0006C4B1A6842F480221A601A6842F480320A
:1031D0001A60ABE7FFF7F6F80546664B1B6813F479
:1031E000003FC3D0FFF7EEF8401B6428F5D9032059
:1031F00060E1604B5B6813F4800FC6D15D4B1B68C8
:1032000013F0020F03D0E368012B40F05081594ABC
:10321000136823F0F803216943EAC10313602368AC
:1032200013F0080F42D063696BB3534B0122C3F80C
:10323000802EFFF7C7F805464E4B5B6F13F0020F69
:1032400034D1FFF7BFF8401B0228F5D9032031E144
:10325000484A136823F0F803216943EAC103136065
:10326000DDE7454B00221A60FFF7ACF80546414BFD
:103270001B6813F0020FD2D0FFF7A4F8401B0228FE
:10328000F5D9032016E13C4B0022C3F8802EFFF74E
:1032900099F80546374B5B6F13F0020F06D0FFF726
:1032A00091F8401B0228F5D9032003E1236813F0AD
:1032B000040F77D02F4B1B6C13F0805F33D10023AA
:1032C00001932C4B1A6C42F080521A641B6C03F071
:1032D00080530193019B0125284B1B6813F4807FC9
:1032E00023D0A368012B34D0052B38D0214B1A6F83
:1032F00022F001021A671A6F22F004021A67A3680B
:10330000002B3DD0FFF75EF806461A4B1B6F13F0FB
:10331000020F46D1FFF756F8801B41F288339842DE
:10332000F3D90320C6E00025D6E7144A136843F416
:1033300080731360FFF746F80646104B1B6813F4C2
:10334000807FCED1FFF73EF8801B0228F5D90320FD
:10335000B0E0084A136F43F001031367CFE7054B52
:103360001A6F42F004021A671A6F42F001021A67DC
:10337000C5E700BF0038024000004742007000402F
:10338000FFF720F80646524B1B6F13F0020F08D0D0
:10339000FFF718F8801B41F288339842F3D90320D5
:1033A00088E0EDB9A369002B00F08380484A926859
:1033B00002F00C02082A51D0022B17D0454B0022F4
:1033C0001A66FEF7FFFF0446414B1B6813F0007FAF
:1033D00042D0FEF7F7FF001B0228F5D9032069E071
:1033E0003B4A136C23F080531364DBE7394B002214
:1033F0001A66FEF7E7FF0546354B1B6813F0007FA2
:1034000006D0FEF7DFFF401B0228F5D9032051E06C
:10341000E369226A1343626A43EA8213A26A52088A
:10342000013A43EA0243E26A43EA0263284A5360EC
:10343000284B01221A66FEF7C5FF0446244B1B6881
:1034400013F0007F06D1FEF7BDFF001B0228F5D95F
:1034500003202FE000202DE000202BE0012B2BD0BB
:103460001B4B5B6803F48001E269914226D103F0B3
:103470003F02216A8A4223D1616A47F6C0721A402C
:10348000B2EB811F1ED103F44031A26A5208013A07
:10349000B1EB024F18D103F07063E26AB3EB026F35
:1034A00014D1002006E001207047012002E0012035
:1034B00000E0002002B070BD0120FBE70120F9E729
:1034C0000120F7E70120F5E70120F3E70120F1E70C
:1034D000003802400000474208B5254B9B6803F0C6
:1034E0000C03042B3FD0082B3FD1214B5A6802F02C
:1034F0003F025B6813F4800F12D01D4B5968C1F373
:1035000088111C480023A1FB0001FCF779FE184B31
:103510005B68C3F3014301335B00B0FBF3F025E0CC
:10352000134B5968C1F3881C4FEA4C11B1EB0C00E6
:103530006EEB0E0E4FEA8E1343EA90638101091A77
:1035400063EB0E03DB0043EA5173C90011EB0C0C73
:1035500043F10003990200234FEA8C2041EA9C5179
:10356000FCF74EFED3E7034800E0034808BD00BF68
:103570000038024040787D010024F400002800F06B
:103580009B8070B50D4604464F4B1B6803F0070344
:103590008B4208D2CBB24C4A1370136803F0070376
:1035A0008B4240F08B80236813F0020F17D013F08A
:1035B000040F04D0454A936843F4E05393602368B2
:1035C00013F0080F04D0414A936843F460439360BA
:1035D0003E4A936823F0F003A1680B43936023688D
:1035E00013F0010F32D06368012B21D09A1E012AFB
:1035F00025D9364A126812F0020F61D033498A6821
:1036000022F0030213438B60FEF7DCFE06462F4BCD
:103610009B6803F00C036268B3EB820F16D0FEF7D1
:10362000D1FE801B41F288339842F0D9032042E05A
:10363000264A126812F4003FE0D101203BE0234A01
:10364000126812F0007FD9D1012034E01E4B1B68B4
:1036500003F00703AB4207D9EAB21B4B1A701B6891
:1036600003F00703AB422DD1236813F0040F06D0FB
:10367000164A936823F4E053E1680B439360236890
:1036800013F0080F07D0114A936823F460432169AF
:1036900043EAC1039360FFF71FFF0C4B9B68C3F322
:1036A00003130B4AD35CD8400A4B18600A4B1868C6
:1036B000FEF73CFE002070BD012070470120FAE7B4
:1036C0000120F8E70120F6E7003C02400038024004
:1036D000E0AE00080000002008000020014B186840
:1036E000704700BF0000002008B5FFF7F7FF044B4C
:1036F0009B68C3F38223034AD35CD84008BD00BF54
:1037000000380240F0AE000808B5FFF7E7FF044BB1
:103710009B68C3F34233034AD35CD84008BD00BF63
:1037200000380240F0AE000870B4036A23F00103D1
:103730000362036A4668826922F073020C6844EAF5
:10374000020523F002028B6813430D4CA04209D0FE
:103750000B4CA0420DD0466085614A68426303620B
:1037600070BC704723F00803CA68134323F00403B6
:10377000EEE726F440764A6932438E691643EAE75B
:103780000000014030B4036A23F480730362036ACB
:103790004568C26922F073020C68224323F4007367
:1037A0008C6843EA04230F4CA04209D00D4CA04280
:1037B0000ED04560C2614A68C263036230BC704784
:1037C00023F40063CC6843EA042323F48063EDE729
:1037D00025F440554C6945EA04158C6945EA041501
:1037E000E7E700BF0000014030B4036A23F48053D0
:1037F0000362036A4468C26922F4E6420D6842EA41
:10380000052223F400538D6843EA0533074DA8428F
:1038100006D04460C2614A680264036230BC7047EB
:1038200024F480444D6944EA8514F2E70000014025
:1038300010B4036A046A24F001040462846924F069
:10384000F00C4CEA021223F00A030B43826103627C
:1038500010BC704730B4046A24F010040462846918
:10386000056A24F4407C4CEA022C2CF4704C1B03B7
:103870009BB243EA0C0325F0A005090101F0A00169
:1038800029438361016230BC704710B4046A24F09C
:10389000100404628469036A24F4704C4CEA023216
:1038A00023F0A00343EA01138261036210BC704756
:1038B00030B4046A24F480740462C469056A24F094
:1038C000030C4CEA020C2CF0F00C1B01DBB243EAB7
:1038D0000C0325F42065090201F420612943C3612A
:1038E000016230BC704730B4046A24F4805404622E
:1038F000C469056A24F4407C4CEA022C2CF4704C18
:103900001B039BB243EA0C0325F42045090301F491
:1039100020412943C361016230BC7047836823F0B2
:1039200070030B4343F00703836070477047704791
:10393000704770477047704710B5044603681A69AE
:1039400012F0020F11D0DA6812F0020F0DD06FF0F2
:1039500002021A610123037703689B6913F0030FC6
:1039600070D0FDF78FFD0023237723681A6912F0CA
:10397000040F12D0DA6812F0040F0ED06FF00402B8
:103980001A610223237723689B6913F4407F5FD079
:103990002046FDF777FD0023237723681A6912F08C
:1039A000080F12D0DA6812F0080F0ED06FF008027C
:1039B0001A61042323772368DB6913F0030F4ED0C9
:1039C0002046FDF75FFD0023237723681A6912F074
:1039D000100F12D0DA6812F0100F0ED06FF0100234
:1039E0001A61082323772368DB6913F4407F3DD0F5
:1039F0002046FDF747FD0023237723681A6912F05C
:103A0000010F03D0DA6812F0010F36D123681A696A
:103A100012F0800F03D0DA6812F0800F34D12368DF
:103A20001A6912F0400F03D0DA6812F0400F32D159
:103A300023681A6912F0200F03D0DA6812F0200F01
:103A400030D110BDFFF775FF2046FFF773FF8AE7FF
:103A50002046FFF76EFF2046FFF76CFF9BE72046EE
:103A6000FFF767FF2046FFF765FFACE72046FFF74B
:103A700060FF2046FFF75EFFBDE76FF001021A61AD
:103A80002046FFF755FFC1E76FF080021A6120461C
:103A900000F012FDC3E76FF040021A612046FFF705
:103AA0004AFFC5E76FF020021A61204600F003FDCF
:103AB000C7E700000368254A90420ED0B0F1804F5E
:103AC0000BD0A2F57C42904207D002F58062904272
:103AD00003D002F58062904203D123F070034A685C
:103AE00013431A4A90421AD0B0F1804F17D0A2F572
:103AF0007C42904213D002F5806290420FD002F5D2
:103B0000806290420BD002F59A32904207D002F5C3
:103B10008062904203D002F58062904203D123F488
:103B20004073CA68134323F080034A691343036058
:103B30008B68C3620B688362044B984202D00123F6
:103B4000436170470B690363F9E700BF0000014060
:103B500040B310B5044690F83D30F3B1022384F829
:103B60003D30214651F8040BFFF7A4FF012384F8F0
:103B7000463084F83E3084F83F3084F8403084F892
:103B8000413084F8423084F8433084F8443084F87B
:103B9000453084F83D30002010BD80F83C30FEF701
:103BA0006FF9DBE70120704740B310B5044690F889
:103BB0003D30F3B1022384F83D30214651F8040B27
:103BC000FFF778FF012384F8463084F83E3084F80C
:103BD0003F3084F8403084F8413084F8423084F833
:103BE000433084F8443084F8453084F83D30002078
:103BF00010BD80F83C30FFF799FEDBE701207047ED
:103C000040B310B5044690F83D30F3B1022384F878
:103C10003D30214651F8040BFFF74CFF012384F897
:103C2000463084F83E3084F83F3084F8403084F8E1
:103C3000413084F8423084F8433084F8443084F8CA
:103C4000453084F83D30002010BD80F83C30FFF74F
:103C50006EFEDBE70120704730B4036A23F01003E7
:103C60000362036A4468826922F4E6420D6842EA0C
:103C7000052223F020038D6843EA05130E4DA84268
:103C800009D00D4DA8420ED0446082614A6882631B
:103C9000036230BC704723F08003CD6843EA05130C
:103CA00023F04003EDE724F440644D6944EA8504C1
:103CB0008D6944EA8504E7E70000014038B590F8D3
:103CC0003C30012B66D004460D46012380F83C3081
:103CD0000C2A5AD8DFE802F0075959591B5959598B
:103CE0003059595944000068FFF71EFD2268936956
:103CF00043F0080393612268936923F004039361FE
:103D00002268936929690B43936100203EE00068B3
:103D1000FFF7A2FF2268936943F40063936122686E
:103D2000936923F48063936122689369296943EA64
:103D300001239361002029E00068FFF723FD22683A
:103D4000D36943F00803D3612268D36923F00403E5
:103D5000D3612268D36929690B43D361002015E040
:103D60000068FFF741FD2268D36943F40063D36123
:103D70002268D36923F48063D3612268D3692969F7
:103D800043EA0123D361002000E00120002384F8EE
:103D90003C3038BD0220FCE770B4046A24F0010412
:103DA00004628469066A154DA84215D0B0F1804FAF
:103DB00012D0A5F57C45A8420ED005F58065A84235
:103DC0000AD005F58065A84206D005F59A35A842C7
:103DD00002D044F0010202E024F00304224322F066
:103DE000F0021B01DBB2134326F00A0201F00A01C4
:103DF00011438361016270BC704700BF0000014045
:103E000038B590F83C30012B5AD004460D460123BA
:103E100080F83C3052B1042A1AD0082A2BD00C2A40
:103E20003BD00120002384F83C3038BDCB684A6881
:103E300009680068FFF7B0FF2268936923F00C035C
:103E4000936122689369A9680B4393610020E9E7B5
:103E5000CB684A6809680068FFF7FCFC2268936930
:103E600023F44063936122689369A96843EA0123BC
:103E700093610020D6E7CB684A6809680068FFF7BD
:103E800017FD2268D36923F00C03D3612268D3693C
:103E9000A9680B43D3610020C4E7CB684A6809686E
:103EA0000068FFF720FD2268D36923F44063D361E3
:103EB0002268D369A96843EA0123D3610020B1E7EE
:103EC0000220B2E710B4846824F47F4C42EA032253
:103ED0000A4342EA0C02826010BC704790F83C3002
:103EE000012B78D010B50446012380F83C30022322
:103EF00080F83D300268936823F47F4323F0770312
:103F000093600B68602B4CD029D8402B54D00CD92F
:103F1000502B22D1CA6849680068FFF789FC5021FC
:103F20002068FFF7FBFC002005E0202B0DD009D90D
:103F3000302B0AD00120012384F83D30002384F87F
:103F40003C3010BD0BB1102B05D119462068FFF78E
:103F5000E5FC0020EFE70120EDE70120EBE7B3F5FA
:103F6000805F34D0B3F5005F0CD1CB684A688968B4
:103F70000068FFF7A7FF2268936843F480439360CB
:103F80000020D8E7702B24D1CB684A688968006884
:103F9000FFF798FF2268936843F07703936000204F
:103FA000C9E7CA6849680068FFF76FFC60212068AC
:103FB000FFF7B4FC0020BEE7CA6849680068FFF755
:103FC00037FC40212068FFF7A9FC0020B3E7002060
:103FD000B1E70120AFE70220704701F01F01012384
:103FE00003FA01FC036A23EA0C030362036A02FA80
:103FF00001F10B430362704710B5044608460029DF
:1040000032D194F83E30DBB2013B18BF0123002BC4
:1040100063D1002841D1022384F83E3001220146B9
:104020002068FFF7DAFF23682E4A934245D02368C1
:104030002C4A934246D0B3F1804F43D0A2F57C4244
:1040400093423FD002F5806293423BD002F58062FA
:10405000934237D002F59A32934233D01A6842F035
:1040600001021A60002037E0042908D008290DD089
:1040700094F84130DBB2013B18BF0123C7E794F845
:104080003F30DBB2013B18BF0123C0E794F840305A
:10409000DBB2013B18BF0123B9E7042805D008288B
:1040A00007D0022384F84130B8E7022384F83F3078
:1040B000B4E7022384F84030B0E75A6C42F400427F
:1040C0005A64B4E79A6802F00702062A07D01A6811
:1040D00042F001021A60002010BD0120FCE7002020
:1040E000FAE700BF0000014010B504460B46002966
:1040F00037D190F83E00C0B2002B42D194F8422054
:10410000D2B2012878D1012A77D1002B49D10222DD
:1041100084F83E20002B54D1022284F84220012250
:1041200019462068FFF759FF2368354A934258D053
:10413000B3F1804F55D0A2F57C42934251D002F5A5
:10414000806293424DD002F58062934249D002F5DD
:104150009A32934245D01A6842F001021A60002058
:104160004BE0042905D0082907D090F84100C0B2DF
:10417000C2E790F83F00C0B2BEE790F84000C0B27E
:10418000BAE7042B05D0082B07D094F84520D2B20B
:10419000B7E794F84320D2B2B3E794F84420D2B200
:1041A000AFE7042B05D0082B07D0022284F841206A
:1041B000B0E7022284F83F20ACE7022284F84020D6
:1041C000A8E7042B05D0082B07D0022284F845204D
:1041D000A5E7022284F84320A1E7022284F84420C4
:1041E0009DE79A6802F00702062A07D01A6842F093
:1041F00001021A60002000E0012010BD0020FCE751
:104200000000014038B504460D4600220068FFF763
:10421000E4FE2368196A41F21112114208D1196AA9
:1042200040F24442114203D11A6822F001021A609E
:1042300045B9012384F83E30A5B9012384F8423002
:10424000002038BD042D05D0082D07D0012384F8A7
:104250004130F1E7012384F83F30EDE7012384F892
:104260004030E9E7042D05D0082D07D0012384F85C
:104270004530E5E7012384F84330E1E7012384F882
:104280004430DDE710B504460B4609BB90F83E000C
:10429000C0B26BBB94F84220D2B2012840F09C809F
:1042A000012A40F09A809BBB022184F83E10002B2B
:1042B0003ED1022184F842100C2B00F28F80DFE8FF
:1042C00003F0478D8D8D6E8D8D8D748D8D8D7A0063
:1042D000042905D0082907D090F84100C0B2D8E7DA
:1042E00090F83F00C0B2D4E790F84000C0B2D0E7E9
:1042F000042B05D0082B07D094F84520D2B2CCE788
:1043000094F84320D2B2C8E794F84420D2B2C4E76C
:10431000042B05D0082B07D0022184F84110C6E7F2
:10432000022184F83F10C2E7022184F84010BEE762
:10433000042B05D0082B07D0022184F84510BBE7D9
:10434000022184F84310B7E7022184F84410B3E750
:104350002168CA6842F00202CA6001221946206838
:10436000FFF73BFE23681F4A93422AD0B3F1804FE8
:1043700027D0A2F57C42934223D002F5806293427B
:104380001FD002F5806293421BD002F59A3293420D
:1043900017D01A6842F001021A6000201DE021685F
:1043A000CA6842F00402CA60D7E72168CA6842F0CE
:1043B0000802CA60D1E72168CA6842F01002CA60E8
:1043C000CBE79A6802F00702062A09D01A6842F081
:1043D00001021A60002000E0012010BD1046FCE739
:1043E0000020FAE70000014090F83C30012B34D067
:1043F00010B4012380F83C30022380F83D3003687C
:104400005A689C6822F0700C0A6842EA0C025A60F2
:104410000368134A934212D0B3F1804F0FD0A2F534
:104420007C4293420BD002F58062934207D002F5A2
:104430008062934203D002F59A32934204D124F071
:1044400080044A6814439C60012380F83D300023B7
:1044500080F83C30184610BC70470220704700BFFF
:104460000000014090F83C30012B22D0012380F85D
:104470003C30CB6823F440738A68134323F4806391
:104480004A68134323F400630A68134323F48053F8
:104490000A69134323F400534A69134323F4804306
:1044A000CA69134302685364002380F83C301846FD
:1044B00070470220704770477047026802F10C0392
:1044C00053E8003F23F490730C3242E80031002996
:1044D000F3D1026802F1140353E8003F23F0010313
:1044E000143242E800310029F3D1036B012B05D0CF
:1044F000202380F83E30002303637047026802F1F6
:104500000C0353E8003F23F010030C3242E8003163
:104510000029F3D1ECE790F83D30DBB2212B01D03C
:10452000022070478368B3F5805F17D0036A5A1C76
:1045300002621A7803685A60C38C9BB2013B9BB23B
:10454000C3844BB90268D36823F08003D360026848
:10455000D36843F04003D360002070470369002B09
:10456000E4D1036A1B880268C3F308035360036A3B
:1045700002330362E0E7000038B5044602681369BD
:1045800023F44053C1680B431361836802691343EA
:1045900042691343C2691A430168CB6823F4164386
:1045A00023F00C031343CB600268536923F4407378
:1045B00081690B4353610368314A934206D002F587
:1045C0008062934202D0FFF78FF801E0FFF79CF87A
:1045D000E369B3F5004F29D00021031849411B18A6
:1045E00041F10001C90041EA5371DB00181863680A
:1045F0004FEA83024FEA937341F10001FBF700FE9B
:10460000204DA5FB00325109642303FB11031B015C
:104610003233A5FB03235B0903F0F00202EB011226
:1046200003F00F03216813448B6038BD0023021888
:1046300043EB0301121841F10001C90041EA527134
:10464000D200101841F10001626892185B41FBF73B
:10465000D7FD0C4DA5FB00325109642303FB110368
:10466000DB003233A5FB03235B095A0002F4F87226
:1046700002EB011203F00703216813448B60D4E7B7
:10468000001001401F85EB512DE9F84305460F4608
:1046900016469946DDF820802C68246837EA040322
:1046A0000CBF4FF0010C4FF0000CB4452DD1B8F108
:1046B000FF3FF1D0B8F1000F05D0FDF783FEA0EB6E
:1046C00009004045E8D92A6802F10C0353E8003F8D
:1046D00023F4D0730C3242E800310029F3D12A6868
:1046E00002F1140353E8003F23F00103143242E8BF
:1046F00000310029F3D1202385F83D3085F83E3084
:10470000002385F83C30032000E00020BDE8F8835A
:1047100058B310B5044690F83D300BB3242384F809
:104720003D302268D36823F40053D3602046FFF75E
:1047300023FF2268136923F49043136122685369AD
:1047400023F02A0353612268D36843F40053D360F3
:1047500000202064202384F83D3084F83E3010BDD2
:1047600080F83C30FDF77AFDD8E7012070472DE94D
:10477000F04182B01E4690F83D30DBB2202B54D180
:1047800004460D469046002953D0002A53D090F895
:104790003C30012B51D0012380F83C3000230364CE
:1047A000212380F83D30FDF70DFE0746A4F8248054
:1047B000A4F82680A368B3F5805F05D04FF0000809
:1047C000002384F83C3012E0236913B14FF0000855
:1047D000F6E7A8460025F3E738F8023B2268C3F362
:1047E00008035360E28C92B2013A92B2E284E38C05
:1047F0009BB273B100963B46002280212046FFF712
:1048000043FFE0B9002DE7D015F8012B23685A606B
:10481000E8E700963B46002240212046FFF734FFA0
:1048200078B9202384F83D3000E0022002B0BDE8D2
:10483000F0810120FAE70120F8E70220F6E70320E3
:10484000F4E70320F2E72DE9F04182B01E4690F82C
:104850003E30DBB2202B5CD104460D469046002949
:104860005BD0002A5BD090F83C30012B59D001235B
:1048700080F83C3000230364222280F83E2003634A
:10488000FDF7A0FD0746A4F82C80A4F82E80A368AD
:10489000B3F5805F05D04FF00008002384F83C306A
:1048A00017E0236913B14FF00008F6E7A84600258A
:1048B000F3E723685B68C3F3080328F8023B03E0CF
:1048C00023685B682B700135E28D92B2013A92B297
:1048D000E285E38D9BB2BBB100963B4600222021CE
:1048E0002046FFF7D1FEF0B9002DE2D0A368B3F562
:1048F000805FE5D013B92369002BE1D023685B68A2
:1049000003F07F032B70DEE7202384F83E30002085
:1049100000E0022002B0BDE8F0810120FAE70120AA
:10492000F8E70220F6E70320F4E7704708B50168CE
:10493000CA6822F04002CA60202280F83D20FFF7BA
:10494000F4FF002008BD704708B5806B0023C385C5
:10495000C384FFF7F8FF08BD704790F83E30DBB224
:10496000222B67D18368B3F5805F4DD0826AB3F59F
:10497000805F04D0002B54D10369002B51D1036810
:104980005B681370836A01338362C38D9BB2013B02
:104990009BB2C385002B4FD100B583B00268D368AA
:1049A00023F02003D3600268D36823F48073D360BC
:1049B0000268536923F001035361202380F83E30DD
:1049C000036B012B33D100230363026802F10C0354
:1049D00053E8003F23F010030C3242E80031002975
:1049E000F3D103681A6812F0100F06D0002201926A
:1049F0001A6801925B680193019B818DFFF7ACFF00
:104A0000002003B05DF804FB0269002AAED1826A7F
:104A100003685B68C3F308031380836A023383620D
:104A2000B3E703685B6803F07F031370AAE7FCF742
:104A300019FDE5E7022070470020704730B583B0CC
:104A4000044602681368D068516913F00F0505D158
:104A500013F0200F02D010F0200F19D12DB111F05A
:104A6000010119D110F4907F16D1216B01297DD05D
:104A700013F0800F03D010F0800F40F0158113F079
:104A8000400F03D010F0400F40F0128103B030BD52
:104A90002046FFF762FFF9E713F0010F06D010F48C
:104AA000807F03D0226C42F00102226413F0040FD5
:104AB00004D019B1226C42F00202226413F0020FFA
:104AC00004D019B1226C42F00402226413F0080FE2
:104AD00007D010F0200F00D119B1226C42F008026B
:104AE0002264226C002AD1D013F0200F02D010F0E3
:104AF000200F29D123685B6903F04003226C12F078
:104B0000080F00D163B32046FFF7D7FC23685B6929
:104B100013F0400F20D0226802F1140353E8003F45
:104B200023F04003143242E800310029F3D1A36B93
:104B300073B1614A1A65A06BFDF714FD0028A5D07A
:104B4000A06B036D9847A1E72046FFF706FFD1E76A
:104B50002046FFF7F8FE99E72046FFF7F4FE95E7B9
:104B60002046FFF7F0FE002323648FE713F0100FB9
:104B70003FF47EAF10F0100F3FF47AAF00230193A3
:104B80001368019353680193019B536913F0400F1D
:104B900050D0A26B13685B689BB2002B3FF476AFDA
:104BA000A18D99427FF672AFE385D369B3F5807F1B
:104BB00037D0226802F10C0353E8003F23F48073DE
:104BC0000C3242E800310029F3D1226802F11403CB
:104BD00053E8003F23F00103143242E8003100297A
:104BE000F3D1226802F1140353E8003F23F040039D
:104BF000143242E800310029F3D1202384F83E30FA
:104C000000232363226802F10C0353E8003F23F0E2
:104C100010030C3242E800310029F3D1A06BFDF7FC
:104C200057FCA18DE38D9BB2C91A89B22046FFF7CC
:104C300093FE2BE7A18DE38D9BB2C91A89B2E38D58
:104C40009BB2002B3FF422AF00293FF41FAF226834
:104C500002F10C0353E8003F23F490730C3242E856
:104C600000300028F3D1226802F1140353E8003F1A
:104C700023F00103143242E800300028F3D120234E
:104C800084F83E3000232363226802F10C0353E8CA
:104C9000003F23F010030C3242E800300028F3D12B
:104CA0002046FFF759FEF1E62046FFF734FCEDE61B
:104CB0002046FFF73BFEE9E649490008816282850C
:104CC000C28500230364222280F83E2080F83C3015
:104CD000036923B10268D36843F48073D360026828
:104CE000536943F0010353610268D36843F0200322
:104CF000D3600020704708B590F83E30DBB2202B1F
:104D00000DD171B17AB190F83C30012B0DD0012357
:104D100080F83C3000230363FFF7D0FF00E002205F
:104D200008BD0120FCE70120FAE70220F8E70000B7
:104D3000014B1868704700BF0C00002070B50D4E85
:104D40000D4D761BB61006D0002455F8043B0134F7
:104D50009847A642F9D1094E094D761B06F0AEF8E8
:104D6000B61006D0002455F8043B01349847A642FB
:104D7000F9D170BD00B3000800B3000808B3000803
:104D800000B30008830730B548D0541E002A3FD036
:104D9000CAB2034601E0013C3AD303F8012B9D0758
:104DA000F9D1032C2DD9CDB245EA05250F2C45EAC2
:104DB000054536D9A4F1100222F00F0C03F1200EA4
:104DC000E6444FEA121C03F1100242E9045542E99D
:104DD000025510327245F8D10CF1010214F00C0F9B
:104DE00003EB021204F00F0C13D0ACF1040323F018
:104DF00003030433134442F8045B9342FBD10CF0E9
:104E000003042CB1CAB21C4403F8012B9C42FBD111
:104E100030BD64461346002CF4D1F9E7034614462E
:104E2000BFE71A46A446E0E70FB400B5074983B0D0
:104E300004AB086853F8042B8168019300F0E8F88C
:104E400003B05DF804EB04B0704700BF0C00002015
:104E5000024B01461868826804F0F4B80C00002088
:104E60002DE9F043694CD4F8008083B004460E4627
:104E700017461D46B8F1000F03D0D8F83830002B84
:104E800077D0022F05D0012F00F2AC80002DC0F2A8
:104E9000A980636EDA0752D52146404602F062FFD0
:104EA000216B41B104F14003994202D0404603F026
:104EB00085F800232363B4F90CC000231CF0800F95
:104EC000A361636064D12CF44A6C2CF0030C022FB4
:104ED000A4F80CC06AD001AB6A462146404603F0F4
:104EE00013FAA3891843A081002D2FD0002E2ED0B5
:104EF000D8F83830002B38D0009B2660AB42B4F98C
:104F00000C301CBF43F40063A381012F04BF43F0A6
:104F10000103A3819AB213F00803C4E904652CD0FD
:104F2000D1075DD56D42A561656E002315F00105C1
:104F3000A36027D00025284603B0BDE8F083A389ED
:104F40009B05A9D4A06D03F06BF9A5E7009D284649
:104F500003F00AFA0646002847D0A38943F08003ED
:104F6000A381D8F83830002BC6D1404602F02EFF7E
:104F7000C2E7404602F02AFF83E7A360656E15F0A2
:104F80000105D7D1930524D5284603B0BDE8F083A9
:104F90002169404603F012F8B4F90CC02CF44A6CB5
:104FA0002CF0030C022FA4F80CC094D10025002291
:104FB00004F14303A2600122C4E904322360636E5A
:104FC0004CF0020CD807A4F80CC0DDD41CF4007F10
:104FD000DAD1A06D03F026F9284603B0BDE8F083CE
:104FE000A560CBE74FF0FF35CEE7DDF80090A9458F
:104FF00004D0484603F0B8F9064620B9B4F90CC00D
:105000004FF0FF35D3E74D46A7E700BF0C00002067
:105010002DE9F04FD5B01C46079191460546099001
:1050200003F0F6F80268179210460E94FBF768FB3F
:1050300016901DB1AB6B002B00F02A82079A536EBD
:10504000DD0740F13881B2F90C2091B28F0409D408
:10505000079B42F400529A8191B21A465B6E23F488
:10506000005353660E0740F1CB80079B1B69002B52
:1050700000F0C68001F01A030A2B00F0CF80002454
:105080002BAB4D46CDE92944CDE91944CDE91B446C
:10509000129428939846189400230B940024CDE989
:1050A00014342B78002B00F09D81AA4604E01AF8F6
:1050B000013F002B00F0C780252BF8D1BAEB050685
:1050C00040F0C5809AF80030002B00F08B8100235F
:1050D0004FF0FF329AF801608DF883300A930AF19D
:1050E000010A08921F462B244FF020090AF1010AF9
:1050F000A6F120035A2B00F2ED80DFE813F0EB025B
:10510000EB00EB00E602EB00EB00EB006A00EB00CB
:10511000EB005C028002EB0067028A02EB00850272
:105120005B005B005B005B005B005B005B005B00A7
:105130005B00EB00EB00EB00EB00EB00EB00EB00A7
:105140007A01EB00F801D2017A017A017A01EB00D1
:10515000EB00EB00EB00E102EB00EB002D02EB00BB
:10516000EB00EB000202EB00A402EB00EB00830774
:10517000EB00EB00EB00EB00EB00EB00EB00EB00D7
:105180007A01EB00F801D4017A017A017A01C702B1
:10519000D401CD01EB00D402EB006C022F02B5026A
:1051A000CD01EB0002027E008007EB00EB006107FF
:1051B000EB007E00A6F1300300221AF8016B02EB2F
:1051C000820203EB4202A6F13003092BF5D90A92C1
:1051D0008EE7DDF824B0584603F01AF843681B93B5
:1051E0001846FBF78DFA1C900646584603F010F857
:1051F00083681993002E40F0CD869AF8006075E719
:10520000079D0998294601F0ADFC002841F01C8358
:10521000A98901F01A030A2B7FF431AF079AB2F97A
:105220000E30002BFFF62BAF536ED80702D4890542
:1052300041F13B810799099823464A4655B0BDE89C
:10524000F04F01F04FBCBAEB050600F0CB802A9B73
:1052500033442A93299B0133072BC8E9005629932D
:1052600005DC08F108080B9B33440B932AE70799E8
:10527000099828AA04F01EF880B90DF1AC08F2E7ED
:105280000799099828AA04F015F8002800F09B80D7
:105290000D9B1BB10998194602F090FE079A536EB8
:1052A000D90740F1EA8093895B0601F1D9820B9816
:1052B00055B0BDE8F08F079BB3F90C20900591B273
:1052C0003FF5C4AE1D46986D02F0AAFFB5F90C205B
:1052D00091B2BBE6002E00F0858000228DF8EC60D4
:1052E0008DF883200123CDE90C32069308920F92AA
:1052F000139210923BAD17F0020302D006990231CF
:10530000069117F0840B07D10A990698A1EB0009C2
:10531000B9F1000F00F370832A9C8AB1299A0DF12C
:10532000830101320134C8F80010072A4FF001014F
:105330002A942992C8F8041000F3B68308F10808EB
:1053400083B1299B21AA01330234C8F80020072B1E
:105350004FF002022A942993C8F8042000F3B28384
:1053600008F10808BBF1800F00F06982089B0C9AD5
:10537000A3EB020BBBF1000F00F3AA82FB0500F1C7
:1053800000820C9BC8F804301C44299BC8F80050CC
:105390000133072B2A94299300F3228308F108088C
:1053A000780705D50A9B069A9D1A002D00F396836F
:1053B000DDE90A2306998A42ACBF9B185B180B9360
:1053C000002C7FF45DAF002329930D9B1BB10D9939
:1053D000099802F0F3FD0DF1AC0855462B78002B2F
:1053E0007FF463AE2A9B002B41F0D38100232993E5
:1053F00054E70E9B073323F00702F2E80234CDE9AD
:105400001434DDE9143424F000440E929946184611
:105410002146B54B4FF0FF32FBF736FE002840F037
:10542000EF84B14B484621464FF0FF32FBF70EFEAA
:10543000002840F0E584DDE9140100220023FBF799
:10544000FBFD002840F067879DF88320A74DA84BFF
:1054500027F080070321472EC8BF1D4600230D9368
:1054600006910C9108930F9313931093002A3FF425
:1054700042AF069B013306933DE7079B9B899A0544
:105480003FF512AF079CA06D02F0CCFEA3890BE79D
:10549000099802F09BFCD1E59AF8006047F02007DC
:1054A00024E647F01007BA060E9B40F13B84073311
:1054B00023F007031A465B6852F8084B0E92994690
:1054C000002BC0F24C84089B013300F0D88254EAD0
:1054D000090327F0800B40F0D382089B002B40F09B
:1054E000D4825F46002308930C9354AD1DE10E9BBC
:1054F000002253F8041B8DF883208DF8EC100E93D6
:10550000F0E60E9C089B54F8045B4FF000098DF800
:105510008390002D00F093855A1C00F051861A46A6
:1055200049462846FAF7F4FF0D90002801F00E8155
:105530000D9BCDF820905B1B0C930E9423EAE37334
:105540009DF883200693CDF83490CDF83C90CDF8AB
:105550004C90CDF8409089E747F0100717F02009EC
:1055600000F0D2830E9B073323F00703D3F8049097
:1055700053F8084B0E9327F4806B002300228DF81C
:105580008320089A511C00F0B88054EA09012BF0DE
:10559000800740F0B180002A40F0F685002BA1D1B1
:1055A0001BF001030C9300F0148430238DF84F316D
:1055B0000DF24F15B9E00E9B53F8042B0A92002A06
:1055C00080F2DA830A9A0E9352420A929AF80060A5
:1055D00047F004078AE5BD0600F1D184FC0600F11E
:1055E000D885780600F1A586B90540F1D2850E9BD5
:1055F0000B9953F8042B0E9311705546EEE69AF86A
:1056000000608DF8834071E59AF8006047F08007EC
:105610006CE5524612F8016B2A2E01F03F82A6F18A
:105620003003092B924698BF002201F2BC801AF881
:10563000016B02EB820203EB4202A6F13003092B5D
:10564000F5D9089254E547F0100B1BF0200900F043
:1056500076830E9B073323F00703D3F8049053F8A7
:10566000084B0E93012389E70E9B53F8044B0E93CE
:10567000302378268DF884301E4B189347F0020BA8
:105680008DF885604FF00009022377E79AF80060F3
:10569000682E03BF9AF8016047F400770AF1010A07
:1056A00047F0400722E59AF800606C2E03BF9AF895
:1056B000016047F020070AF1010A47F0100715E5DD
:1056C0009AF8006047F0080710E59AF8006047F084
:1056D00001070BE59DF88330002B7FF48EAD9AF81F
:1056E00000608DF8839001E5FFFFEF7FFCAE0008BE
:1056F00000AF00080CAF0008BB46012B00F0C081D2
:10570000022B54AD20D1189A04F00F032409D35C66
:1057100005F8013D44EA09744FEA191954EA0903EE
:10572000F2D154AB5B1B5F460C9308990C989DF823
:10573000832081424FF00003B8BF01460D930691CC
:105740000F931393109391E604F00703E40844EADF
:1057500049744FEAD909303354EA09012A4605F859
:10576000013DF1D11BF0010FDBD0302BD9D030231C
:10577000023A05F8013C54AB9B1A5F460C93154660
:10578000D3E7652E40F3E680DDE914010022002313
:10579000FBF748FC002800F0DC81299BBF4AC8F8D1
:1057A0000020013301340122072B2A942993C8F8E1
:1057B000042000F3CC8408F10808229B129A93423B
:1057C00080F2D682169B179A1C44C8E90023299BB5
:1057D0002A940133072B299300F3248408F1080845
:1057E000129B5D1E002D7FF7DBAD102D299BDFF88E
:1057F000B09240F3BD8449462246B946DDF824B054
:10580000079C10260F4605E008F10808103D102DF2
:1058100040F3AA8401331032072BC8E90076CDE9A2
:105820002932F1DD28AA2146584603F043FD00281D
:105830007FF42EADDDE929320DF1AC08E6E70A9BD5
:10584000069AA3EB020BBBF1000F7FF78FADBBF104
:10585000100F299ADFF848922CDD1D9621464E46FE
:10586000079CDDF82490102306E0ABF1100BBBF190
:10587000100F08F108081ADD01321031072AC8E9B3
:105880000063CDE92921F0DD28AA214648460DF123
:10589000AC0803F00FFD00287FF4FAACABF1100B5D
:1058A000BBF1100FDDE929214FF01003E4DCB14614
:1058B0001D9E0C4601325C44072ACDE92924C8F814
:1058C0000090C8F804B000F3A08308F108084DE583
:1058D000BBF1100F299ADFF8C8912DDD4146204613
:1058E000A8464C46079DDDF82490102306E0ABF156
:1058F000100BBBF1100F01F1080119DD013210305E
:10590000072AC1E90043CDE92920F0DD28AA29466C
:10591000484603F0CFFC00287FF4BAACABF1100B83
:10592000BBF1100FDDE929202BA94FF01003E5DCB6
:105930004546A1468846044601325C44072ACDE923
:105940002924C8F80090C8F804B000F3D08108F109
:10595000080813E5129B012B40F38081299EC8F8AB
:105960000050013601340123072E2A942996C8F8E5
:10597000043000F37C8308F10808169B179A01365F
:105980001C44072EC8E90023CDE9296400F37C8379
:1059900008F10808DDE9140100220023FBF742FBAF
:1059A000002840F07881129B0136013B01351C44F0
:1059B000072EC8F800502996C8F804302A9400F33E
:1059C0005D8108F108081A9BC8F8043001361C44B0
:1059D000072E24ABCDE92964C8F800307FF7DEAC90
:1059E0000799099828AA03F065FC00287FF450ACB9
:1059F0002A9C0DF1AC08D3E4B9F1100FDDE929219F
:105A00002BDDCDE91D3B1F96DDF824B04E4610245A
:105A1000A946079D04E0103E102E08F1080817DD86
:105A20000132204B1031072AC8E90034CDE9292181
:105A3000F1DD28AA294658460DF1AC0803F03AFCDE
:105A400000287FF425AC103E102EDDE92921E7DC8B
:105A5000DDE91D3B4D46B1461F9EC8F8049001325A
:105A600009EB0104072A0F49C8F80010CDE92924E1
:105A700000F351839DF8832008F108084DE4BB46EC
:105A80000A2C79F1000380F00C83303401238DF867
:105A90004F415F460C930DF24F1546E63CAF0008B0
:105AA00050AF000840AF0008079909981D9328AA35
:105AB00003F000FC00287FF4EBAB2A9C1D9B0DF14A
:105AC000AC083DE40799099828AA03F0F3FB0028E5
:105AD0007FF4DEAB2A9C0DF1AC0843E4102D299B2A
:105AE00021DD099FDDF81C90102604E0103D102DEB
:105AF00008F1080817DD0133BB4A1034072BC8E949
