:020000040800F2
:1000000000000220DD150008B50F0008B90F000838
:10001000BD0F0008C10F0008C50F00080000000058
:10002000000000000000000000000000C90F0008F0
:10003000CD0F000800000000D10F0008D50F000808
:100040002D1600082D1600082D1600082D16000884
:100050002D1600082D1600082D1600082D16000874
:100060002D1600082D1600082D1600082D16000864
:100070002D1600082D1600082D1600082D16000854
:100080002D1600082D1600082D160008000000008F
:100090000000000000000000000000002D16000815
:1000A000D90F0008E50F0008F10F0008FD0F000848
:1000B00009100008151000082D1600082D1600085C
:1000C0002D1600082D1600082D1600082D16000804
:1000D0002D1600082D160008211000080000000051
:1000E0002D1600082D1600082D160008000000002F
:1000F0000000000000000000000000002D160008B5
:10010000000000002D1600082D1600082D1600080E
:1001100000000000000000000000000000000000DF
:100120002D1600082D1600082D1600082D160008A3
:100130002D16000800000000000000000000000074
:100140000000000000000000000000002D16000864
:100150002D1600082D1600082D1600082D16000873
:100160002D1600082D1600080000000000000000F9
:10017000000000000000000000000000000000007F
:10018000000000002D160008000000000000000024
:080190002D1600082D160008D1
:1001980053B94AB9002908BF00281CBF4FF0FF31E6
:1001A8004FF0FF3000F00CB8ADF1080C6DE904CE4B
:1001B80003F0BAFEDDF804E0DDE9022304B070477D
:1001C800704700BF0348044B834202D0034B03B17E
:1001D8001847704758050020580500200000000007
:1001E8000548064B1B1AD90F01EBA301491002D091
:1001F800034B03B1184770475805002058050020E5
:100208000000000010B5064C237843B9FFF7DAFF69
:10021800044B13B10448AFF300800123237010BDD1
:100228005805002000000000D056000808B5054B0E
:100238001BB105490548AFF30080BDE80840FFF74A
:10024800CFBF00BF000000005C050020D0560008AA
:10025800014B1860704700BF7405002010B5254891
:10026800254C012101F09AFC01283FD02368002287
:100278001A8002211F4801F091FC236801281ABF47
:1002880000225A80588010211A4801F087FC236800
:1002980001281ABF00229A8098802021154801F071
:1002A8007DFC236801281ABF0022DA80D88040210B
:1002B800104801F073FC236801281ABF00221A8134
:1002C800188180210B4801F069FC2368012816BFBA
:1002D800002258815A810948012101F05FFC2368F6
:1002E800012816BF002298819A8110BD23681880C2
:1002F800BFE700BF00000240740500200004024070
:1003080008B5FFF7ABFF0A2004F05EF818484FF471
:10031800005101F04DFC174B174A1B6859880129F9
:1003280008BFFB214FF00000107008BF11709988BA
:10033800012902D1117803391170D988012902D114
:100348001178013911701989012902D11178013107
:1003580011705989012902D11178033111709B89D3
:10036800012B02D1137805331370034808BD00BF71
:10037800000802407405002078050020024A034B5B
:1003880010601960704700BF800500207C050020C0
:1003980070B500248AB0CDE90444CDE906442B4B5E
:1003A800019408941A6B2A4E2A4D42F080021A636F
:1003B8001A6B02F080020192019A02941A6B42F0C1
:1003C80001021A631A6B02F001020292029A039464
:1003D8001A6B42F002021A631B6B03F002030393C9
:1003E800224630464FF47041039B01F0DDFB224664
:1003F80028464FF4F85101F0D7FB04A92846F32208
:100408000023CDE90423069401F040FA052204A94B
:1004180030460023CDE90423069401F037FA30462C
:100428004FF47043012604A9CDE90436CDE906440A
:1004380001F02CFA4FF4F85304A92846CDE9043604
:10044800CDE9064401F022FA0AB070BD0038024036
:1004580000040240000002400B480C4910B500237C
:100468000B4C04604FF4804241608360C3600261BA
:1004780043618361C361036201F08CFC00B910BD64
:10048800BDE8104000F040B988050020A0860100B2
:100498000054004030B5184B026889B000249A42D5
:1004A800CDE90244CDE90444069401D009B030BD39
:1004B800124D00942B6B124843F002032B632B6BF5
:1004C80003F002030093C0221223CDE90223032381
:1004D800059302A904230693009A01F0D7F9019421
:1004E8002B6C43F400132B642B6C03F4001301935F
:1004F800019B09B030BD00BF0054004000380240E5
:100508000004024008B50268094B9A4200D008BDB1
:10051800084A0948136C23F400134021136401F0BE
:10052800A9FABDE808400448802101F0A3BA00BF39
:1005380000540040003802400004024010B5002377
:1005480094B0CDE90A33CDE90C33CDE90333CDE9D5
:100558000533204901930793086C1F4A40F08050E7
:100568000864096C01F080510191019902931368A4
:1005780043F440431360136801204FF4803103F4BF
:100588004043CDE9080102934FF480010224CDE9EC
:100598000E41029804210220CDE912010C226023A9
:1005A80008A81092119301F057FF08B172B6FEE740
:1005B8000F210346CDE903144FF4805203A8032109
:1005C800CDE90532079302F05DF908B172B6FEE78E
:1005D80014B010BD003802400070004008B501F0AA
:1005E80047F8274800F054FCFFF7A8FFFFF7D0FEB4
:1005F800FFF732FF00F03AFD00F094FE00F002FF32
:1006080000F08EFF1F492048FFF7B8FE0C211F4855
:1006180002F068FC05221E49194803F045FA00213A
:100628001C4802F0D3FA0021184802F0CFFA04213E
:10063800184802F0CBFA0421144802F0C7FA322015
:1006480000F064F8322000F06BF8322000F072F805
:10065800322000F079F84FF47A7001F035F80E483E
:10066800FFF7F6FD00F066FB802000F0D7F90020C8
:1006780000F08EF9002000F013FA00F06FF8FCE7A4
:10068800680B0020DC050020E00500208C0A002013
:10069800E4050020D40A0020EC050020034B834227
:1006A80000D070470249052203F0FEB9680B00200C
:1006B800E40500200F4B02689A4200D0704710B53D
:1006C8000D4C23784BB90D4A0D4812680821536226
:1006D80002F04CFB0123237010BD0821084802F0EA
:1006E800C5FB064B074A19680223496A2370116043
:1006F80010BD00BF00040040DC050020200B0020D6
:100708008C0A0020E005002072B6FEE7034BC0EB20
:1007180000101B6840005863704700BF8C0A002017
:10072800034BC0EB00101B6840009863704700BF84
:100738008C0A0020034BC0EB00101B684000986334
:10074800704700BFD40A0020034BC0EB00101B68A1
:1007580040005863704700BFD40A00202DE9F843D1
:10076800FFF7CEFD90F901300446EBB15A4D2978D8
:10077800002900F08D8094F90030584E584D3168AA
:100788002A6813F1090F39D0D81C00F09180002B8A
:100798001EDB68D1534B544C9C614FF080749C61B4
:1007A80052484FF400441CE0514B1A78002AE2D119
:1007B800494D2A78002ADED04E4D012200212846D4
:1007C8001A7002F053FB2A684B4B526A1A60D2E740
:1007D800444B4A4C9C6145484FF480749C614FF0EF
:1007E80000448461464C9C61464C846140F21A4343
:1007F8004B6393638B635363BDE8F883394C3F487D
:10080800A0613A4FDFF8F890DFF8F8804FF4807075
:10081800A06140F2DC534FF00040B861C4F8189072
:100828004FF49670C7F818804B6393638B635363D8
:1008380000F04AFF2C4BA3614FF08073A36131682D
:100848002A684FF40043BB6140F21A43C4F8189079
:100858001420C7F818804B6393638B635363BDE818
:10086800F84300F031BF052B1E4B1F4C9C611F48FD
:100878004FF080749C614FF400448461224C9C6169
:10088800224C846140F21A43B2D164204B63E3E7FF
:10089800012318482B7002F069FA154B1A78002AC0
:1008A8007FF469AF94F90120002A7FF464AF80E7F0
:1008B8000C4B0E48124C9C61124C84610F4C9C618D
:1008C8004FF480749C6140F21A434FF000448461F5
:1008D80064204B63C0E700BF010600208C0A00209B
:1008E800D40A002000000240000400020004024074
:1008F80000060020200B0020FC0500200002000458
:1009080000100008002000400008001000400020EF
:10091800F0B58BB001460A2300938DF80D101A48E4
:100928000024022303AA78218DF80C4001F014FB5F
:10093800022801D00BB0F0BD1348144D01F0F2FAB3
:100948004026032311480894112704A9CDE906433A
:10095800CDE9046700F09AFF0824002240212846C8
:1009680001F022F9002000F0AFFE012240212846C4
:1009780001F01AF9631E13F0FF04EED1024801F0EA
:1009880009FA0BB0F0BD00BF880500200004024042
:1009980030B5044689B048B1012801D009B030BD4E
:1009A800A72009B0BDE83040FFF7B2BF0A234FF4D3
:1009B80026410093ADF808101648022302AA7821B0
:1009C80001F0CAFA0228E9D11248134D01F0AAFA37
:1009D80040211122032303910F48059403A907948A
:1009E8000492069300F052FF082400224021284672
:1009F80001F0DAF8002000F067FE012240212846C5
:100A080001F0D2F8631E13F0FF04EED1014801F0A3
:100A1800C1F9C3E7880500200004024030B589B059
:100A280001460A2300938DF80A101B4848F27814EF
:100A3800032302AA7821ADF8084001F08DFA0228B4
:100A480001D009B030BD1448144D01F06BFA0023F1
:100A580040241122059307931048032303A9CDE9E5
:100A68000342069300F012FF082400224021284682
:100A780001F09AF8002000F027FE012240212846C4
:100A880001F092F8631E13F0FF04EED1024801F062
:100A980081F909B030BD00BF88050020000402407C
:100AA80030B5044689B060B1012801D009B030BD25
:100AB800C020FFF72DFFA02009B0BDE83040FFF7A8
:100AC80027BF0A234FF448410093ADF808101A488D
:100AD800022302AA782101F03FFA022805D0A120BA
:100AE80009B0BDE83040FFF713BF1348134D01F0BC
:100AF80019FA40211122032303911048059403A9F0
:100B080007940492069300F0C1FE082400224021B5
:100B1800284601F049F8002000F0D6FD01224021C6
:100B2800284601F041F8631E13F0FF04EED1024895
:100B380001F030F9D3E700BF880500200004024027
:100B48002DE9F04F784B794E794DABB01C4603F147
:100B58000809C3F1B00B00274FF00A080BEB04019A
:100B68008DF81110CDF80080022304AA78213046B0
:100B78008DF8107001F0F0F9022800F0AC80CDF883
:100B88000080022304AA78213046ADF8107001F0E5
:100B9800E3F9022878D04FF48051ADF81010CDF861
:100BA8000080022304AA7821304601F0D5F90228F2
:100BB80043D00DF12702002314F8331002F8011F67
:100BC8000133802BF8D13222CDE901320AAB0093F0
:100BD800402201237821304601F04CFB022805D041
:100BE80001344C45BAD12BB0BDE8F08F304601F046
:100BF80099F940221123CDE9052305A903232846A5
:100C080009970797089300F041FE4FF0080A002261
:100C18004021284600F0C8FF002000F055FD0122C1
:100C28004021284600F0C0FF0AF1FF3313F0FF0A05
:100C3800EDD1304601F0AEF8D2E7304601F072F956
:100C480040211123CDE905132846032305A9099757
:100C58000797089300F01AFE4FF0080A0022402177
:100C6800284600F0A1FF002000F02EFD01224021BF
:100C7800284600F099FF0AF1FF3313F0FF0AEDD17F
:100C8800304601F087F894E7304601F04BF94020F0
:100C98001123CDE9050305A90323284609970797DA
:100CA800089300F0F3FD4FF0080A0022402128467F
:100CB80000F07AFF002000F007FD012240212846BD
:100CC80000F072FF0AF1FF3313F0FF0AEDD130464E
:100CD80001F060F85FE7304601F024F94FF0400C6E
:100CE8001123CDE905C305A90323284609970797CA
:100CF800089300F0CBFD4FF0080A00224021284657
:100D080000F052FF002000F0DFFC012240212846BD
:100D180000F04AFF0AF1FF3313F0FF0AEDD1304625
:100D280001F038F82BE700BF0406002088050020F2
:100D38000004024030B5052089B000F0C5FCE3206E
:100D4800FFF7E6FDAE20FFF7E3FD642000F0BCFCF2
:100D58000020FFF7DDFD1020FFF7DAFD0020FFF788
:100D6800D7FDB020FFF7D4FD8120FFF7D1FDFF208C
:100D7800FFF7CEFDA120FFF7CBFDA620FFF7C8FDAA
:100D8800C820FFF7C5FDD320FFF7C2FD0020FFF7FD
:100D9800BFFDD520FFF7BCFD8020FFF7B9FDD920A6
:100DA800FFF7B6FD1F20FFF7B3FDA820FFF7B0FD42
:100DB8003F20FFF7ADFDDA20FFF7AAFD1220FFF76D
:100DC800A7FD0A2300932F484FF45B44022302AA8D
:100DD8007821ADF8084001F0BFF802282AD0402059
:100DE800FFF796FD8D20FFF793FD1420FFF790FD88
:100DF800254B0022C3E90022C3E90222C3E90422E9
:100E0800C3E90622C3E90822C3E90A22C3E90C227E
:100E1800C3E90E22082101318029C3E9102203F118
:100E28000803F8D1FFF78CFEAF2009B0BDE83040C9
:100E3800FFF76EBD1348154D01F074F800234024E8
:100E48001122059307931148032303A9CDE903420F
:100E5800069300F01BFD082400224021284600F0DC
:100E6800A3FE002000F030FC01224021284600F0BB
:100E78009BFE631E13F0FF04EED1024800F08AFFC8
:100E8800ADE700BF880500200406002000040240EA
:100E980030B4064B06491D68044600230C60A86858
:100EA800022230BC194603F097BA00BF1800002090
:100EB800840A0020022801D80120704708B503F0F1
:100EC8004BFC09230360002008BD00BF013801283E
:100ED80010B50CD81446094A4FF0FF331068A2B277
:100EE80002F09AFC00280CBF2046052010BD03F034
:100EF80033FC092303604FF0FF3010BD840A002043
:100F0800022801D80020704708B503F025FC092302
:100F180003604FF0FF3008BD08B503F01DFC09233E
:100F280003604FF0FF3008BD08B558B9094A4FF0C3
:100F3800FF331068012202F01FFD002814BF0520AE
:100F4800012008BD03F008FC092303604FF0FF30BF
:100F580008BD00BF840A0020022808B504D84FF451
:100F680000534B60002008BD03F0F6FB0923036023
:100F7800002008BD82B00C4B002100915A6C42F44D
:100F880080425A645A6C02F480420092009A01919D
:100F98001A6C42F080521A641B6C03F08053019360
:100FA800019B02B0704700BF00380240FEE700BF57
:100FB800FEE700BFFEE700BFFEE700BFFEE700BF99
:100FC800704700BF704700BF704700BF00F06ABBA2
:100FD800014802F07FBA00BF200B0020014802F050
:100FE80079BA00BF200B0020014802F073BA00BF95
:100FF800200B0020014802F06DBA00BF200B002032
:10100800014802F067BA00BFD40A0020014802F084
:1010180061BA00BF8C0A0020014802F0DDBD00BFA4
:10102800680B00200C490D4A0B6810B50C4C121BBC
:101038002BB11844904207D80860184610BD094BD8
:101048000B6018449042F7D903F086FB0C23036029
:101058004FF0FF33184610BD880A00200000022018
:1010680000040000C80E0020704700BF30B50024FF
:1010780097B0202221460EA8CDE90344CDE90744C4
:10108800CDE90944CDE90B440294009406940594F3
:10109800019403F0BBFA2E482E4A046140F2E7336C
:1010A800C0E900234BF67E33C0E902434461846102
:1010B80001F0A6FC002838D14FF48053244802934D
:1010C80002A902F055F900283FD1214801F00CFD92
:1010D800002837D1002200231D486946CDE90023A6
:1010E80002F0A2FA58BB0022602300240025184809
:1010F800069306A9CDE90A45CDE9072209920C9283
:1011080002F044F8C0B9002300244FF400551048F9
:1011180015930EA9CDE91245CDE90E33CDE910336B
:1011280002F0BAFA20B917B030BDFFF7EDFAC3E7FD
:10113800FFF7EAFA17B030BDFFF7E6FAE3E7FFF783
:10114800E3FAD0E7FFF7E0FAC4E7FFF7DDFABCE718
:10115800200B00200000014010B503683E4A8AB009
:1011680000249342CDE90444CDE90644089407D00D
:10117800B3F1804F31D0394A934244D00AB010BD00
:10118800374B0094596C41F0010159645B6C03F0D2
:1011980001032246214600931820009B00F0B8FA6C
:1011A800182000F0F1FA22462146192000F0B0FA82
:1011B800192000F0E9FA224621461A2000F0A8FA80
:1011C8001A2000F0E1FA224621461B2000F0A0FA7E
:1011D8001B2000F0D9FA0AB010BD03F50E330194B4
:1011E800196C41F0010119641B6C03F001032246DC
:1011F800214601931C20019B00F08AFA1C2000F074
:10120800C3FA0AB010BD164B02941A6C154842F086
:1012180002021A641A6C02F002020292029A039401
:101228001A6B42F002021A631B6B03F0020303936A
:1012380002220223CDE9042304A902230893039A76
:1012480000F024FB224621461D2000F061FA1D20F3
:1012580000F09AFA0AB010BD0000014000040040F6
:10126800003802400004024030B503688BB0002407
:10127800B3F1804FCDE90444CDE90644089404D085
:10128800244A93422FD00BB030BD03F50E3301949E
:101298001A6B214842F001021A631A6B02F001022C
:1012A8000192019A02941A6B42F002021A631B6BB4
:1012B80003F002030293012504A94FF4004202231C
:1012C800CDE904230895029B00F0E0FA08220223E6
:1012D8001248089504A9CDE90423CDE9064400F095
:1012E800D5FA0BB030BD0E4B03941A6B0B4842F085
:1012F80002021A631B6B03F00203039330240223D8
:10130800022504A9CDE90445039A089300F0BEFA22
:101318000BB030BD00040040000002400004024051
:101328000038024030B536488FB00023CDE902338B
:10133800CDE90433CDE90033CDE90633CDE90833EF
:10134800CDE90A330C938360036183614FF08042D7
:101358006323C0E9002340F67F43C36001F050FBDC
:10136800002833D14FF480532548029302A901F095
:10137800FFFF002840D1224801F0B6FB002838D1F1
:10138800002200231E486946CDE9002302F04CF9EB
:1013980060BB0022602400251948089206A9CDE9FF
:1013A80006450A9201F0F2FEE8B91548042206A99A
:1013B80001F0ECFEA0B91248082206A901F0E6FEE9
:1013C80038B90F48FFF750FF0FB030BDFFF79CF951
:1013D800C8E7FFF799F90A48FFF746FF0FB030BD95
:1013E800FFF792F9E7E7FFF78FF9DEE7FFF78CF9E8
:1013F800CFE7FFF789F9C3E7FFF786F9BBE700BF37
:10140800D40A002010B54448444A92B00023CDE9DC
:101418000233CDE90433CDE90033CDE90A33CDE910
:101428000C33CDE90E33CDE90633CDE908331093FB
:101438008360036183616323C0E9002340F67F432F
:10144800C36001F0DDFA002846D14FF480533248DA
:10145800029302A901F08CFF002859D12E4801F00F
:1014680043FB002851D12C4801F00EFC002849D13B
:101478000022002328486946CDE9002302F0D4F869
:1014880000283CD160200021CDE90A010022224831
:101498000C920AA90E9201F079FE68BB1E4804223C
:1014A8000AA901F073FE20BB1B4808220AA901F013
:1014B8006DFED8B901220A24CDE906420023164858
:1014C80006A90C22CDE9083301F094FD38B9124879
:1014D800FFF7CAFE12B010BDFFF716F9B5E7FFF720
:1014E80013F90D48FFF7C0FE12B010BDFFF70CF955
:1014F800E0E7FFF709F9D7E7FFF706F9CEE7FFF7C7
:1015080003F9BFE7FFF700F9B2E7FFF7FDF8AAE72D
:10151800FFF7FAF8A2E700BF8C0A00200004004099
:1015280010B50B480B4C00234FF4E1310C22C0E9F5
:101538000041C0E90233036142618361C36102F083
:10154800D9F800B910BDBDE81040FFF7DDB800BFFD
:10155800680B00200044004030B51C4B026889B07D
:1015680000249A42CDE90244CDE90444069401D00E
:1015780009B030BD03F5FA3300941A6C144842F4EC
:1015880000321A641A6C02F400320092009A019434
:101598001A6B42F001021A631B6B03F001030193FB
:1015A8000C220223CDE9022302A907230322069372
:1015B8000592019D00F06AF922462146262000F096
:1015C800A7F8262000F0E0F809B030BD004400403C
:1015D80000000240DFF834D00D480E490E4A0023BF
:1015E80002E0D458C4500433C4188C42F9D30B4ACF
:1015F8000B4C002301E013600432A242FBD3FFF737
:1016080033FD03F0AFF8FEF7E9FF70470000022052
:101618000000002058050020145700085805002035
:10162800C40E0020FEE7000038B50E4A0E4B1278B3
:101638001B6805464FF47A70B0FBF2F0B3FBF0F08C
:1016480000F0B0F808B90F2D01D9012038BD0446C3
:10165800024629464FF0FF3000F05AF8034B204667
:101668001D6038BD04000020000000200800002094
:1016780008B50B4B1A6842F400721A601A6842F4F3
:1016880080621A601A6842F480721A60032000F0BF
:101698002DF80F20FFF7C8FFFFF76CFC002008BDEE
:1016A800003C0240034A044B11681B780B4413604A
:1016B800704700BFAC0B002004000020014B1868E5
:1016C800704700BFAC0B002038B50446FFF7F6FFA3
:1016D800631C054602D0044B1B781C44FFF7EEFF41
:1016E800401BA042FAD338BD040000200749CA684D
:1016F80003024FF6FF0003F4E0630240134343F094
:10170800BF6343F40033CB60704700BF00ED00E0D7
:101718001B4BDB68C3F3022300B5C3F1070EBEF110
:10172800040F03F1040C28BF4FF0040EBCF1060FA0
:101738001CD9A3F1030C4FF0FF3303FA0CF322EA90
:1017480003024FF0FF3303FA0EF321EA030303FA0F
:101758000CF313431B010028DBB20ADB00F16040E5
:1017680000F5614080F800335DF804FB00229446E0
:10177800E7E7044A00F00F00024413765DF804FB23
:1017880000ED00E0FCEC00E0002807DB4109044A1A
:1017980000F01F000123834042F82130704700BF4A
:1017A80000E100E00138B0F1807F01D301207047EB
:1017B80010B44FF0E023064C58614FF0F00C84F859
:1017C80023C00022072110469A6110BC1961704796
:1017D80000ED00E070B50446866DFFF76FFF94F8E2
:1017E8003530022B06D080236365002384F834301B
:1017F800012070BD23681A6822F016021A605A691F
:1018080022F080025A61226C054642B31A6822F01F
:1018180008021A601A6822F001021A6005E0FFF750
:101828004DFF431B052B10D823681B6813F00103D9
:10183800F5D1E16D3F228A40184601210023B260AC
:1018480084F8351084F8343070BD03232022626593
:10185800184684F83530002384F8343070BDA26C03
:10186800002AD3D1D6E700BF90F83530022B03D039
:1018780080234365012070470268052380F83530CE
:10188800136823F001030020136070472DE9F04F1F
:1018980000230C68714E85B04FF0010B894602E0B9
:1018A8000133102B7CD00BFA03F202EA0408A2439E
:1018B800F6D1D9F8041001F003024FEA430C0325CE
:1018C800571E05FA0CF5012F6FEA05056BD9032A97
:1018D80040F0A680076802FA0CF23D402A4311F452
:1018E800403F0260DCD05E4D002203926A6C42F4F5
:1018F80080426A646A6C02F480420392039A23F07D
:10190800030202F1804202F59C3203F00307956856
:10191800BF004FF00F0C0CFA07FC25EA0C05DFF8A6
:1019280044C1604519D00CF5806C604500F0838097
:10193800DFF834C1604500F08480DFF830C16045CD
:1019480000F08580DFF828C160450CBF4FF0040C1B
:101958004FF0070C0CFA07F73D439560B2686FEA41
:101968000805CF0254BF2A4048EA0202B260F26872
:101978008F0254BF2A4048EA0202F26072688F035D
:1019880054BF2A4048EA020272603268C90303F170
:10199800010354BF2A4048EA0202102B326082D168
:1019A80005B0BDE8F08F876807EA050ED9F80C7016
:1019B80007FA0CF747EA0E078760476827EA080E18
:1019C800C1F300179F4047EA0E074760C76807EA58
:1019D800050ED9F8087007FA0CF747EA0E07022A2D
:1019E800C7607FF477AFDF0800EB870701973F6A8E
:1019F800009703F0070ED9F810704FEA8E0E4FF0DB
:101A08000F0A07FA0EF70AFA0EFEDDF800A02AEA16
:101A18000E0E47EA0E07DDF804E0CEF8207059E70D
:101A2800C76807EA050ED9F8087007FA0CF747EAFD
:101A38000E07C7604EE74FF0010C0CFA07F73D435D
:101A48008BE74FF0020C0CFA07F73D4385E74FF0A0
:101A5800030C0CFA07F73D437FE700BF003C014049
:101A6800003802400000024000080240000C02401A
:101A7800001002402DE9F04F0023434F01264FF09C
:101A88000F094FF0030B02E00133102B6AD006FA5E
:101A980003F232EA010402EA010CF5D123F003054E
:101AA80005F1804505F59C35DFF8E0A0D5F808E09C
:101AB80003F00304A40009FA04F8504508EA0E0EDE
:101AC80052D00AF5806A504550D0DFF8C4A050457E
:101AD8004FD0DFF8C0A0504550D0DFF8BCA050452B
:101AE80014BF4FF0070A4FF0040A0AFA04F4A64597
:101AF80013D13C6824EA0C043C607C6824EA0C049A
:101B08007C60FC6824EA0C04FC60BC6824EA0C04D1
:101B1800BC60AC6824EA0804AC6005685C000BFA99
:101B280004F44FEAD30C25EA040500EB8C0C05609D
:101B380003F00705DCF820E0AD0009FA05F52EEA08
:101B48000505CCF82050C56825EA0405C560456838
:101B580025EA020242608268013322EA0402102B5D
:101B6800826094D1BDE8F08F0024C0E706FA04F43F
:101B7800BDE74FF0020A0AFA04F4B8E74FF0030A87
:101B88000AFA04F4B3E700BF003C01400000024039
:101B980000080240000C024000100240036919428C
:101BA80014BF01200020704702B909048161704701
:101BB800436901EA030221EA030141EA0241816122
:101BC800704700BF2DE9F04F046883B099460C9F19
:101BD8002368DDF834B0064643F48073781C8A46DF
:101BE8009046236040D16569EA07FCD50AF0FE03F8
:101BF8007D1C236103D047E063695A0560D461699D
:101C08008907F9D50023019363690193A3690193B7
:101C18007D1C019B6AD16369190679D463695A05E9
:101C2800F9D500236FF4806120226161336386F85F
:101C38003D2086F83E30336C43F004033364336C44
:101C48000022042B86F83C204ED13268136843F4F6
:101C58000073136048E0FFF731FDA0EB0B008742EB
:101C680016D334682146A7B16369DB07F3D5BDE70E
:101C78006369580524D4FFF721FDA0EB0B008742C8
:101C88006FD3002F6DD0346863699B07F0D5B9E72F
:101C9800316800222023326386F83D3086F83E20E2
:101CA800336C86F83C2043F0200333640B68D90575
:101CB80002D54FF400733364032003B0BDE8F08FFE
:101CC800236843F400732360002220236FF48061AB
:101CD8006161326386F83D3086F83E20336C86F8C1
:101CE8003C2043F0040333640120E6E763691B06E4
:101CF8000ED46369580594D4FFF7E0FCA0EB0B03FE
:101D08009F423CD3002F3AD0346863691B06F0D554
:101D1800B9F1010F06D15FFA88F30020236103B0FF
:101D2800BDE8F08F4FEA18237D1C236106D1636953
:101D38001906F0D463695A05F9D572E763691B0679
:101D4800E9D4636958053FF56CAFFFF7B7FCA0EB22
:101D58000B039F4213D397B1346863691B06F0D510
:101D6800D9E700222023326386F83D3086F83E20EA
:101D7800336C86F83C2043F020033364B4E7002337
:101D88002022336386F83D2086F83E30336C1343B7
:101D9800336454E7002800F0B88070B590F83D30FF
:101DA800044603F0FF02002B00F0988023682422E9
:101DB80084F83D201A6822F001021A601A6842F479
:101DC80000421A601A6822F400421A6000F0F8FD16
:101DD80065684F4B9D424FD84E4B98427CD94E4B2D
:101DE8006A00A3FB0035431EB3FBF2F32268516877
:101DF80021F03F0141EA95415160116A4FEA954C43
:101E08000CF1010C21F03F0141EA0C011162D1698A
:101E180040F6FC70013321F44F41034221F0FF01E9
:101E280061D104230B43D361D4E90730116803431C
:101E380021F0C0010B4313609168D4E9030321F436
:101E48000341034321F0FF010B439360D4E90530BC
:101E5800D168034321F0FF010B43D36011680023CD
:101E680041F0010120201160236484F83D002363C0
:101E780084F83E30184670BD284B98422CD9226809
:101E8800254B274EA3FB003C431E506820F03F0023
:101E980040EA9C4050604FEA9C414FF4967000FB2A
:101EA80001F1A6FB0161106A890920F03F000131A8
:101EB80001431162D169A06821F44F4121F0FF016B
:101EC800A0B905EB4505B3FBF5F30133C3F30B03E9
:101ED800CBB143F40043A5E7012070BD80F83C2056
:101EE800FEF7D8FA62E7C3F30B039BE705EB85051A
:101EF80005EB8505B3FBF5F30133C3F30B0313B10E
:101F080043F440438EE701238CE70120704700BF6C
:101F1800A08601007F841E0083DE1B43FF083D006E
:101F2800D34D6210B0B10268242310B580F83D305B
:101F3800136823F0010304461360FEF7E3FA002355
:101F4800236484F83C3084F83D30236384F83E30C1
:101F5800184610BD012070472DE9F04F054683B0A3
:101F680099460C9F88469246FFF7A8FB95F83D30A6
:101F7800202B03D0022003B0BDE8F08F064605E011
:101F8800FFF79CFB801B192800F21F812C68A369AE
:101F98006FEA030C1CF0020BF2D095F83C30012BD1
:101FA800E8D0012385F83C302368D90774D5236825
:101FB8008D4A23F400632360212385F83D301023E4
:101FC80085F83E3000232B64A5F82A906B8DEA62D1
:101FD8002B85EB6AC5F824A0082B06D0012B04D06A
:101FE800934202D02B6B122B03D1236843F48073E6
:101FF80023607B1C4CD16369D807FCD52B69B3F5EA
:10200800804F4ED108F0FE032361781C04D0B6E05F
:1020180063695A0500F1EA8063699907F8D50023D6
:10202800019363690193A369288D0193019B00289B
:1020380000F08D80791C49D163691A065AD4636906
:102048005B05F9D500236FF48061202261612B6361
:1020580085F83D2085F83E302B6C43F004032B6453
:102068002B6C0022042B85F83C2040F0D3802A6892
:10207800136843F400731360CCE0FFF71FFB801B69
:102088008742C0F0C9802C682346002F00F0C58025
:102098006369D907F1D5B1E7236843F001032360E9
:1020A80085E74FEAE81303F0060343F0F0037A1CD0
:1020B800236104D072E06369590500F19780636970
:1020C8001807F8D55FFA88F323619EE76369190654
:1020D8000FD463695805B5D4FFF7F0FA801B87421F
:1020E800C0F0AF80002F00F0AC802C68636919063F
:1020F800EFD5288DD5F824C06146431E11F8012B71
:1021080022616A8D6962013A92B26A8562699BB2FC
:1021180052072B850CD55BB19CF8013023610CF17B
:1021280002036B626B8D013B02389BB228856B857D
:10213800781C37D16369590705D463695A0581D476
:1021480063695907F9D5288D00287FF473AF236890
:10215800002043F400732022236085F83D2085F891
:102168003C0085F83E0006E763695B053ED4FFF74F
:10217800A5FA801B87426FD3002F6DD02C68636946
:102188009B07F1D54BE763695B052FD4FFF796FAF8
:10219800831B9F4260D3002F5ED02C6863691A07A7
:1021A800F1D58FE763695B07CDD463695B053FF5BC
:1021B80049AFFFF783FA801B874242D3002F40D0F4
:1021C8002C6863695B07F0D5BDE72023C5F830B0FC
:1021D80085F83D3085F83EB02B6C85F83CB043F06F
:1021E80020032B64C6E600BF0000FFFF236843F40A
:1021F80000732360002220236FF4806161612A63E9
:1022080085F83D3085F83E202B6C85F83C2043F05E
:1022180004032B640120AEE62B68002120222963E9
:1022280085F83D2085F83E102A6C85F83C1042F070
:1022380020022A641B68DA05ECD54FF400732B647E
:10224800E8E7002320222B6385F83D2085F83E30FF
:102258002B6C13432B6403E7002220232A6385F8A1
:102268003D3085F83E202B6C85F83C2043F0200358
:102278002B64CFE72DE9F04F044683B09946BDF8AB
:1022880034A00E9E0F469046FFF718FA94F83D309A
:10229800202B04D00227384603B0BDE8F08F05464E
:1022A80005E0FFF70BFA401B192800F29C80206814
:1022B80083696FEA030C1CF0020BF2D094F83C30EF
:1022C800012BE7D0012384F83C300368DB0740F199
:1022D80085803946076827F4006707600C986062B4
:1022E8002120CDE9006584F83D00402084F83E00B7
:1022F80000202064A4F82AA0608D20855548E0625B
:102308004B4642462046FFF75DFC074620BB228D20
:102318002368002A48D0721C20D15A6910062ED48E
:102328005A695105F9D500226FF48060202158615F
:10233800226384F83D1084F83E20236C43F00403A4
:102348002364236C0022042B84F83C2004D12268E7
:10235800136843F40073136001279CE75A69120657
:102368000DD45A695105DED4FFF7A8F9401B8642FF
:1023780064D3002E62D023685A691206F1D5D4F8C6
:1023880024C0B4F828E061460EF1FF3011F8012BA3
:102398001A61628D6162013A92B2628582B25869AD
:1023A8002285400717D542B9721C2AD15A695007AD
:1023B80037D45A695105F9D5B5E79CF80110196168
:1023C8000CF102016162618DAEF10202013992B233
:1023D80089B222856185002A9DD1E5E7036843F02B
:1023E8000103036075E72023C4F830B084F83D305A
:1023F80084F83EB0236C84F83CB043F02003236497
:1024080048E75A6952070CD45A6951058BD4FFF72B
:1024180055F9431B9E4211D386B123685A69520766
:10242800F2D51A68002142F4007220201A6084F85C
:102438003D0084F83C1084F83E102CE7002320224D
:10244800236384F83D2084F83E30236C13432364CF
:1024580077E700BF0000FFFF002800F0D8812DE9D2
:10246800F0410368DD0782B004462FD59D498A688C
:1024780002F00C02042A00F0EC808A6802F00C02D8
:10248800082A00F0E2806368B3F5803F00F0EB8033
:10249800B3F5A02F00F07381924D2A6822F48032A0
:1024A8002A602A6822F480222A60002B40F0E0800B
:1024B800FFF704F9064605E0FFF700F9801B6428DA
:1024C80000F200812B689F03F6D423689D0728D566
:1024D800844A916811F00C0F00F09B80916801F01C
:1024E8000C01082900F09180E368002B00F00C81B2
:1024F8007D4B7C4E01221A60FFF7E0F8054605E0A7
:10250800FFF7DCF8401B022800F2DC8033689F07E5
:10251800F6D53368226923F0F80343EAC20333602F
:1025280023681A075CD45D073AD56E4A136C13F01A
:10253800805340F088800193136C43F080531364F8
:10254800136C03F080530193019B0125674E336898
:10255800D80540F1A780A368012B00F0B780052BB0
:1025680000F01D815F4E326F22F001023267326F38
:1025780022F004023267002B40F0AD80FFF79EF88E
:1025880041F28838074605E0FFF798F8C01B404538
:1025980000F29880336F9B07F6D4002D40F0F98045
:1025A800A369CBB14F4DAA6802F00C02082A00F0CB
:1025B800BC80022B4C4B4FF000021A6600F0F980E9
:1025C800FFF77CF8044604E0FFF778F8001B0228C0
:1025D80078D82B689B01F7D4002002B0BDE8F081C1
:1025E8006369FBB1404B3F4E0122C3F8802EFFF7D1
:1025F80065F8054604E0FFF761F8401B022861D83A
:10260800736F9B07F7D523688DE7526851023FF532
:102618006BAF344A1268920738D5E268012A35D080
:102628000120DAE7304A2F4EC2F8803EFFF746F81D
:10263800054604E0FFF742F8401B022842D8736FB2
:102648009F07F7D4DFE7002580E74A6851027FF546
:102658001AAF244A126892037FF538AF6268002ADD
:102668007FF434AFDCE71F4A136843F48033136008
:10267800FFF724F81B4E054604E0FFF71FF8401B40
:1026880064281FD833689B03F7D51EE715492069CE
:102698000A6822F0F80242EAC0020A601A077FF5C7
:1026A80042AF9DE7336843F480733360FFF706F861
:1026B80007463368D9053FF54EAFFEF7FFFFC01B4D
:1026C8000228F6D9032002B0BDE8F081054A136F4D
:1026D80043F001031367FEF7F1FF024F064641F28C
:1026E80088380AE000380240000047420070004085
:1026F800FEF7E4FF801B4045E4D83B6F9A07F7D507
:10270800002D3FF44DAF44E0424A434E1360FEF7BC
:10271800D5FF054604E0FEF7D1FF401B0228D1D8BB
:1027280033689907F7D42368FBE6012B3FF478AFA9
:102738006B68E26903F4800191427FF471AF226A09
:1027480003F03F0191427FF46BAF616A47F6C072B4
:102758001A40B2EB811F7FF463AFA26A520803F4F8
:102768004031013AB1EB024F7FF45AAFE26A03F00D
:102778007063B3EB026F14BF012000202DE7264BD6
:102788001A6842F480221A601A6842F480321A6089
:102798006EE7214A136C23F08053136400E71E4B45
:1027A8001A6F42F004021A671A6F42F001021A67A0
:1027B80091E7FEF783FF064605E0FEF77FFF801BE3
:1027C80002283FF67FAF2B689901F6D4D4E9073188
:1027D800626A0B4343EA8213D4E90A21520843EAA6
:1027E8000163013A0B4943EA024301226B600A661E
:1027F800FEF764FF084D044605E0FEF75FFF001B87
:1028080002283FF65FAF2B689A01F6D5E4E601206F
:10281800704700BF0000474200380240164908B51B
:102828008B6803F00C03042B1BD0082B17D14A68C4
:102838004B68496813F4800302F03F0213D10F4834
:10284800C1F38811A1FB0001FDF7A2FC0A4B5B68EC
:10285800C3F3014301335B00B0FBF3F008BD074845
:1028680008BD074808BD0648C1F388110023A1FB2D
:102878000001FDF78DFCE9E7003802400024F40070
:1028880040787D01002800F08780484A136803F0EB
:1028980007038B422DE9F0410D46044609D2CBB21D
:1028A8001370136803F007038B4202D00120BDE8C0
:1028B800F0812368980714D5590704D53C498A68DC
:1028C80042F4E0528A601A0704D539498A6842F40A
:1028D80060428A603649A0688A6822F0F0020243A2
:1028E8008A60DF0721D56268012A57D0931E012B21
:1028F8002F4B1B684DD99907D8D52D4EB36823F0B7
:1029080003031343B360FEF7D9FE41F28838074644
:1029180004E0FEF7D3FEC01B404544D8B3686268A4
:1029280003F00C03B3EB820FF3D1204A136803F0D2
:102938000703AB4206D9EBB21370136803F0070321
:10294800AB42B3D123685A0706D51949E0688A68AB
:1029580022F4E05202438A601B0707D5144A216912
:10296800936823F4604343EAC1039360FFF756FF7B
:102978000F4A104C92681049C2F303120346A25C36
:102988000E48D34000680B60FEF74EFE0020BDE8FD
:10299800F0819801B1D489E701207047044B1B6886
:1029A8009E03AAD482E7032081E700BF003C0240CF
:1029B80000380240F05600080000002008000020FF
:1029C800044B05499B68054A0868C3F38223D35C16
:1029D800D84070470038024000000020E856000840
:1029E800044B05499B68054A0868C3F34233D35C26
:1029F800D84070470038024000000020E856000820
:102A0800002869D070B590F83D30044603F0FF0205
:102A1800002B4BD02268314E6168E068A56902231B
:102A280084F83D30B242136845D0B2F1804F17D0D8
:102A3800A6F57C46B24213D006F58066B2420FD0A6
:102A480006F58066B2420BD0254EB2420CD006F590
:102A58008066B24208D006F58066B24208D103E02B
:102A6800A66823F070033343266923F44073334385
:102A780023F080032B431360D062916201235361DA
:102A880084F8463084F83E3084F83F3084F840308B
:102A980084F8413084F8423084F8433084F8443074
:102AA80084F8453084F83D30002070BD80F83C2023
:102AB800FEF752FBAEE7A66823F07003334326699E
:102AC80023F44073334323F080032B431360D06215
:102AD800916263691363D1E70120704700000140E8
:102AE80000400140704700BF002869D070B590F8D9
:102AF8003D30044603F0FF02002B4BD02268314ED4
:102B08006168E068A569022384F83D30B242136821
:102B180045D0B2F1804F17D0A6F57C46B24213D00B
:102B280006F58066B2420FD006F58066B2420BD039
:102B3800254EB2420CD006F58066B24208D006F5A2
:102B48008066B24208D103E0A66823F070033343DD
:102B5800266923F44073334323F080032B43136027
:102B6800D06291620123536184F8463084F83E3084
:102B780084F83F3084F8403084F8413084F842309B
:102B880084F8433084F8443084F8453084F83D3084
:102B9800002070BD80F83C20FFF7A4FFAEE7A668D0
:102BA80023F070033343266923F44073334323F03F
:102BB80080032B431360D062916263691363D1E78A
:102BC80001207047000001400040014091BB90F88F
:102BD8003E30012B3AD1022380F83E30036801F0E1
:102BE8001F01186A01228A4020EA02001862186A46
:102BF800224902438B421A6232D0B3F1804F0ED081
:102C08001F4A93420BD002F58062934207D002F527
:102C18008062934203D002F59A32934204D19A68B3
:102C280002F00702062A03D01A6842F001021A606D
:102C38000020704704290BD0082916D090F841309D
:102C4800012B03D1022380F84130C7E701207047E8
:102C580090F83F30012BF9D1022380F83F30BDE7CF
:102C68005A6C42F400425A64D9E790F84030012B7C
:102C7800ECD1022380F84030B0E700BF00000140EB
:102C880000040040704700BF002869D070B590F874
:102C98003D30044603F0FF02002B4BD02268314E32
:102CA8006168E068A569022384F83D30B242136880
:102CB80045D0B2F1804F17D0A6F57C46B24213D06A
:102CC80006F58066B2420FD006F58066B2420BD098
:102CD800254EB2420CD006F58066B24208D006F501
:102CE8008066B24208D103E0A66823F0700333433C
:102CF800266923F44073334323F080032B43136086
:102D0800D06291620123536184F8463084F83E30E2
:102D180084F83F3084F8403084F8413084F84230F9
:102D280084F8433084F8443084F8453084F83D30E2
:102D3800002070BD80F83C20FFF7A4FFAEE7A6682E
:102D480023F070033343266923F44073334323F09D
:102D580080032B431360D062916263691363D1E7E8
:102D6800012070470000014000400140034659B966
:102D780090F83EC090F84220BCF1010F5FFA8CF049
:102D8800D2B217D001207047042946D0082956D05E
:102D980090F841C090F84520BCF1010F5FFA8CF023
:102DA800D2B2EFD1012AEED1022283F8412083F872
:102DB800452006E0012AE6D1022283F83E2083F866
:102DC80042201B6801F01F01186A01228A4020EA8C
:102DD80002001862186A234902438B421A6211D012
:102DE800B3F1804F0ED0204A93420BD002F5806297
:102DF800934207D002F58062934203D002F59A32DB
:102E0800934204D19A6802F00702062A03D01A688E
:102E180042F001021A600020704790F83FC090F815
:102E28004320BCF1010F5FFA8CF0D2B2AAD1012A7B
:102E3800A9D1022283F83F2083F84320C1E790F804
:102E480040C090F84420BCF1010F5FFA8CF0D2B278
:102E580098D1012A97D1022283F8402083F8442090
:102E6800AFE700BF0000014000040040036810B451
:102E78001A6A01F01F044FF0010C0CFA04FC22EA54
:102E88000C021A621A6A1A621C6A41F2111214427E
:102E980004D11C6A40F24442144217D0012331B9CC
:102EA80080F83E3080F8423010BC0020704704297A
:102EB80011D008290BBF80F8403080F8413080F8E5
:102EC800443080F8453010BC002070471A6822F062
:102ED80001021A60E2E780F83F3080F8433010BC06
:102EE8000020704700293DD190F83E2090F84230EC
:102EF800012ADBB243D1012B41D10222036880F8B9
:102F08003E2080F84220DA6842F00202DA60186A4D
:102F180001F01F0101228A4020EA02001862186AA3
:102F2800324902438B421A6211D0B3F1804F0ED05E
:102F38002F4A93420BD002F58062934207D002F5E4
:102F48008062934203D002F59A32934204D19A6880
:102F580002F00702062A03D01A6842F001021A603A
:102F68000020704704290CD008291ED090F8412071
:102F780090F84530012ADBB201D1012B29D001207C
:102F8800704790F83F2090F84330012ADBB2F6D121
:102F9800012BF4D10222036880F83F2080F84320F7
:102FA800DA6842F00402DA60B1E790F8402090F85D
:102FB8004430012ADBB2E2D1012BE0D102220368BE
:102FC80080F8402080F84420DA6842F00802DA608D
:102FD8009DE702230C2980F8413080F84530CED196
:102FE8000368DA6842F01002DA6090E700000140F6
:102FF80000040040034690F83C00012800F0C1801E
:103008000120F0B483F83C005AB1042A4CD0082AB5
:1030180000F094800C2A6CD0002283F83C20F0BC8D
:1030280070471A68DFF860C1166AC86826F001069A
:10303800D1E90045624516629769166A15D0B2F162
:10304800804F12D0ACF57C4C62450ED00CF5806CEC
:1030580062450AD00CF5806C624506D00CF59A3CA6
:10306800624502D047F0010C03E027F0030745EA68
:10307800070C00012CF0F00CC0B240EA0C00906183
:1030880026F00A0504F00A002843106290698C684B
:1030980020F00C009061916921439161002283F82E
:1030A8003C200020F0BC70471A68C868156A25F0F3
:1030B8001005D1E9004615628D68916921F44071C7
:1030C800000341EA062180B221F470410143106AED
:1030D8009161240104F0A00420F0A00121431162B1
:1030E800916921F440619161916941EA05219161F9
:1030F800D4E71A68C868156A25F48055D1E90046EE
:1031080015628D68D16921F44071000341EA0621F6
:1031180080B221F470410143106AD161240304F4A0
:10312800204420F4204121431162D16921F44061F7
:10313800D161D16941EA0521D161AFE71A68C86850
:10314800166A26F48076D1E9005416628E68D16931
:1031580021F0030100012143C0B221F0F001014335
:10316800106AD1612D0205F4206520F420612943FD
:103178001162D16921F00C01D161D1693143D1616A
:103188008CE70220704700BF00000140034690F81A
:103198003C00012800F0B6800120F0B483F83C0020
:1031A8000C2A08D8DFE802F03B0707076007070783
:1031B800880707070D00002283F83C200120F0BC97
:1031C80070471A680E68106A20F480501062106AFE
:1031D8005568D46924F4E64444EA06248E6820F449
:1031E800005040EA0630614EB24200F0A9805560B6
:1031F800D4614C6814641062D0690C6940F40060B2
:10320800D061D16921F48061D161D16941EA042199
:10321800D161002283F83C200020F0BC70471A6876
:103228000E68106A20F001001062106A55689469EF
:1032380024F0730434438E6820F0020030434B4E70
:10324800B24261D0556094614C68546310629069D1
:103258000C6940F008009061916921F004019161C6
:10326800916921439161D4E71A680E68106A20F0C9
:1032780010001062106A5568946924F4E64444EA20
:1032880006248E6820F0200040EA0610374EB2422D
:1032980047D0556094614C689463106290690C69DA
:1032A80040F400609061916921F4806191619169B5
:1032B80041EA04219161ACE71A680E68106A20F4AB
:1032C80080701062106A5568D46924F0730434431E
:1032D8008E6820F4007040EA0620244EB24235D0B1
:1032E8005560D4614C68D4631062D0690C6940F0B1
:1032F8000800D061D16921F00401D161D16921436D
:10330800D16186E702207047CE6820F0080030437C
:10331800D1E9056725F440753E4320F004003543A4
:1033280090E7CE6820F0800040EA0610D1E90567F2
:1033380025F440653E4320F0400045EA8605A8E7AD
:103348004E6925F4804545EA861550E7CE6820F495
:10335800006040EA0620D1E9056725F440553E4360
:1033680020F4806045EA0615BAE700BF0000014076
:1033780090F83C30012B71D0024630B40223046827
:1033880082F83D30012082F83C00A36823F47F4393
:1033980023F07703A3600B68602B61D024D8402BFF
:1033A80077D04AD9502B17D14B68C868216A21F0C9
:1033B8000A011943236A23F001032362A36923F056
:1033C800F00343EA0013A3612162A36823F07003AA
:1033D80043F05703A36000200121002382F83D1029
:1033E80082F83C3030BC7047B3F5805FF3D0B3F55A
:1033F800005F10D1D1E90153A0682B43CD6820F4B8
:103408007F4143EA05230B43A360A36843F4804349
:10341800A3600020E0E7702BDED1D1E90153A0685A
:103428002B43CD6820F47F4143EA05230B43A36077
:10343800A36843F07703A360CDE7202B02D009D916
:10344800302BC9D1A16821F070010B4343F0070369
:10345800A360C0E733F01001BED1F3E70220704744
:10346800236A4868CD6823F010032362A169236AA0
:1034780021F4704123F0A00343EA001341EA053127
:10348800A1612362A36823F0700343F06703A3607C
:10349800A1E74B68C868216A21F00A011943236A29
:1034A80023F001032362A36923F0F00343EA001326
:1034B800A3612162A36823F0700343F04703A3606C
:1034C80089E700BF704700BF704700BF704700BF63
:1034D800704700BF03681A69910710B5044602D502
:1034E800DA6892075FD41A69500702D5DA6851077B
:1034F80046D41A69120702D5DA6810072ED41A6959
:10350800D20602D5DA68D00618D41A69D10702D5CE
:10351800DA68D2075DD41A69100602D5DA6811068E
:103528005FD41A69520602D5DA68500661D41A695E
:10353800910602D5DA68920643D410BD6FF01001E7
:10354800082219612277DB6913F4407F204664D092
:10355800FDF7B0F8002223682277D6E76FF008015C
:10356800042219612277DB699907204652D1FFF7B7
:10357800ABFF2046FFF7AAFF002223682277BEE7A9
:103588006FF004010222196122779B6913F4407FCE
:1035980020463CD1FFF798FF2046FFF797FF00220F
:1035A80023682277A5E76FF00201012219610277EB
:1035B8009B699B0725D0FDF77DF8002223682277B9
:1035C80091E76FF0200220461A61BDE8104000F034
:1035D8008DB86FF001021A612046FFF773FF236868
:1035E80099E76FF080021A61204600F081F823689D
:1035F80097E76FF040021A612046FFF769FF2368DA
:1036080095E7FFF761FF2046FFF760FFD5E7FDF775
:1036180051F8C4E7FDF74EF8AEE7FFF755FF20462F
:10362800FFF754FF96E700BF90F83C20012A2FD0FF
:1036380003460268022030B483F83D0050680D68E4
:10364800946820F07000284350601248824212D0DB
:10365800B2F1804F0FD0A0F57C4082420BD000F52C
:103668008060824207D000F58060824203D000F576
:103678009A30824204D1496824F080040C43946053
:103688000020012283F83D2083F83C0030BC7047BD
:10369800022070470000014090F83C30012B22D0F6
:1036A80010B4D1E9024323F4407302462343486827
:1036B8000C6823F48063034323F4006308692343FD
:1036C80023F4805303434869CC6923F4005303432C
:1036D80023F48043106800212343436482F83C109C
:1036E800084610BC70470220704700BF704700BFF3
:1036F800704700BF002800F0868038B590F83D304C
:10370800044603F0FF02002B78D02368E0682422E7
:1037180084F83D20DA6822F40052DA601969A26858
:1037280021F4405101432069196102436069D96855
:103738000243E06921F4164121F00C0102430A43D7
:10374800DA605A69A069314922F4407202438B4217
:103758005A6135D02E4A934232D0FFF731F9E269E7
:103768001921B2F5004FD4E90053A0FB01012AD07A
:103778009A009B0FFCF70CFD264AA2FB00135B097D
:10378800642101FB130000013230A2FB00201B0161
:1037980003EB5013AB602B6923F490432B616B69E7
:1037A80023F02A036B61EB680021202243F40053C5
:1037B800EB60216484F83D2084F83E20084638BD3B
:1037C800FFF70EF9CBE7DA184FF000035B41FCF77F
:1037D800DFFC104AA2FB00314909642303FB1103F3
:1037E800DB003233A2FB0323C3F342121B0902EBB3
:1037F800011203F4F8731344AB60CCE780F83C2063
:10380800FDF7AAFE81E70120704700BF00100140C4
:10381800001401401F85EB512DE9F843044690F848
:103828003D0020287AD1884600293FD01746002A33
:103838003CD01D4694F83C30012B6FD0012384F80E
:103848003C304FF000092123C4F8409084F83D3003
:10385800FDF734FFA368A784B3F5805FE7840646C5
:103868006AD0E28C002392B284F83C30236892B18B
:10387800691C25D11A681206FCD5B8F1000F25D0AD
:1038880018F8012B5A60E28C013A92B2E284E28C79
:1038980092B2002AECD1681C4AD11A685106FCD5AC
:1038A800202384F83D300020BDE8F8830120BDE8DE
:1038B800F88385B1FDF702FF801B854223680AD390
:1038C8001A681706F5D5B8F1000FD9D139F8022BC7
:1038D800C2F30802D6E703F10C0252E8002F22F4E3
:1038E800D07203F10C0040E800210029F3D103F164
:1038F800140252E8002F22F0010203F1140040E8FC
:1039080000210029F3D1202384F83D3084F83E308B
:10391800002384F83C300320BDE8F8830220BDE88A
:10392800F8837DB1FDF7CAFE831B9D42236809D346
:103938001A685206F5D5B3E72369002B91D1C14621
:1039480098468EE703F10C0252E8002F22F4D07259
:1039580003F10C0040E800210029F3D103F114021F
:1039680052E8002F22F0010203F1140040E8002180
:103978000029F3D1C7E700BF2DE9F843044690F8C2
:103988003E00202840F086808846002946D016460A
:10399800002A43D01F4694F83C30012B7AD00123EB
:1039A80084F83C304FF000092223C4F8409084F892
:1039B8003E30C4F83090FDF781FEA368A685B3F5C4
:1039C800805FE685054668D0E38D00229BB284F8C7
:1039D8003C20EBB1781C23682AD11A689106FCD5E3
:1039E800B8F1000F2AD0A268B2F5805F04D0002A8F
:1039F8004CD12269002A49D15B68DBB208F8013B47
:103A0800E28D013A92B2E285E38D9BB2002BE1D1BF
:103A1800202384F83E300020BDE8F8830120BDE86B
:103A2800F8838FB1FDF74AFE401B874223680BD30A
:103A38001A689206F5D5B8F1000FD4D15B68C3F3C4
:103A4800080329F8023BDBE703F10C0252E8002FD8
:103A580022F4D07203F10C0040E800210029F3D1D0
:103A680003F1140252E8002F22F0010203F11400BE
:103A780040E800210029F3D1202384F83D3084F860
:103A88003C1084F83E300320BDE8F8835B6803F0FF
:103A98007F03B3E70220BDE8F8832369002B93D1A5
:103AA800C146984690E700BF90F83E30202B25D1BC
:103AB80011B30AB390F83C30012B1FD010B404693D
:103AC800816200232221036380F83C30C28582850D
:103AD8000364036880F83E101CB1DA6842F480720F
:103AE800DA605A6910BC42F001025A61DA6842F0A1
:103AF80020020020DA6070470120704702207047DA
:103B0800704700BF704700BF08B5806B0023C385AE
:103B1800C384FFF7F7FF08BD704700BF83680168DB
:103B2800826AB3F5805F41D0002B38D04B6803F030
:103B38007F031370826A0132C38D8262013B9BB29C
:103B4800C385002B31D10268D16821F0200100B56E
:103B5800D160D16821F48071D16051694FF0200C97
:103B680021F00101516180F83EC0016B012983B049
:103B780025D1036302F10C0353E8003F23F010033F
:103B880002F10C0C4CE800310029F3D11368DB0674
:103B98001AD4818DFFF7C0FF03B05DF804FB0369F9
:103BA800002BC3D14B68DBB2C3E770470369002B16
:103BB800F8D14B68C3F3080322F8023BBCE7FCF7D3
:103BC8006DFD03B05DF804FB0023019313680193B6
:103BD80053680193019BDCE730B503681A68DD6818
:103BE800596912F00F0F83B004466ED1910602D5C1
:103BF800A90600F19F80216B01290BD0100602D580
:103C0800290600F1A180520602D5680600F1BB80A2
:103C180003B030BDD006F1D5E906EFD500220192F8
:103C28001A6801925A680192019A5A69550640F138
:103C38003481A06B0268526892B2002AE8D0A18D44
:103C48009142E5D9E285C269B2F5807F36D003F1A9
:103C58000C0252E8002F22F4807203F10C0545E8AB
:103C680000210029F3D103F1140252E8002F22F0B9
:103C7800010203F1140545E800210029F3D103F1FD
:103C8800140252E8002F22F0400203F1140545E81F
:103C980000210029F3D1202284F83E20216303F17A
:103CA8000C0252E8002F22F0100203F10C0545E83F
:103CB80000210029F3D1FDF78DFDA18DE38DC91AEF
:103CC800204689B2FFF728FFA2E711F0010178D159
:103CD80015F4907F8FD0D0070AD5E80540F1D98038
:103CE800206C40F00100206450075BD500296CD19E
:103CF800900770D5100700F1C980216C002987D082
:103D0800910609D5AA0607D594F83E20222A03D1A0
:103D18002046FFF703FF23685A69216C02F040022E
:103D280001F0080152EA01055CD12046FFF7EAFEDE
:103D380025646DE790F83E30222B7FF469AF03B01D
:103D4800BDE83040FFF7EABE94F83D20212A7FF411
:103D58005FAFA168226AB1F5805F00F0D780511C7F
:103D6800216212785A60E28C013A92B2E284002A07
:103D78007FF44EAFDA6822F08002DA60DA6842F047
:103D88004002DA6044E7DA68202122F04002DA6073
:103D9800204684F83D10FFF7B3FE39E7E8059FD4C5
:103DA800500712D4900716D50029A3D0216C41F0F2
:103DB800040121641107A0D5216C41F00801216498
:103DC8009BE7D007EAD450075BD5206C40F002008F
:103DD80020649007EAD410078FD505F02000084327
:103DE8008BD0E9E703F10C0252E8002F22F490721D
:103DF80003F10C0040E800210029F3D103F114027B
:103E080052E8002F22F0010203F1140040E80021DB
:103E18000029F3D1226B012A22D00022202184F824
:103E28003E1022635A69550627D503F1140252E859
:103E3800002F22F0400203F1140040E8002100297D
:103E4800F3D1A06BC8B1374B0365FDF70DFD002812
:103E58003FF4DEAEA06B036D03B0BDE830401847F9
:103E680003F10C0252E8002F22F0100203F10C00BB
:103E780040E800210029F3D1CFE72046FFF742FEB2
:103E8800C6E6910792D4110796D436E7A90693D4CB
:103E980033E750073FF52CAF84E7E18DE28DA08D25
:103EA80092B289B2002A3FF4B3AE411A89B200290E
:103EB8003FF4AEAE03F10C0252E8002F22F49072E8
:103EC80003F10C0545E800200028F3D103F11402A2
:103ED80052E8002F22F0010203F1140545E8002002
:103EE8000028F3D1202284F83E20206303F10C023D
:103EF80052E8002F22F0100203F10C0545E80020DB
:103F08000028F3D12046FFF707FE81E62169002942
:103F18007FF425AF32F8021BC1F308015960226211
:103F280021E700BF113B00082DE9F047089D0C462A
:103F3800002B4ED194468C458646B2FA82F262D95D
:103F48004AB1C2F12003914020FA03F30CFA02FCB3
:103F5800194300FA02FE4FEA1C471FFA8CF6B1FB20
:103F6800F7F44FEA1E4307FB141143EA014304FB2D
:103F780006F199420AD91CEB030304F1FF3080F0E3
:103F88001281994240F20F81023C6344591A1FFA88
:103F98008EF3B1FBF7F007FB101143EA014300FB76
:103FA80006F69E420AD91CEB030300F1FF3180F0AC
:103FB800FC809E4240F2F980634402389B1B40EA31
:103FC800044000211DB1D3400022C5E90032BDE8FC
:103FD800F0878B4205D90DB1C5E9000100210846DB
:103FE800F5E7B3FA83F1002946D1A34202D3904200
:103FF800C0F0F080861A64EB03030120002DE6D0A0
:10400800C5E90063E3E7002A40F09080A1EB0C04C7
:104018004FEA1C481FFA8CF70121B4FBF8F64FEA67
:104028001E4308FB164443EA044307FB06F0984284
:1040380008D91CEB030306F1FF3402D2984200F2C0
:10404800CD8026461C1A1FFA8EF3B4FBF8F008FB45
:10405800104443EA044300FB07F79F4208D91CEBCE
:10406800030300F1FF3402D29F4200F2B0802046E1
:10407800DB1B40EA0640A5E7C1F120068B4022FA87
:1040880006F71F4320FA06FC04FA01F343EA0C037F
:10409800F44000FA01F8380C4FEA1349B4FBF0FE7B
:1040A8001FFA87FC00FB1E4449EA04440EFB0CF986
:1040B800A14502FA01F20AD93C190EF1FF3A80F043
:1040C8008480A14540F28180AEF1020E3C44A4EB0D
:1040D80009041FFA83F9B4FBF0F300FB134449EA1F
:1040E800044403FB0CFCA44507D93C1903F1FF3039
:1040F80067D2A44565D9023B3C4443EA0E40A0FB85
:104108000293A4EB0C049C42CE469C4651D34ED05D
:1041180055B1B8EB0E0364EB0C0404FA06F6CB4079
:104128001E43CC40C5E90064002150E7C2F12003DA
:1041380020FA03F10CFA02FC24FA03F394400C432E
:104148004FEA1C4800FA02FE1FFA8CF7B3FBF8F09E
:1041580008FB1031230C43EA014300FB07F19942A5
:1041680008D91CEB030300F1FF362CD299422AD957
:10417800023863445B1AA4B2B3FBF8F108FB1133AD
:1041880044EA034401FB07F3A34208D91CEB0404E7
:1041980001F1FF3613D2A34211D902396444E41A5B
:1041A80041EA004139E70446F0E6084606E7C84513
:1041B800AED2B9EB020E63EB070C0138A8E7314623
:1041C800EDE7034699E73046D4E7D6467FE76344F0
:1041D80002384DE70646234608460FE7023E634489
:1041E80030E700BF024A0349034800F0C9B800BFDE
:1041F8000C0000203D500008200000200C4B4168B6
:10420800994210B5044601D000F014FFA168094B8B
:10421800994202D0204600F00DFFE168064B994212
:1042280004D02046BDE8104000F004BF10BD00BF18
:10423800B00B0020180C0020800C00202DE9F8435A
:10424800314C324B3248DFF8CC90DFF8CC80334F1A
:104258001860002529460423082204F15C00304E2A
:10426800E360C4E90055C4E90455A5606566A56125
:1042780000F0CCF904F15800C4E90749C4E90987FA
:10428800E66200F097FA2946264B6367082204F194
:10429800C400C4E91A55C4E91E552567C4F8CC50B2
:1042A800C4F8805000F0B2F904F1680304F1C000CA
:1042B800C4F88430C4E92298C4E9247600F07AFA74
:1042C800194BC4F8DC30294604F596700822C4E975
:1042D8003455C4E93855C4F8D850C4F83451C4F832
:1042E800E85000F093F904F1D003C4E93D87C4F81D
:1042F800F09004F59470C4F8FC60C4F8EC30BDE8A4
:10430800F84300F057BA00BFB00B0020E80C0020BB
:10431800ED41000885450008A9450008E945000861
:104328000D460008090001001200020010B50446FD
:104338000A4800F043FA636B23B9094B094A1B6822
:10434800626323B1BDE81040044800F039BAFFF7B2
:1043580075FFBDE81040014800F032BAF80C0020A3
:10436800E80C002005420008014800F027BA00BF09
:10437800F80C0020014800F023BA00BFF80C002018
:104388002DE9F84380460F4616464FF00009D6E956
:104398000154013D11D4A389012B05F1FF3508D93A
:1043A800B4F90E300133214603D04046B84749EAF4
:1043B80000096B1C04F16804EDD13668002EE6D1C3
:1043C8004846BDE8F88300BF024B0146186882687A
:1043D80000F0ECBF180000202DE9F043664CD4F83B
:1043E800008083B004460E4617461D46B8F1000FFC
:1043F80004D0D8F83430002B00F0A680022F05D066
:10440800012F00F2A580002DC0F2A280636EDA07AA
:1044180051D52146404600F001FF216B41B104F11E
:104428004003994202D0404600F038FA0023236343
:10443800B4F90CC000231CF0800FA36163605DD148
:104448002CF44A6C2CF0030C022FA4F80CC063D097
:1044580001AB6A462146404600F078FFA38918431D
:10446800A081002D2ED0002E2DD0D8F83430002B6E
:1044780037D0009AB4F90C302660AA421CBF43F426
:104488000063A381012F04BF43F00103A38113F04C
:104498000802C4E9046528D0D90753D50022A260D0
:1044A800626E6D42D207A56123D49B0521D4A06D0D
:1044B80000F086F91DE0A3899B05AAD4A06D00F041
:1044C8007DF9A6E7009D284600F0E6FA0646002892
:1044D80041D0A38943F08003A381D8F83430002B5E
:1044E800C7D14046FFF722FFC3E7A260626ED2073A
:1044F800DBD50025284603B0BDE8F0832169404696
:1045080000F0CCF9B4F90CC02CF44A6C2CF0030C74
:10451800022FA4F80CC09BD100254CF00202A28106
:10452800002204F14303A2600122C4E9043223609B
:10453800636ED807DED41CF4007FDBD1A06D00F0D9
:104548003FF9D7E7A560D1E74046FFF7EFFE55E70B
:104558004FF0FF35CEE7DDF80090A94506D0484674
:1045680000F09AFA064608B14D46B2E7B4F90CC015
:104578004FF0FF35D1E700BF1800002010B50C46FA
:10458800B1F90E1000F0BCF8002803DB236D0344DA
:10459800236510BDA38923F48053A38110BD00BFF8
:1045A8002DE9F0410C46B1F90C101F46CB05054624
:1045B80016460BD421F48051A1813B46B4F90E1064
:1045C80032462846BDE8F04100F0B0B8B4F90E1004
:1045D8000223002200F07EF8B4F90C10EAE700BFCD
:1045E80010B50C46B1F90E1000F074F8B4F90C309F
:1045F800421C0EBF23F4805343F480532065A381EB
:1046080010BD00BFB1F90E1000F052B8830730B5E5
:1046180047D0541E002A3ED0CAB2034601E0013CEE
:1046280039D303F8012B9D07F9D1032C2CD9CDB22E
:1046380005EB05250F2C05EB054535D9A4F110022E
:1046480022F00F0C03F1100EE6444FEA121C1A4632
:10465800156055609560D56010327245F8D10CF13F
:10466800010214F00C0F03EB021204F00F0C13D02C
:10467800ACF1040323F003030433134442F8045B4E
:104688009A42FBD10CF003042CB1C9B21C4403F8C4
:10469800011B9C42FBD130BD64461346002CF4D16B
:1046A800F9E703461446C0E71A46A446E0E700BF08
:1046B80038B5074D0022044608462A60FCF720FC5E
:1046C800431C00D038BD2B68002BFBD0236038BDBD
:1046D800EC0C002038B50C46084D8446114620469F
:1046E8001A4600232B606446FCF716FC431C00D0D6
:1046F80038BD2B68002BFBD0236038BDEC0C0020A4
:1047080038B50C46084D8446114620461A46002303
:104718002B606446FCF708FC431C00D038BD2B68AE
:10472800002BFBD0236038BDEC0C002038B50C46BC
:10473800084D8446114620461A4600232B606446DD
:10474800FCF7C4FB431C00D038BD2B68002BFBD002
:10475800236038BDEC0C0020014B1868704700BF7F
:104768001800002070B50F4B0F4DAB42A3EB0506A8
:1047780007D0B610002455F8043B01349847A642E8
:10478800F9D800F0A1FF094D094B5E1BAB424FEA77
:10479800A60606D0002455F8043B01349847A642E3
:1047A800F9D870BD085700080857000808570008CE
:1047B80010570008704700BF704700BF704700BF20
:1047C800704700BF024B13B1024800F005B87047AC
:1047D800000000000D560008002301461A4618463E
:1047E80000F032BF2DE9F84306460820894600F05C
:1047F8001DFFDFF89C800546304600F00FFCD8F816
:1048080008305F6827F00307A7F11104A4EB090437
:104818002C44B4FBF5F4013C05FB04F4A54208DC88
:104828000021304600F0DCFED8F808303B449842BE
:1048380005D0304600F0F8FB0020BDE8F88361425F
:10484800304600F0CDFE01300FD0124AD8F80830BB
:104858003F1B47F001075F60136830461B1B13605E
:1048680000F0E2FB0120BDE8F8830021304600F0AB
:10487800B7FED8F80820831A0F2BDADD43F00103BE
:104888005360054B03491B68C01A0860D1E700BF95
:1048980050010020000D00204401002000297CD098
:1048A800F8B50C46064600F0B9FB54F8043C774FBF
:1048B800A4F1080523F001016818D7F808C0426878
:1048C800844522F0030200F08380DB07426000EB9E
:1048D800020C33D454F8084CDCF804302D1B214466
:1048E800AC6807F1080C644503F0010364D0D5F8FF
:1048F8000CE0C4F80CE0CEF80840002B00F08180F2
:1049080041F001036B600160B1F5007F22D2786845
:10491800CB080122490901338A40024357F8331072
:104928007A6007EBC302083AC5E9021247F8335028
:10493800CD603046BDE8F84000F076BBDCF80430C6
:10494800DB072BD541F00103B1F5007F44F8043CA7
:104958000160DCD3B1F5206F4FEA512353D28B09A4
:1049680003F1390003F13802C300F818FB5808387E
:10497800984203D163E09B68984204D05A6822F0B9
:1049880003028A42F7D8D868C5E902308560DD603D
:104998003046BDE8F84000F047BB7047114407F1C6
:1049A800080C836863453FD0C268DA60936041F0C1
:1049B80001036B606950A7E7002B61D10A44D0E975
:1049C8000213CB60996042F001036B60AA50B0E714
:1049D8000A44D90707D454F8083CED1A1A44D5E913
:1049E8000213CB60996042F001036B60284BBD60F5
:1049F8001B6893429DD8274B30461968FFF7F2FE93
:104A080097E71144CDE7142B08D9542B1FD80B0B6B
:104A180003F16F0003F16E02C300A6E703F15C0027
:104A280003F15B02C300A0E741F001033D617D6132
:104A3800C5F808C0C5F80CC06B60695079E779689B
:104A48009210012404FA02F20A437A609CE7B3F553
:104A5800AA7F06D8CB0B03F1780003F17702C300D5
:104A680083E740F25452934206D88B0C03F17D0041
:104A780003F17C02C30078E74FF47E737E2274E76B
:104A880041F001036B60016053E700BF5001002053
:104A980048010020300D0020024B0146186800F044
:104AA80003B800BF180000202DE9F04F01F10B05F5
:104AB800162D85B0064624D8102900F2B18000F0E2
:104AC800ADFA102518234FF0020CBA4F3B44A3F15E
:104AD80008025C68944200F022816368E268A16879
:104AE80023F00303CA602344304691605A6842F0B9
:104AF80001025A60083400F097FA204605B0BDE874
:104B0800F08F35F0070500F18B80A94200F288800C
:104B180000F084FAB5F5FC7FC0F073816B0A00F0F1
:104B28008380042B00F22281AB0903F1390C03F1D5
:104B3800380E4FEACC039F4F3B44A3F108005C6852
:104B4800A04207D10DE0002AE16880F2E2808842A5
:104B580007D00C46636823F003035A1B0F2AF2DDC3
:104B6800F446DFF854823C69444500F0BF8063682E
:104B780023F00309A9EB05030F2B00F34781002B52
:104B8800C7E9048880F23181B9F5007FD7F804E0DD
:104B980080F0CC804FEAD90101314FEA591901233D
:104BA80003FA09F357F83120A2604EEA030E07EB27
:104BB800C103083BE360C7F804E047F83140D4601C
:104BC8004FEAAC0301209840704534D810EA0E0F24
:104BD80007D12CF0030C400010EA0E0F0CF1040C66
:104BE800F9D007EBCC0A5246E146D1680EE04B6893
:104BF80023F00303A3EB050EBEF10F0F0C46C968A3
:104C080000F3C180BEF1000F80F2E2808A42EED14B
:104C180009F1010919F0030F02F10802E5D121E1B8
:104C28000C233360002468E74FF400734FF0400C06
:104C38004FF03F0E7FE7BC68636823F00309A9457E
:104C480003D3A9EB05030F2B53DC5C4BDFF870B1E2
:104C58001B68082003F1100800F0E8FCDBF80030BE
:104C680001900133A84404EB090205D008F1FF388C
:104C78008044434203EA080841463046029200F065
:104C8800AFFCB0F1FF3F029A824600F0DC8082421E
:104C980000F2D7804B4B01991868404401F1FF316D
:104CA8001860844640F0FC801AEA010F40F0F88052
:104CB800D7F808A0C84448F00102CAF80420424BBB
:104CC8001968814238BF1860404B1968814238BF63
:104CD8001860544622F00308A845A8EB050301D341
:104CE8000F2B06DC304600F09FF99BE7D7F804E06D
:104CF80066E7621943F0010345F001056560304637
:104D0800BA60536000F090F90834204605B0BDE859
:104D1800F08FA2682344D16030468A60E6E6DC68FA
:104D2800A3427FF4DAAE0CF1020C1AE7B9F5206F52
:104D38004FEA59227ED3142A00F2158102F15C034E
:104D4800DB005B32F918FB580839994203D1F0E0CF
:104D58009B68994204D05A6822F003024A45F7D862
:104D6800D968C4E902318C60DC6029E7142B6DD95D
:104D7800542B00F201812B0B03F16F0C03F16E0E23
:104D88004FEACC03D7E63046A668621945F001051C
:104D98006560F1608E604EF00101C7E90422C2F837
:104DA8000880C2F80C80516044F803E000F03CF938
:104DB8000834A2E65001002058010020300D0020E0
:104DC80044010020000D00202C0D0020280D00209B
:104DD800234430465A6842F001025A6054F8083FAA
:104DE800D9608B6000F020F987E6A1443046D9F8F5
:104DF800043043F00103C9F80430083400F014F912
:104E08007BE64FEAD50C05F108035EE6621943F02C
:104E1800010145F0010565603046C7E90422C2F882
:104E28000880C2F80C80516044F8093000F0FCF8A2
:104E3800083462E64FEA991202F13903DB0038328E
:104E480080E7BC4224D0BC68626843E703F15C0C8D
:104E580003F15B0E4FEACC036DE65AF80839534567
:104E680040F0D8801CF0030F0CF1FF3CF5D17B68B3
:104E780023EA00037B60400098423FF6DCAE18B995
:104E8800D9E6400009F104091842FAD0CC46A8E650
:104E9800614B0199186808EB000C0139C3F800C090
:104EA800DBF8000001301BBFAAEB02026244CBF81A
:104EB80000A01A601AF00702CDE9022342D0C2F11D
:104EC8000802019B9244D044134408EA01001A1ACC
:104ED80002EA010B5946304600F082FB421C039B54
:104EE8007AD0A0EB0A0000EB0B081868C7F808A0F6
:104EF80048F001025844BC42CAF8042018603FF444
:104F0800DEAEB9F10F0F42D96168A9F10C0222F0A7
:104F1800070201F0010111436160A1184FF0050C6F
:104F28000F2AC1F804C0C1F808C04AD8DAF804202A
:104F3800C5E69210012000FA02F24EEA020EC7F806
:104F480004E00EE7019B0AEB08020A409A1A02EAFB
:104F5800010B5946304600F043FB431C039BC0D16C
:104F6800DDF808B0C1E7542A15D84FEA193202F122
:104F78006F03DB006E32E5E6B3F5AA7F15D8EB0BBD
:104F880003F1780C03F1770E4FEACC03D3E5012344
:104F9800CAF80430A6E6B2F5AA7F25D84FEAD93276
:104FA80002F17803DB007732CCE640F254529342A8
:104FB80025D8AB0C03F17D0C03F17C0E4FEACC0332
:104FC800B9E5304604F108010193FFF767FC019B3E
:104FD800D7F808A01868A9E7029A083A9044A8EBFD
:104FE8000A084FF0000B80E740F254539A420DD85C
:104FF8004FEA994202F17D03DB007C32A2E64FF4CE
:105008007E734FF07F0C4FF07E0E94E54FF47E7365
:105018007E2297E67B682EE7000D00200148FFF707
:10502800CDBB00BFF00C00200148FFF7C9BB00BF93
:10503800F00C002070B500293FD005460C4610B191
:10504800436B002B3CD0636EB4F90C20DE0732D4DE
:10505800900538D52146284600F04CF8E36A064604
:1050680033B1E169284698470028B8BF4FF0FF36AA
:10507800A3891A0639D4216B41B104F1400399423E
:1050880002D02846FFF70AFC00232363616C21B194
:105098002846FFF703FC00236364FFF765F9636E96
:1050A8000022DB07A2811CD5A06DFFF785FBFFF767
:1050B80061F9304670BD002ACCD10026304670BD5B
:1050C800FFF734F9BFE7A06DFFF778FBB4F90C30B0
:1050D800002BBFD1636ED907EFD4A06DFFF770FB2B
:1050E800EBE7A06DFFF76CFBDEE721692846FFF7C9
:1050F800D5FBC0E7B1F90C20F8B5074610070C46F8
:1051080046D4496842F400630029A3815CDDA56A9E
:10511800002D3BD0002112F480523E683960E169CD
:105128005ED101233846A847411C024668D0B4F92D
:105138000C30A56AE1695B0705D56368D21A236B51
:105148000BB1E36BD21A00233846A847451C49D156
:1051580039681D293CD8304AB4F90C300A4112F09C
:10516800010237D162602269226023F40062A281C1
:10517800DA044ED4216B3E6041B104F140039942F8
:1051880002D03846FFF78AFB002323630020F8BDCE
:105198000E69002EFAD00D680E6091070CBF636986
:1051A8000023AD1BA3600CE0D4F824C0E1692B46B2
:1051B80032463846E047B0F1000CA5EB0C056644D2
:1051C80006DD002DF0DCE1E7E16B00299FDCDDE77F
:1051D800B4F90C3043F04003A3814FF0FF30F8BD21
:1051E800226DA8E7B4F90C302269226023F400622A
:1051F800A281DB044FF000026260BBD52065B9E7ED
:105208003B68002B93D01D2B01D0162BE0D13E60BC
:10521800BCE70029AED1F1E7FEFFBFDF38B50C4689
:10522800054608B1436B03B3B4F90C0088B1636E4B
:10523800DB0701D481050FD528462146FFF75AFF21
:10524800636EDA07054602D4A3899B0508D528466C
:1052580038BD0546284638BDA06DFFF7AFFAEBE725
:10526800A06DFFF7ADFA284638BDFFF75FF8DBE71A
:105278002DE9F041B1F90C300C46990796B008D5E4
:1052880004F143030122C4E90432236016B0BDE8E7
:10529800F081B4F90E100029064626DB6A4600F0B4
:1052A80077F900281FDB019D05F47045A5F5005529
:1052B800B5FA85F54FF480686D094FF400674146EB
:1052C8003046FFF7F1FBE8B1B4F90C30C4F81480AC
:1052D80043F0800320602061A3813DBB3B43A38151
:1052E80016B0BDE8F081B4F90C3013F0800519D080
:1052F8004FF040080025414630462F46FFF7D4FBC3
:105308000028E1D1B4F90C309A05BFD423F0030387
:1053180004F1430243F002030121C4E90421A381FB
:105328002260B3E74FF480682F46C8E7B4F90E103F
:10533800304600F043F910B9B4F90C30CEE7A38930
:1053480023F0030343F001031BB2C7E770B50C4613
:10535800B1F90E10002996B015461E4614DB6A46B0
:1053680000F016F900280FDB019901F47041A1F54E
:105378000051B1FA81F14FF4806349094FF400609C
:1053880031602B6016B070BDA18911F0800106D084
:1053980000214023084631602B6016B070BD4FF4E1
:1053A8008063084631602B6016B070BD70B50E463C
:1053B8001446054610B1436B002B2FD0636ED807F7
:1053C80002D4A389990520D5A368013B002BA360CB
:1053D80019DAA26993420FDBF0B20A280CD02368CD
:1053E8005A1C226005461E70636EDA0702D4A38930
:1053F8009B050ED5284670BD28462246314600F04A
:1054080011F80546F0E7F0B2E9E7A06DFFF7D6F925
:10541800DAE7A06DFFF7D4F9284670BDFEF786FFDE
:10542800CCE700BFF8B50D461446064610B1436BED
:10543800002B4AD0B4F90C20A369A36010071BD530
:105448002369CBB1EDB291042F4621D52268616959
:10545800D31A994228DD0133A1680139A160511C92
:105468002160157062699A4226D0A389DB0701D5AD
:105478000A2D21D03846F8BD2146304600F028F8DC
:1054880000BBB4F90C202369EDB291042F46DDD49A
:1054980042F40052A281626E616922F4005262668F
:1054A8002268D31A9942D6DC21463046FFF7B6FE69
:1054B80040B922680123CFE721463046FFF7AEFE08
:1054C8000028D7D04FF0FF37D4E7FEF72FFFB1E71A
:1054D80038B52E4B1B6805460C4613B15A6B002A8B
:1054E8004BD0B4F90C3018071CD5226922B313F03D
:1054F800010107D0616900204942A060A1613AB169
:10550800002038BD980758BF6169A160002AF7D10B
:10551800190658BF1046F4D543F04003A3814FF055
:10552800FF3038BDD9062CD55A0712D4226943F06A
:105538000803A381002ADAD103F42071B1F5007FB2
:10554800D5D021462846FFF793FEB4F90C302269DE
:10555800CDE7216B51B104F14002914204D02846B5
:10556800FFF79CF9B4F90C3000222263226900216C
:10557800C4E9002123F02403D9E71846FEF7D6FE34
:10558800AFE709222A6043F04003C7E7180000206C
:1055980070B50C46084D03460026204611461C46A9
:1055A8002E60FBF7D9FC431C00D070BD2B68002B84
:1055B800FBD0236070BD00BFEC0C002038B5074D50
:1055C8000022044608462A60FBF774FC431C00D0FE
:1055D80038BD2B68002BFBD0236038BDEC0C0020B5
:1055E80038B5074D0022044608462A60FBF71AFD25
:1055F800431C00D038BD2B68002BFBD0236038BD7E
:10560800EC0C002038B5074D074C2C1BA41005D016
:10561800013C55F8043D9847002CF9D1BDE83840C5
:1056280000F058B81457000810570008082802D18D
:105638004FF48050704708B5FFF78EF816230360C3
:105648004FF0FF3008BD00BF2DE9F8431B4D06465B
:10565800286898460F469146FFF7B0F8184B1C6823
:105668001CB3286865681F2D22DC4EB96B1C0235F7
:10567800636044F82570FFF7A3F80020BDE8F883BD
:1056880004EB85010123C1F88890D4F88821AB4048
:105698001A43022EC4F88821C1F80881E6D1D4F84B
:1056A8008C211A43C4F88C21E0E7064C1C60D8E72B
:1056B800FFF786F84FF0FF30E0E700BF4001002019
:1056C800FC0C0020340D0020F8B500BFF8BC08BC65
:1056D8009E467047F8B500BFF8BC08BC9E467047A8
:1056E80000000000010203040000000000000000A8
:0856F800010203040607080982
:0857000030E8FF7F010000000A
:08570800CD470008350200083E
:045710000D0200087E
:105714000024F4000100000010000000000000005C
:1057240003000000B00B0020200000200000000057
:1057340000000000B00B0020180C0020800C00209A
:105744000000000000000000000000000000000055
:105754000000000000000000000000000000000045
:105764000000000000000000000000000000000035
:105774000000000000000000000000000000000025
:105784000000000000000000000000000000000015
:105794000000000000000000000000000000000005
:1057A40000000000000000000000000000000000F5
:1057B40000000000000000000000000000000000E5
:1057C40000000000000000000100000000000000D4
:1057D4000E33CDAB34126DE6ECDE05000B00000099
:1057E40000000000000000000000000000000000B5
:1057F40000000000000000000000000000000000A5
:105804000000000000000000000000000000000094
:105814000000000000000000000000000000000084
:105824000000000000000000000000000000000074
:105834000000000000000000000000000000000064
:105844000000000000000000000000000000000054
:10585400F40C0020FFFFFFFF000002000000000026
:105864000000000000000000500100205001002052
:105874005801002058010020600100206001002030
:1058840068010020680100207001002070010020E0
:105894007801002078010020800100208001002090
:1058A4008801002088010020900100209001002040
:1058B4009801002098010020A0010020A0010020F0
:1058C400A8010020A8010020B0010020B0010020A0
:1058D400B8010020B8010020C0010020C001002050
:1058E400C8010020C8010020D0010020D001002000
:1058F400D8010020D8010020E0010020E0010020B0
:10590400E8010020E8010020F0010020F00100205F
:10591400F8010020F801002000020020000200200D
:1059240008020020080200201002002010020020BB
:10593400180200201802002020020020200200206B
:10594400280200202802002030020020300200201B
:1059540038020020380200204002002040020020CB
:10596400480200204802002050020020500200207B
:10597400580200205802002060020020600200202B
:1059840068020020680200207002002070020020DB
:10599400780200207802002080020020800200208B
:1059A400880200208802002090020020900200203B
:1059B4009802002098020020A0020020A0020020EB
:1059C400A8020020A8020020B0020020B00200209B
:1059D400B8020020B8020020C0020020C00200204B
:1059E400C8020020C8020020D0020020D0020020FB
:1059F400D8020020D8020020E0020020E0020020AB
:105A0400E8020020E8020020F0020020F00200205A
:105A1400F8020020F8020020000300200003002008
:105A240008030020080300201003002010030020B6
:105A34001803002018030020200300202003002066
:105A44002803002028030020300300203003002016
:105A540038030020380300204003002040030020C6
:105A64004803002048030020500300205003002076
:105A74005803002058030020600300206003002026
:105A840068030020680300207003002070030020D6
:105A94007803002078030020800300208003002086
:105AA4008803002088030020900300209003002036
:105AB4009803002098030020A0030020A0030020E6
:105AC400A8030020A8030020B0030020B003002096
