:020000040800F2
:1000000000000220C12200085D1A0008611A0008E1
:10001000651A0008691A00086D1A0008000000003F
:10002000000000000000000000000000711A00083D
:10003000751A000800000000791A00087D1A0008EF
:1000400011230008112300081123000811230008C0
:1000500011230008112300081123000811230008B0
:1000600011230008112300081123000811230008A0
:100070001123000811230008112300081123000890
:1000800011230008112300081123000800000000BC
:100090000000000000000000000000001123000824
:1000A000811A00089D1A0008A91A0008B51A00084C
:1000B000C11A0008CD1A0008D91A00081123000837
:1000C0001123000811230008112300081123000840
:1000D0001123000811230008E51A000800000000A1
:1000E000112300081123000811230008000000005C
:1000F00000000000000000000000000011230008C4
:10010000000000001123000811230008112300083B
:1001100000000000000000000000000000000000DF
:1001200011230008112300081123000811230008DF
:100130001123000800000000000000000000000083
:100140000000000000000000000000001123000873
:1001500011230008112300081123000811230008AF
:100160001123000811230008000000000000000017
:10017000000000000000000000000000000000007F
:100180000000000011230008000000000000000033
:080190001123000811230008EF
:1001C00053B94AB9002908BF00281CBF4FF0FF31BE
:1001D0004FF0FF3000F00CB8ADF1080C6DE904CE23
:1001E00004F00EFFDDF804E0DDE9022304B07047FF
:1001F000704700BF00000000000000000000000089
:1002000030B490F800F020F007016FF0000C10F00F
:10021000070491F820F040F048804FF000046FF0A0
:100220000700D1E9002391F840F000F1080082FABC
:100230004CF2A4FA8CF283FA4CF3A2FA8CF34BBB87
:10024000D1E9022382FA4CF200F10800A4FA8CF200
:1002500083FA4CF3A2FA8CF3E3B9D1E9042382FACE
:100260004CF200F10800A4FA8CF283FA4CF3A2FAE3
:100270008CF37BB9D1E9062301F1200182FA4CF21B
:1002800000F10800A4FA8CF283FA4CF3A2FA8CF382
:10029000002BC6D0002A04BF04301A4612BAB2FAA4
:1002A00082F200EBD20030BC7047D1E9002304F0A9
:1002B0000305C4F100004FEAC50514F0040F91F8DE
:1002C00040F00CFA05F562EA05021CBF63EA05037B
:1002D00062464FF00004AAE70000000000000000A2
:1002E00001F0FF01102A2BDB10F0070F08D010F8E7
:1002F000013B013A8B422DD010F0070F42B3F6D1EB
:10030000F0B441EA012141EA014122F007047FF003
:1003100000070023F0E80256083C85EA010586EA5A
:10032000010685FA47F5A3FA87F586FA47F6A5FA96
:1003300087F68EB9EED1F0BC01F0FF0102F00702A2
:1003400032B110F8013B013A83EA010313B1F8D14D
:100350000020704701387047002D06BF354603382E
:10036000073815F0010F07D1013015F4807F02BF67
:10037000013015F4C03F0130F0BC0138704700BFB8
:10038000844641EA000313F003036DD1403A41D3A0
:1003900051F8043B40F8043B51F8043B40F8043B5F
:1003A00051F8043B40F8043B51F8043B40F8043B4F
:1003B00051F8043B40F8043B51F8043B40F8043B3F
:1003C00051F8043B40F8043B51F8043B40F8043B2F
:1003D00051F8043B40F8043B51F8043B40F8043B1F
:1003E00051F8043B40F8043B51F8043B40F8043B0F
:1003F00051F8043B40F8043B51F8043B40F8043BFF
:1004000051F8043B40F8043B51F8043B40F8043BEE
:10041000403ABDD2303211D351F8043B40F8043B8E
:1004200051F8043B40F8043B51F8043B40F8043BCE
:1004300051F8043B40F8043B103AEDD20C3205D39E
:1004400051F8043B40F8043B043AF9D2043208D096
:10045000D2071CBF11F8013B00F8013B01D30B8808
:1004600003806046704700BF082A13D38B078DD0E6
:1004700010F003038AD0C3F10403D21ADB071CBFB8
:1004800011F8013B00F8013B80D331F8023B20F822
:10049000023B7BE7043AD9D3013A11F8013B00F85B
:1004A000013BF9D20B7803704B7843708B788370E3
:1004B000604670470348044B834202D0034B03B1AC
:1004C000184770475805002058050020000000001C
:1004D0000548064B1B1AD90F01EBA301491002D0A6
:1004E000034B03B1184770475805002058050020FA
:1004F0000000000010B5064C237843B9FFF7DAFF7F
:10050000044B13B10448AFF300800123237010BDE6
:100510005805002000000000506E000808B5054B8B
:100520001BB105490548AFF30080BDE80840FFF75F
:10053000CFBF00BF000000005C050020506E000827
:10054000014B1860704700BF7405002030B52F4C78
:1005500083B0204601F0ECFF3221204602F056F82D
:1005600023680C210125DA6C00200423CDE9001555
:1005700001F0EAF800F02EFD2368254CDB6CB3F5A2
:100580007A6F3FD923681D800221224802F0AEFB1A
:10059000236801281ABF00225A80588010211D4864
:1005A00002F0A4FB236801281ABF00229A809880D9
:1005B0002021184802F09AFB236801281ABF002264
:1005C000DA80D8804021134802F090FB236801288C
:1005D0001ABF00221A81188180210E4802F086FB82
:1005E000236801281ABF00225A81588101210A4834
:1005F00002F07CFB2368012816BF002298819A81B3
:1006000003B030BD236800221A80BDE780050020BA
:1006100074050020000002400004024008B5FFF706
:1006200095FF164B164A1B680021117059881888CF
:100630005070012904BFFB2111709988012902D152
:10064000117803391170D988012902D11178013943
:1006500011701989012902D111780131117059895C
:10066000012902D11178033111709B89012B02D12C
:10067000137805331370024808BD00BF74050020CD
:1006800078050020014B1860704700BF7C050020F2
:1006900030B5194819491A4C4FF48032002385B0FF
:1006A000C0E9001200250122CDE90033CDE9023373
:1006B000C0E90A4583600361037680F82030C36097
:1006C000C26180F83030426101F086FE60B90024DA
:1006D00001250023084802936946CDE9004501F051
:1006E000F7FF20B905B030BD00F0D6FAEFE700F013
:1006F000D3FA05B030BD00BF8005002000200140C6
:100700000100000F30B5164A016889B000239142FC
:10071000CDE90233CDE90433069301D009B030BDF1
:1007200002F58C320093506C40F480705064506C31
:1007300000F48070009000980193136B094843F017
:1007400001031363136B03F00103019302A9012456
:100750000325CDE90245019B02F040F909B030BD07
:100760000020014000000240F0B500248BB0CDE92C
:100770000444CDE90644394B009408941A6B384D73
:10078000384F394E42F004021A631A6B02F0040229
:100790000092009A01941A6B42F080021A631A6B5D
:1007A00002F080020192019A02941A6B42F0010257
:1007B0001A631A6B02F001020292029A03941A6BF6
:1007C00042F002021A631B6B03F0020303932246FA
:1007D00028464FF40051039B02F08EFA2246384619
:1007E0004FF4704102F088FA224630464FF4F85137
:1007F00002F082FA284604A901254FF4005304931D
:10080000CDE90644059502F0E9F804A93046F22244
:100810000023CDE90423069402F0E0F8052204A9A0
:1008200038460023CDE90423069402F0D7F8384671
:1008300004A94FF470430493CDE90554079402F0E2
:10084000CDF84FF4F85304A93046CDE90435CDE98D
:10085000064402F0C3F80BB0F0BD00BF0038024000
:100860000008024000040240000002400B480C490E
:1008700010B500230B4C04604FF48042416083604C
:10088000C360026143618361C361036202F020FBC4
:1008900000B910BDBDE8104000F0FEB920060020F0
:1008A000A0860100005400400B480C4910B50023FD
:1008B0000B4C04604FF4804241608360C36002616E
:1008C00043618361C361036202F002FB00B910BDA2
:1008D000BDE8104000F0E0B9C8050020A086010086
:1008E0000058004070B50368314A8AB00024934232
:1008F000CDE90444CDE90644089404D02D4A93423E
:1009000024D00AB070BD2C4D00942B6B2B4843F0C3
:1009100002032B632B6B03F002030093C02212230C
:10092000CDE904230323079304A904230893009A21
:1009300002F054F801942B6C43F400132B642B6CDD
:1009400003F400130193019B0AB070BD1A4D029489
:100950002B6B1A4843F002032B632B6B03F002034B
:1009600002934FF480621223CDE90423032604236B
:1009700004A9029A0893079602F030F84FF4007326
:100980000493122305930D48092304A90893CDE984
:10099000064602F023F803942B6C43F480032B6487
:1009A0002B6C03F480030393039B0AB070BD00BF5C
:1009B000005400400058004000380240000402404B
:1009C00008B5154A0368934203D0144A934210D0E5
:1009D00008BD02F5F2321248136C23F400134021D3
:1009E000136402F0EFF8BDE808400D48802102F0E2
:1009F000E9B802F5F0320A48136C23F480034FF48F
:100A00008061136402F0DEF8BDE8084004484FF44A
:100A1000007102F0D7B800BF0054004000580040F9
:100A20000004024010B5002394B0CDE90A33CDE9AB
:100A30000C33CDE90333CDE9053320490193079306
:100A4000086C1F4A40F080500864096C01F0805126
:100A5000019101990293136843F4404313601368B2
:100A600001204FF4803103F44043CDE908010293A3
:100A70004FF480010224CDE90E41029804210220A6
:100A8000CDE912010C22602308A81092119302F004
:100A900081FD08B172B6FEE70F210346CDE90314CC
:100AA0004FF4805203A80321CDE90532079302F0E9
:100AB00087FF08B172B6FEE714B010BD00380240DF
:100AC0000070004008B501F049FC2E4800F038FFE6
:100AD000FFF7A8FFFFF748FEFFF7C8FE01F02CF86C
:100AE00001F0A0FA01F00EFB01F090FB01F09AF882
:100AF00001F0ECF8FFF7CCFDFFF7D6FE01F022F98C
:100B000021492248FFF7BEFD2149224800F0C6F8DE
:100B10000C21214803F054FA05222049194804F019
:100B20002FF800211E4803F07BF900211A4803F03A
:100B300077F904211A4803F073F90421164803F0E9
:100B40006FF9322000F0B4F8322000F0BBF8322008
:100B500000F0C2F8322000F0C9F81248FFF7F0FCAC
:100B600000F040FE802000F0A3F9002000F05AF9C8
:100B7000002000F0DFF94FF4FA6001F01BFC00F0F8
:100B8000BFF8FCE7E00C0020740600207806002087
:100B90000000002001000020080C00207C0600203E
:100BA000500C002084060020034B834200D0704785
:100BB0000249052203F0E4BFE00C00207C0600207F
:100BC00038B5164A036893420FD0154A934200D0B5
:100BD00038BD144C2378F3B9134A14481268536291
:100BE00003F060F80123237038BD114C237853B112
:100BF0000D4D284603F088F82B680E4A596A11609B
:100C00000223237038BD08480268536203F04AF893
:100C10000123237038BD054DEBE700BF0004004001
:100C20000008004000000020C00B0020300B002016
:100C300001000020780600200F4A0368934210B498
:100C400004D00E4A93420CD010BC70470C490D4B97
:100C50000D484FF6FF7402220C601A7010BC03F0AE
:100C600053B80A490A4B0B484FF6FF7402220C6036
:100C70001A7010BC03F048B8000800400040014062
:100C80007806002001000020C00B00207406002020
:100C900000000020300B002072B6FEE7024A034B32
:100CA00010601960704700BF98060020940600206D
:100CB000034BC0EB00101B6840005863704700BF37
:100CC000080C0020034BC0EB00101B684000986329
:100CD000704700BF080C0020034BC0EB00101B68DE
:100CE00040009863704700BF500C0020034BC0EBDE
:100CF00000101B6840005863704700BF500C002074
:100D0000F0B583B0FFF78AFC90F90120044612B1D8
:100D10001E4D2B78C3B101250C262B461C2100202B
:100D2000CDE9006500F010FD00F054F9184B1A7879
:100D30002AB994F9014014B9144A12787AB903B067
:100D4000BDE8F040FFF76ABC124804F0F5FB012350
:100D500011482B7002F064FF94F90120DBE70E4F7D
:100D60001D70384602F08AFF0C4804F0E5FB3B6832
:100D70000B495A6A01950423009620460A602146D1
:100D800000F0E2FC00F026F9D9E700BFA106002040
:100D9000A0060020686E0008780B0020706E000826
:100DA0009C060020F0B58BB001460A2300938DF815
:100DB0000D101A480024022303AA78218DF80C4054
:100DC00002F068F9022801D00BB0F0BD1348144DB1
:100DD00002F046F94026032311480894112704A97C
:100DE000CDE90643CDE9046701F0F8FD08240022AF
:100DF0004021284601F080FF002001F0DBFA0122AB
:100E00004021284601F078FF631E13F0FF04EED165
:100E1000024802F05DF80BB0F0BD00BF20060020D4
:100E20000004024030B5044689B048B1012801D021
:100E300009B030BDA72009B0BDE83040FFF7B2BF10
:100E40000A234FF426410093ADF8081016480223F8
:100E500002AA782102F01EF90228E9D11248134DA6
:100E600002F0FEF840211122032303910F4805945C
:100E700003A907940492069301F0B0FD0824002210
:100E80004021284601F038FF002001F093FA0122AA
:100E90004021284601F030FF631E13F0FF04EED11D
:100EA000014802F015F8C3E72006002000040240C4
:100EB00030B589B001460A2300938DF80A101B480B
:100EC00048F27814032302AA7821ADF8084002F012
:100ED000E1F8022801D009B030BD1448144D02F0E9
:100EE000BFF80023402411220593079310480323E1
:100EF00003A9CDE90342069301F070FD0824002206
:100F00004021284601F0F8FE002001F053FA0122AA
:100F10004021284601F0F0FE631E13F0FF04EED1DD
:100F2000024801F0D5FF09B030BD00BF2006002007
:100F30000004024030B5044689B060B1012801D0F8
:100F400009B030BDC020FFF72DFFA02009B0BDE8DB
:100F50003040FFF727BF0A234FF448410093ADF814
:100F600008101A48022302AA782102F093F80228F6
:100F700005D0A12009B0BDE83040FFF713BF1348EA
:100F8000134D02F06DF84021112203230391104804
:100F9000059403A907940492069301F01FFD082409
:100FA00000224021284601F0A7FE002001F002FAAD
:100FB00001224021284601F09FFE631E13F0FF042A
:100FC000EED1024801F084FFD3E700BF20060020E5
:100FD000000402402DE9F04F784B794E794DABB0CB
:100FE0001C4603F10809C3F1B00B00274FF00A08B3
:100FF0000BEB04018DF81110CDF80080022304AA38
:10100000782130468DF8107002F044F8022800F084
:10101000AC80CDF80080022304AA78213046ADF8D8
:10102000107002F037F8022878D04FF48051ADF8F4
:101030001010CDF80080022304AA7821304602F077
:1010400029F8022843D00DF12702002314F83310A9
:1010500002F8011F0133802BF8D13222CDE9013291
:101060000AAB0093402201237821304602F0A0F918
:10107000022805D001344C45BAD12BB0BDE8F08F21
:10108000304601F0EDFF40221123CDE9052305A9EB
:101090000323284609970797089301F09FFC4FF018
:1010A000080A00224021284601F026FE002001F017
:1010B00081F901224021284601F01EFE0AF1FF338A
:1010C00013F0FF0AEDD1304601F002FFD2E73046BF
:1010D00001F0C6FF40211123CDE905132846032363
:1010E00005A909970797089301F078FC4FF0080AC3
:1010F00000224021284601F0FFFD002001F05AF9AE
:1011000001224021284601F0F7FD0AF1FF3313F0D8
:10111000FF0AEDD1304601F0DBFE94E7304601F0E6
:101120009FFF40201123CDE9050305A9032328468D
:1011300009970797089301F051FC4FF0080A002225
:101140004021284601F0D8FD002001F033F90122AA
:101150004021284601F0D0FD0AF1FF3313F0FF0AC9
:10116000EDD1304601F0B4FE5FE7304601F078FF84
:101170004FF0400C1123CDE905C305A903232846F0
:1011800009970797089301F029FC4FF0080A0022FD
:101190004021284601F0B0FD002001F00BF90122AA
:1011A0004021284601F0A8FD0AF1FF3313F0FF0AA1
:1011B000EDD1304601F08CFE2BE700BFA4060020E5
:1011C00020060020000402402DE9F04F203A95B09F
:1011D000D2B20F92082B4FEA53029DF878500A932F
:1011E0000B900C46139200F08682194613F0070309
:1011F00018BF012303EBD10313FB02F313F0FF032A
:101200000C936DD00A9BDDF82C8001954FF00009FE
:10121000083B0D934FF0010ACB460D9A102A5FD878
:10122000DFE812F06C025E005E005E0039015E00D5
:101230005E005E0034015E005E005E005E005E00E7
:101240005E005E00610000F007000AFA00F05FFA3D
:1012500080FCD6180198EFB2755D002840F00B8233
:1012600025EA0C05F555079ED718C6F3C40511F0FD
:10127000400FF0B217F805C02E4640F0138100F081
:101280000700012606FA00F04CEA0000C90978556B
:101290009DF8247040F0218207F00701FD080E91AF
:1012A0000E98134401218140585D014359550A9B12
:1012B00008F10108082B5FFA88F800F0D6800B9B34
:1012C000139AA8EB0303934203D10834DDF82C8072
:1012D000E4B20C9A0BF1010B5FFA8BF39A429CD8A3
:1012E00015B0BDE8F08F0F98A54B00EBC00203EBE3
:1012F000820313F80B10A34A03B2109304F0070300
:101300000393E3080493231D0893E31D0993A31D8E
:101310000793631D0693E31C059304F1020E04F189
:10132000010902EBC8039DF81000019F1E5C039B9E
:1013300011F0010F0AFA03F5EDB24FEAC80340F0CD
:101340002981002F00F0B08126EA0505D618C9F3DF
:10135000C407355411F0020F16F807C05FFA89F080
:101360003D4600F0798100F00700012585404CEAF8
:101370000505F555CEF3C406D71811F0040F17F87C
:1013800006C05FFA8EF0354600F0E88000F00700F6
:10139000012585404CEA0505BD55059FD618C7F3C4
:1013A000C40511F0080FF8B216F805C02F4600F07A
:1013B000A78000F00700012707FA00F04CEA0000C0
:1013C0007055C8069DF8206000F1B08106F0070551
:1013D00007FA05F5E8B2F60802900546D718B85D99
:1013E00020EA0500B855069DD718C5F3C40611F0CC
:1013F000200FE8B217F806C035467FF424AF00F09E
:101400000700012585402CEA0505BD55079ED71824
:10141000C6F3C40511F0400FF0B217F805C02E4610
:1014200040D100F00700012606FA00F02CEA000087
:10143000C90978559DF8247000F0588107F0070518
:1014400006FA05F5E9B24FEAD70C02911344029867
:1014500013F80C10084303F80C000A9B08F101086C
:10146000082B5FFA88F87FF42AAF0C990BF1010B77
:101470005FFA8BF399427FF633AF1099424B01EB41
:10148000410103EB410313F80B104AE73F4B0F9860
:1014900003EB00132DE70F983D4B00EB400203EBED
:1014A000820326E700F007000AFA00F0C7B20998A5
:1014B000119700F007050AFA05F5EDB2C909029582
:1014C000C0F3C40500F0070012910E90D1180198E6
:1014D0008F5DAC46F6B2002840F0D1803846119FAF
:1014E00020EA07008855129900293FF4D9AE134429
:1014F000029813F80C1021EA000103F80C10D6E64C
:1015000000F00700089E0AFA00F0C5B20E9506F03A
:1015100007050AFA05F502EB030CE8B202901CF885
:101520000700054601F0100011900198FFB2C6F3C4
:10153000C406002800F0BE8028460E9D20EA050063
:101540000CF8070001F01000029D00283FF446AFA0
:10155000D718029DB85D2843B85544E700F007004E
:101560000AFA00F05FFA80FCD6180198EFB2755DB8
:10157000002800F09B8025EA0C05F5550DE700BF1B
:10158000786E0008A406002038860008D47B000886
:10159000C4810008002F40F09E8026EA0505D61879
:1015A000C9F3C407355411F0020F16F807C05FFAEB
:1015B00089F03D4650D000F00700012585402CEA17
:1015C0000505F555CEF3C406D71811F0040F17F82A
:1015D00006C05FFA8EF03546C0D000F00700012546
:1015E00085402CEA0505BD55059FD618C7F3C405EF
:1015F00011F0080FF8B216F805C02F4680D000F0A1
:101600000700012707FA00F02CEA00007055C80611
:101610009DF8206000F18A8006F0070507FA05F5BD
:10162000E8B2F60802900546D718B85D2843B855C9
:10163000069DD718C5F3C40611F0200FE8B217F8BD
:1016400006C035467FF4FFAD00F007000125854058
:101650004CEA0505BD5506E600F007000AFA00F061
:101660005FFA80FCD6180198EFB2755DC0B125EA2B
:101670000C05F5557EE64CEA0500F055C6E6384601
:10168000119F07438F55129900297FF4DFAE0E9901
:10169000134401208840595D21EA0001595506E6AE
:1016A0004CEA0500F0558DE7354378E74CEA050034
:1016B000F05599E728460E9D054301F010000CF8FF
:1016C0000750029D0028AFD0D718029DB85D20EAD0
:1016D0000500B855ACE7354338E607F0070506FACC
:1016E00005F5E9B24FEAD70C029100E707F00701D0
:1016F000FD080E91CBE706230C9383E5BDF93C3042
:10170000109304F007030393E3080493231D089345
:10171000E31D0993A31D0793631D0693E31C094A68
:10172000059304F1020E04F10109A6E606F0070094
:1017300001258540E8B202900198F6080028C3D040
:1017400006E700BFA40600202DE9F04F83B09046C5
:101750009DF830709DF83490A7F10802B2FA82F239
:1017600052096BB35200013BDFF874A083460E466A
:1017700002EB5705DCB22346013CE4B26BB32246D0
:101780000123013AD2B203EB8303FF2A4FEA43035A
:10179000F7D1B8FBF3F3AAFB0312D20802EB8202E3
:1017A000B3EB42020FD1CDF800903B4630223146D8
:1017B0005846FFF709FDAB44FF2C5FFA8BFBDAD1EB
:1017C00003B0BDE8F08F3032CDF800903B46D2B286
:1017D00031465846FFF7F8FCEDE74346DBE700BF2C
:1017E000CDCCCCCC30B5052089B000F0E3FDE320B2
:1017F000FFF7D8FAAE20FFF7D5FA642000F0DAFD43
:101800000020FFF7CFFA1020FFF7CCFA0020FFF7F7
:10181000C9FAB020FFF7C6FA8120FFF7C3FAFF200C
:10182000FFF7C0FAA120FFF7BDFAA620FFF7BAFA2A
:10183000C820FFF7B7FAD320FFF7B4FA0020FFF76C
:10184000B1FAD520FFF7AEFA8020FFF7ABFAD92026
:10185000FFF7A8FA1F20FFF7A5FAA820FFF7A2FAC2
:101860003F20FFF79FFADA20FFF79CFA1220FFF7DC
:1018700099FA0A2300932F484FF45B44022302AAEB
:101880007821ADF8084001F005FC02282AD040205C
:10189000FFF788FA8D20FFF785FA1420FFF782FA08
:1018A000254B0022C3E90022C3E90222C3E9042236
:1018B000C3E90622C3E90822C3E90A22C3E90C22CC
:1018C000C3E90E22082101318029C3E9102203F166
:1018D0000803F8D1FFF77EFBAF2009B0BDE8304028
:1018E000FFF760BA1348154D01F0BAFB00234024FE
:1018F0001122059307931148032303A9CDE903425D
:10190000069301F06BF8082400224021284601F0DC
:10191000F3F9002000F04EFD01224021284601F09D
:10192000EBF9631E13F0FF04EED1024801F0D0FA88
:10193000ADE700BF20060020A406002000040240FE
:1019400030B4064B06491D68044600230C60A868A5
:10195000022230BC194603F0F7BD00BF1C00002076
:10196000240B0020022801D80120704708B503F09D
:10197000ABFF09230360002008BD00BF0138012828
:1019800010B50CD81446094A4FF0FF331068A2B2C4
:1019900002F0AEFF00280CBF2046052010BD03F06A
:1019A00093FF092303604FF0FF3010BD240B00208C
:1019B000022801D80020704708B503F085FF0923ED
:1019C00003604FF0FF3008BD08B503F07DFF092329
:1019D00003604FF0FF3008BD08B558B9094A4FF011
:1019E000FF331068012203F033F8002814BF0520EC
:1019F000012008BD03F068FF092303604FF0FF30AA
:101A000008BD00BF240B0020022808B504D84FF4FD
:101A100000534B60002008BD03F056FF092303600C
:101A2000002008BD82B00C4B002100915A6C42F49A
:101A300080425A645A6C02F480420092009A0191EA
:101A40001A6C42F080521A641B6C03F080530193AD
:101A5000019B02B0704700BF00380240FEE700BFA4
:101A6000FEE700BFFEE700BFFEE700BFFEE700BFE6
:101A7000704700BF704700BF704700BF00F088BCD0
:101A800008B5044802F092FDBDE80840024802F0A3
:101A90008DBD00BF980C0020300B0020014802F0E3
:101AA00085BD00BF980C0020014802F07FBD00BF3B
:101AB000980C0020014802F079BD00BF980C00206E
:101AC000014802F073BD00BF500C0020014802F035
:101AD0006DBD00BF080C0020014802F067BD00BFCB
:101AE000C00B0020014803F0E3B800BFE00C002069
:101AF0000C490D4A0B6810B50C4C121B2BB1184445
:101B0000904207D80860184610BD094B0B60184476
:101B10009042F7D903F0D8FE0C2303604FF0FF3357
:101B2000184610BD280B0020000002200004000011
:101B300040100020704700BF30B5002497B020222D
:101B400021460EA8CDE90344CDE90744CDE9094477
:101B5000CDE90B440294009406940594019403F09B
:101B60000DFE2E482E4A046140F2E733C0E90023FF
:101B70004BF67E33C0E902434461846101F0DEFF2D
:101B8000002838D14FF480532448029302A902F070
:101B90005DFC00283FD1214802F0D0F8002837D161
:101BA000002200231D486946CDE9002302F0A8FD6C
:101BB00058BB00226023002400251848069306A97C
:101BC000CDE90A45CDE9072209920C9202F04CFBBF
:101BD000C0B9002300244FF40055104815930EA9F6
:101BE000CDE91245CDE90E33CDE9103302F0C0FD49
:101BF00020B917B030BDFFF74FF8C3E7FFF74CF837
:101C000017B030BDFFF748F8E3E7FFF745F8D0E736
:101C1000FFF742F8C4E7FFF73FF8BCE7980C002055
:101C20000000014010B52748274A00238AB0CDE9BB
:101C30000233CDE90433CDE90033CDE90633CDE9F4
:101C4000083383600361836140F2E733C0E9002316
:101C50004BF67F33C36001F071FF10BB4FF480532C
:101C60001848029302A902F0F1FB38BB154802F0B4
:101C700035F900BB0022002312486946CDE9002354
:101C800002F03EFDA0B9002301240E48082206A957
:101C9000CDE90634CDE9083302F01AFA20B90AB0CA
:101CA00010BDFEF7F9FFD9E7FEF7F6FF0AB010BD49
:101CB000FEF7F2FFE7E7FEF7EFFFDBE7FEF7ECFFEB
:101CC000D4E700BFC00B00200008004000B51B484F
:101CD0001B4A026042F20F72002387B042604FF04D
:101CE000FF32CDE90233CDE90433CDE90033C0E959
:101CF00002320361836101F021FF98B94FF48053F0
:101D00000E48029302A902F0A1FB98B90022002319
:101D10000A486946CDE9002302F0F2FC28B907B071
:101D20005DF804FBFEF7B8FFE8E7FEF7B5FF07B084
:101D30005DF804FBFEF7B0FFE8E700BF780B00207A
:101D4000000C004000B514481449016040F2E7322D
:101D5000002385B042604BF67F32CDE90033CDE9F8
:101D600002338360C2600361836101F0E7FE50B912
:101D70004FF4805308480093694602F067FB28B986
:101D800005B05DF804FBFEF787FFF1E7FEF784FF7F
:101D900005B05DF804FB00BF300B0020004001409F
:101DA00010B50368694A8EB000249342CDE9084417
:101DB000CDE90A440C943BD0B3F1804F65D0644A1E
:101DC000934200F08580634A934208D0624A93426E
:101DD00071D0624A934200F0A4800EB010BD604BF7
:101DE00004941A6C5F4842F004021A641A6C02F000
:101DF00004020492049A05941A6B42F002021A63D8
:101E00001B6B03F0020305934FF480720223CDE9AC
:101E1000082308A90223059A0C9300F0DFFD22464F
:101E200021461E2000F01CFD1E2000F055FDD4E7C9
:101E30004B4B0094596C41F0010159645B6C03F009
:101E400001032246214600931820009B00F008FD64
:101E5000182000F041FD22462146192000F000FD27
:101E6000192000F039FD224621461A2000F0F8FC26
:101E70001A2000F031FD224621461B2000F0F0FC24
:101E80001B2000F029FD0EB010BD03F50E330194A8
:101E9000196C41F0010119641B6C03F00103224627
:101EA000214601931C20019B00F0DAFC1C2000F06D
:101EB00013FD0EB010BD2A4B06941A6C42F00802B6
:101EC0001A641B6C03F008030693069B0EB010BD4A
:101ED000234B02941A6C234842F002021A641A6CD3
:101EE00002F002020292029A03941A6B42F002027A
:101EF0001A631B6B03F00203039302220223CDE952
:101F0000082308A902230C93039A00F067FD2246D8
:101F100021461D2000F0A4FC1D2000F0DDFC0EB0C9
:101F200010BD0F4B07945A6C42F480325A645B6CBC
:101F300003F480330793182022462146079B00F0C4
:101F40008FFC182000F0C8FC47E700BF00000140EC
:101F50000004004000080040000C00400040014028
:101F6000003802400004024030B503688BB0002402
:101F7000B3F1804FCDE90444CDE90644089404D080
:101F8000244A93422FD00BB030BD03F50E33019499
:101F90001A6B214842F001021A631A6B02F0010227
:101FA0000192019A02941A6B42F002021A631B6BAF
:101FB00003F002030293012504A94FF40042022317
:101FC000CDE904230895029B00F008FD08220223B6
:101FD0001248089504A9CDE90423CDE9064400F090
:101FE000FDFC0BB030BD0E4B03941A6B0B4842F056
:101FF00002021A631B6B03F00203039330240223D3
:10200000022504A9CDE90445039A089300F0E6FCF3
:102010000BB030BD0004004000000240000402404C
:102020000038024030B536488FB00023CDE9023386
:10203000CDE90433CDE90033CDE90633CDE90833EA
:10204000CDE90A330C938360036183614FF08042D2
:102050006323C0E9002340F67F43C36001F06EFDB7
:10206000002833D14FF480532548029302A902F08F
:10207000EDF9002840D1224801F060FE002838D157
:10208000002200231E486946CDE9002302F038FBF8
:1020900060BB0022602400251948089206A9CDE9FA
:1020A00006450A9202F0E0F8E8B91548042206A9AC
:1020B00002F0DAF8A0B91248082206A902F0D4F812
:1020C00038B90F48FFF750FF0FB030BDFEF7E4FD01
:1020D000C8E7FEF7E1FD0A48FFF746FF0FB030BD45
:1020E000FEF7DAFDE7E7FEF7D7FDDEE7FEF7D4FD02
:1020F000CFE7FEF7D1FDC3E7FEF7CEFDBBE700BF9C
:10210000500C002010B53F483F4A92B00023CDE963
:102110000233CDE90433CDE90033CDE90A33CDE90B
:102120000C33CDE90E33CDE90633CDE908331093F6
:102130008360036183616323C0E9002340F67F432A
:10214000C36001F0FBFC002840D14FF480532D48C0
:10215000029302A902F07AF9002850D1294801F02F
:10216000EDFD002848D1274801F0B8FE002840D1F5
:102170000022002323486946CDE9002302F0C0FA7B
:10218000002833D160200021CDE90A0100221D483A
:102190000C920AA90E9202F067F820BB194804229B
:1021A0000AA902F061F8D8B901220A24CDE9064251
:1021B0000023144806A90C22CDE9083301F088FF5A
:1021C00038B91048FFF7D0FE12B010BDFEF764FD1D
:1021D000BBE7FEF761FD0B48FFF7C6FE12B010BD6E
:1021E000FEF75AFDE0E7FEF757FDD7E7FEF754FD8F
:1021F000C8E7FEF751FDBBE7FEF74EFDB3E7FEF77C
:102200004BFDABE7080C00200004004010B50B4864
:102210000B4C00234FF4E1310C22C0E90041C0E92E
:102220000233036142618361C36102F0CFFA00B9F6
:1022300010BDBDE81040FEF72FBD00BFE00C002030
:102240000044004030B51C4B026889B000249A421B
:10225000CDE90244CDE90444069401D009B030BD73
:1022600003F5FA3300941A6C144842F400321A64ED
:102270001A6C02F400320092009A01941A6B42F038
:1022800001021A631B6B03F0010301930C2202236A
:10229000CDE9022302A90723032206930592019D9B
:1022A00000F09CFB22462146262000F0D9FA262089
:1022B00000F012FB09B030BD0044004000000240B5
:1022C000DFF834D00D480E490E4A002302E0D458FE
:1022D000C4500433C4188C42F9D30B4A0B4C00236E
:1022E00001E013600432A242FBD3FFF723FC03F0AA
:1022F000F1FAFEF7E7FB7047000002200000002023
:102300005805002090880008580500203C10002047
:10231000FEE7000038B50E4A0E4B12781B680546E2
:102320004FF47A70B0FBF2F0B3FBF0F000F0E2FA99
:1023300008B90F2D01D9012038BD044602462946AF
:102340004FF0FF3000F08CFA034B20461D6038BD83
:1023500008000020040000200C00002008B50B4BF2
:102360001A6842F400721A601A6842F480621A60B5
:102370001A6842F480721A60032000F05FFA0F209E
:10238000FFF7C8FFFFF74EFB002008BD003C0240EE
:10239000034A044B11681B780B441360704700BF5D
:1023A000240D002008000020014B1868704700BF72
:1023B000240D002038B50446FFF7F6FF631C0546E0
:1023C00002D0044B1B781C44FFF7EEFF401BA042D9
:1023D000FAD338BD08000020002800F09E8038B5F0
:1023E000056C04463DB1236CDB060CD5002384F854
:1023F0003C30012038BDFEF785F96564236C84F814
:102400003C50DB06F2D4236C474A23F4885323F074
:10241000020343F0020323645168236821F440312E
:10242000516051686068014351605A682069A16831
:1024300022F480725A605A6842EA00225A605A684E
:10244000E06822F040725A605A680A435A609A68FB
:10245000A16A22F400629A609A6802439A60334A41
:1024600091429A6851D022F07062E06A9A609A684C
:10247000114399609A6822F040529A609A68024328
:102480009A609A6822F002029A609A68217E42EA73
:1024900041029A6094F82020002A40D05A68616A6C
:1024A00042F400625A605A6822F460425A605A68E4
:1024B000013942EA41325A60DA6AE16922F4700273
:1024C000DA62DA6A013942EA0152DA629A686169CB
:1024D00022F400729A609A6894F8300042EA40222E
:1024E0009A609A6822F480629A609A68002042EAB0
:1024F00081229A606064236C23F0030343F001039C
:102500002364002384F83C3038BD22F070629A6066
:102510009A6822F040529A60B3E7012070475A68E7
:1025200022F400625A60C7E7002301400100000F57
:1025300010B490F83C3083B00022012B019259D0A6
:102540000123026880F83C309368DC0714D42B4BDD
:102550002B4C1B689168A4FB03439B0C03EB4303C8
:1025600041F0010191600193019B2BB1019B013B63
:102570000193019B002BF9D1936813F0010F036CB9
:102580002DD023F4E06323F0010343F4807303644C
:102590005368590505D5036C23F4405343F4805325
:1025A0000364036C13F480531CBF436C23F00603D5
:1025B00043640024134B80F83C406FF0220111600B
:1025C0005B68DB0602D0104B9A420FD1936813F080
:1025D000405F0BD1936843F08043936006E043F083
:1025E00010030364436C43F001034364002003B011
:1025F00010BC7047022003B010BC704704000020DC
:1026000083DE1B43002301400020014003689A68D9
:1026100070B50D465105044602D59B68DA052AD4EB
:10262000FFF7C2FE22686B1C064611462ED11368C6
:102630009807FCD56FF012030B60236C43F4007312
:1026400023648B6813F0405F13D1237E8BB9CB6A70
:1026500013F4700F02D08B685A050AD4236C23F44C
:1026600080732364236CDB0403D4236C43F00103E5
:102670002364002070BD036C002243F0200380F827
:102680003C200364012070BD2268114613689B073B
:10269000D0D47DB1FFF788FE801BA842F4D9216811
:1026A0000B6898070AD50B689A07F3D5C2E7136839
:1026B0009D07BFD413689E071146F8D4236C0022EF
:1026C00043F0040384F83C202364032070BD00BF62
:1026D00070B590F83C3082B00246012B4FF00000FC
:1026E000019000F09E80012382F83C300D68136851
:1026F0008C68092DA8B228D81E6905EB450E4FF04D
:10270000070C0CFA0EFC26EA0C061E611E6904FA80
:102710000EF434431C614C68062C04EB84012AD867
:102720005C6B05394FF01F0C88400CFA01F124EA6C
:1027300001015963596B084358633B498B422BD0C5
:10274000002082F83C0002B070BD00EB400CDE6857
:10275000ACF11E0C4FF0070E04FA0CF40EFA0CFC50
:1027600026EA0C06DE60DE683443DC604C68062C2A
:1027700004EB8401D4D90C2C1FD81C6B23391F26E1
:10278000884006FA01F124EA01011963196B084334
:10279000254918638B42D3D1122D1BD0234B9D4268
:1027A00022D0112DCCD1224B596821F480015960DF
:1027B000596841F400015960C2E7DC6A41391F26BB
:1027C000884006FA01F124EA0101D962D96A084376
:1027D000D862B2E7164B596821F400015960596874
:1027E00041F480015960ABE7114B124C5968124813
:1027F00021F480015960596841F40001596023684F
:10280000A0FB03039B0C03EB83035B000193019B81
:10281000002B95D0019B013B0193019B002BF9D12B
:102820008EE7022002B070BD0020014012000010AF
:10283000002301400400002083DE1B430749CA68CF
:1028400003024FF6FF0003F4E0630240134343F03A
:10285000BF6343F40033CB60704700BF00ED00E07E
:102860001B4BDB68C3F3022300B5C3F1070EBEF1B7
:10287000040F03F1040C28BF4FF0040EBCF1060F47
:102880001CD9A3F1030C4FF0FF3303FA0CF322EA37
:1028900003024FF0FF3303FA0EF321EA030303FAB6
:1028A0000CF313431B010028DBB20ADB00F160408C
:1028B00000F5614080F800335DF804FB0022944687
:1028C000E7E7044A00F00F00024413765DF804FBCA
:1028D00000ED00E0FCEC00E0002807DB4109044AC1
:1028E00000F01F000123834042F82130704700BFF1
:1028F00000E100E00138B0F1807F01D30120704792
:1029000010B44FF0E023064C58614FF0F00C84F8FF
:1029100023C00022072110469A6110BC196170473C
:1029200000ED00E070B50446866DFFF73DFD94F8BC
:102930003530022B06D080236365002384F83430C1
:10294000012070BD23681A6822F016021A605A69C5
:1029500022F080025A61226C054642B31A6822F0C6
:1029600008021A601A6822F001021A6005E0FFF7F7
:102970001BFD431B052B10D823681B6813F00103B4
:10298000F5D1E16D3F228A40184601210023B26053
:1029900084F8351084F8343070BD0323202262653A
:1029A000184684F83530002384F8343070BDA26CAA
:1029B000002AD3D1D6E700BF90F83530022B03D0E0
:1029C00080234365012070470268052380F8353075
:1029D000136823F001030020136070472DE9F04FC6
:1029E00000230C68714E85B04FF0010B894602E060
:1029F0000133102B7CD00BFA03F202EA0408A24345
:102A0000F6D1D9F8041001F003024FEA430C032574
:102A1000571E05FA0CF5012F6FEA05056BD9032A3D
:102A200040F0A680076802FA0CF23D402A4311F4F8
:102A3000403F0260DCD05E4D002203926A6C42F49B
:102A400080426A646A6C02F480420392039A23F023
:102A5000030202F1804202F59C3203F003079568FD
:102A6000BF004FF00F0C0CFA07FC25EA0C05DFF84D
:102A700044C1604519D00CF5806C604500F083803E
:102A8000DFF834C1604500F08480DFF830C1604574
:102A900000F08580DFF828C160450CBF4FF0040CC2
:102AA0004FF0070C0CFA07F73D439560B2686FEAE8
:102AB0000805CF0254BF2A4048EA0202B260F26819
:102AC0008F0254BF2A4048EA0202F26072688F0304
:102AD00054BF2A4048EA020272603268C90303F117
:102AE000010354BF2A4048EA0202102B326082D10F
:102AF00005B0BDE8F08F876807EA050ED9F80C70BD
:102B000007FA0CF747EA0E078760476827EA080EBE
:102B1000C1F300179F4047EA0E074760C76807EAFE
:102B2000050ED9F8087007FA0CF747EA0E07022AD3
:102B3000C7607FF477AFDF0800EB870701973F6A34
:102B4000009703F0070ED9F810704FEA8E0E4FF081
:102B50000F0A07FA0EF70AFA0EFEDDF800A02AEABD
:102B60000E0E47EA0E07DDF804E0CEF8207059E7B4
:102B7000C76807EA050ED9F8087007FA0CF747EAA4
:102B80000E07C7604EE74FF0010C0CFA07F73D4304
:102B90008BE74FF0020C0CFA07F73D4385E74FF047
:102BA000030C0CFA07F73D437FE700BF003C0140F0
:102BB000003802400000024000080240000C0240C1
:102BC000001002402DE9F04F0023434F01264FF043
:102BD0000F094FF0030B02E00133102B6AD006FA05
:102BE00003F232EA010402EA010CF5D123F00305F5
:102BF00005F1804505F59C35DFF8E0A0D5F808E043
:102C000003F00304A40009FA04F8504508EA0E0E84
:102C100052D00AF5806A504550D0DFF8C4A0504524
:102C20004FD0DFF8C0A0504550D0DFF8BCA05045D1
:102C300014BF4FF0070A4FF0040A0AFA04F4A6453D
:102C400013D13C6824EA0C043C607C6824EA0C0440
:102C50007C60FC6824EA0C04FC60BC6824EA0C0478
:102C6000BC60AC6824EA0804AC6005685C000BFA40
:102C700004F44FEAD30C25EA040500EB8C0C056044
:102C800003F00705DCF820E0AD0009FA05F52EEAAF
:102C90000505CCF82050C56825EA0405C5604568DF
:102CA00025EA020242608268013322EA0402102B04
:102CB000826094D1BDE8F08F0024C0E706FA04F4E6
:102CC000BDE74FF0020A0AFA04F4B8E74FF0030A2E
:102CD0000AFA04F4B3E700BF003C014000000240E0
:102CE00000080240000C0240001002400369194233
:102CF00014BF01200020704702B9090481617047A8
:102D00002DE9F04F046883B099460C9F2368DDF8E5
:102D100034B0064643F48073781C8A46904623609C
:102D200040D16569EA07FCD50AF0FE037D1C2361EA
:102D300003D047E063695A0560D461698907F9D512
:102D40000023019363690193A36901937D1C019B97
:102D50006AD16369190679D463695A05F9D50023E4
:102D60006FF4806120226161336386F83D2086F82C
:102D70003E30336C43F004033364336C0022042B85
:102D800086F83C204ED13268136843F40073136018
:102D900048E0FFF709FBA0EB0B00874216D334682D
:102DA0002146A7B16369DB07F3D5BDE76369580521
:102DB00024D4FFF7F9FAA0EB0B0087426FD3002F62
:102DC0006DD0346863699B07F0D5B9E7316800229C
:102DD0002023326386F83D3086F83E20336C86F837
:102DE0003C2043F0200333640B68D90502D54FF42F
:102DF00000733364032003B0BDE8F08F236843F40D
:102E000000732360002220236FF4806161613263CC
:102E100086F83D3086F83E20336C86F83C2043F03F
:102E2000040333640120E6E763691B060ED463697B
:102E3000580594D4FFF7B8FAA0EB0B039F423CD39C
:102E4000002F3AD0346863691B06F0D5B9F1010F41
:102E500006D15FFA88F30020236103B0BDE8F08F4C
:102E60004FEA18237D1C236106D163691906F0D44B
:102E700063695A05F9D572E763691B06E9D463698A
:102E800058053FF56CAFFFF78FFAA0EB0B039F429D
:102E900013D397B1346863691B06F0D5D9E70022D4
:102EA0002023326386F83D3086F83E20336C86F866
:102EB0003C2043F020033364B4E700232022336333
:102EC00086F83D2086F83E30336C1343336454E774
:102ED000002800F0B88070B590F83D30044603F04B
:102EE000FF02002B00F098802368242284F83D2004
:102EF0001A6822F001021A601A6842F400421A604D
:102F00001A6822F400421A6000F0F8FD65684F4B21
:102F10009D424FD84E4B98427CD94E4B6A00A3FB42
:102F20000035431EB3FBF2F32268516821F03F01E4
:102F300041EA95415160116A4FEA954C0CF1010C40
:102F400021F03F0141EA0C011162D16940F6FC70A9
:102F5000013321F44F41034221F0FF0161D10423E9
:102F60000B43D361D4E907301168034321F0C0015A
:102F70000B4313609168D4E9030321F40341034335
:102F800021F0FF010B439360D4E90530D16803437E
:102F900021F0FF010B43D3601168002341F00101D0
:102FA00020201160236484F83D00236384F83E30C0
:102FB000184670BD284B98422CD92268254B274EC5
:102FC000A3FB003C431E506820F03F0040EA9C40B9
:102FD00050604FEA9C414FF4967000FB01F1A6FB54
:102FE0000161106A890920F03F000131014311623B
:102FF000D169A06821F44F4121F0FF01A0B905EB90
:103000004505B3FBF5F30133C3F30B03CBB143F435
:103010000043A5E7012070BD80F83C20FDF762FC6D
:1030200062E7C3F30B039BE705EB850505EB85051D
:10303000B3FBF5F30133C3F30B0313B143F4404384
:103040008EE701238CE70120704700BFA0860100B6
:103050007F841E0083DE1B43FF083D00D34D6210BA
:10306000B0B10268242310B580F83D30136823F016
:10307000010304461360FDF7A3FC0023236484F8D6
:103080003C3084F83D30236384F83E30184610BD50
:10309000012070472DE9F04F054683B099460C9FFB
:1030A00088469246FFF780F995F83D30202B03D0F3
:1030B000022003B0BDE8F08F064605E0FFF774F983
:1030C000801B192800F21F812C68A3696FEA030C8A
:1030D0001CF0020BF2D095F83C30012BE8D0012314
:1030E00085F83C302368D90774D523688D4A23F4CA
:1030F00000632360212385F83D30102385F83E309E
:1031000000232B64A5F82A906B8DEA622B85EB6A6D
:10311000C5F824A0082B06D0012B04D0934202D07E
:103120002B6B122B03D1236843F4807323607B1C29
:103130004CD16369D807FCD52B69B3F5804F4ED1CC
:1031400008F0FE032361781C04D0B6E063695A05D9
:1031500000F1EA8063699907F8D500230193636958
:103160000193A369288D0193019B002800F08D80B5
:10317000791C49D163691A065AD463695B05F9D58C
:1031800000236FF48061202261612B6385F83D206C
:1031900085F83E302B6C43F004032B642B6C00222B
:1031A000042B85F83C2040F0D3802A68136843F450
:1031B00000731360CCE0FFF7F7F8801B8742C0F084
:1031C000C9802C682346002F00F0C5806369D907A9
:1031D000F1D5B1E7236843F00103236085E74FEAA7
:1031E000E81303F0060343F0F0037A1C236104D0D4
:1031F00072E06369590500F1978063691807F8D593
:103200005FFA88F323619EE7636919060FD4636947
:103210005805B5D4FFF7C8F8801B8742C0F0AF80CF
:10322000002F00F0AC802C6863691906EFD5288D5B
:10323000D5F824C06146431E11F8012B22616A8D26
:103240006962013A92B26A8562699BB252072B8524
:103250000CD55BB19CF8013023610CF102036B6269
:103260006B8D013B02389BB228856B85781C37D16A
:103270006369590705D463695A0581D4636959079D
:10328000F9D5288D00287FF473AF2368002043F41C
:1032900000732022236085F83D2085F83C0085F8E6
:1032A0003E0006E763695B053ED4FFF77DF8801BAF
:1032B00087426FD3002F6DD02C6863699B07F1D5CF
:1032C0004BE763695B052FD4FFF76EF8831B9F42C2
:1032D00060D3002F5ED02C6863691A07F1D58FE7A1
:1032E00063695B07CDD463695B053FF549AFFFF7C1
:1032F0005BF8801B874242D3002F40D02C68636963
:103300005B07F0D5BDE72023C5F830B085F83D3028
:1033100085F83EB02B6C85F83CB043F020032B645D
:10332000C6E600BF0000FFFF236843F4007323607C
:10333000002220236FF4806161612A6385F83D30AB
:1033400085F83E202B6C85F83C2043F004032B6469
:103350000120AEE62B6800212022296385F83D205C
:1033600085F83E102A6C85F83C1042F020022A6451
:103370001B68DA05ECD54FF400732B64E8E70023F3
:1033800020222B6385F83D2085F83E302B6C1343BB
:103390002B6403E7002220232A6385F83D3085F85B
:1033A0003E202B6C85F83C2043F020032B64CFE7B4
:1033B0002DE9F04F044683B09946BDF834A00E9E27
:1033C0000F469046FEF7F0FF94F83D30202B04D0D6
:1033D0000227384603B0BDE8F08F054605E0FEF74A
:1033E000E3FF401B192800F29C80206883696FEA84
:1033F000030C1CF0020BF2D094F83C30012BE7D008
:10340000012384F83C300368DB0740F185803946AE
:10341000076827F4006707600C9860622120CDE9F7
:10342000006584F83D00402084F83E0000202064C0
:10343000A4F82AA0608D20855548E0624B4642469C
:103440002046FFF75DFC074620BB228D2368002A3B
:1034500048D0721C20D15A6910062ED45A695105E1
:10346000F9D500226FF4806020215861226384F82E
:103470003D1084F83E20236C43F004032364236C46
:103480000022042B84F83C2004D12268136843F402
:103490000073136001279CE75A6912060DD45A691C
:1034A0005105DED4FEF780FF401B864264D3002E18
:1034B00062D023685A691206F1D5D4F824C0B4F852
:1034C00028E061460EF1FF3011F8012B1A61628D80
:1034D0006162013A92B2628582B2586922854007E0
:1034E00017D542B9721C2AD15A69500737D45A6984
:1034F0005105F9D5B5E79CF8011019610CF10201ED
:103500006162618DAEF10202013992B289B2228507
:103510006185002A9DD1E5E7036843F0010303605C
:1035200075E72023C4F830B084F83D3084F83EB00D
:10353000236C84F83CB043F02003236448E75A69C5
:1035400052070CD45A6951058BD4FEF72DFF431B4B
:103550009E4211D386B123685A695207F2D51A6880
:10356000002142F4007220201A6084F83D0084F8A3
:103570003C1084F83E102CE700232022236384F8BB
:103580003D2084F83E30236C1343236477E700BF6B
:103590000000FFFF002800F0D8812DE9F04103680A
:1035A000DD0782B004462FD59D498A6802F00C02DF
:1035B000042A00F0EC808A6802F00C02082A00F06D
:1035C000E2806368B3F5803F00F0EB80B3F5A02F95
:1035D00000F07381924D2A6822F480322A602A68B2
:1035E00022F480222A60002B40F0E080FEF7DCFE0F
:1035F000064605E0FEF7D8FE801B642800F2008135
:103600002B689F03F6D423689D0728D5844A9168C8
:1036100011F00C0F00F09B80916801F00C0108295B
:1036200000F09180E368002B00F00C817D4B7C4E14
:1036300001221A60FEF7B8FE054605E0FEF7B4FE6B
:10364000401B022800F2DC8033689F07F6D5336800
:10365000226923F0F80343EAC203336023681A07A0
:103660005CD45D073AD56E4A136C13F0805340F07A
:1036700088800193136C43F080531364136C03F040
:1036800080530193019B0125674E3368D80540F1B3
:10369000A780A368012B00F0B780052B00F01D81E7
:1036A0005F4E326F22F001023267326F22F0040265
:1036B0003267002B40F0AD80FEF776FE41F288388D
:1036C000074605E0FEF770FEC01B404500F29880FB
:1036D000336F9B07F6D4002D40F0F980A369CBB17E
:1036E0004F4DAA6802F00C02082A00F0BC80022BA1
:1036F0004C4B4FF000021A6600F0F980FEF754FEC2
:10370000044604E0FEF750FE001B022878D82B6820
:103710009B01F7D4002002B0BDE8F0816369FBB1E2
:10372000404B3F4E0122C3F8802EFEF73DFE05467A
:1037300004E0FEF739FE401B022861D8736F9B0737
:10374000F7D523688DE7526851023FF56BAF344AD5
:103750001268920738D5E268012A35D00120DAE7ED
:10376000304A2F4EC2F8803EFEF71EFE054604E0AA
:10377000FEF71AFE401B022842D8736F9F07F7D44A
:10378000DFE7002580E74A6851027FF51AAF244A37
:10379000126892037FF538AF6268002A7FF434AF75
:1037A000DCE71F4A136843F480331360FEF7FCFD27
:1037B0001B4E054604E0FEF7F7FD401B64281FD8AA
:1037C00033689B03F7D51EE7154920690A6822F084
:1037D000F80242EAC0020A601A077FF542AF9DE78D
:1037E000336843F480733360FEF7DEFD07463368C9
:1037F000D9053FF54EAFFEF7D7FDC01B0228F6D91D
:10380000032002B0BDE8F081054A136F43F00103C5
:103810001367FEF7C9FD024F064641F288380AE0F9
:10382000003802400000474200700040FEF7BCFD37
:10383000801B4045E4D83B6F9A07F7D5002D3FF435
:103840004DAF44E0424A434E1360FEF7ADFD0546DE
:1038500004E0FEF7A9FD401B0228D1D83368990780
:10386000F7D42368FBE6012B3FF478AF6B68E2697D
:1038700003F4800191427FF471AF226A03F03F01AB
:1038800091427FF46BAF616A47F6C0721A40B2EBA7
:10389000811F7FF463AFA26A520803F44031013AFA
:1038A000B1EB024F7FF45AAFE26A03F07063B3EBFF
:1038B000026F14BF012000202DE7264B1A6842F446
:1038C00080221A601A6842F480321A606EE7214A38
:1038D000136C23F08053136400E71E4B1A6F42F001
:1038E00004021A671A6F42F001021A6791E7FEF7A5
:1038F0005BFD064605E0FEF757FD801B02283FF6FC
:103900007FAF2B689901F6D4D4E90731626A0B4383
:1039100043EA8213D4E90A21520843EA0163013AD7
:103920000B4943EA024301226B600A66FEF73CFD45
:10393000084D044605E0FEF737FD001B02283FF660
:103940005FAF2B689A01F6D5E4E60120704700BF0F
:103950000000474200380240164908B58B6803F062
:103960000C03042B1BD0082B17D14A684B684968FD
:1039700013F4800302F03F0213D10F48C1F3881102
:10398000A1FB0001FCF71CFC0A4B5B68C3F301437D
:1039900001335B00B0FBF3F008BD074808BD0748E2
:1039A00008BD0648C1F388110023A1FB0001FCF704
:1039B00007FCE9E7003802400024F40040787D016C
:1039C000002800F08780484A136803F007038B4201
:1039D0002DE9F0410D46044609D2CBB213701368AD
:1039E00003F007038B4202D00120BDE8F081236879
:1039F000980714D5590704D53C498A6842F4E05227
:103A00008A601A0704D539498A6842F460428A609C
:103A10003649A0688A6822F0F00202438A60DF0714
:103A200021D56268012A57D0931E012B2F4B1B68AA
:103A30004DD99907D8D52D4EB36823F0030313430E
:103A4000B360FEF7B1FC41F28838074604E0FEF7A8
:103A5000ABFCC01B404544D8B368626803F00C035C
:103A6000B3EB820FF3D1204A136803F00703AB4294
:103A700006D9EBB21370136803F00703AB42B3D15E
:103A800023685A0706D51949E0688A6822F4E0528B
:103A900002438A601B0707D5144A2169936823F4FF
:103AA000604343EAC1039360FFF756FF0F4A104C8F
:103AB00092681049C2F303120346A25C0E48D34039
:103AC00000680B60FEF726FC0020BDE8F08198013D
:103AD000B1D489E701207047044B1B689E03AAD428
:103AE00082E7032081E700BF003C0240003802402B
:103AF00068880008040000200C000020044B0549E1
:103B00009B68054A0868C3F38223D35CD84070479A
:103B1000003802400400002060880008044B05497A
:103B20009B68054A0868C3F34233D35CD8407047AA
:103B3000003802400400002060880008002869D096
:103B400070B590F83D30044603F0FF02002B4BD0D7
:103B50002268314E6168E068A569022384F83D302F
:103B6000B242136845D0B2F1804F17D0A6F57C461B
:103B7000B24213D006F58066B2420FD006F58066D9
:103B8000B2420BD0254EB2420CD006F58066B2424E
:103B900008D006F58066B24208D103E0A66823F09B
:103BA00070033343266923F44073334323F08003C7
:103BB0002B431360D06291620123536184F8463035
:103BC00084F83E3084F83F3084F8403084F8413047
:103BD00084F8423084F8433084F8443084F8453027
:103BE00084F83D30002070BD80F83C20FEF7D8F806
:103BF000AEE7A66823F070033343266923F44073CD
:103C0000334323F080032B431360D06291626369D6
:103C10001363D1E7012070470000014000400140DC
:103C200090F83D30012B24D10368134A02219342BE
:103C300080F83D1012D0B3F1804F0FD0A2F57C4236
:103C400093420BD002F58062934207D002F5806266
:103C5000934203D002F59A32934204D19A6802F05B
:103C60000702062A03D01A6842F001021A600020F7
:103C700070470120704700BF000001400368196AC7
:103C800041F21112114208D1196A40F24442114224
:103C900003D11A6822F001021A60012380F83D3036
:103CA0000020704790F83D30012B27D1036814495C
:103CB000022280F83D20DA688B4242F00102DA608D
:103CC00011D0B3F1804F0ED00E4A93420BD002F5C3
:103CD0008062934207D002F58062934203D002F5DE
:103CE0009A32934204D19A6802F00702062A03D05E
:103CF0001A6842F001021A600020704701207047E4
:103D000000000140000400400368DA6822F001026C
:103D1000DA601A6A41F211110A4208D1196A40F2B6
:103D20004442114203D11A6822F001021A600123B1
:103D300080F83D3000207047704700BF002869D0F0
:103D400070B590F83D30044603F0FF02002B4BD0D5
:103D50002268314E6168E068A569022384F83D302D
:103D6000B242136845D0B2F1804F17D0A6F57C4619
:103D7000B24213D006F58066B2420FD006F58066D7
:103D8000B2420BD0254EB2420CD006F58066B2424C
:103D900008D006F58066B24208D103E0A66823F099
:103DA00070033343266923F44073334323F08003C5
:103DB0002B431360D06291620123536184F8463033
:103DC00084F83E3084F83F3084F8403084F8413045
:103DD00084F8423084F8433084F8443084F8453025
:103DE00084F83D30002070BD80F83C20FFF7A4FF30
:103DF000AEE7A66823F070033343266923F44073CB
:103E0000334323F080032B431360D06291626369D4
:103E10001363D1E7012070470000014000400140DA
:103E200091BB90F83E30012B3AD1022380F83E300E
:103E3000036801F01F01186A01228A4020EA02008B
:103E40001862186A224902438B421A6232D0B3F1D7
:103E5000804F0ED01F4A93420BD002F580629342EE
:103E600007D002F58062934203D002F59A32934262
:103E700004D19A6802F00702062A03D01A6842F0B9
:103E800001021A600020704704290BD0082916D0BF
:103E900090F84130012B03D1022380F84130C7E76D
:103EA0000120704790F83F30012BF9D1022380F8B0
:103EB0003F30BDE75A6C42F400425A64D9E790F8AB
:103EC0004030012BECD1022380F84030B0E700BF36
:103ED0000000014000040040704700BF002869D086
:103EE00070B590F83D30044603F0FF02002B4BD034
:103EF0002268314E6168E068A569022384F83D308C
:103F0000B242136845D0B2F1804F17D0A6F57C4677
:103F1000B24213D006F58066B2420FD006F5806635
:103F2000B2420BD0254EB2420CD006F58066B242AA
:103F300008D006F58066B24208D103E0A66823F0F7
:103F400070033343266923F44073334323F0800323
:103F50002B431360D06291620123536184F8463091
:103F600084F83E3084F83F3084F8403084F84130A3
:103F700084F8423084F8433084F8443084F8453083
:103F800084F83D30002070BD80F83C20FFF7A4FF8E
:103F9000AEE7A66823F070033343266923F4407329
:103FA000334323F080032B431360D0629162636933
:103FB0001363D1E701207047000001400040014039
:103FC00000293DD190F83E2090F84230012ADBB222
:103FD00043D1012B41D10222036880F83E2080F8B2
:103FE0004220DA6842F00202DA60186A01F01F012A
:103FF00001228A4020EA02001862186A324902430C
:104000008B421A6211D0B3F1804F0ED02F4A9342E7
:104010000BD002F58062934207D002F58062934292
:1040200003D002F59A32934204D19A6802F0070253
:10403000062A03D01A6842F001021A600020704775
:1040400004290CD008291ED090F8412090F8453062
:10405000012ADBB201D1012B29D00120704790F851
:104060003F2090F84330012ADBB2F6D1012BF4D186
:104070000222036880F83F2080F84320DA6842F08B
:104080000402DA60B1E790F8402090F84430012A49
:10409000DBB2E2D1012BE0D10222036880F840209C
:1040A00080F84420DA6842F00802DA609DE70223D3
:1040B0000C2980F8413080F84530CED10368DA68A9
:1040C00042F01002DA6090E7000001400004004076
:1040D000034690F83C00012800F0C1800120F0B4B4
:1040E00083F83C005AB1042A4CD0082A00F094808E
:1040F0000C2A6CD0002283F83C20F0BC70471A6870
:10410000DFF860C1166AC86826F00106D1E90045EB
:10411000624516629769166A15D0B2F1804F12D0C7
:10412000ACF57C4C62450ED00CF5806C62450AD033
:104130000CF5806C624506D00CF59A3C624502D0C5
:1041400047F0010C03E027F0030745EA070C0001E4
:104150002CF0F00CC0B240EA0C00906126F00A0589
:1041600004F00A002843106290698C6820F00C006B
:104170009061916921439161002283F83C200020E5
:10418000F0BC70471A68C868156A25F01005D1E9B7
:10419000004615628D68916921F44071000341EA7F
:1041A000062180B221F470410143106A916124011B
:1041B00004F0A00420F0A00121431162916921F4D0
:1041C00040619161916941EA05219161D4E71A68E2
:1041D000C868156A25F48055D1E9004615628D68D6
:1041E000D16921F44071000341EA062180B221F433
:1041F00070410143106AD161240304F4204420F487
:10420000204121431162D16921F44061D161D1691A
:1042100041EA0521D161AFE71A68C868166A26F439
:104220008076D1E9005416628E68D16921F00301CD
:1042300000012143C0B221F0F0010143106AD161B5
:104240002D0205F4206520F4206129431162D16913
:1042500021F00C01D161D1693143D1618CE7022099
:10426000704700BF00000140034690F83C00012861
:1042700000F0B6800120F0B483F83C000C2A08D886
:10428000DFE802F03B070707600707078807070713
:104290000D00002283F83C200120F0BC70471A6812
:1042A0000E68106A20F480501062106A5568D46954
:1042B00024F4E64444EA06248E6820F4005040EAE0
:1042C0000630614EB24200F0A9805560D4614C685E
:1042D00014641062D0690C6940F40060D061D16947
:1042E00021F48061D161D16941EA0421D1610022C8
:1042F00083F83C200020F0BC70471A680E68106AF2
:1043000020F001001062106A5568946924F073046B
:1043100034438E6820F0020030434B4EB24261D0ED
:10432000556094614C685463106290690C6940F068
:1043300008009061916921F0040191619169214324
:104340009161D4E71A680E68106A20F010001062BC
:10435000106A5568946924F4E64444EA06248E6899
:1043600020F0200040EA0610374EB24247D0556098
:1043700094614C689463106290690C6940F4006029
:104380009061916921F480619161916941EA042110
:104390009161ACE71A680E68106A20F480701062B0
:1043A000106A5568D46924F0730434438E6820F48D
:1043B000007040EA0620244EB24235D05560D461E8
:1043C0004C68D4631062D0690C6940F00800D06179
:1043D000D16921F00401D161D1692143D16186E71E
:1043E00002207047CE6820F008003043D1E905670D
:1043F00025F440753E4320F00400354390E7CE6835
:1044000020F0800040EA0610D1E9056725F44065F8
:104410003E4320F0400045EA8605A8E74E6925F4B2
:10442000804545EA861550E7CE6820F4006040EAF2
:104430000620D1E9056725F440553E4320F480600D
:1044400045EA0615BAE700BF0000014090F83C308D
:10445000012B71D0024630B40223046882F83D304B
:10446000012082F83C00A36823F47F4323F0770304
:10447000A3600B68602B61D024D8402B77D04AD939
:10448000502B17D14B68C868216A21F00A011943E3
:10449000236A23F001032362A36923F0F00343EAB4
:1044A0000013A3612162A36823F0700343F0570354
:1044B000A36000200121002382F83D1082F83C30E7
:1044C00030BC7047B3F5805FF3D0B3F5005F10D117
:1044D000D1E90153A0682B43CD6820F47F4143EA22
:1044E00005230B43A360A36843F48043A36000202B
:1044F000E0E7702BDED1D1E90153A0682B43CD68F2
:1045000020F47F4143EA05230B43A360A36843F0F3
:104510007703A360CDE7202B02D009D9302BC9D176
:10452000A16821F070010B4343F00703A360C0E7CB
:1045300033F01001BED1F3E702207047236A4868C8
:10454000CD6823F010032362A169236A21F470412E
:1045500023F0A00343EA001341EA0531A16123627D
:10456000A36823F0700343F06703A360A1E74B68DF
:10457000C868216A21F00A011943236A23F0010364
:104580002362A36923F0F00343EA0013A3612162CD
:10459000A36823F0700343F04703A36089E700BFDB
:1045A000704700BF704700BF704700BF03681A69BB
:1045B000910710B5044602D5DA6892075FD41A69EC
:1045C000500702D5DA68510746D41A69120702D596
:1045D000DA6810072ED41A69D20602D5DA68D00636
:1045E00018D41A69D10702D5DA68D2075DD41A69DE
:1045F000100602D5DA6811065FD41A69520602D590
:10460000DA68500661D41A69910602D5DA68920612
:1046100043D410BD6FF01001082219612277DB69C5
:1046200013F4407F204664D0FCF7CAFA00222368C6
:104630002277D6E76FF00801042219612277DB693F
:104640009907204652D1FFF7ABFF2046FFF7AAFF9C
:10465000002223682277BEE76FF00401022219616D
:1046600022779B6913F4407F20463CD1FFF798FFE7
:104670002046FFF797FF002223682277A5E76FF017
:1046800002010122196102779B699B0725D0FCF783
:1046900097FA00222368227791E76FF020022046E4
:1046A0001A61BDE8104000F08DB86FF001021A6188
:1046B0002046FCF7C1FA236899E76FF080021A617F
:1046C000204600F081F8236897E76FF040021A61F6
:1046D0002046FFF769FF236895E7FFF761FF204653
:1046E000FFF760FFD5E7FCF76BFAC4E7FCF768FA61
:1046F000AEE7FFF755FF2046FFF754FF96E700BFF0
:1047000090F83C20012A2FD003460268022030B4E2
:1047100083F83D0050680D68946820F070002843CD
:1047200050601248824212D0B2F1804F0FD0A0F5F3
:104730007C4082420BD000F58060824207D000F5B9
:104740008060824203D000F59A30824204D14968E9
:1047500024F080040C4394600020012283F83D2063
:1047600083F83C0030BC70470220704700000140D5
:1047700090F83C30012B22D010B4D1E9024323F44D
:1047800040730246234348680C6823F48063034364
:1047900023F400630869234323F4805303434869E7
:1047A000CC6923F40053034323F4804310680021B1
:1047B0002343436482F83C10084610BC7047022033
:1047C000704700BF704700BF704700BF002800F06F
:1047D000868038B590F83D30044603F0FF02002B88
:1047E00078D02368E068242284F83D20DA6822F437
:1047F0000052DA601969A26821F44051014320692E
:10480000196102436069D9680243E06921F41641E5
:1048100021F00C0102430A43DA605A69A069314968
:1048200022F4407202438B425A6135D02E4A9342A1
:1048300032D0FFF763F9E2691921B2F5004FD4E9EC
:104840000053A0FB01012AD09A009B0FFBF7B8FC94
:10485000264AA2FB00135B09642101FB130000013F
:104860003230A2FB00201B0103EB5013AB602B691D
:1048700023F490432B616B6923F02A036B61EB688F
:104880000021202243F40053EB60216484F83D2092
:1048900084F83E20084638BDFFF740F9CBE7DA1828
:1048A0004FF000035B41FBF78BFC104AA2FB003189
:1048B0004909642303FB1103DB003233A2FB03230A
:1048C000C3F342121B0902EB011203F4F873134401
:1048D000AB60CCE780F83C20FDF7B4FC81E7012019
:1048E000704700BF00100140001401401F85EB51CC
:1048F0002DE9F843044690F83D0020287AD18846F7
:1049000000293FD01746002A3CD01D4694F83C3081
:10491000012B6FD0012384F83C304FF00009212394
:10492000C4F8409084F83D30FDF73EFDA368A784AD
:10493000B3F5805FE78406466AD0E28C002392B22A
:1049400084F83C30236892B1691C25D11A6812069C
:10495000FCD5B8F1000F25D018F8012B5A60E28C75
:10496000013A92B2E284E28C92B2002AECD1681C45
:104970004AD11A685106FCD5202384F83D30002026
:10498000BDE8F8830120BDE8F88385B1FDF70CFD93
:10499000801B854223680AD31A681706F5D5B8F13B
:1049A000000FD9D139F8022BC2F30802D6E703F180
:1049B0000C0252E8002F22F4D07203F10C0040E800
:1049C00000210029F3D103F1140252E8002F22F054
:1049D000010203F1140040E800210029F3D1202353
:1049E00084F83D3084F83E30002384F83C300320C6
:1049F000BDE8F8830220BDE8F8837DB1FDF7D4FC63
:104A0000831B9D42236809D31A685206F5D5B3E784
:104A10002369002B91D1C14698468EE703F10C0221
:104A200052E8002F22F4D07203F10C0040E800217C
:104A30000029F3D103F1140252E8002F22F0010201
:104A400003F1140040E800210029F3D1C7E700BFBB
:104A50002DE9F843044690F83E00202840F0868077
:104A60008846002946D01646002A43D01F4694F8AF
:104A70003C30012B7AD0012384F83C304FF0000900
:104A80002223C4F8409084F83E30C4F83090FDF7FB
:104A90008BFCA368A685B3F5805FE685054668D0E4
:104AA000E38D00229BB284F83C20EBB1781C236894
:104AB0002AD11A689106FCD5B8F1000F2AD0A26855
:104AC000B2F5805F04D0002A4CD12269002A49D176
:104AD0005B68DBB208F8013BE28D013A92B2E285F5
:104AE000E38D9BB2002BE1D1202384F83E300020DF
:104AF000BDE8F8830120BDE8F8838FB1FDF754FCD1
:104B0000401B874223680BD31A689206F5D5B8F18B
:104B1000000FD4D15B68C3F3080329F8023BDBE73D
:104B200003F10C0252E8002F22F4D07203F10C00C2
:104B300040E800210029F3D103F1140252E8002FCC
:104B400022F0010203F1140040E800210029F3D112
:104B5000202384F83D3084F83C1084F83E30032054
:104B6000BDE8F8835B6803F07F03B3E70220BDE88C
:104B7000F8832369002B93D1C146984690E700BF84
:104B800090F83E30202B25D111B30AB390F83C3079
:104B9000012B1FD010B4046981620023222103631A
:104BA00080F83C30C28582850364036880F83E103B
:104BB0001CB1DA6842F48072DA605A6910BC42F0C3
:104BC00001025A61DA6842F020020020DA60704780
:104BD0000120704702207047704700BF704700BF38
:104BE00008B5806B0023C385C384FFF7F7FF08BDBA
:104BF000704700BF83680168826AB3F5805F41D067
:104C0000002B38D04B6803F07F031370826A0132A7
:104C1000C38D8262013B9BB2C385002B31D10268F8
:104C2000D16821F0200100B5D160D16821F48071F4
:104C3000D16051694FF0200C21F00101516180F8E1
:104C40003EC0016B012983B025D1036302F10C033F
:104C500053E8003F23F0100302F10C0C4CE8003144
:104C60000029F3D11368DB061AD4818DFFF7C0FF4A
:104C700003B05DF804FB0369002BC3D14B68DBB2C2
:104C8000C3E770470369002BF8D14B68C3F30803EF
:104C900022F8023BBCE7FBF787FF03B05DF804FB9B
:104CA000002301931368019353680193019BDCE790
:104CB00030B503681A68DD68596912F00F0F83B0C8
:104CC00004466ED1910602D5A90600F19F80216BA2
:104CD00001290BD0100602D5290600F1A180520649
:104CE00002D5680600F1BB8003B030BDD006F1D517
:104CF000E906EFD5002201921A6801925A680192E2
:104D0000019A5A69550640F13481A06B02685268D5
:104D100092B2002AE8D0A18D9142E5D9E285C2691C
:104D2000B2F5807F36D003F10C0252E8002F22F456
:104D3000807203F10C0545E800210029F3D103F14D
:104D4000140252E8002F22F0010203F1140545E895
:104D500000210029F3D103F1140252E8002F22F0C0
:104D6000400203F1140545E800210029F3D1202277
:104D700084F83E20216303F10C0252E8002F22F058
:104D8000100203F10C0545E800210029F3D1FDF7DD
:104D9000C9FDA18DE38DC91A204689B2FFF728FF0E
:104DA000A2E711F0010178D115F4907F8FD0D007E0
:104DB0000AD5E80540F1D980206C40F0010020645C
:104DC00050075BD500296CD1900770D5100700F112
:104DD000C980216C002987D0910609D5AA0607D57C
:104DE00094F83E20222A03D12046FFF703FF2368D0
:104DF0005A69216C02F0400201F0080152EA0105F3
:104E00005CD12046FFF7EAFE25646DE790F83E305E
:104E1000222B7FF469AF03B0BDE83040FFF7EABE54
:104E200094F83D20212A7FF45FAFA168226AB1F592
:104E3000805F00F0D780511C216212785A60E28CAA
:104E4000013A92B2E284002A7FF44EAFDA6822F08F
:104E50008002DA60DA6842F04002DA6044E7DA6839
:104E6000202122F04002DA60204684F83D10FFF74E
:104E7000B3FE39E7E8059FD4500712D4900716D542
:104E80000029A3D0216C41F0040121641107A0D5B1
:104E9000216C41F0080121649BE7D007EAD4500758
:104EA0005BD5206C40F0020020649007EAD4100724
:104EB0008FD505F0200008438BD0E9E703F10C0201
:104EC00052E8002F22F4907203F10C0040E8002118
:104ED0000029F3D103F1140252E8002F22F001025D
:104EE00003F1140040E800210029F3D1226B012ACC
:104EF00022D00022202184F83E1022635A695506F0
:104F000027D503F1140252E8002F22F0400203F1EA
:104F1000140040E800210029F3D1A06BC8B1374B41
:104F20000365FDF749FD00283FF4DEAEA06B036D7D
:104F300003B0BDE83040184703F10C0252E8002FDF
:104F400022F0100203F10C0040E800210029F3D107
:104F5000CFE72046FFF742FEC6E6910792D411073D
:104F600096D436E7A90693D433E750073FF52CAF24
:104F700084E7E18DE28DA08D92B289B2002A3FF4E0
:104F8000B3AE411A89B200293FF4AEAE03F10C0270
:104F900052E8002F22F4907203F10C0545E800203E
:104FA0000028F3D103F1140252E8002F22F001028D
:104FB00003F1140545E800200028F3D1202284F8ED
:104FC0003E20206303F10C0252E8002F22F0100271
:104FD00003F10C0545E800200028F3D12046FFF737
:104FE00007FE81E6216900297FF425AF32F8021B14
:104FF000C1F308015960226221E700BFE14B0008BC
:105000002DE9F047089D0C46002B4ED194468C4567
:105010008646B2FA82F262D94AB1C2F120039140C7
:1050200020FA03F30CFA02FC194300FA02FE4FEADD
:105030001C471FFA8CF6B1FBF7F44FEA1E4307FB3F
:10504000141143EA014304FB06F199420AD91CEB0F
:10505000030304F1FF3080F01281994240F20F8186
:10506000023C6344591A1FFA8EF3B1FBF7F007FBB9
:10507000101143EA014300FB06F69E420AD91CEBDD
:10508000030300F1FF3180F0FC809E4240F2F98082
:10509000634402389B1B40EA044000211DB1D34009
:1050A0000022C5E90032BDE8F0878B4205D90DB179
:1050B000C5E9000100210846F5E7B3FA83F10029AC
:1050C00046D1A34202D39042C0F0F080861A64EB2E
:1050D00003030120002DE6D0C5E90063E3E7002AC1
:1050E00040F09080A1EB0C044FEA1C481FFA8CF7AB
:1050F0000121B4FBF8F64FEA1E4308FB164443EACD
:10510000044307FB06F0984208D91CEB030306F1A1
:10511000FF3402D2984200F2CD8026461C1A1FFAB4
:105120008EF3B4FBF8F008FB104443EA044300FBA1
:1051300007F79F4208D91CEB030300F1FF3402D2AA
:105140009F4200F2B0802046DB1B40EA0640A5E704
:10515000C1F120068B4022FA06F71F4320FA06FC15
:1051600004FA01F343EA0C03F44000FA01F8380CA6
:105170004FEA1349B4FBF0FE1FFA87FC00FB1E4404
:1051800049EA04440EFB0CF9A14502FA01F20AD9DE
:105190003C190EF1FF3A80F08480A14540F28180F5
:1051A000AEF1020E3C44A4EB09041FFA83F9B4FBF0
:1051B000F0F300FB134449EA044403FB0CFCA44550
:1051C00007D93C1903F1FF3067D2A44565D9023BEA
:1051D0003C4443EA0E40A0FB0293A4EB0C049C4227
:1051E000CE469C4651D34ED055B1B8EB0E0364EB7E
:1051F0000C0404FA06F6CB401E43CC40C5E900641B
:10520000002150E7C2F1200320FA03F10CFA02FC5E
:1052100024FA03F394400C434FEA1C4800FA02FEC0
:105220001FFA8CF7B3FBF8F008FB1031230C43EAAC
:10523000014300FB07F1994208D91CEB030300F17D
:10524000FF362CD299422AD9023863445B1AA4B2A1
:10525000B3FBF8F108FB113344EA034401FB07F305
:10526000A34208D91CEB040401F1FF3613D2A34278
:1052700011D902396444E41A41EA004139E704468D
:10528000F0E6084606E7C845AED2B9EB020E63EB7E
:10529000070C0138A8E73146EDE7034699E73046A9
:1052A000D4E7D6467FE7634402384DE706462346F7
:1052B00008460FE7023E634430E700BF024A034955
:1052C000034800F0C9B800BF10000020A561000825
:1052D000200000200C4B4168994210B5044601D0D3
:1052E00000F060FFA168094B994202D0204600F00F
:1052F00059FFE168064B994204D02046BDE81040B2
:1053000000F050BF10BD00BF280D0020900D002000
:10531000F80D00202DE9F843314C324B3248DFF8CC
:10532000CC90DFF8CC80334F186000252946042349
:10533000082204F15C00304EE360C4E90055C4E982
:105340000455A5606566A56100F018FA04F15800DF
:10535000C4E90749C4E90987E66200F0E3FA29468F
:10536000264B6367082204F1C400C4E91A55C4E956
:105370001E552567C4F8CC50C4F8805000F0FEF9E3
:1053800004F1680304F1C000C4F88430C4E9229831
:10539000C4E9247600F0C6FA194BC4F8DC3029467B
:1053A00004F596700822C4E93455C4E93855C4F8A8
:1053B000D850C4F83451C4F8E85000F0DFF904F1D3
:1053C000D003C4E93D87C4F8F09004F59470C4F8A4
:1053D000FC60C4F8EC30BDE8F84300F0A3BA00BFAD
:1053E000280D0020600E0020BD520008ED56000878
:1053F00011570008515700087557000809000100AF
:105400001200020010B504460A4800F08FFA636BE0
:1054100023B9094B094A1B68626323B1BDE81040F8
:10542000044800F085BAFFF775FFBDE81040014859
:1054300000F07EBA700E0020600E0020D5520008E9
:10544000014800F073BA00BF700E0020014800F060
:105450006FBA00BF700E00202DE9F84380460F465A
:1054600016464FF00009D6E90154013D11D4A38935
:10547000012B05F1FF3508D9B4F90E30013321466F
:1054800003D04046B84749EA00096B1C04F16804A0
:10549000EDD13668002EE6D14846BDE8F88300BF5E
:1054A00070B5054688B008460C46FAF7A9FE214EAD
:1054B0006A6B059001214318CDE9066104A8022119
:1054C00004940393AC6801900291002A2ED0626E7E
:1054D000B4F90C30D60701D4980521D5990406D427
:1054E000626E43F4005322F40052A38162662846A0
:1054F00001AA214600F074FF636E00280CBF0A2544
:105500004FF0FF35DA0702D4A3899B0502D5284660
:1055100008B070BDA06D00F00BFA284608B070BD51
:10552000A06D00F003FAB4F90C30D7E72846FFF776
:1055300069FFCCE778880008024B01461868FFF73E
:10554000AFBF00BF1C0000202DE9F043664CD4F82B
:10555000008083B004460E4617461D46B8F1000F82
:1055600004D0D8F83430002B00F0A680022F05D0EC
:10557000012F00F2A580002DC0F2A280636EDA0731
:1055800051D52146404600F001FF216B41B104F1A5
:105590004003994202D0404600F038FA00232363CA
:1055A000B4F90CC000231CF0800FA36163605DD1CF
:1055B0002CF44A6C2CF0030C022FA4F80CC063D01E
:1055C00001AB6A462146404601F0F4F8A38918432E
:1055D000A081002D2ED0002E2DD0D8F83430002BF5
:1055E00037D0009AB4F90C302660AA421CBF43F4AD
:1055F0000063A381012F04BF43F00103A38113F0D3
:105600000802C4E9046528D0D90753D50022A26056
:10561000626E6D42D207A56123D49B0521D4A06D93
:1056200000F086F91DE0A3899B05AAD4A06D00F0C7
:105630007DF9A6E7009D284600F0E6FA0646002818
:1056400041D0A38943F08003A381D8F83430002BE4
:10565000C7D14046FFF7D6FEC3E7A260626ED2070D
:10566000DBD50025284603B0BDE8F083216940461C
:1056700000F0CCF9B4F90CC02CF44A6C2CF0030CFB
:10568000022FA4F80CC09BD100254CF00202A2818D
:10569000002204F14303A2600122C4E90432236022
:1056A000636ED807DED41CF4007FDBD1A06D00F060
:1056B0003FF9D7E7A560D1E74046FFF7A3FE55E7DE
:1056C0004FF0FF35CEE7DDF80090A94506D04846FB
:1056D00000F09AFA064608B14D46B2E7B4F90CC09C
:1056E0004FF0FF35D1E700BF1C00002010B50C467D
:1056F000B1F90E1000F0BCF8002803DB236D034461
:10570000236510BDA38923F48053A38110BD00BF7E
:105710002DE9F0410C46B1F90C101F46CB050546AA
:1057200016460BD421F48051A1813B46B4F90E10EA
:1057300032462846BDE8F04100F0B0B8B4F90E108A
:105740000223002200F07EF8B4F90C10EAE700BF53
:1057500010B50C46B1F90E1000F074F8B4F90C3025
:10576000421C0EBF23F4805343F480532065A38171
:1057700010BD00BFB1F90E1000F052B8830730B56C
:1057800047D0541E002A3ED0CAB2034601E0013C75
:1057900039D303F8012B9D07F9D1032C2CD9CDB2B5
:1057A00005EB05250F2C05EB054535D9A4F11002B5
:1057B00022F00F0C03F1100EE6444FEA121C1A46B9
:1057C000156055609560D56010327245F8D10CF1C6
:1057D000010214F00C0F03EB021204F00F0C13D0B3
:1057E000ACF1040323F003030433134442F8045BD5
:1057F0009A42FBD10CF003042CB1C9B21C4403F84B
:10580000011B9C42FBD130BD64461346002CF4D1F1
:10581000F9E703461446C0E71A46A446E0E700BF8E
:1058200038B5074D0022044608462A60FCF7C0F848
:10583000431C00D038BD2B68002BFBD0236038BD43
:10584000640E002038B50C46084D844611462046AB
:105850001A4600232B606446FCF7B6F8431C00D0C0
:1058600038BD2B68002BFBD0236038BD640E0020B0
:1058700038B50C46084D8446114620461A4600238A
:105880002B606446FCF7A8F8431C00D038BD2B6899
:10589000002BFBD0236038BD640E002038B50C46C9
:1058A000084D8446114620461A4600232B60644664
:1058B000FCF764F8431C00D038BD2B68002BFBD0EC
:1058C000236038BD640E0020014B1868704700BF8C
:1058D0001C00002070B50F4B0F4DAB42A3EB05062B
:1058E00007D0B610002455F8043B01349847A6426F
:1058F000F9D801F0ADFA094D094B5E1BAB424FEAF6
:10590000A60606D0002455F8043B01349847A64269
:10591000F9D870BD8488000884880008848800084D
:105920008C880008704700BF704700BF704700BFF9
:10593000704700BF024B13B1024800F005B8704732
:1059400000000000496A0008002301461A46184674
:1059500001F09CB82DE9F84306460820894601F07D
:1059600087F8DFF89C800546304600F00FFCD8F839
:1059700008305F6827F00307A7F11104A4EB0904BE
:105980002C44B4FBF5F4013C05FB04F4A54208DC0F
:105990000021304601F046F8D8F808303B449842E0
:1059A00005D0304600F0F8FB0020BDE8F8836142E6
:1059B000304601F037F801300FD0124AD8F80830DD
:1059C0003F1B47F001075F60136830461B1B1360E5
:1059D00000F0E2FB0120BDE8F8830021304601F031
:1059E00021F8D8F80820831A0F2BDADD43F00103E1
:1059F0005360054B03491B68C01A0860D1E700BF1C
:105A000050010020780E00204401002000297CD0A5
:105A1000F8B50C46064600F0B9FB54F8043C774F45
:105A2000A4F1080523F001016818D7F808C04268FE
:105A3000844522F0030200F08380DB07426000EB24
:105A4000020C33D454F8084CDCF804302D1B2144EC
:105A5000AC6807F1080C644503F0010364D0D5F885
:105A60000CE0C4F80CE0CEF80840002B00F0818078
:105A700041F001036B600160B1F5007F22D27868CC
:105A8000CB080122490901338A40024357F83310F9
:105A90007A6007EBC302083AC5E9021247F83350AF
:105AA000CD603046BDE8F84000F076BBDCF804304D
:105AB000DB072BD541F00103B1F5007F44F8043C2E
:105AC0000160DCD3B1F5206F4FEA512353D28B092B
:105AD00003F1390003F13802C300F818FB58083805
:105AE000984203D163E09B68984204D05A6822F040
:105AF00003028A42F7D8D868C5E902308560DD60C4
