:020000040800F2
:100000000000022085230008251D0008291D000886
:100010002D1D0008311D0008351D000800000000DE
:10002000000000000000000000000000391D000872
:100030003D1D000800000000411D0008451D00088E
:10004000D5230008D5230008D5230008D5230008B0
:10005000D5230008D5230008D5230008D5230008A0
:10006000D5230008D5230008D5230008D523000890
:10007000D5230008D5230008D5230008D523000880
:10008000D5230008D5230008491D00080000000002
:10009000000000000000000000000000D523000860
:1000A000551D0008611D00086D1D0008791D000820
:1000B000851D0008911D0008D5230008D5230008E0
:1000C000D5230008D5230008D5230008D523000830
:1000D000D5230008D52300089D1D0008000000005E
:1000E000D5230008D5230008D52300080000000010
:1000F000000000000000000000000000D523000800
:1001000000000000D5230008D5230008D5230008EF
:1001100000000000000000000000000000000000DF
:10012000A91D0008D5230008D5230008D523000801
:10013000D5230008000000000000000000000000BF
:10014000000000000000000000000000D5230008AF
:10015000D5230008D5230008D5230008D52300089F
:10016000D5230008D523000800000000000000008F
:10017000000000000000000000000000000000007F
:1001800000000000D523000800000000000000006F
:08019000D5230008D523000867
:1001C00053B94AB9002908BF00281CBF4FF0FF31BE
:1001D0004FF0FF3000F00CB8ADF1080C6DE904CE23
:1001E00005F04EFADDF804E0DDE9022304B07047C3
:1001F000704700BF00000000000000000000000089
:1002000030B490F800F020F007016FF0000C10F00F
:10021000070491F820F040F048804FF000046FF0A0
:100220000700D1E9002391F840F000F1080082FABC
:100230004CF2A4FA8CF283FA4CF3A2FA8CF34BBB87
:10024000D1E9022382FA4CF200F10800A4FA8CF200
:1002500083FA4CF3A2FA8CF3E3B9D1E9042382FACE
:100260004CF200F10800A4FA8CF283FA4CF3A2FAE3
:100270008CF37BB9D1E9062301F1200182FA4CF21B
:1002800000F10800A4FA8CF283FA4CF3A2FA8CF382
:10029000002BC6D0002A04BF04301A4612BAB2FAA4
:1002A00082F200EBD20030BC7047D1E9002304F0A9
:1002B0000305C4F100004FEAC50514F0040F91F8DE
:1002C00040F00CFA05F562EA05021CBF63EA05037B
:1002D00062464FF00004AAE70000000000000000A2
:1002E00001F0FF01102A2BDB10F0070F08D010F8E7
:1002F000013B013A8B422DD010F0070F42B3F6D1EB
:10030000F0B441EA012141EA014122F007047FF003
:1003100000070023F0E80256083C85EA010586EA5A
:10032000010685FA47F5A3FA87F586FA47F6A5FA96
:1003300087F68EB9EED1F0BC01F0FF0102F00702A2
:1003400032B110F8013B013A83EA010313B1F8D14D
:100350000020704701387047002D06BF354603382E
:10036000073815F0010F07D1013015F4807F02BF67
:10037000013015F4C03F0130F0BC0138704700BFB8
:10038000844641EA000313F003036DD1403A41D3A0
:1003900051F8043B40F8043B51F8043B40F8043B5F
:1003A00051F8043B40F8043B51F8043B40F8043B4F
:1003B00051F8043B40F8043B51F8043B40F8043B3F
:1003C00051F8043B40F8043B51F8043B40F8043B2F
:1003D00051F8043B40F8043B51F8043B40F8043B1F
:1003E00051F8043B40F8043B51F8043B40F8043B0F
:1003F00051F8043B40F8043B51F8043B40F8043BFF
:1004000051F8043B40F8043B51F8043B40F8043BEE
:10041000403ABDD2303211D351F8043B40F8043B8E
:1004200051F8043B40F8043B51F8043B40F8043BCE
:1004300051F8043B40F8043B103AEDD20C3205D39E
:1004400051F8043B40F8043B043AF9D2043208D096
:10045000D2071CBF11F8013B00F8013B01D30B8808
:1004600003806046704700BF082A13D38B078DD0E6
:1004700010F003038AD0C3F10403D21ADB071CBFB8
:1004800011F8013B00F8013B80D331F8023B20F822
:10049000023B7BE7043AD9D3013A11F8013B00F85B
:1004A000013BF9D20B7803704B7843708B788370E3
:1004B0006046704781F0004102E000BF83F00043D6
:1004C00030B54FEA41044FEA430594EA050F08BFEF
:1004D00090EA020F1FBF54EA000C55EA020C7FEAB3
:1004E000645C7FEA655C00F0E2804FEA5454D4EB30
:1004F0005555B8BF6D420CDD2C4480EA020281EAFA
:10050000030382EA000083EA010180EA020281EA31
:100510000303362D88BF30BD11F0004F4FEA013183
:100520004FF4801C4CEA113102D0404261EB410192
:1005300013F0004F4FEA03334CEA133302D0524218
:1005400063EB430394EA050F00F0A780A4F10104D4
:10055000D5F1200E0DDB02FA0EFC22FA05F280180E
:1005600041F1000103FA0EF2801843FA05F35941F4
:100570000EE0A5F120050EF1200E012A03FA0EFC73
:1005800028BF4CF0020C43FA05F3C01851EBE3719D
:1005900001F0004507D54FF0000EDCF1000C7EEBBA
:1005A00000006EEB0101B1F5801F1BD3B1F5001FF8
:1005B0000CD349085FEA30004FEA3C0C04F1010417
:1005C0004FEA445212F5800F80F09A80BCF1004F40
:1005D00008BF5FEA500C50F1000041EB045141EAC2
:1005E000050130BD5FEA4C0C404141EB0101013C8B
:1005F00028BFB1F5801FE9D291F0000F04BF01467A
:100600000020B1FA81F308BF2033A3F10B03B3F14B
:1006100020020CDA0C3208DD02F1140CC2F10C02DB
:1006200001FA0CF021FA02F10CE002F11402D8BF39
:10063000C2F1200C01FA02F120FA0CFCDCBF41EA05
:100640000C019040E41AA2BF01EB0451294330BDD4
:100650006FEA04041F3C1CDA0C340EDC04F11404B1
:10066000C4F1200220FA04F001FA02F340EA030088
:1006700021FA04F345EA030130BDC4F10C04C4F1CE
:10068000200220FA02F001FA04F340EA03002946AE
:1006900030BD21FA04F0294630BD94F0000F83F4F8
:1006A000801306BF81F480110134013D4EE77FEADB
:1006B000645C18BF7FEA655C29D094EA050F08BF27
:1006C00090EA020F05D054EA000C04BF1946104608
:1006D00030BD91EA030F1EBF0021002030BD5FEA4C
:1006E000545C05D14000494128BF41F0004130BD74
:1006F00014F580043CBF01F5801130BD01F00045C8
:1007000045F0FE4141F470014FF0000030BD7FEA3A
:10071000645C1ABF194610467FEA655C1CBF0B4635
:10072000024650EA013406BF52EA033591EA030F4C
:1007300041F4002130BD00BF90F0000F04BF002144
:10074000704730B54FF4806404F132044FF0000577
:100750004FF0000150E700BF90F0000F04BF0021F0
:10076000704730B54FF4806404F1320410F0004556
:1007700048BF40424FF000013EE700BF42004FEA51
:10078000E2014FEA31014FEA02701FBF12F07F43CE
:1007900093F07F4F81F06051704732F07F4208BF85
:1007A000704793F07F4F04BF41F40021704730B58C
:1007B0004FF4607401F0004521F000411CE700BFD8
:1007C00050EA010208BF704730B54FF000050AE05B
:1007D00050EA010208BF704730B511F0004502D55C
:1007E000404261EB41014FF4806404F132045FEA5E
:1007F000915C3FF4D8AE4FF003025FEADC0C18BF07
:1008000003325FEADC0C18BF033202EBDC02C2F1F8
:10081000200300FA03FC20FA02F001FA03FE40EA8A
:100820000E0021FA02F11444BDE600BF70B54FF08E
:10083000FF0C4CF4E06C1CEA11541DBF1CEA13556C
:1008400094EA0C0F95EA0C0F00F0DEF82C4481EAD4
:10085000030621EA4C5123EA4C5350EA013518BFF4
:1008600052EA033541F4801143F4801338D0A0FBE1
:1008700002CE4FF00005E1FB02E506F00042E0FB8E
:1008800003E54FF00006E1FB03569CF0000F18BF94
:100890004EF0010EA4F1FF04B6F5007F64F540743C
:1008A00004D25FEA4E0E6D4146EB060642EAC621CF
:1008B00041EA55514FEAC52040EA5E504FEACE2E3C
:1008C000B4F1FD0C88BFBCF5E06F1ED8BEF1004F3F
:1008D00008BF5FEA500E50F1000041EB045170BDBB
:1008E00006F0004646EA010140EA020081EA0301FF
:1008F000B4EB5C04C2BFD4EB0C0541EA045170BDFB
:1009000041F480114FF0000E013C00F3AB8014F174
:10091000360FDEBF002001F0004170BDC4F10004BD
:10092000203C35DA0C341BDC04F11404C4F120053E
:1009300000FA05F320FA04F001FA05F240EA020099
:1009400001F0004221F0004110EBD37021FA04F6CF
:1009500042EB06015EEA430E08BF20EAD37070BD89
:10096000C4F10C04C4F1200500FA04F320FA05F0E8
:1009700001FA04F240EA020001F0004110EBD370EA
:1009800041F100015EEA430E08BF20EAD37070BD5A
:10099000C4F1200500FA05F24EEA020E20FA04F333
:1009A00001FA05F243EA020321FA04F001F00041E2
:1009B00021FA04F220EA020000EBD3705EEA430E53
:1009C00008BF20EAD37070BD94F0000F0FD101F082
:1009D0000046400041EB010111F4801F08BF013CBB
:1009E000F7D041EA060195F0000F18BF704703F0F9
:1009F0000046520043EB030313F4801F08BF013D80
:100A0000F7D043EA0603704794EA0C0F0CEA13553B
:100A100018BF95EA0C0F0CD050EA410618BF52EAF5
:100A20004306D1D181EA030101F000414FF00000FB
:100A300070BD50EA410606BF1046194652EA430609
:100A400019D094EA0C0F02D150EA013613D195EA7D
:100A50000C0F05D152EA03361CBF104619460AD1C5
:100A600081EA030101F0004141F0FE4141F47001CF
:100A70004FF0000070BD41F0FE4141F4780170BDBF
:100A800070B54FF0FF0C4CF4E06C1CEA11541DBF24
:100A90001CEA135594EA0C0F95EA0C0F00F0A7F826
:100AA000A4EB050481EA030E52EA03354FEA013153
:100AB00000F088804FEA03334FF0805545EA131366
:100AC00043EA12634FEA022245EA111545EA10652E
:100AD0004FEA00260EF000419D4208BF964244F1C5
:100AE000FD0404F5407402D25B084FEA3202B61AE4
:100AF00065EB03055B084FEA32024FF480104FF4B8
:100B0000002CB6EB020E75EB030E22BFB61A75462B
:100B100040EA0C005B084FEA3202B6EB020E75EBBE
:100B2000030E22BFB61A754640EA5C005B084FEA26
:100B30003202B6EB020E75EB030E22BFB61A7546F3
:100B400040EA9C005B084FEA3202B6EB020E75EBFE
:100B5000030E22BFB61A754640EADC0055EA060EBF
:100B600018D04FEA051545EA16754FEA06164FEA02
:100B7000C30343EA52734FEAC2025FEA1C1CC0D1AE
:100B800011F4801F0BD141EA00014FF000004FF03B
:100B9000004CB6E711F4801F04BF01430020B4F1FC
:100BA000FD0C88BFBCF5E06F3FF6AFAEB5EB030CB4
:100BB00004BFB6EB020C5FEA500C50F1000041EBB1
:100BC000045170BD0EF0004E4EEA113114EB5C047E
:100BD000C2BFD4EB0C0541EA045170BD41F4801151
:100BE0004FF0000E013C90E645EA060E8DE60CEA59
:100BF000135594EA0C0F08BF95EA0C0F3FF43BAF76
:100C000094EA0C0F0AD150EA01347FF434AF95EA2C
:100C10000C0F7FF425AF104619462CE795EA0C0F10
:100C200006D152EA03353FF4FDAE1046194622E7DD
:100C300050EA410618BF52EA43067FF4C5AE50EAB7
:100C400041047FF40DAF52EA43057FF4EBAE12E7A7
:100C50004FF0FF3C06E000BF4FF0010C02E000BF88
:100C60004FF0010C4DF804CD4FEA410C7FEA6C5C6B
:100C70004FEA430C18BF7FEA6C5C1BD001B050EA0E
:100C8000410C0CBF52EA430C91EA030F02BF90EAF9
:100C9000020F0020704710F1000F91EA030F58BFB8
:100CA000994208BF90422CBFD8176FEAE37040F01A
:100CB000010070474FEA410C7FEA6C5C02D150EAB8
:100CC000013C07D14FEA430C7FEA6C5CD6D152EA73
:100CD000033CD3D05DF8040B704700BF8446104638
:100CE00062468C461946634600E000BF01B5FFF737
:100CF000B7FF002848BF10F1000F01BD4DF808ED07
:100D0000FFF7F4FF0CBF012000205DF808FB00BFD7
:100D10004DF808EDFFF7EAFF34BF012000205DF831
:100D200008FB00BF4DF808EDFFF7E0FF94BF01207E
:100D300000205DF808FB00BF4DF808EDFFF7CEFF7F
:100D400094BF012000205DF808FB00BF4DF808EDBE
:100D5000FFF7C4FF34BF012000205DF808FB00BF8F
:100D60004FEA410C7FEA6C5C02D150EA013C0AD1A7
:100D70004FEA430C7FEA6C5C02D152EA033C02D199
:100D80004FF0000070474FF0010070474FEA4102FA
:100D900012F5001215D211D56FF47873B3EB6252CD
:100DA00012D94FEAC12343F0004343EA505311F0F4
:100DB000004F23FA02F018BF404270474FF0000086
:100DC000704750EA013005D111F0004008BF6FF0C4
:100DD000004070474FF00000704700BF0348044BCD
:100DE000834202D0034B03B118477047C40600206A
:100DF000C4060020000000000548064B1B1AD90F4E
:100E000001EBA301491002D0034B03B1184770470F
:100E1000C4060020C40600200000000010B5064CE7
:100E2000237843B9FFF7DAFF044B13B10448AFF35B
:100E300000800123237010BDC806002000000000C0
:100E400088C5000808B5054B1BB105490548AFF337
:100E50000080BDE80840FFF7CFBF00BF00000000E2
:100E6000CC06002088C50008B0F90000B1F90030B8
:100E7000C01A70472DE9F0432C4BC7B018600546E7
:100E80004FF48C720021684605F0D4FAADF10204EB
:100E90006E460DF126082B8824F8023FB5F802E0D3
:100EA000B5F804C0EF8829896A89AB89A4F828E0DD
:100EB0000F20A4F850C0A4F87870A4F8A010A4F8EB
:100EC000C820A4F8F03001F0D7FA4445E3D1184D1A
:100ED000184CDFF86490DFF8648046AF30464B462C
:100EE0000222142104F02AFDB6F91420B6F91230BA
:100EF000134403EBD37288FB03012836DB1752102F
:100F0000C3EB2113BE4245F8042F44F8043FE5D15A
:100F10000B4C0C4E04F1180554F8041F304605F034
:100F2000FFF8A542F8D147B0BDE8F083E406002001
:100F30000C070020F0060020690E00086766666650
:100F400010070020A0C50008314B324832491A680A
:100F5000036830B40D68314CA2EB030CAC4594F936
:100F6000003006DD2E4D053B4FF0010C5BB285F8DD
:100F700000C04568A2EB050C4D68654506DA284DB2
:100F8000033B4FF0010C5BB285F801C08568A2EB12
:100F9000050C8D68654506DA214D013B4FF0010CCB
:100FA0005BB285F802C0C568A2EB050CCD68AC4504
:100FB00006DD1B4D01334FF0010C5BB285F803C019
:100FC0000569A2EB050C0D69AC4506DD144D033334
:100FD0004FF0010C5BB285F804C04569A2EB050C2B
:100FE0004D69AC4506DD0E4D05334FF0010C5BB28B
:100FF00085F805C080698969121A914204DA084AA5
:101000000121073391715BB22370044830BC7047F3
:10101000E406002010070020F4060020E806002067
:10102000EC060020024A034B10601960704700BFB5
:10103000300700202C07002030B53F483F490160B1
:101040000122002385B04FF480310261027680F8DE
:1010500030203B4A80F82030CDE90033CDE902331F
:10106000C0E90113C36043610023C0E90A230723D9
:10107000C36101F013FA002845D1002401250123A2
:101080002D4802936946CDE9004501F08BFC00280C
:101090004FD10122022328486946CDE9002301F0FF
:1010A00081FC002842D10422032323486946CDE96C
:1010B000002301F077FC002835D1052204231E48C7
:1010C0006946CDE9002301F06DFC48BB06220523EB
:1010D00019486946CDE9002301F064FCE8B907220C
:1010E000062315486946CDE9002301F05BFC88B969
:1010F0000822072310486946CDE9002301F052FC7D
:1011000020B905B030BD00F095FAB6E700F092FACC
:1011100005B030BD00F08EFAEAE700F08BFADEE7AA
:1011200000F088FAD2E700F085FAC6E700F082FA0C
:10113000B9E700F07FFAACE79807002000200140F3
:101140000100000F70B5334B02688AB000249A4248
:10115000CDE90444CDE90644089401D00AB070BD3D
:1011600003F58C3301945A6C2B4E42F480725A640E
:101170005A6C02F480720192019A02941A6B42F046
:1011800001021A631A6B02F001020292029A03949E
:101190001A6B42F002021A631B6B03F00203039303
:1011A000F322032304A905461C48CDE90423039B2D
:1011B00001F028FF012203231948069404A9CDE970
:1011C000042301F01FFF174A74624FF48063C6E9DD
:1011D000002433614FF400624FF40053C6E9052345
:1011E00030464FF48073C6E90244C6E9073401F083
:1011F00005FD58B90022AE6311461220B56301F017
:101200009BFC122001F0D4FC0AB070BD00F012FA71
:10121000F0E700BF0020014034070020000002403A
:10122000000402401064024000B583B000220A4B63
:101230000192196B41F4800119631B6B03F4800365
:10124000019338201146019B01F076FC382003B051
:101250005DF804EB01F0ACBC0038024070B500242E
:101260008AB0CDE90444CDE90644244B01940894A6
:101270001A6B234D234E42F080021A631A6B02F060
:1012800080020192019A02941A6B42F001021A63E1
:101290001A6B02F001020292029A03941A6B42F056
:1012A00002021A631B6B03F00203039322462846D3
:1012B0004FF47041039B02F02DF8224630464FF464
:1012C000F85102F027F8002428464FF47042012319
:1012D000002504A9CDE90423CDE9064501F092FEDD
:1012E0004FF4F852012304A93046CDE90645CDE973
:1012F000042301F087FE0AB070BD00BF0038024031
:1013000000040240000002400B480C4910B50023C5
:101310000B4C04604FF4804241608360C360026103
:1013200043618361C361036202F0E0F800B910BD5C
:10133000BDE8104000F07EB9E0070020A086010063
:101340000054004030B5184B026889B000249A421E
:10135000CDE90244CDE90444069401D009B030BD82
:10136000124D00942B6B124843F002032B632B6B3E
:1013700003F002030093C0221223CDE902230323CA
:10138000059302A904230693009A01F03BFE019401
:101390002B6C43F400132B642B6C03F400130193A8
:1013A000019B09B030BD00BF00540040003802402E
:1013B0000004024008B50268094B9A4200D008BDFB
:1013C000084A0948136C23F400134021136401F008
:1013D0000DFFBDE808400448802101F007BF00BFB1
:1013E00000540040003802400004024010B50023C1
:1013F00094B0CDE90A33CDE90C33CDE90333CDE91F
:101400000533204901930793086C1F4A40F0805030
:101410000864096C01F080510191019902931368ED
:1014200043F440431360136801204FF4803103F408
:101430004043CDE9080102934FF480010224CDE935
:101440000E41029804210220CDE912010C226023F2
:1014500008A81092119302F0ABFB08B172B6FEE738
:101460000F210346CDE903144FF4805203A8032152
:10147000CDE90532079302F0B1FD08B172B6FEE77F
:1014800014B010BD003802400070004008B500F0F4
:10149000C7FF2B4800F0B8FBFFF7A8FFFFF7DEFE01
:1014A000FFF7C2FEFFF7C8FDFFF72EFF00F0B6FC06
:1014B00000F010FE00F07EFE00F00AFF21492248F5
:1014C000FFF7B0FD07222149214801F0F5F832214C
:1014D0001F4801F08FF80C211E4803F0AFF80522D9
:1014E0001D49174803F08CFE1848FFF7C3FC002184
:1014F0001A4802F017FF0021164802F013FF0421DA
:10150000164802F00FFF0421124802F00BFF3220B0
:1015100000F092F8322000F099F8322000F0A0F8A4
:10152000322000F0A7F800F0C1FA802000F032F974
:10153000002000F0E9F8002000F06EF9FEE700BF9F
:10154000B80D00203408002038080020440800208E
:1015500098070020DC0C00203C080020240D00200F
:10156000184B834200D0704770B5174BDB7843B1FE
:10157000012B18D0BDE8704013491248052203F032
:101580003FBE1248124C134E04F032FE04F10C051B
:1015900034F8021F304604F0C3FDAC42F8D10A20F3
:1015A00004F0D2FDE6E7FFF7CFFC04460A4804F05A
:1015B0001FFE94F9012094F90010084804F0B0FDD2
:1015C000D8E700BFB80D00203C080020A8C50008DF
:1015D00044080020B8C50008BCC50008CCC50008F8
:1015E0000F4B02689A4200D0704710B50D4C23781B
:1015F0004BB90D4A0D4812680821536202F062FF90
:101600000123237010BD0821084802F0DBFF064BC0
:10161000074A19680223496A2370116010BD00BF90
:101620000004004034080020700D0020DC0C002075
:101630003808002072B6FEE7034BC0EB00101B68B1
:1016400040005863704700BFDC0C0020034BC0EB28
:1016500000101B6840009863704700BFDC0C00203E
:10166000034BC0EB00101B6840009863704700BF3D
:10167000240D0020034BC0EB00101B684000586392
:10168000704700BF240D0020F0B58BB001460A233F
:1016900000938DF80D101A480024022303AA782124
:1016A0008DF80C4002F004F8022801D00BB0F0BD18
:1016B0001348144D01F0E2FF40260323114808941B
:1016C000112704A9CDE90643CDE9046701F09AFC8E
:1016D000082400224021284601F01CFE002000F0D2
:1016E000CBFE01224021284601F014FE631E13F0B8
:1016F000FF04EED1024801F0F9FE0BB0F0BD00BFCF
:10170000E00700200004024030B5044689B048B12B
:10171000012801D009B030BDA72009B0BDE8304094
:10172000FFF7B2BF0A234FF426410093ADF808102B
:101730001648022302AA782101F0BAFF0228E9D153
:101740001248134D01F09AFF402111220323039107
:101750000F48059403A907940492069301F052FCE4
:10176000082400224021284601F0D4FD002000F08A
:1017700083FE01224021284601F0CCFD631E13F0B8
:10178000FF04EED1014801F0B1FEC3E7E0070020FD
:101790000004024030B589B001460A2300938DF859
:1017A0000A101B4848F27814032302AA7821ADF8E6
:1017B000084001F07DFF022801D009B030BD144877
:1017C000144D01F05BFF0023402411220593079381
:1017D0001048032303A9CDE90342069301F012FC4C
:1017E000082400224021284601F094FD002000F04A
:1017F00043FE01224021284601F08CFD631E13F0B8
:10180000FF04EED1024801F071FE09B030BD00BF07
:10181000E00700200004024030B5044689B060B102
:10182000012801D009B030BDC020FFF72DFFA02056
:1018300009B0BDE83040FFF727BF0A234FF4484105
:101840000093ADF808101A48022302AA782101F08B
:101850002FFF022805D0A12009B0BDE83040FFF7D6
:1018600013BF1348134D01F009FF40211122032338
:1018700003911048059403A907940492069301F07C
:10188000C1FB082400224021284601F043FD00202E
:1018900000F0F2FD01224021284601F03BFD631ECD
:1018A00013F0FF04EED1024801F020FED3E700BFA1
:1018B000E0070020000402402DE9F04F784B794EFC
:1018C000794DABB01C4603F10809C3F1B00B0027FA
:1018D0004FF00A080BEB04018DF81110CDF80080D1
:1018E000022304AA782130468DF8107001F0E0FE42
:1018F000022800F0AC80CDF80080022304AA7821F1
:101900003046ADF8107001F0D3FE022878D04FF4C5
:101910008051ADF81010CDF80080022304AA782180
:10192000304601F0C5FE022843D00DF12702002306
:1019300014F8331002F8011F0133802BF8D1322242
:10194000CDE901320AAB00934022012378213046D1
:1019500002F03CF8022805D001344C45BAD12BB036
:10196000BDE8F08F304601F089FE40221123CDE919
:10197000052305A90323284609970797089301F033
:1019800041FB4FF0080A00224021284601F0C2FC2A
:10199000002000F071FD01224021284601F0BAFC30
:1019A0000AF1FF3313F0FF0AEDD1304601F09EFD3E
:1019B000D2E7304601F062FE40211123CDE9051344
:1019C0002846032305A909970797089301F01AFBF6
:1019D0004FF0080A00224021284601F09BFC00201D
:1019E00000F04AFD01224021284601F093FC0AF153
:1019F000FF3313F0FF0AEDD1304601F077FD94E795
:101A0000304601F03BFE40201123CDE9050305A936
:101A10000323284609970797089301F0F3FA4FF03C
:101A2000080A00224021284601F074FC002000F042
:101A300023FD01224021284601F06CFC0AF1FF330E
:101A400013F0FF0AEDD1304601F050FD5FE730465C
:101A500001F014FE4FF0400C1123CDE905C305A998
:101A60000323284609970797089301F0CBFA4FF014
:101A7000080A00224021284601F04CFC002000F01A
:101A8000FBFC01224021284601F044FC0AF1FF330F
:101A900013F0FF0AEDD1304601F028FD2BE700BF1F
:101AA00054080020E00700200004024030B5052063
:101AB00089B000F0E1FCE320FFF7E6FDAE20FFF780
:101AC000E3FD642000F0D8FC0020FFF7DDFD1020CE
:101AD000FFF7DAFD0020FFF7D7FDB020FFF7D4FDB8
:101AE0008120FFF7D1FDFF20FFF7CEFDA120FFF7FA
:101AF000CBFDA620FFF7C8FDC820FFF7C5FDD3200A
:101B0000FFF7C2FD0020FFF7BFFDD520FFF7BCFDAA
:101B10008020FFF7B9FDD920FFF7B6FD1F20FFF7A2
:101B2000B3FDA820FFF7B0FD3F20FFF7ADFDDA20A1
:101B3000FFF7AAFD1220FFF7A7FD0A2300932F4805
:101B40004FF45B44022302AA7821ADF8084001F06B
:101B5000AFFD02282AD04020FFF796FD8D20FFF729
:101B600093FD1420FFF790FD254B0022C3E90022CE
:101B7000C3E90222C3E90422C3E90622C3E9082219
:101B8000C3E90A22C3E90C22C3E90E22082101316C
:101B90008029C3E9102203F10803F8D1FFF78CFE76
:101BA000AF2009B0BDE83040FFF76EBD1348154DBA
:101BB00001F064FD0023402411220593079311488E
:101BC000032303A9CDE90342069301F01BFA08247D
:101BD00000224021284601F09DFB002000F04CFC33
:101BE00001224021284601F095FB631E13F0FF04FB
:101BF000EED1024801F07AFCADE700BFE00700201B
:101C0000540800200004024030B4064B06491D6809
:101C1000044600230C60A868022230BC194604F078
:101C2000EFBA00BF18000020D40C0020022801D811
:101C30000120704708B504F0A3FC092303600020CD
:101C400008BD00BF0138012810B50CD81446094A58
:101C50004FF0FF331068A2B203F08AF900280CBFDE
:101C60002046052010BD04F08BFC092303604FF0D3
:101C7000FF3010BDD40C0020022801D8002070478E
:101C800008B504F07DFC092303604FF0FF3008BD68
:101C900008B504F075FC092303604FF0FF3008BD60
:101CA00008B558B9094A4FF0FF331068012203F014
:101CB0000FFA002814BF0520012008BD04F060FCC5
:101CC000092303604FF0FF3008BD00BFD40C002093
:101CD000022808B504D84FF400534B60002008BD1B
:101CE00004F04EFC09230360002008BD82B00C4BB9
:101CF000002100915A6C42F480425A645A6C02F4FA
:101D000080420092009A01911A6C42F080521A644B
:101D10001B6C03F080530193019B02B0704700BF1E
:101D200000380240FEE700BFFEE700BFFEE700BF4D
:101D3000FEE700BFFEE700BF704700BF704700BF6F
:101D4000704700BF00F086BB014800F059BD00BFDE
:101D500098070020014802F069BF00BF700D002005
:101D6000014802F063BF00BF700D0020014802F07F
:101D70005DBF00BF700D0020014802F057BF00BFDB
:101D8000700D0020014802F051BF00BF240D00205B
:101D9000014802F04BBF00BFDC0C0020014803F0FB
:101DA000C7BA00BFB80D0020014801F055B800BF08
:101DB000340700200120704708B504F0E1FB16232A
:101DC00003604FF0FF3008BD08B504F0D9FB1623BF
:101DD0000360FEE70C490D4A0B6810B50C4C121B52
:101DE0002BB11844904207D80860184610BD094B23
:101DF0000B6018449042F7D904F0C2FB0C23036037
:101E00004FF0FF33184610BDD80C00200000022010
:101E10000004000018110020704700BF30B50024F6
:101E200097B0202221460EA8CDE90344CDE907440E
:101E3000CDE90944CDE90B4402940094069405943D
:101E4000019404F0F7FA2E482E4A046140F2E73379
:101E5000C0E900234BF67E33C0E90243446184614C
:101E600002F07AF9002838D14FF4805324480293C5
:101E700002A902F029FE00283FD1214802F0E0F932
:101E8000002837D1002200231D486946CDE90023F0
:101E900002F076FF58BB002260230024002518487A
:101EA000069306A9CDE90A45CDE9072209920C92CD
:101EB00002F018FDC0B9002300244FF4005510486B
:101EC00015930EA9CDE91245CDE90E33CDE91033B6
:101ED00002F08EFF20B917B030BDFFF7ABFBC3E7B0
:101EE000FFF7A8FB17B030BDFFF7A4FBE3E7FFF750
:101EF000A1FBD0E7FFF79EFBC4E7FFF79BFBBCE726
:101F0000700D00200000014010B503683E4A8AB001
:101F100000249342CDE90444CDE90644089407D057
:101F2000B3F1804F31D0394A934244D00AB010BD4A
:101F3000374B0094596C41F0010159645B6C03F01C
:101F400001032246214600931820009B00F0F4FD77
:101F5000182000F02DFE22462146192000F0ECFD4D
:101F6000192000F025FE224621461A2000F0E4FD4B
:101F70001A2000F01DFE224621461B2000F0DCFD49
:101F80001B2000F015FE0AB010BD03F50E330194BE
:101F9000196C41F0010119641B6C03F00103224626
:101FA000214601931C20019B00F0C6FD1C2000F07F
:101FB000FFFD0AB010BD164B02941A6C154842F092
:101FC00002021A641A6C02F002020292029A03944C
:101FD0001A6B42F002021A631B6B03F002030393B5
:101FE00002220223CDE9042304A902230893039AC1
:101FF00001F008F8224621461D2000F09DFD1D201D
:1020000000F0D6FD0AB010BD000001400004004001
:10201000003802400004024030B503688BB0002451
:10202000B3F1804FCDE90444CDE90644089404D0CF
:10203000244A93422FD00BB030BD03F50E330194E8
:102040001A6B214842F001021A631A6B02F0010276
:102050000192019A02941A6B42F002021A631B6BFE
:1020600003F002030293012504A94FF40042022366
:10207000CDE904230895029B00F0C4FF0822022347
:102080001248089504A9CDE90423CDE9064400F0DF
:10209000B9FF0BB030BD0E4B03941A6B0B4842F0E6
:1020A00002021A631B6B03F0020303933024022322
:1020B000022504A9CDE90445039A089300F0A2FF84
:1020C0000BB030BD0004004000000240000402409C
:1020D0000038024030B536488FB00023CDE90233D6
:1020E000CDE90433CDE90033CDE90633CDE908333A
:1020F000CDE90A330C938360036183614FF0804222
:102100006323C0E9002340F6B733C36002F024F82C
:10211000002833D14FF480532548029302A902F0DE
:10212000D3FC002840D1224802F08AF8002838D198
:10213000002200231E486946CDE9002302F020FE5C
:1021400060BB0022602400251948089206A9CDE949
:1021500006450A9202F0C6FBE8B91548042206A912
:1021600002F0C0FBA0B91248082206A902F0BAFB8F
:1021700038B90F48FFF750FF0FB030BDFFF75AFADC
:10218000C8E7FFF757FA0A48FFF746FF0FB030BD20
:10219000FFF750FAE7E7FFF74DFADEE7FFF74AFAF5
:1021A000CFE7FFF747FAC3E7FFF744FABBE700BF03
:1021B000240D002010B54448444A92B00023CDE9D4
:1021C0000233CDE90433CDE90033CDE90A33CDE95B
:1021D0000C33CDE90E33CDE90633CDE90833109346
:1021E0008360036183616323C0E9002340F6B73352
:1021F000C36001F0B1FF002846D14FF4805332484C
:10220000029302A902F060FC002859D12E4802F086
:1022100017F8002851D12C4802F0E2F8002849D1E3
:102220000022002328486946CDE9002302F0A8FDDA
:1022300000283CD160200021CDE90A01002222487B
:102240000C920AA90E9202F04DFB68BB1E480422B4
:102250000AA902F047FB20BB1B4808220AA902F08A
:1022600041FBD8B901220A24CDE9064200231648D1
:1022700006A90C22CDE9083302F068FA38B91248F1
:10228000FFF7CAFE12B010BDFFF7D4F9B5E7FFF7AC
:10229000D1F90D48FFF7C0FE12B010BDFFF7CAF923
:1022A000E0E7FFF7C7F9D7E7FFF7C4F9CEE7FFF795
:1022B000C1F9BFE7FFF7BEF9B2E7FFF7BBF9AAE73D
:1022C000FFF7B8F9A2E700BFDC0C002000040040D3
:1022D00010B50B480B4C00234FF4E1310C22C0E940
:1022E0000041C0E90233036142618361C36102F0CE
:1022F000ADFD00B910BDBDE81040FFF79BB900BFB0
:10230000B80D00200044004030B51C4B026889B075
:1023100000249A42CDE90244CDE90444069401D058
:1023200009B030BD03F5FA3300941A6C144842F436
:1023300000321A641A6C02F400320092009A01947E
:102340001A6B42F001021A631B6B03F00103019345
:102350000C220223CDE9022302A9072303220693BC
:102360000592019D00F04EFE22462146262000F0F7
:10237000E3FB262000F01CFC09B030BD0044004007
:1023800000000240DFF834D00D480E490E4A002309
:1023900002E0D458C4500433C4188C42F9D30B4A19
:1023A0000B4C002301E013600432A242FBD3FFF781
:1023B00033FD04F0EBF8FFF769F8704700000220E6
:1023C00000000020C4060020F8C90008C80600204C
:1023D00014110020FEE7000038B50E4A0E4B1278AB
:1023E0001B6805464FF47A70B0FBF2F0B3FBF0F0D7
:1023F00000F0ECFB08B90F2D01D9012038BD0446CF
:10240000024629464FF0FF3000F096FB034B204672
:102410001D6038BD040000200000002008000020DE
:1024200008B50B4B1A6842F400721A601A6842F43D
:1024300080621A601A6842F480721A60032000F009
:1024400069FB0F20FFF7C8FFFFF750FC002008BD15
:10245000003C0240034A044B11681B780B44136094
:10246000704700BFFC0D002004000020014B1868DD
:10247000704700BFFC0D002038B50446FFF7F6FF9B
:10248000631C054602D0044B1B781C44FFF7EEFF8B
:10249000401BA042FAD338BD04000020002800F001
:1024A0009E8038B5056C04463DB1236CDB060CD527
:1024B000002384F83C30012038BDFEF743FE6564FC
:1024C000236C84F83C50DB06F2D4236C474A23F497
:1024D000885323F0020343F0020323645168236806
:1024E00021F44031516051686068014351605A687D
:1024F0002069A16822F480725A605A6842EA002278
:102500005A605A68E06822F040725A605A680A437A
:102510005A609A68A16A22F400629A609A6802433B
:102520009A60334A91429A6851D022F07062E06A10
:102530009A609A68114399609A6822F040529A60B2
:102540009A6802439A609A6822F002029A609A6836
:10255000217E42EA41029A6094F82020002A40D06D
:102560005A68616A42F400625A605A6822F4604212
:102570005A605A68013942EA41325A60DA6AE169BE
:1025800022F47002DA62DA6A013942EA0152DA624E
:102590009A68616922F400729A609A6894F830002F
:1025A00042EA40229A609A6822F480629A609A68AD
:1025B000002042EA81229A606064236C23F00303C6
:1025C00043F001032364002384F83C3038BD22F03B
:1025D00070629A609A6822F040529A60B3E70120D4
:1025E00070475A6822F400625A60C7E7002301402E
:1025F0000100000F03689A6870B50D465105044646
:1026000002D59B68DA052AD4FFF730FF22686B1CDD
:10261000064611462ED113689807FCD56FF01203B9
:102620000B60236C43F4007323648B6813F0405FEA
:1026300013D1237E8BB9CB6A13F4700F02D08B6851
:102640005A050AD4236C23F480732364236CDB04BF
:1026500003D4236C43F001032364002070BD036C9A
:10266000002243F0200380F83C200364012070BD69
:102670002268114613689B07D0D47DB1FFF7F6FEA0
:10268000801BA842F4D921680B6898070AD50B680B
:102690009A07F3D5C2E713689D07BFD413689E0756
:1026A0001146F8D4236C002243F0040384F83C2044
:1026B0002364032070BD00BF70B5054690F83C0050
:1026C00082B00023012801937BD02E68134601229B
:1026D00085F83C20B268D20714D4B26842F00102F7
:1026E000B260394A1068394AA2FB0020800C00EB26
:1026F00040000190019A2AB1019C013C019401988B
:102700000028F9D1B268D40503D5B26822F48072EA
:10271000B260B268D00740D5286C20F4E06020F0A9
:10272000010040F4807028647268520505D52A6C57
:1027300022F4405242F480522A642A6CA86B12F4AC
:1027400080521CBF6A6C22F006026A64002285F87F
:102750003C200A461E49C1631E4901641E49C164EA
:102760006FF022013160716841F080617160B16881
:1027700041F48071B16006F14C0100F0D5FA174BBD
:102780005B68DB0614D12B689A6812F0405F0CD1AD
:102790009A6842F080429A6007E02B6C43F0100385
:1027A0002B646B6C43F001036B64002002B070BDBE
:1027B0000B4A2B689342F8D19A6812F0405FF4D12B
:1027C000E6E7022002B070BD0000002083DE1B435C
:1027D00039290008ED2700082129000800230140BD
:1027E00000200140704700BF704700BF08B5806BF4
:1027F000FFF7FAFF08BD00BF704700BF704700BF7A
:10280000036870B51D685E68AA07044601D5B00666
:102810004DD4690701D5320617D4E90701D57206F0
:1028200004D4A90601D5720169D470BD1A68D00715
:10283000F7D5236C43F4803323642046FFF7DCFF95
:1028400023686FF001021A60EBE7226CD00603D414
:10285000226C42F4005222649A6812F4401F1ED186
:102860009A6B12F4401F02D09A68510517D45A6827
:10287000520514D49A6812F0405F10D1227E72B9CA
:102880005A6822F080025A60236C23F48053236438
:10289000236CD80503D4236C43F001032364204642
:1028A00000F036F923686FF00C021A60B5E7226C6D
:1028B000D10603D4226C42F4007222649A6812F0AA
:1028C000405F14D1227E92B9DA6A12F4700F23D1DC
:1028D0005A6822F020025A60236C23F48073236428
:1028E000236CD80403D4236C43F0010323642046F3
:1028F000FFF778FF23686FF012021A6089E7626CB5
:102900006FF0200542F00202626420461D60FFF76E
:1029100075FF23681D6070BD9A685205E7D4D7E73C
:10292000806B08B540230364436C43F004034364A5
:10293000FFF764FF08BD00BF836B1A6C12F0500FE5
:1029400010B51A6C23D142F4007219681A648A68AF
:1029500012F0405F17D11A7EAAB9CA6A12F4700F3A
:1029600002D08A6850050ED44A6822F020024A60DC
:102970001A6C22F480721A641A6CD10403D41A6C93
:1029800042F001021A641846FFF72CFF10BDD20670
:1029900004D49B6BBDE81040DB6C18471846FFF76A
:1029A0002DFF10BD70B590F83C3082B00246012B6F
:1029B0004FF00000019000F09E80012382F83C302F
:1029C0000D6813688C68092DA8B228D81E6905EB1C
:1029D000450E4FF0070C0CFA0EFC26EA0C061E61A1
:1029E0001E6904FA0EF434431C614C68062C04EB97
:1029F00084012AD85C6B05394FF01F0C88400CFA13
:102A000001F124EA01015963596B084358633B49BA
:102A10008B422BD0002082F83C0002B070BD00EB4E
:102A2000400CDE68ACF11E0C4FF0070E04FA0CF4FB
:102A30000EFA0CFC26EA0C06DE60DE683443DC602D
:102A40004C68062C04EB8401D4D90C2C1FD81C6BC9
:102A500023391F26884006FA01F124EA010119638F
:102A6000196B0843254918638B42D3D1122D1BD013
:102A7000234B9D4222D0112DCCD1224B596821F4F9
:102A800080015960596841F400015960C2E7DC6A6D
:102A900041391F26884006FA01F124EA0101D96272
:102AA000D96A0843D862B2E7164B596821F400018D
:102AB0005960596841F480015960ABE7114B124CE1
:102AC0005968124821F480015960596841F40001A5
:102AD00059602368A0FB03039B0C03EB83035B009B
:102AE0000193019B002B95D0019B013B0193019B1E
:102AF000002BF9D18EE7022002B070BD002001400A
:102B000012000010002301400000002083DE1B4360
:102B1000704700BF0749CA6803024FF6FF0003F47D
:102B2000E0630240134343F0BF6343F40033CB60E0
:102B3000704700BF00ED00E01B4BDB68C3F30223CE
:102B400000B5C3F1070EBEF1040F03F1040C28BF5A
:102B50004FF0040EBCF1060F1CD9A3F1030C4FF08B
:102B6000FF3303FA0CF322EA03024FF0FF3303FAB8
:102B70000EF321EA030303FA0CF313431B010028AD
:102B8000DBB20ADB00F1604000F5614080F8003301
:102B90005DF804FB00229446E7E7044A00F00F00CA
:102BA000024413765DF804FB00ED00E0FCEC00E06D
:102BB000002807DB4109044A00F01F00012383407D
:102BC00042F82130704700BF00E100E00138B0F169
:102BD000807F01D30120704710B44FF0E023064CF2
:102BE00058614FF0F00C84F823C0002207211046F2
:102BF0009A6110BC1961704700ED00E038B50446D9
:102C0000FFF734FC002C6FD023680022022184F8E7
:102C1000351084F834201A6822F0010205461A6043
:102C200005E0FFF723FC431B052B39D823681A68FE
:102C3000D107F6D4D4E90120E16802430A43D4E97C
:102C40000451A0692A430A43E1691D6802430A430B
:102C500032492940256A2A430A43616A042926D059
:102C60001A605A6922F007021143D8B22C4A5961FE
:102C70001038A2FB005212092A4923F47F73895CA1
:102C8000E16523F003035F2888BF04333F228A40B5
:102C9000A36500209A600123606584F8353038BD53
:102CA00003232022626584F83530184638BDD4E904
:102CB0000B512943114319605969A26A21F0070198
:102CC000114341F00401002DCFD078B1B0F5005F81
:102CD00016D0022A03D9032AC7D1EA01C5D540225A
:102CE0000123626584F83530012038BD012A03D004
:102CF00032F00202B9D1F0E7B5F1C07FB5D1EEE70D
:102D0000032AB2D801A050F822F000BFDF2C00083F
:102D1000DB2C0008DF2C0008F92C00083F8010F0A5
:102D2000ABAAAAAAECC5000870B490F83440856D2F
:102D3000012C0AD090F835404FF0010C644580F822
:102D400034C005D0002380F83430022070BC7047B6
:102D5000022680F83560046800264665266826F459
:102D60008026266063608368402B0EBFA260A1604E
:102D7000E260C26D08BFE1603F239340AB6023680F
:102D8000026C43F0160323601AB1236843F0080372
:102D90002360236843F001030020236070BC704768
:102DA00070B50446866DFFF761FB94F83530022B51
:102DB00006D080236365002384F83430012070BD81
:102DC00023681A6822F016021A605A6922F08002FB
:102DD0005A61226C054642B31A6822F008021A6052
:102DE0001A6822F001021A6005E0FFF73FFB431B5F
:102DF000052B10D823681B6813F00103F5D1E16D92
:102E00003F228A40184601210023B26084F8351021
:102E100084F8343070BD032320226265184684F89C
:102E20003530002384F8343070BDA26C002AD3D131
:102E3000D6E700BF90F83530022B03D080234365DE
:102E4000012070470268052380F83530136823F0AD
:102E50000103002013607047F0B583B0674A876DA7
:102E6000166800230193C36D3D6808229A402A42E8
:102E7000044603D001680868400778D401229A40CC
:102E80002A4203D02168496908066AD404229A407C
:102E90002A4203D02168096889075CD410229A402D
:102EA0002A4203D021680868000741D420229A40B2
:102EB0002A4214D021680868C00610D5BA6094F878
:102EC0003520052A63D00B6813F4802F0B687ED061
:102ED000190340F18980E36B0BB120469847636D7D
:102EE00023B3636DDA071AD522684549052384F8B0
:102EF00035301368A1FB061623F00103B60A1360F0
:102F000002E01368DB0704D5019B0133B342019350
:102F1000F7D90122002384F8352084F83430E36C9B
:102F200023B1204603B0BDE8F040184703B0F0BD20
:102F3000BA600A6812F4802F0A6822D1D20503D43D
:102F40000A6822F008020A60226C002AAED02046ED
:102F50009047E36DAAE7BA60626D42F004026265D1
:102F60009CE7BA60626D42F0020262658EE7086813
:102F700020F004000860BA60626D42F001026265F0
:102F80007CE71103E0D5A26C002AE0D18EE70A6845
:102F900022F016020A604A6922F080024A61226C1D
:102FA0003AB30A6822F008020A603F2202FA03F3E9
:102FB000216DBB600122002384F8352084F8343071
:102FC0000029B3D0204603B0BDE8F040084713F411
:102FD000807380D10A6822F010020A60012284F80E
:102FE000352084F8343076E7636C002B7FF475AFBE
:102FF00075E7A26C002AD4D1D7E700BF00000020FB
:10300000B5814E1B2DE9F04F00230C68714E85B041
:103010004FF0010B894602E00133102B7CD00BFAF4
:1030200003F202EA0408A243F6D1D9F8041001F031
:1030300003024FEA430C0325571E05FA0CF5012F36
:103040006FEA05056BD9032A40F0A680076802FAEB
:103050000CF23D402A4311F4403F0260DCD05E4D4B
:10306000002203926A6C42F480426A646A6C02F441
:1030700080420392039A23F0030202F1804202F598
:103080009C3203F003079568BF004FF00F0C0CFA59
:1030900007FC25EA0C05DFF844C1604519D00CF5A2
:1030A000806C604500F08380DFF834C1604500F03B
:1030B0008480DFF830C1604500F08580DFF828C1EA
:1030C00060450CBF4FF0040C4FF0070C0CFA07F7EB
:1030D0003D439560B2686FEA0805CF0254BF2A40AD
:1030E00048EA0202B260F2688F0254BF2A4048EAFE
:1030F0000202F26072688F0354BF2A4048EA02025B
:1031000072603268C90303F1010354BF2A4048EAE0
:103110000202102B326082D105B0BDE8F08F8768C3
:1031200007EA050ED9F80C7007FA0CF747EA0E0704
:103130008760476827EA080EC1F300179F4047EAF7
:103140000E074760C76807EA050ED9F8087007FA46
:103150000CF747EA0E07022AC7607FF477AFDF0853
:1031600000EB870701973F6A009703F0070ED9F835
:1031700010704FEA8E0E4FF00F0A07FA0EF70AFA98
:103180000EFEDDF800A02AEA0E0E47EA0E07DDF873
:1031900004E0CEF8207059E7C76807EA050ED9F8B1
:1031A000087007FA0CF747EA0E07C7604EE74FF0C2
:1031B000010C0CFA07F73D438BE74FF0020C0CFAB9
:1031C00007F73D4385E74FF0030C0CFA07F73D4343
:1031D0007FE700BF003C0140003802400000024091
:1031E00000080240000C0240001002402DE9F04FA0
:1031F0000023434F01264FF00F094FF0030B02E06D
:103200000133102B6AD006FA03F232EA010402EA13
:10321000010CF5D123F0030505F1804505F59C353A
:10322000DFF8E0A0D5F808E003F00304A40009FAF1
:1032300004F8504508EA0E0E52D00AF5806A50454F
:1032400050D0DFF8C4A050454FD0DFF8C0A05045A3
:1032500050D0DFF8BCA0504514BF4FF0070A4FF024
:10326000040A0AFA04F4A64513D13C6824EA0C04C3
:103270003C607C6824EA0C047C60FC6824EA0C0452
:10328000FC60BC6824EA0C04BC60AC6824EA080456
:10329000AC6005685C000BFA04F44FEAD30C25EA35
:1032A000040500EB8C0C056003F00705DCF820E05A
:1032B000AD0009FA05F52EEA0505CCF82050C568E1
:1032C00025EA0405C560456825EA02024260826875
:1032D000013322EA0402102B826094D1BDE8F08F02
:1032E0000024C0E706FA04F4BDE74FF0020A0AFA28
:1032F00004F4B8E74FF0030A0AFA04F4B3E700BF96
:10330000003C01400000024000080240000C024066
:103310000010024002B90904816170472DE9F04FA5
:10332000046883B099460C9F2368DDF834B00646E4
:1033300043F48073781C8A469046236040D16569C7
:10334000EA07FCD50AF0FE037D1C236103D047E0A9
:1033500063695A0560D461698907F9D5002301932F
:1033600063690193A36901937D1C019B6AD1636921
:10337000190679D463695A05F9D500236FF4806181
:1033800020226161336386F83D2086F83E30336C3D
:1033900043F004033364336C0022042B86F83C2092
:1033A0004ED13268136843F40073136048E0FFF7AE
:1033B0005DF8A0EB0B00874216D334682146A7B115
:1033C0006369DB07F3D5BDE76369580524D4FFF7CC
:1033D0004DF8A0EB0B0087426FD3002F6DD03468FF
:1033E00063699B07F0D5B9E7316800222023326377
:1033F00086F83D3086F83E20336C86F83C2043F05A
:10340000200333640B68D90502D54FF4007333648D
:10341000032003B0BDE8F08F236843F400732360FA
:10342000002220236FF480616161326386F83D30B1
:1034300086F83E20336C86F83C2043F00403336466
:103440000120E6E763691B060ED46369580594D42E
:10345000FFF70CF8A0EB0B039F423CD3002F3AD0B0
:10346000346863691B06F0D5B9F1010F06D15FFA24
:1034700088F30020236103B0BDE8F08F4FEA1823E2
:103480007D1C236106D163691906F0D463695A056E
:10349000F9D572E763691B06E9D4636958053FF5FE
:1034A0006CAFFEF7E3FFA0EB0B039F4213D397B182
:1034B000346863691B06F0D5D9E700222023326304
:1034C00086F83D3086F83E20336C86F83C2043F089
:1034D00020033364B4E700232022336386F83D20C1
:1034E00086F83E30336C1343336454E7002800F011
:1034F000B88070B590F83D30044603F0FF02002B11
:1035000000F098802368242284F83D201A6822F075
:1035100001021A601A6842F400421A601A6822F422
:1035200000421A6000F0F8FD65684F4B9D424FD88D
:103530004E4B98427CD94E4B6A00A3FB0035431E8C
:10354000B3FBF2F32268516821F03F0141EA954153
:103550005160116A4FEA954C0CF1010C21F03F01CA
:1035600041EA0C011162D16940F6FC70013321F48B
:103570004F41034221F0FF0161D104230B43D3618A
:10358000D4E907301168034321F0C0010B431360F5
:103590009168D4E9030321F40341034321F0FF01BF
:1035A0000B439360D4E90530D168034321F0FF0158
:1035B0000B43D3601168002341F00101202011600A
:1035C000236484F83D00236384F83E30184670BDC0
:1035D000284B98422CD92268254B274EA3FB003C50
:1035E000431E506820F03F0040EA9C4050604FEA84
:1035F0009C414FF4967000FB01F1A6FB0161106A3B
:10360000890920F03F00013101431162D169A068AE
:1036100021F44F4121F0FF01A0B905EB4505B3FBB3
:10362000F5F30133C3F30B03CBB143F40043A5E738
:10363000012070BD80F83C20FDF784FE62E7C3F3F3
:103640000B039BE705EB850505EB8505B3FBF5F360
:103650000133C3F30B0313B143F440438EE701235B
:103660008CE70120704700BFA08601007F841E0008
:1036700083DE1B43FF083D00D34D6210B0B10268EA
:10368000242310B580F83D30136823F0010304466D
:103690001360FDF78FFE0023236484F83C3084F828
:1036A0003D30236384F83E30184610BD012070473A
:1036B0002DE9F04F054683B099460C9F8846924607
:1036C000FEF7D4FE95F83D30202B03D0022003B046
:1036D000BDE8F08F064605E0FEF7C8FE801B1928FE
:1036E00000F21F812C68A3696FEA030C1CF0020B27
:1036F000F2D095F83C30012BE8D0012385F83C301E
:103700002368D90774D523688D4A23F400632360A6
:10371000212385F83D30102385F83E3000232B64AB
:10372000A5F82A906B8DEA622B85EB6AC5F824A078
:10373000082B06D0012B04D0934202D02B6B122B06
:1037400003D1236843F4807323607B1C4CD16369ED
:10375000D807FCD52B69B3F5804F4ED108F0FE0396
:103760002361781C04D0B6E063695A0500F1EA8051
:1037700063699907F8D50023019363690193A369ED
:10378000288D0193019B002800F08D80791C49D180
:1037900063691A065AD463695B05F9D500236FF48F
:1037A0008061202261612B6385F83D2085F83E30E1
:1037B0002B6C43F004032B642B6C0022042B85F844
:1037C0003C2040F0D3802A68136843F400731360F0
:1037D000CCE0FEF74BFE801B8742C0F0C9802C680E
:1037E0002346002F00F0C5806369D907F1D5B1E702
:1037F000236843F00103236085E74FEAE81303F0F1
:10380000060343F0F0037A1C236104D072E063697D
:10381000590500F1978063691807F8D55FFA88F3B6
:1038200023619EE7636919060FD463695805B5D40F
:10383000FEF71CFE801B8742C0F0AF80002F00F017
:10384000AC802C6863691906EFD5288DD5F824C0A3
:103850006146431E11F8012B22616A8D6962013AAB
:1038600092B26A8562699BB252072B850CD55BB117
:103870009CF8013023610CF102036B626B8D013BFC
:1038800002389BB228856B85781C37D1636959074C
:1038900005D463695A0581D463695907F9D5288D20
:1038A00000287FF473AF2368002043F400732022C4
:1038B000236085F83D2085F83C0085F83E0006E74A
:1038C00063695B053ED4FEF7D1FD801B87426FD351
:1038D000002F6DD02C6863699B07F1D54BE76369B6
:1038E0005B052FD4FEF7C2FD831B9F4260D3002FE0
:1038F0005ED02C6863691A07F1D58FE763695B07AF
:10390000CDD463695B053FF549AFFEF7AFFD801B82
:10391000874242D3002F40D02C6863695B07F0D503
:10392000BDE72023C5F830B085F83D3085F83EB0BE
:103930002B6C85F83CB043F020032B64C6E600BF37
:103940000000FFFF236843F400732360002220235C
:103950006FF4806161612A6385F83D3085F83E200F
:103960002B6C85F83C2043F004032B640120AEE669
:103970002B6800212022296385F83D2085F83E1020
:103980002A6C85F83C1042F020022A641B68DA0594
:10399000ECD54FF400732B64E8E7002320222B635F
:1039A00085F83D2085F83E302B6C13432B6403E7EC
:1039B000002220232A6385F83D3085F83E202B6CB9
:1039C00085F83C2043F020032B64CFE72DE9F04F2E
:1039D000044683B09946BDF834A00E9E0F4690462B
:1039E000FEF744FD94F83D30202B04D002273846E2
:1039F00003B0BDE8F08F054605E0FEF737FD401B3C
:103A0000192800F29C80206883696FEA030C1CF07F
:103A1000020BF2D094F83C30012BE7D0012384F85C
:103A20003C300368DB0740F185803946076827F49E
:103A3000006707600C9860622120CDE9006584F87A
:103A40003D00402084F83E0000202064A4F82AA015
:103A5000608D20855548E0624B4642462046FFF780
:103A60005DFC074620BB228D2368002A48D0721CCB
:103A700020D15A6910062ED45A695105F9D5002271
:103A80006FF4806020215861226384F83D1084F82F
:103A90003E20236C43F004032364236C0022042B98
:103AA00084F83C2004D12268136843F40073136047
:103AB00001279CE75A6912060DD45A695105DED4D4
:103AC000FEF7D4FC401B864264D3002E62D02368EC
:103AD0005A691206F1D5D4F824C0B4F828E061463A
:103AE0000EF1FF3011F8012B1A61628D6162013A0B
:103AF00092B2628582B258692285400717D542B9D1
:103B0000721C2AD15A69500737D45A695105F9D520
:103B1000B5E79CF8011019610CF102016162618D39
:103B2000AEF10202013992B289B222856185002A82
:103B30009DD1E5E7036843F00103036075E72023A7
:103B4000C4F830B084F83D3084F83EB0236C84F87B
:103B50003CB043F02003236448E75A6952070CD471
:103B60005A6951058BD4FEF781FC431B9E4211D349
:103B700086B123685A695207F2D51A68002142F4C7
:103B8000007220201A6084F83D0084F83C1084F80C
:103B90003E102CE700232022236384F83D2084F884
:103BA0003E30236C1343236477E700BF0000FFFF20
:103BB000002800F0D8812DE9F0410368DD0782B0CC
:103BC00004462FD59D498A6802F00C02042A00F0B1
:103BD000EC808A6802F00C02082A00F0E280636838
:103BE000B3F5803F00F0EB80B3F5A02F00F07381B8
:103BF000924D2A6822F480322A602A6822F48022B8
:103C00002A60002B40F0E080FEF730FC064605E01D
:103C1000FEF72CFC801B642800F200812B689F03B8
:103C2000F6D423689D0728D5844A916811F00C0FBB
:103C300000F09B80916801F00C01082900F0918050
:103C4000E368002B00F00C817D4B7C4E01221A6052
:103C5000FEF70CFC054605E0FEF708FC401B0228B9
:103C600000F2DC8033689F07F6D53368226923F0C1
:103C7000F80343EAC203336023681A075CD45D0784
:103C80003AD56E4A136C13F0805340F0888001934C
:103C9000136C43F080531364136C03F0805301934F
:103CA000019B0125674E3368D80540F1A780A368C2
:103CB000012B00F0B780052B00F01D815F4E326FA5
:103CC00022F001023267326F22F004023267002BC9
:103CD00040F0AD80FEF7CAFB41F28838074605E0A8
:103CE000FEF7C4FBC01B404500F29880336F9B0772
:103CF000F6D4002D40F0F980A369CBB14F4DAA68EE
:103D000002F00C02082A00F0BC80022B4C4B4FF052
:103D100000021A6600F0F980FEF7A8FB044604E0F2
:103D2000FEF7A4FB001B022878D82B689B01F7D470
:103D3000002002B0BDE8F0816369FBB1404B3F4E0B
:103D40000122C3F8802EFEF791FB054604E0FEF742
:103D50008DFB401B022861D8736F9B07F7D5236842
:103D60008DE7526851023FF56BAF344A12689207F3
:103D700038D5E268012A35D00120DAE7304A2F4EE3
:103D8000C2F8803EFEF772FB054604E0FEF76EFBCC
:103D9000401B022842D8736F9F07F7D4DFE7002546
:103DA00080E74A6851027FF51AAF244A12689203ED
:103DB0007FF538AF6268002A7FF434AFDCE71F4A32
:103DC000136843F480331360FEF750FB1B4E054627
:103DD00004E0FEF74BFB401B64281FD833689B03AD
:103DE000F7D51EE7154920690A6822F0F80242EA71
:103DF000C0020A601A077FF542AF9DE7336843F4BB
:103E000080733360FEF732FB07463368D9053FF510
:103E10004EAFFEF72BFBC01B0228F6D9032002B0E1
:103E2000BDE8F081054A136F43F001031367FEF705
:103E30001DFB024F064641F288380AE00038024076
:103E40000000474200700040FEF710FB801B404519
:103E5000E4D83B6F9A07F7D5002D3FF44DAF44E00F
:103E6000424A434E1360FEF701FB054604E0FEF7AD
:103E7000FDFA401B0228D1D833689907F7D423688C
:103E8000FBE6012B3FF478AF6B68E26903F4800135
:103E900091427FF471AF226A03F03F0191427FF4B7
:103EA0006BAF616A47F6C0721A40B2EB811F7FF4B4
:103EB00063AFA26A520803F44031013AB1EB024FFA
:103EC0007FF45AAFE26A03F07063B3EB026F14BF82
:103ED000012000202DE7264B1A6842F480221A6048
:103EE0001A6842F480321A606EE7214A136C23F09C
:103EF0008053136400E71E4B1A6F42F004021A67E6
:103F00001A6F42F001021A6791E7FEF7AFFA064610
:103F100005E0FEF7ABFA801B02283FF67FAF2B6867
:103F20009901F6D4D4E90731626A0B4343EA82135C
:103F3000D4E90A21520843EA0163013A0B4943EAF2
:103F4000024301226B600A66FEF790FA084D0446B0
:103F500005E0FEF78BFA001B02283FF65FAF2B68E7
:103F60009A01F6D5E4E60120704700BF0000474201
:103F700000380240164908B58B6803F00C03042B87
:103F80001BD0082B17D14A684B68496813F480038B
:103F900002F03F0213D10F48C1F38811A1FB0001C9
:103FA000FCF70EF90A4B5B68C3F3014301335B0076
:103FB000B0FBF3F008BD074808BD074808BD064838
:103FC000C1F388110023A1FB0001FCF7F9F8E9E730
:103FD000003802400024F40040787D01002800F001
:103FE0008780484A136803F007038B422DE9F041AC
:103FF0000D46044609D2CBB21370136803F00703D1
:104000008B4202D00120BDE8F0812368980714D5C7
:10401000590704D53C498A6842F4E0528A601A077D
:1040200004D539498A6842F460428A603649A068FA
:104030008A6822F0F00202438A60DF0721D56268B5
:10404000012A57D0931E012B2F4B1B684DD999077E
:10405000D8D52D4EB36823F003031343B360FEF7A6
:1040600005FA41F28838074604E0FEF7FFF9C01B65
:10407000404544D8B368626803F00C03B3EB820F89
:10408000F3D1204A136803F00703AB4206D9EBB221
:104090001370136803F00703AB42B3D123685A07C8
:1040A00006D51949E0688A6822F4E05202438A6022
:1040B0001B0707D5144A2169936823F4604343EA38
:1040C000C1039360FFF756FF0F4A104C92681049E6
:1040D000C2F303120346A25C0E48D34000680B6093
:1040E000FEF77AF90020BDE8F0819801B1D489E7A4
:1040F00001207047044B1B689E03AAD482E703206B
:1041000081E700BF003C024000380240DCC50008E7
:104110000000002008000020044B05499B68054A68
:104120000868C3F38223D35CD8407047003802404C
:1041300000000020D4C50008044B05499B68054ACF
:104140000868C3F34233D35CD8407047003802405C
:1041500000000020D4C50008002869D070B590F890
:104160003D30044603F0FF02002B4BD02268314E55
:104170006168E068A569022384F83D30B2421368A3
:1041800045D0B2F1804F17D0A6F57C46B24213D08D
:1041900006F58066B2420FD006F58066B2420BD0BB
:1041A000254EB2420CD006F58066B24208D006F524
:1041B0008066B24208D103E0A66823F0700333435F
:1041C000266923F44073334323F080032B431360A9
:1041D000D06291620123536184F8463084F83E3006
:1041E00084F83F3084F8403084F8413084F842301D
:1041F00084F8433084F8443084F8453084F83D3006
:10420000002070BD80F83C20FDF77EFEAEE7A6687A
:1042100023F070033343266923F44073334323F0C0
:1042200080032B431360D062916263691363D1E70B
:10423000012070470000014000400140704700BF6E
:10424000002869D070B590F83D30044603F0FF02B5
:10425000002B4BD02268314E6168E068A5690223CB
:1042600084F83D30B242136845D0B2F1804F17D088
:10427000A6F57C46B24213D006F58066B2420FD056
:1042800006F58066B2420BD0254EB2420CD006F540
:104290008066B24208D006F58066B24208D103E0DB
:1042A000A66823F070033343266923F44073334335
:1042B00023F080032B431360D0629162012353618A
:1042C00084F8463084F83E3084F83F3084F840303B
:1042D00084F8413084F8423084F8433084F8443024
:1042E00084F8453084F83D30002070BD80F83C20D3
:1042F000FFF7A4FFAEE7A66823F0700333432669F7
:1043000023F44073334323F080032B431360D062C4
:10431000916263691363D1E7012070470000014097
:104320000040014091BB90F83E30012B3AD102236E
:1043300080F83E30036801F01F01186A01228A40AC
:1043400020EA02001862186A224902438B421A626C
:1043500032D0B3F1804F0ED01F4A93420BD002F5FA
:104360008062934207D002F58062934203D002F547
:104370009A32934204D19A6802F00702062A03D0C7
:104380001A6842F001021A600020704704290BD01D
:10439000082916D090F84130012B03D1022380F870
:1043A0004130C7E70120704790F83F30012BF9D129
:1043B000022380F83F30BDE75A6C42F400425A6451
:1043C000D9E790F84030012BECD1022380F840303F
:1043D000B0E700BF0000014000040040704700BF8C
:1043E000002869D070B590F83D30044603F0FF0214
:1043F000002B4BD02268314E6168E068A56902232A
:1044000084F83D30B242136845D0B2F1804F17D0E6
:10441000A6F57C46B24213D006F58066B2420FD0B4
:1044200006F58066B2420BD0254EB2420CD006F59E
:104430008066B24208D006F58066B24208D103E039
:10444000A66823F070033343266923F44073334393
:1044500023F080032B431360D062916201235361E8
:1044600084F8463084F83E3084F83F3084F8403099
:1044700084F8413084F8423084F8433084F8443082
:1044800084F8453084F83D30002070BD80F83C2031
:10449000FFF7A4FFAEE7A66823F070033343266955
:1044A00023F44073334323F080032B431360D06223
:1044B000916263691363D1E70120704700000140F6
:1044C00000400140034659B990F83EC090F84220A0
:1044D000BCF1010F5FFA8CF0D2B217D00120704707
:1044E000042946D0082956D090F841C090F84520BC
:1044F000BCF1010F5FFA8CF0D2B2EFD1012AEED1FC
:10450000022283F8412083F8452006E0012AE6D103
:10451000022283F83E2083F842201B6801F01F012D
:10452000186A01228A4020EA02001862186A2349A8
:1045300002438B421A6211D0B3F1804F0ED0204A51
:1045400093420BD002F58062934207D002F580625D
:10455000934203D002F59A32934204D19A6802F052
:104560000702062A03D01A6842F001021A600020EE
:10457000704790F83FC090F84320BCF1010F5FFAFC
:104580008CF0D2B2AAD1012AA9D1022283F83F200D
:1045900083F84320C1E790F840C090F84420BCF174
:1045A000010F5FFA8CF0D2B298D1012A97D1022282
:1045B00083F8402083F84420AFE700BF00000140AB
:1045C00000040040036810B41A6A01F01F044FF0A1
:1045D000010C0CFA04FC22EA0C021A621A6A1A6232
:1045E0001C6A41F21112144204D11C6A40F2444286
:1045F000144217D0012331B980F83E3080F84230A0
:1046000010BC00207047042911D008290BBF80F886
:10461000403080F8413080F8443080F8453010BC9C
:10462000002070471A6822F001021A60E2E780F861
:104630003F3080F8433010BC0020704700293DD146
:1046400090F83E2090F84230012ADBB243D1012B92
:1046500041D10222036880F83E2080F84220DA68C7
:1046600042F00202DA60186A01F01F0101228A405A
:1046700020EA02001862186A324902438B421A6229
:1046800011D0B3F1804F0ED02F4A93420BD002F5D8
:104690008062934207D002F58062934203D002F514
:1046A0009A32934204D19A6802F00702062A03D094
:1046B0001A6842F001021A600020704704290CD0E9
:1046C00008291ED090F8412090F84530012ADBB22D
:1046D00001D1012B29D00120704790F83F2090F89C
:1046E0004330012ADBB2F6D1012BF4D10222036858
:1046F00080F83F2080F84320DA6842F00402DA6054
:10470000B1E790F8402090F84430012ADBB2E2D1C2
:10471000012BE0D10222036880F8402080F8442079
:10472000DA6842F00802DA609DE702230C2980F87B
:10473000413080F84530CED10368DA6842F010028B
:10474000DA6090E70000014000040040034690F862
:104750003C00012800F0C1800120F0B483F83C0047
:104760005AB1042A4CD0082A00F094800C2A6CD04C
:10477000002283F83C20F0BC70471A68DFF860C163
:10478000166AC86826F00106D1E90045624516623E
:104790009769166A15D0B2F1804F12D0ACF57C4CF7
:1047A00062450ED00CF5806C62450AD00CF5806C29
:1047B000624506D00CF59A3C624502D047F0010CE8
:1047C00003E027F0030745EA070C00012CF0F00C8A
:1047D000C0B240EA0C00906126F00A0504F00A001D
:1047E0002843106290698C6820F00C0090619169F8
:1047F00021439161002283F83C200020F0BC7047E7
:104800001A68C868156A25F01005D1E900461562D6
:104810008D68916921F44071000341EA062180B25C
:1048200021F470410143106A9161240104F0A00455
:1048300020F0A00121431162916921F4406191614E
:10484000916941EA05219161D4E71A68C868156A3F
:1048500025F48055D1E9004615628D68D16921F4AF
:104860004071000341EA062180B221F47041014306
:10487000106AD161240304F4204420F42041214330
:104880001162D16921F44061D161D16941EA052108
:10489000D161AFE71A68C868166A26F48076D1E954
:1048A000005416628E68D16921F003010001214392
:1048B000C0B221F0F0010143106AD1612D0205F46C
:1048C000206520F4206129431162D16921F00C0197
:1048D000D161D1693143D1618CE70220704700BFBB
:1048E00000000140034690F83C00012800F0B6802B
:1048F0000120F0B483F83C000C2A08D8DFE802F06D
:104900003B07070760070707880707070D00002216
:1049100083F83C200120F0BC70471A680E68106ACA
:1049200020F480501062106A5568D46924F4E6447B
:1049300044EA06248E6820F4005040EA0630614EB6
:10494000B24200F0A9805560D4614C6814641062D2
:10495000D0690C6940F40060D061D16921F48061B4
:10496000D161D16941EA0421D161002283F83C2060
:104970000020F0BC70471A680E68106A20F0010031
:104980001062106A5568946924F0730434438E6889
:1049900020F0020030434B4EB24261D0556094612A
:1049A0004C685463106290690C6940F00800906193
:1049B000916921F004019161916921439161D4E7EA
:1049C0001A680E68106A20F010001062106A5568AC
:1049D000946924F4E64444EA06248E6820F020001A
:1049E00040EA0610374EB24247D0556094614C6899
:1049F0009463106290690C6940F400609061916961
:104A000021F480619161916941EA04219161ACE7EF
:104A10001A680E68106A20F480701062106A556877
:104A2000D46924F0730434438E6820F4007040EAA3
:104A30000620244EB24235D05560D4614C68D46310
:104A40001062D0690C6940F00800D061D16921F092
:104A50000401D161D1692143D16186E70220704709
:104A6000CE6820F008003043D1E9056725F4407591
:104A70003E4320F00400354390E7CE6820F08000EC
:104A800040EA0610D1E9056725F440653E4320F071
:104A9000400045EA8605A8E74E6925F4804545EAC9
:104AA000861550E7CE6820F4006040EA0620D1E980
:104AB000056725F440553E4320F4806045EA06151D
:104AC000BAE700BF0000014090F83C30012B71D0E4
:104AD000024630B40223046882F83D30012082F897
:104AE0003C00A36823F47F4323F07703A3600B68A3
:104AF000602B61D024D8402B77D04AD9502B17D1C6
:104B00004B68C868216A21F00A011943236A23F01F
:104B100001032362A36923F0F00343EA0013A361B6
:104B20002162A36823F0700343F05703A3600020C1
:104B30000121002382F83D1082F83C3030BC7047E0
:104B4000B3F5805FF3D0B3F5005F10D1D1E9015325
:104B5000A0682B43CD6820F47F4143EA05230B4333
:104B6000A360A36843F48043A3600020E0E7702BB8
:104B7000DED1D1E90153A0682B43CD6820F47F41F9
:104B800043EA05230B43A360A36843F07703A360C4
:104B9000CDE7202B02D009D9302BC9D1A16821F053
:104BA00070010B4343F00703A360C0E733F010012B
:104BB000BED1F3E702207047236A4868CD6823F02E
:104BC00010032362A169236A21F4704123F0A0033A
:104BD00043EA001341EA0531A1612362A36823F08F
:104BE000700343F06703A360A1E74B68C868216ABC
:104BF00021F00A011943236A23F001032362A36908
:104C000023F0F00343EA0013A3612162A36823F0B9
:104C1000700343F04703A36089E700BF704700BFFC
:104C2000704700BF704700BF704700BF03681A6934
:104C3000910710B5044602D5DA6892075FD41A6965
:104C4000500702D5DA68510746D41A69120702D50F
:104C5000DA6810072ED41A69D20602D5DA68D006AF
:104C600018D41A69D10702D5DA68D2075DD41A6957
:104C7000100602D5DA6811065FD41A69520602D509
:104C8000DA68500661D41A69910602D5DA6892068C
:104C900043D410BD6FF01001082219612277DB693F
:104CA00013F4407F204664D0FCF79AFC002223686E
:104CB0002277D6E76FF00801042219612277DB69B9
:104CC0009907204652D1FFF7ABFF2046FFF7AAFF16
:104CD000002223682277BEE76FF0040102221961E7
:104CE00022779B6913F4407F20463CD1FFF798FF61
:104CF0002046FFF797FF002223682277A5E76FF091
:104D000002010122196102779B699B0725D0FCF7FC
:104D100067FC00222368227791E76FF0200220468B
:104D20001A61BDE8104000F08DB86FF001021A6101
:104D30002046FFF773FF236899E76FF080021A613E
:104D4000204600F081F8236897E76FF040021A616F
:104D50002046FFF769FF236895E7FFF761FF2046CC
:104D6000FFF760FFD5E7FCF73BFCC4E7FCF738FC36
:104D7000AEE7FFF755FF2046FFF754FF96E700BF69
:104D800090F83C20012A2FD003460268022030B45C
:104D900083F83D0050680D68946820F07000284347
:104DA00050601248824212D0B2F1804F0FD0A0F56D
:104DB0007C4082420BD000F58060824207D000F533
:104DC0008060824203D000F59A30824204D1496863
:104DD00024F080040C4394600020012283F83D20DD
:104DE00083F83C0030BC704702207047000001404F
:104DF00090F83C30012B22D010B4D1E9024323F4C7
:104E000040730246234348680C6823F480630343DD
:104E100023F400630869234323F480530343486960
:104E2000CC6923F40053034323F48043106800212A
:104E30002343436482F83C10084610BC70470220AC
:104E4000704700BF704700BF704700BF002800F0E8
:104E5000868038B590F83D30044603F0FF02002B01
:104E600078D02368E068242284F83D20DA6822F4B0
:104E70000052DA601969A26821F4405101432069A7
:104E8000196102436069D9680243E06921F416415F
:104E900021F00C0102430A43DA605A69A0693149E2
:104EA00022F4407202438B425A6135D02E4A93421B
:104EB00032D0FFF731F9E2691921B2F5004FD4E998
:104EC0000053A0FB01012AD09A009B0FFBF778F951
:104ED000264AA2FB00135B09642101FB13000001B9
:104EE0003230A2FB00201B0103EB5013AB602B6997
:104EF00023F490432B616B6923F02A036B61EB6809
:104F00000021202243F40053EB60216484F83D200B
:104F100084F83E20084638BDFFF70EF9CBE7DA18D3
:104F20004FF000035B41FBF74BF9104AA2FB003145
:104F30004909642303FB1103DB003233A2FB032383
:104F4000C3F342121B0902EB011203F4F87313447A
:104F5000AB60CCE780F83C20FDF7D6F981E7012073
:104F6000704700BF00100140001401401F85EB5145
:104F70002DE9F843044690F83D0020287AD1884670
:104F800000293FD01746002A3CD01D4694F83C30FB
:104F9000012B6FD0012384F83C304FF0000921230E
:104FA000C4F8409084F83D30FDF760FAA368A78408
:104FB000B3F5805FE78406466AD0E28C002392B2A4
:104FC00084F83C30236892B1691C25D11A68120616
:104FD000FCD5B8F1000F25D018F8012B5A60E28CEF
:104FE000013A92B2E284E28C92B2002AECD1681CBF
:104FF0004AD11A685106FCD5202384F83D300020A0
:10500000BDE8F8830120BDE8F88385B1FDF72EFAED
:10501000801B854223680AD31A681706F5D5B8F1B4
:10502000000FD9D139F8022BC2F30802D6E703F1F9
:105030000C0252E8002F22F4D07203F10C0040E879
:1050400000210029F3D103F1140252E8002F22F0CD
:10505000010203F1140040E800210029F3D12023CC
:1050600084F83D3084F83E30002384F83C3003203F
:10507000BDE8F8830220BDE8F8837DB1FDF7F6F9BD
:10508000831B9D42236809D31A685206F5D5B3E7FE
:105090002369002B91D1C14698468EE703F10C029B
:1050A00052E8002F22F4D07203F10C0040E80021F6
:1050B0000029F3D103F1140252E8002F22F001027B
:1050C00003F1140040E800210029F3D1C7E700BF35
:1050D0002DE9F843044690F83E00202840F08680F1
:1050E0008846002946D01646002A43D01F4694F829
:1050F0003C30012B7AD0012384F83C304FF000097A
:105100002223C4F8409084F83E30C4F83090FDF774
:10511000ADF9A368A685B3F5805FE685054668D03E
:10512000E38D00229BB284F83C20EBB1781C23680D
:105130002AD11A689106FCD5B8F1000F2AD0A268CE
:10514000B2F5805F04D0002A4CD12269002A49D1EF
:105150005B68DBB208F8013BE28D013A92B2E2856E
:10516000E38D9BB2002BE1D1202384F83E30002058
:10517000BDE8F8830120BDE8F8838FB1FDF776F92B
:10518000401B874223680BD31A689206F5D5B8F105
:10519000000FD4D15B68C3F3080329F8023BDBE7B7
:1051A00003F10C0252E8002F22F4D07203F10C003C
:1051B00040E800210029F3D103F1140252E8002F46
:1051C00022F0010203F1140040E800210029F3D18C
:1051D000202384F83D3084F83C1084F83E300320CE
:1051E000BDE8F8835B6803F07F03B3E70220BDE806
:1051F000F8832369002B93D1C146984690E700BFFE
:1052000090F83E30202B25D111B30AB390F83C30F2
:10521000012B1FD010B40469816200232221036393
:1052200080F83C30C28582850364036880F83E10B4
:105230001CB1DA6842F48072DA605A6910BC42F03C
:1052400001025A61DA6842F020020020DA607047F9
:105250000120704702207047704700BF704700BFB1
:1052600008B5806B0023C385C384FFF7F7FF08BD33
:10527000704700BF83680168826AB3F5805F41D0E0
:10528000002B38D04B6803F07F031370826A013221
:10529000C38D8262013B9BB2C385002B31D1026872
:1052A000D16821F0200100B5D160D16821F480716E
:1052B000D16051694FF0200C21F00101516180F85B
:1052C0003EC0016B012983B025D1036302F10C03B9
:1052D00053E8003F23F0100302F10C0C4CE80031BE
:1052E0000029F3D11368DB061AD4818DFFF7C0FFC4
:1052F00003B05DF804FB0369002BC3D14B68DBB23C
:10530000C3E770470369002BF8D14B68C3F3080368
:1053100022F8023BBCE7FCF723F903B05DF804FB7D
:10532000002301931368019353680193019BDCE709
:1053300030B503681A68DD68596912F00F0F83B041
:1053400004466ED1910602D5A90600F19F80216B1B
:1053500001290BD0100602D5290600F1A1805206C2
:1053600002D5680600F1BB8003B030BDD006F1D590
:10537000E906EFD5002201921A6801925A6801925B
:10538000019A5A69550640F13481A06B026852684F
:1053900092B2002AE8D0A18D9142E5D9E285C26996
:1053A000B2F5807F36D003F10C0252E8002F22F4D0
:1053B000807203F10C0545E800210029F3D103F1C7
:1053C000140252E8002F22F0010203F1140545E80F
:1053D00000210029F3D103F1140252E8002F22F03A
:1053E000400203F1140545E800210029F3D12022F1
:1053F00084F83E20216303F10C0252E8002F22F0D2
:10540000100203F10C0545E800210029F3D1FDF756
:10541000C7FCA18DE38DC91A204689B2FFF728FF8A
:10542000A2E711F0010178D115F4907F8FD0D00759
:105430000AD5E80540F1D980206C40F001002064D5
:1054400050075BD500296CD1900770D5100700F18B
:10545000C980216C002987D0910609D5AA0607D5F5
:1054600094F83E20222A03D12046FFF703FF236849
:105470005A69216C02F0400201F0080152EA01056C
:105480005CD12046FFF7EAFE25646DE790F83E30D8
:10549000222B7FF469AF03B0BDE83040FFF7EABECE
:1054A00094F83D20212A7FF45FAFA168226AB1F50C
:1054B000805F00F0D780511C216212785A60E28C24
:1054C000013A92B2E284002A7FF44EAFDA6822F009
:1054D0008002DA60DA6842F04002DA6044E7DA68B3
:1054E000202122F04002DA60204684F83D10FFF7C8
:1054F000B3FE39E7E8059FD4500712D4900716D5BC
:105500000029A3D0216C41F0040121641107A0D52A
:10551000216C41F0080121649BE7D007EAD45007D1
:105520005BD5206C40F0020020649007EAD410079D
:105530008FD505F0200008438BD0E9E703F10C027A
:1055400052E8002F22F4907203F10C0040E8002191
:105550000029F3D103F1140252E8002F22F00102D6
:1055600003F1140040E800210029F3D1226B012A45
:1055700022D00022202184F83E1022635A69550669
:1055800027D503F1140252E8002F22F0400203F164
:10559000140040E800210029F3D1A06BC8B1374BBB
:1055A0000365FDF747FC00283FF4DEAEA06B036DFA
:1055B00003B0BDE83040184703F10C0252E8002F59
:1055C00022F0100203F10C0040E800210029F3D181
:1055D000CFE72046FFF742FEC6E6910792D41107B7
:1055E00096D436E7A90693D433E750073FF52CAF9E
:1055F00084E7E18DE28DA08D92B289B2002A3FF45A
:10560000B3AE411A89B200293FF4AEAE03F10C02E9
:1056100052E8002F22F4907203F10C0545E80020B7
:105620000028F3D103F1140252E8002F22F0010206
:1056300003F1140545E800200028F3D1202284F866
:105640003E20206303F10C0252E8002F22F01002EA
:1056500003F10C0545E800200028F3D12046FFF7B0
:1056600007FE81E6216900297FF425AF32F8021B8D
:10567000C1F308015960226221E700BF61520008AE
:105680002DE9F047089D0C46002B4ED194468C45E1
:105690008646B2FA82F262D94AB1C2F12003914041
:1056A00020FA03F30CFA02FC194300FA02FE4FEA57
:1056B0001C471FFA8CF6B1FBF7F44FEA1E4307FBB9
:1056C000141143EA014304FB06F199420AD91CEB89
:1056D000030304F1FF3080F01281994240F20F8100
:1056E000023C6344591A1FFA8EF3B1FBF7F007FB33
:1056F000101143EA014300FB06F69E420AD91CEB57
:10570000030300F1FF3180F0FC809E4240F2F980FB
:10571000634402389B1B40EA044000211DB1D34082
:105720000022C5E90032BDE8F0878B4205D90DB1F2
:10573000C5E9000100210846F5E7B3FA83F1002925
:1057400046D1A34202D39042C0F0F080861A64EBA7
:1057500003030120002DE6D0C5E90063E3E7002A3A
:1057600040F09080A1EB0C044FEA1C481FFA8CF724
:105770000121B4FBF8F64FEA1E4308FB164443EA46
:10578000044307FB06F0984208D91CEB030306F11B
:10579000FF3402D2984200F2CD8026461C1A1FFA2E
:1057A0008EF3B4FBF8F008FB104443EA044300FB1B
:1057B00007F79F4208D91CEB030300F1FF3402D224
:1057C0009F4200F2B0802046DB1B40EA0640A5E77E
:1057D000C1F120068B4022FA06F71F4320FA06FC8F
:1057E00004FA01F343EA0C03F44000FA01F8380C20
:1057F0004FEA1349B4FBF0FE1FFA87FC00FB1E447E
:1058000049EA04440EFB0CF9A14502FA01F20AD957
:105810003C190EF1FF3A80F08480A14540F281806E
:10582000AEF1020E3C44A4EB09041FFA83F9B4FB69
:10583000F0F300FB134449EA044403FB0CFCA445C9
:1058400007D93C1903F1FF3067D2A44565D9023B63
:105850003C4443EA0E40A0FB0293A4EB0C049C42A0
:10586000CE469C4651D34ED055B1B8EB0E0364EBF7
:105870000C0404FA06F6CB401E43CC40C5E9006494
:10588000002150E7C2F1200320FA03F10CFA02FCD8
:1058900024FA03F394400C434FEA1C4800FA02FE3A
:1058A0001FFA8CF7B3FBF8F008FB1031230C43EA26
:1058B000014300FB07F1994208D91CEB030300F1F7
:1058C000FF362CD299422AD9023863445B1AA4B21B
:1058D000B3FBF8F108FB113344EA034401FB07F37F
:1058E000A34208D91CEB040401F1FF3613D2A342F2
:1058F00011D902396444E41A41EA004139E7044607
:10590000F0E6084606E7C845AED2B9EB020E63EBF7
:10591000070C0138A8E73146EDE7034699E7304622
:10592000D4E7D6467FE7634402384DE70646234670
:1059300008460FE7023E634430E700BF2DE9F04F11
:1059400099B08246009210464AEA02021D46930729
:1059500040F0EE82031F18BF01231846009B9A08EF
:105960000392002205925F428046009A02FB01F3F7
:105970005244CDE9062206290AEB0302029240F2C4
:105980005B81009A4FEA51099B1A07290AEB03042D
:1059900002FB09A90FD0282900F2F0812646D34640
:1059A00049465846A847002831464846C0F2DA81A1
:1059B000A847002847DDB8F1000F4ED1DAF80030D3
:1059C000D9F80020CAF80020C9F80030069B0493DB
:1059D0009B4643464FF00009A0461E46A3455A4643
:1059E0004CD851465846CDF804B0A8470028019A33
:1059F00040F3FE8001920CE02368D8F8001021608B
:105A0000C8F80030B8444FF001093C44A34500F207
:105A1000938051462046A84700287BDBF5D1002E15
:105A2000EAD0012E68D0009A4146234604EB020ECC
:105A300008781A7803F8010B01F8012BAEEB03028A
:105A4000002AF5DCDEE731465846A8470028C0F2B8
:105A50009381B146B8F1000FB0D0B8F1010F00F05A
:105A600005820698534699F800101A7803F8011B2E
:105A700009F8012BC21A002AF5DCA7E7334646468F
:105A80009846B9F1000F5ED0049BABEB0309A3EB82
:105A90000A014945A8BF4946002940F03681029BCA
:105AA000311B9C1B009BE41A8C4228BF0C46002C27
:105AB00040F0AE81029B49454C46A3EB010004D95E
:105AC00053460C46824649461846009A914240F297
:105AD0000481059B072B00F28D81B4FBF2F4B1FB2E
:105AE000F2F118AE1A4606EBC30343E910A41346BD
:105AF00001330593824638E7039BC4462046013BA9
