:020000040800F2
:1000000000000220312C00083525000839250008A1
:100010003D25000841250008452500080000000096
:10002000000000000000000000000000492500085A
:100030004D25000800000000512500085525000846
:10004000812C0008812C0008812C0008812C0008DC
:10005000812C0008812C0008812C0008812C0008CC
:10006000812C0008812C0008812C0008812C0008BC
:10007000812C0008812C0008812C0008812C0008AC
:10008000812C0008812C0008812C00080000000051
:10009000000000000000000000000000812C0008AB
:1000A0005925000865250008712500087D250008F0
:1000B0008925000895250008A1250008812C000845
:1000C000812C0008812C0008812C0008812C00085C
:1000D000812C0008812C0008AD25000800000000DC
:1000E000812C0008812C0008812C000800000000F1
:1000F000000000000000000000000000812C00084B
:1001000000000000812C0008812C0008812C0008D0
:1001100000000000000000000000000000000000DF
:10012000812C0008812C0008812C0008812C0008FB
:10013000812C00080000000000000000000000000A
:10014000000000000000000000000000812C0008FA
:10015000812C0008812C0008812C0008812C0008CB
:10016000812C0008812C0008000000000000000025
:10017000000000000000000000000000000000007F
:1001800000000000812C00080000000000000000BA
:08019000812C0008812C0008FD
:1001C00010B5054C237833B9044B13B10448AFF391
:1001D00000800123237010BDB8090020000000003A
:1001E000B0B7000808B5034B1BB103490348AFF390
:1001F000008008BD00000000BC090020B0B7000866
:100200004FF0FF0C1CEAD0521EBF1CEAD15392EAF9
:100210000C0F93EA0C0F6FD01A4480EA010C4002D5
:1002200018BF5FEA41211ED04FF0006343EA50102F
:1002300043EA5111A0FB01310CF00040B1F5000F71
:100240003EBF490041EAD3715B0040EA010062F120
:100250007F02FD2A1DD8B3F1004F40EBC25008BF0A
:1002600020F00100704790F0000F0CF0004C08BF28
:1002700049024CEA502040EA51207F3AC2BFD2F1F5
:10028000FF0340EAC250704740F400004FF0000303
:10029000013A5DDC12F1190FDCBF00F0004070473D
:1002A000C2F10002410021FA02F1C2F1200200FA7B
:1002B00002FC5FEA310040F1000053EA4C0308BF42
:1002C00020EADC70704792F0000F00F0004C02BF93
:1002D000400010F4000F013AF9D040EA0C0093F00E
:1002E000000F01F0004C02BF490011F4000F013B68
:1002F000F9D041EA0C018FE70CEAD15392EA0C0FD6
:1003000018BF93EA0C0F0AD030F0004C18BF31F040
:10031000004CD8D180EA010000F00040704790F016
:10032000000F17BF90F0004F084691F0000F91F0BA
:10033000004F14D092EA0C0F01D142020FD193EA80
:100340000C0F03D14B0218BF084608D180EA010008
:1003500000F0004040F0FE4040F40000704740F0E4
:10036000FE4040F44000704781F0004102E000BFD1
:1003700083F0004330B54FEA41044FEA430594EA65
:10038000050F08BF90EA020F1FBF54EA000C55EAA0
:10039000020C7FEA645C7FEA655C00F0E2804FEA71
:1003A0005454D4EB5555B8BF6D420CDD2C4480EA53
:1003B000020281EA030382EA000083EA010180EA83
:1003C000020281EA0303362D88BF30BD11F0004FD1
:1003D0004FEA01314FF4801C4CEA113102D0404207
:1003E00061EB410113F0004F4FEA03334CEA133342
:1003F00002D0524263EB430394EA050F00F0A7805A
:10040000A4F10104D5F1200E0DDB02FA0EFC22FA54
:1004100005F2801841F1000103FA0EF2801843FA48
:1004200005F359410EE0A5F120050EF1200E012A39
:1004300003FA0EFC28BF4CF0020C43FA05F3C01877
:1004400051EBE37101F0004507D54FF0000EDCF1F0
:10045000000C7EEB00006EEB0101B1F5801F1BD399
:10046000B1F5001F0CD349085FEA30004FEA3C0C9D
:1004700004F101044FEA445212F5800F80F09A8093
:10048000BCF1004F08BF5FEA500C50F1000041EB97
:10049000045141EA050130BD5FEA4C0C404141EB9B
:1004A0000101013C28BFB1F5801FE9D291F0000F96
:1004B00004BF01460020B1FA81F308BF2033A3F145
:1004C0000B03B3F120020CDA0C3208DD02F1140C3C
:1004D000C2F10C0201FA0CF021FA02F10CE002F177
:1004E0001402D8BFC2F1200C01FA02F120FA0CFC70
:1004F000DCBF41EA0C019040E41AA2BF01EB0451B9
:10050000294330BD6FEA04041F3C1CDA0C340EDCB6
:1005100004F11404C4F1200220FA04F001FA02F3F9
:1005200040EA030021FA04F345EA030130BDC4F1B7
:100530000C04C4F1200220FA02F001FA04F340EAAC
:100540000300294630BD21FA04F0294630BD94F05D
:10055000000F83F4801306BF81F480110134013D44
:100560004EE77FEA645C18BF7FEA655C29D094EAB5
:10057000050F08BF90EA020F05D054EA000C04BF33
:100580001946104630BD91EA030F1EBF002100201E
:1005900030BD5FEA545C05D14000494128BF41F0BD
:1005A000004130BD14F580043CBF01F5801130BD21
:1005B00001F0004545F0FE4141F470014FF00000AC
:1005C00030BD7FEA645C1ABF194610467FEA655C5D
:1005D0001CBF0B46024650EA013406BF52EA0335FF
:1005E00091EA030F41F4002130BD00BF90F0000FED
:1005F00004BF0021704730B54FF4806404F1320429
:100600004FF000054FF0000150E700BF90F0000FE1
:1006100004BF0021704730B54FF4806404F1320408
:1006200010F0004548BF40424FF000013EE700BFD8
:1006300042004FEAE2014FEA31014FEA02701FBF68
:1006400012F07F4393F07F4F81F06051704732F09A
:100650007F4208BF704793F07F4F04BF41F40021F1
:10066000704730B54FF4607401F0004521F000414F
:100670001CE700BF50EA010208BF704730B54FF0D9
:1006800000050AE050EA010208BF704730B511F0DA
:10069000004502D5404261EB41014FF4806404F112
:1006A00032045FEA915C3FF4D8AE4FF003025FEA98
:1006B000DC0C18BF03325FEADC0C18BF033202EB1C
:1006C000DC02C2F1200300FA03FC20FA02F001FA76
:1006D00003FE40EA0E0021FA02F11444BDE600BF19
:1006E00080F0004002E000BF81F0004142001FBFE7
:1006F0005FEA410392EA030F7FEA226C7FEA236CF0
:100700006AD04FEA1262D2EB1363C1BFD2184140E4
:1007100048404140B8BF5B42192B88BF704710F07A
:10072000004F40F4000020F07F4018BF404211F01D
:10073000004F41F4000121F07F4118BF494292EA85
:10074000030F3FD0A2F1010241FA03FC10EB0C00B1
:10075000C3F1200301FA03F100F0004302D549423E
:1007600060EB4000B0F5000F13D3B0F1807F06D3EB
:1007700040084FEA310102F10102FE2A51D2B1F1E3
:10078000004F40EBC25008BF20F0010040EA0300D8
:100790007047490040EB0000013A28BFB0F5000F58
:1007A000EDD2B0FA80FCACF1080CB2EB0C0200FA0E
:1007B0000CF0AABF00EBC25052421843BCBFD0405D
:1007C0001843704792F0000F81F4000106BF80F4D7
:1007D00000000132013BB5E74FEA41037FEA226C9A
:1007E00018BF7FEA236C21D092EA030F04D092F065
:1007F000000F08BF0846704790EA010F1CBF002099
:10080000704712F07F4F04D1400028BF40F00040F5
:10081000704712F100723CBF00F50000704700F015
:10082000004343F0FE4040F4000070477FEA22623C
:1008300016BF08467FEA23630146420206BF5FEA0D
:10084000412390EA010F40F4800070474FF000030D
:1008500004E000BF10F0004348BF40425FEA000CD4
:1008600008BF704743F0964301464FF000001CE07C
:1008700050EA010208BF70474FF000030AE000BFD2
:1008800050EA010208BF704711F0004302D5404210
:1008900061EB41015FEA010C02BF84460146002082
:1008A00043F0B64308BFA3F18053A3F50003BCFA9D
:1008B0008CF2083AA3EBC25310DB01FA02FC63444A
:1008C00000FA02FCC2F12002BCF1004F20FA02F251
:1008D00043EB020008BF20F00100704702F1200244
:1008E00001FA02FCC2F1200250EA4C0021FA02F2A5
:1008F00043EB020008BF20EADC7070474FF0FF3C7A
:1009000006E000BF4FF0010C02E000BF4FF0010C09
:100910004DF804CD4FEA40024FEA41037FEA226CD2
:1009200018BF7FEA236C11D001B052EA530C18BFF4
:1009300090EA010F58BFB2EB030088BFC81738BF59
:100940006FEAE17018BF40F0010070477FEA226C47
:1009500002D15FEA402C05D17FEA236CE4D15FEA43
:10096000412CE1D05DF8040B704700BF8446084677
:100970006146FFE70FB5FFF7C9FF002848BF10F138
:10098000000F0FBD4DF808EDFFF7F4FF0CBF01207D
:1009900000205DF808FB00BF4DF808EDFFF7EAFF07
:1009A00034BF012000205DF808FB00BF4DF808EDC2
:1009B000FFF7E0FF94BF012000205DF808FB00BFB7
:1009C0004DF808EDFFF7D2FF94BF012000205DF83D
:1009D00008FB00BF4DF808EDFFF7C8FF34BF01204A
:1009E00000205DF808FB00BF53B94AB9002908BFD1
:1009F00000281CBF4FF0FF314FF0FF3000F074B9FA
:100A0000ADF1080C6DE904CE00F006F8DDF804E065
:100A1000DDE9022304B070472DE9F047089E0D463A
:100A200004468846002B4DD18A42944668D9B2FAD2
:100A300082F252B101FA02F3C2F1200120FA01F16F
:100A40000CFA02FC41EA030894404FEA1C45210CD1
:100A5000B8FBF5FE1FFA8CF705FB1E8341EA034342
:100A60000EFB07F199420BD91CEB03030EF1FF308B
:100A700080F01E81994240F21B81AEF1020E634468
:100A80005B1AA4B2B3FBF5F005FB103344EA034450
:100A900000FB07F7A7420AD91CEB040400F1FF335F
:100AA00080F00881A74240F2058164440238E41BCB
:100AB00040EA0E4000211EB1D4400023C6E90043A5
:100AC000BDE8F0878B4208D9002E00F0EE800021AF
:100AD000C6E900050846BDE8F087B3FA83F10029AE
:100AE0004AD1AB4202D3824200F2F980841A65EB0C
:100AF000030301209846002EE2D0C6E90048DFE754
:100B000002B9FFDEB2FA82F2002A40F09180A1EB36
:100B10000C054FEA1C471FFA8CFE0121B5FBF7F3C9
:100B200007FB1350250C45EA00450EFB03F0A842D5
:100B300008D91CEB050503F1FF3802D2A84200F2E8
:100B4000CB8043462D1AA4B2B5FBF7F007FB105536
:100B500044EA05440EFB00FEA64508D91CEB04043C
:100B600000F1FF3502D2A64500F2BB802846A4EB77
:100B70000E0440EA03409EE7C1F120078B4022FAB1
:100B800007FC4CEA030C20FA07F405FA01F31C43B6
:100B9000FD404FEA1C4900FA01F3B5FBF9F8200CBF
:100BA0001FFA8CFE09FB185540EA054508FB0EF0BC
:100BB000A84202FA01F20BD91CEB050508F1FF3A35
:100BC00080F08880A84240F28580A8F10208654440
:100BD0002D1AA4B2B5FBF9F009FB105544EA0545FE
:100BE00000FB0EFEAE4508D91CEB050500F1FF34F5
:100BF0006CD2AE456AD90238654440EA0840A0FB91
:100C00000294A5EB0E05A542C846A64656D353D07E
:100C10005EB1B3EB080265EB0E0505FA07F722FAA1
:100C200001F3CD401F43C6E900750021BDE8F08700
:100C3000C2F1200320FA03F10CFA02FC25FA03F3B7
:100C400095400D434FEA1C471FFA8CFEB3FBF7F1AA
:100C500007FB11302B0C43EA004301FB0EF09842D6
:100C600004FA02F408D91CEB030301F1FF382FD278
:100C700098422DD9023963441B1AADB2B3FBF7F089
:100C800007FB103345EA034500FB0EF3AB4208D9DE
:100C90001CEB050500F1FF3816D2AB4214D902381F
:100CA0006544ED1A40EA014138E73146304607E72E
:100CB0008646E5E61846FAE64B45A9D2B9EB0208A6
:100CC00064EB0C0E0138A3E74046EAE7204694E7C0
:100CD0004146D1E7D0467BE7023B654432E7084610
:100CE00009E76444023842E7704700BF0000000093
:100CF00001F0FF01102A2BDB10F0070F08D010F8CD
:100D0000013B013A8B422DD010F0070F42B3F6D1D0
:100D1000F0B441EA012141EA014122F007047FF0E9
:100D200000070023F0E80256083C85EA010586EA40
:100D3000010685FA47F5A3FA87F586FA47F6A5FA7C
:100D400087F68EB9EED1F0BC01F0FF0102F0070288
:100D500032B110F8013B013A83EA010313B1F8D133
:100D60000020704701387047002D06BF3546033814
:100D7000073815F0010F07D1013015F4807F02BF4D
:100D8000013015F4C03F0130F0BC0138704700BF9E
:100D9000844641EA000313F003036DD1403A41D386
:100DA00051F8043B40F8043B51F8043B40F8043B45
:100DB00051F8043B40F8043B51F8043B40F8043B35
:100DC00051F8043B40F8043B51F8043B40F8043B25
:100DD00051F8043B40F8043B51F8043B40F8043B15
:100DE00051F8043B40F8043B51F8043B40F8043B05
:100DF00051F8043B40F8043B51F8043B40F8043BF5
:100E000051F8043B40F8043B51F8043B40F8043BE4
:100E100051F8043B40F8043B51F8043B40F8043BD4
:100E2000403ABDD2303211D351F8043B40F8043B74
:100E300051F8043B40F8043B51F8043B40F8043BB4
:100E400051F8043B40F8043B103AEDD20C3205D384
:100E500051F8043B40F8043B043AF9D2043208D07C
:100E6000D2071CBF11F8013B00F8013B01D30B88EE
:100E700003806046704700BF082A13D38B078DD0CC
:100E800010F003038AD0C3F10403D21ADB071CBF9E
:100E900011F8013B00F8013B80D331F8023B20F808
:100EA000023B7BE7043AD9D3013A11F8013B00F841
:100EB000013BF9D20B7803704B7843708B788370C9
:100EC00060467047000000000000000000000000C5
:100ED0000000000000000000000000000000000012
:100EE0000000000000000000000000000000000002
:100EF00000000000000000000000000000000000F2
:100F000090F800F06DE9024520F007016FF0000C49
:100F100010F0070491F820F040F049804FF00004F1
:100F20006FF00700D1E9002391F840F000F10800CC
:100F300082FA4CF2A4FA8CF283FA4CF3A2FA8CF304
:100F40004BBBD1E9022382FA4CF200F10800A4FA6B
:100F50008CF283FA4CF3A2FA8CF3E3B9D1E90423BF
:100F600082FA4CF200F10800A4FA8CF283FA4CF3F6
:100F7000A2FA8CF37BB9D1E9062301F1200182FAB0
:100F80004CF200F10800A4FA8CF283FA4CF3A2FAB6
:100F90008CF3002BC6D0002A04BF04301A4612BAC4
:100FA000B2FA82F2FDE8024500EBD2007047D1E9C7
:100FB000002304F00305C4F100004FEAC50514F056
:100FC000040F91F840F00CFA05F562EA05021CBF27
:100FD00063EA050362464FF00004A9E770B54FF0DD
:100FE000FF0C4CF4E06C1CEA11541DBF1CEA1355B5
:100FF00094EA0C0F95EA0C0F00F0DEF82C4481EA1D
:10100000030621EA4C5123EA4C5350EA013518BF3C
:1010100052EA033541F4801143F4801338D0A0FB29
:1010200002CE4FF00005E1FB02E506F00042E0FBD6
:1010300003E54FF00006E1FB03569CF0000F18BFDC
:101040004EF0010EA4F1FF04B6F5007F64F5407484
:1010500004D25FEA4E0E6D4146EB060642EAC62117
:1010600041EA55514FEAC52040EA5E504FEACE2E84
:10107000B4F1FD0C88BFBCF5E06F1ED8BEF1004F87
:1010800008BF5FEA500E50F1000041EB045170BD03
:1010900006F0004646EA010140EA020081EA030147
:1010A000B4EB5C04C2BFD4EB0C0541EA045170BD43
:1010B00041F480114FF0000E013C00F3AB8014F1BD
:1010C000360FDEBF002001F0004170BDC4F1000406
:1010D000203C35DA0C341BDC04F11404C4F1200587
:1010E00000FA05F320FA04F001FA05F240EA0200E2
:1010F00001F0004221F0004110EBD37021FA04F618
:1011000042EB06015EEA430E08BF20EAD37070BDD1
:10111000C4F10C04C4F1200500FA04F320FA05F030
:1011200001FA04F240EA020001F0004110EBD37032
:1011300041F100015EEA430E08BF20EAD37070BDA2
:10114000C4F1200500FA05F24EEA020E20FA04F37B
:1011500001FA05F243EA020321FA04F001F000412A
:1011600021FA04F220EA020000EBD3705EEA430E9B
:1011700008BF20EAD37070BD94F0000F0FD101F0CA
:101180000046400041EB010111F4801F08BF013C03
:10119000F7D041EA060195F0000F18BF704703F041
:1011A0000046520043EB030313F4801F08BF013DC8
:1011B000F7D043EA0603704794EA0C0F0CEA135584
:1011C00018BF95EA0C0F0CD050EA410618BF52EA3E
:1011D0004306D1D181EA030101F000414FF0000044
:1011E00070BD50EA410606BF1046194652EA430652
:1011F00019D094EA0C0F02D150EA013613D195EAC6
:101200000C0F05D152EA03361CBF104619460AD10D
:1012100081EA030101F0004141F0FE4141F4700117
:101220004FF0000070BD41F0FE4141F4780170BD07
:1012300070B54FF0FF0C4CF4E06C1CEA11541DBF6C
:101240001CEA135594EA0C0F95EA0C0F00F0A7F86E
:10125000A4EB050481EA030E52EA03354FEA01319B
:1012600000F088804FEA03334FF0805545EA1313AE
:1012700043EA12634FEA022245EA111545EA106576
:101280004FEA00260EF000419D4208BF964244F10D
:10129000FD0404F5407402D25B084FEA3202B61A2C
:1012A00065EB03055B084FEA32024FF480104FF400
:1012B000002CB6EB020E75EB030E22BFB61A754674
:1012C00040EA0C005B084FEA3202B6EB020E75EB07
:1012D000030E22BFB61A754640EA5C005B084FEA6F
:1012E0003202B6EB020E75EB030E22BFB61A75463C
:1012F00040EA9C005B084FEA3202B6EB020E75EB47
:10130000030E22BFB61A754640EADC0055EA060E07
:1013100018D04FEA051545EA16754FEA06164FEA4A
:10132000C30343EA52734FEAC2025FEA1C1CC0D1F6
:1013300011F4801F0BD141EA00014FF000004FF083
:10134000004CB6E711F4801F04BF01430020B4F144
:10135000FD0C88BFBCF5E06F3FF6AFAEB5EB030CFC
:1013600004BFB6EB020C5FEA500C50F1000041EBF9
:10137000045170BD0EF0004E4EEA113114EB5C04C6
:10138000C2BFD4EB0C0541EA045170BD41F4801199
:101390004FF0000E013C90E645EA060E8DE60CEAA1
:1013A000135594EA0C0F08BF95EA0C0F3FF43BAFBE
:1013B00094EA0C0F0AD150EA01347FF434AF95EA75
:1013C0000C0F7FF425AF104619462CE795EA0C0F59
:1013D00006D152EA03353FF4FDAE1046194622E726
:1013E00050EA410618BF52EA43067FF4C5AE50EA00
:1013F00041047FF40DAF52EA43057FF4EBAE12E7F0
:101400004FF0FF3C06E000BF4FF0010C02E000BFD0
:101410004FF0010C4DF804CD4FEA410C7FEA6C5CB3
:101420004FEA430C18BF7FEA6C5C1BD001B050EA56
:10143000410C0CBF52EA430C91EA030F02BF90EA41
:10144000020F0020704710F1000F91EA030F58BF00
:10145000994208BF90422CBFD8176FEAE37040F062
:10146000010070474FEA410C7FEA6C5C02D150EA00
:10147000013C07D14FEA430C7FEA6C5CD6D152EABB
:10148000033CD3D05DF8040B704700BF8446104680
:1014900062468C461946634600E000BF01B5FFF77F
:1014A000B7FF002848BF10F1000F01BD4DF808ED4F
:1014B000FFF7F4FF0CBF012000205DF808FB00BF20
:1014C0004DF808EDFFF7EAFF34BF012000205DF87A
:1014D00008FB00BF4DF808EDFFF7E0FF94BF0120C7
:1014E00000205DF808FB00BF4DF808EDFFF7CEFFC8
:1014F00094BF012000205DF808FB00BF4DF808ED07
:10150000FFF7C4FF34BF012000205DF808FB00BFD7
:101510004FEA410C7FEA6C5C02D150EA013C0AD1EF
:101520004FEA430C7FEA6C5C02D152EA033C02D1E1
:101530004FF0000070474FF0010070474FEA410242
:1015400012F5001215D211D56FF47873B3EB625215
:1015500012D94FEAC12343F0004343EA505311F03C
:10156000004F23FA02F018BF404270474FF00000CE
:10157000704750EA013005D111F0004008BF6FF00C
:10158000004070474FF00000704700BF014B1860EB
:10159000704700BFD809002010B52548254C01210F
:1015A00001F024FE01283FD0236800221A80022186
:1015B0001F4801F01BFE236801281ABF00225A8031
:1015C000588010211A4801F011FE236801281ABF23
:1015D00000229A8098802021154801F007FE236898
:1015E00001281ABF0022DA80D8804021104801F07B
:1015F000FDFD236801281ABF00221A81188180216D
:101600000B4801F0F3FD2368012816BF0022588122
:101610005A810948012101F0E9FD2368012816BF1C
:10162000002298819A8110BD23681880BFE700BF0F
:1016300000000240D80900200004024008B5FFF76E
:10164000ABFF164B164A1B685988012908BFFB21BE
:101650004FF00000107008BF11709988012902D165
:10166000117803391170D988012902D11178013913
:1016700011701989012902D111780131117059892C
:10168000012902D11178033111709B89012B02D1FC
:10169000137805331370024808BD00BFD809002035
:1016A000D4090020024A034B10601960704700BF44
:1016B000E0090020E40900201C481D49026808B523
:1016C00000231370D1F800C01A4ACCF800304FF450
:1016D00080539361962300BF00BF00BF00BF00BFCF
:1016E00000BF00BF00BF00BF00BF1A46013B9BB256
:1016F000002AF0D10F4B4FF080529A6102681378A4
:10170000022BFCD10B6819684FF6FF7291420BD087
:101710001A684AB11868FFF799F80749FEF770FD93
:10172000064B1860186808BD002008BDE4090020B9
:10173000E009002000040240EA26313EDC090020D6
:10174000F0B500248BB0CDE90444CDE906442D4B1F
:10175000019408941A6B2C4E2C4D42F080021A63AF
:101760001A6B02F080020192019A02941A6B42F005
:1017700001021A631A6B02F001020292029A0394A8
:101780001A6B42F002021A631B6B03F0020303930D
:10179000224630464FF47041039B01F02DFD224656
:1017A00028464FF4F85101F027FD04A92846F322FA
:1017B0000023CDE90423069401F096FB04A93046EA
:1017C00005220023CDE904230027069401F08CFBB9
:1017D00030464FF470420123002604A9CDE90423CA
:1017E000CDE9066701F080FB4FF4F852012304A90C
:1017F0002846CDE90667CDE9042301F075FB0BB05F
:10180000F0BD00BF0038024000040240000002406A
:1018100010B50B480B4C0C4900234FF48042C0E933
:101820000041C0E90233C0E90423C0E90633036282
:1018300001F0DCFD00B910BDBDE8104000F058B962
:10184000E809002000540040A086010030B5184B84
:10185000026889B000249A42CDE90244CDE90444EB
:10186000069401D009B030BD124D00942B6B124884
:1018700043F002032B632B6B03F002030093C0229F
:101880001223CDE902230323059302A9042306931F
:10189000009A01F029FB01942B6C43F400132B6494
:1018A0002B6C03F400130193019B09B030BD00BF02
:1018B00000540040003802400004024008B50268AD
:1018C000094B9A4200D008BD084A0948136C23F41A
:1018D00000134021136401F0F7FBBDE80840044801
:1018E000802101F0F1BB00BF0054004000380240ED
:1018F0000004024030B5002395B0CDE90A33CDE9AC
:101900000C33CDE90233CDE904332149009306932A
:10191000086C204A40F080500864096C01F0805146
:10192000009100990193136843F4404313601368D6
:1019300003F44043022101934FF480000C2301245F
:10194000CDE90E104FF480356022109308A80423CF
:10195000CDE90845CDE91121019C139302F0AEF8C1
:1019600008B172B6FEE70F240225CDE90245034611
:1019700000244FF48055032102A8CDE904450693C5
:1019800002F0B4FA08B172B6FEE715B030BD00BF80
:10199000003802400070004008B501F097F928486F
:1019A00000F03AFDFFF7A6FFFFF7CAFEFFF730FF92
:1019B00000F036FE00F0ECFF01F05AF801F0DEF81E
:1019C00000F0A8FE1F492048FFF76CFE0C211F48BD
:1019D00002F024FE05221E49194803F03BFC0021B9
:1019E0001C4802F08BFC0021184802F087FC0421FF
:1019F000184802F083FC0421144802F07FFC3220D6
:101A000000F078F8322000F07FF8322000F086F8FD
:101A1000322000F08DF84FF47A7001F083F90E480F
:101A2000FFF7B4FD00F048FC802000F0B9FA002078
:101A300000F070FA002000F0F5FA00F041F9FCE740
:101A400008100020550A00204C0A0020780F0020C2
:101A5000500A0020300F00203C0A0020034B834234
:101A600000D070470249052203F0F4BB08100020A3
:101A7000500A002038B502680C4B9A4200D038BD9D
:101A80000B4C23783BB90B480268536202F06AFBA7
:101A90000123237038BD074D284602F097FB2B68C1
:101AA000054A596A11600223237038BD00040040C2
:101AB000550A0020C00F00204C0A0020084B026885
:101AC0009A4200D07047074B07490848022210B4D9
:101AD0004FF6FF741A700C6010BC02F077BB00BFA9
:101AE00000080040550A00204C0A0020C00F0020CA
:101AF00072B6FEE7034BC0EB00101B684000586352
:101B0000704700BF780F0020034BC0EB00101B682C
:101B100040009863704700BF780F0020034BC0EB74
:101B200000101B6840009863704700BF300F002012
:101B3000034BC0EB00101B6840005863704700BFA8
:101B4000300F00202DE9F84FFFF7B6FD0446FEF7F1
:101B50006FFD02460B464D4803F022FE4C492046DD
:101B6000FEF724FF20B14B492046FEF733FF08B9AA
:101B7000BDE8F88F484C494EDFF824B1DFF82481E6
:101B80004FF060434FF0F852A2614FF49670B3618A
:101B900001F0C8F84448A0614FF48070A0614FF094
:101BA0000040B061DBF80070D8F800003F49404ABF
:101BB000A16140F2DC55B2617D638563BD6345631D
:101BC0004FF4967001F0AEF83A4BA361D8F80000DC
:101BD000DBF800303549364A40F21A474FF0807A38
:101BE0004FF40049C4F818A0C6F81890A161B2617A
:101BF0005F6387639F634763142001F093F8642059
:101C000001F090F82B4BA361D8F80000DBF800300E
:101C1000294A2A49C4F818A0C6F81890A261B161EF
:101C20005D6385639D6345634FF4967001F07AF8B8
:101C3000204B1E491E4AA361C4F818A0C6F818908C
:101C4000A161B261DBF80010D8F800204F63962044
:101C500097638F63576301F065F8164B164AA361CB
:101C6000C4F818A0D8F80030C6F81890A261DBF8C4
:101C700000201249B1614FF4967055639D639563DE
:101C80005D63BDE8F84F01F04DB800BFC8B700086C
:101C900000000C42000040410000024000040240ED
:101CA000780F0020300F0020000200040010000810
:101CB0000020004000040002000800100040002046
:101CC0002DE9F843FFF73EFFFFF7B8FC90F901302C
:101CD0000446DBB1614D2978002900F0978094F922
:101CE000003013F1090F3FD0DA1C00F09F80002B69
:101CF00020DB72D15A4B5B4D9D614FF08071996131
:101D0000594A5A4C5A484FF400411EE0594B1A7830
:101D1000002AE4D1514D2A78002AE0D0564D012204
:101D2000002128461A7002F03DFC2A68534B526A83
:101D30001A60D4E74A4B524D4B4A4C4C4C489D617B
:101D40004FF4807199614FF0004191614D499C6160
:101D50004D4B096890611A6840F21A434B639363D4
:101D60008B635363BDE8F8833D4C464F444B464E6E
:101D7000A3613D4D39683268DFF8F090DFF8F080FC
:101D80004FF48073A3614FF00043AB6140F2DC532A
:101D9000C4F818904FF49670C5F818804B6393639D
:101DA0008B63536300F0BEFF2E4BA3614FF0807333
:101DB000A361396832684FF40043AB6140F21A43C3
:101DC000C4F818901420C5F818804B6393638B6394
:101DD0005363BDE8F84300F0A5BF052B204B224A12
:101DE000204D9D614FF0807199614FF400419161E8
:101DF000264C24499C61244B2548096890611A6847
:101E000040F21A434B63AAD16420DFE701231A484A
:101E10002B7002F055FB174B1A78002A7FF45FAF46
:101E200094F90120002A7FF45AAF74E70C4B0E4A54
:101E30000E4C0F499C6191611249114898610968E3
:101E400011484FF480759D614FF0004440F21A43F1
:101E5000946102684B636420B8E700BF5C0A00200D
:101E600000000240000400020004024000100008CC
:101E7000002000405D0A0020E80E0020580A0020E3
:101E800000020004780F0020300F0020000800102E
:101E900000400020F0B58BB001460A2300938DF876
:101EA0000D101A480024022303AA78218DF80C4053
:101EB00001F07EFB022801D00BB0F0BD1348144D99
:101EC00001F05CFB4026032311480894112704A964
:101ED000CDE90643CDE9046701F006F808240022A5
:101EE0004021284601F088F9002000F01BFF012264
:101EF0004021284601F080F9631E13F0FF04EED163
:101F0000024801F073FA0BB0F0BD00BFE8090020F1
:101F100000040240F0B504468BB048B1012801D05E
:101F20000BB0F0BDA7200BB0BDE8F040FFF7B2BF8B
:101F30000A234FF426410093ADF80C1016480223F3
:101F400003AA782101F034FB0228E9D11248134D8D
:101F500001F014FB4026032310480694112704A91E
:101F6000CDE90734CDE9046700F0BEFF0824002264
:101F70004021284601F040F9002000F0D3FE012264
:101F80004021284601F038F9631E13F0FF04EED11A
:101F9000014801F02BFAC3E7E809002000040240E1
:101FA00030B58BB002460A23782100938DF80E20BD
:101FB0001A488DF80C108124032303AA8DF80D40D4
:101FC00001F0F6FA022801D00BB030BD134801F041
:101FD000D5FA40240023112503221148069304A9B1
:101FE000CDE90445CDE9072300F07EFF0C4D082420
:101FF00000224021284601F0FFF8002000F092FE68
:1020000001224021284601F0F7F8631E13F0FF0477
:10201000EED1024801F0EAF90BB030BDE80900202A
:1020200000040240F0B504468BB060B1012801D035
:102030000BB0F0BDC020FFF72DFFA0200BB0BDE816
:10204000F040FFF727BF0A234FF448410093ADF853
:102050000C101A48022303AA782101F0A9FA0228D9
:1020600005D0A1200BB0BDE8F040FFF713BF134827
:10207000134D01F083FA40260323114806941127DB
:1020800004A9CDE90734CDE9046700F02DFF082449
:1020900000224021284601F0AFF8002000F042FE67
:1020A00001224021284601F0A7F8631E13F0FF0427
:1020B000EED1024801F09AF9D3E700BFE809002009
:1020C000000402402DE9F04F784B794F794DADB0C7
:1020D0001C4603F1080AC3F1B00B4FF000084FF0A3
:1020E0000A090BEB04018DF81510CDF800900223BE
:1020F00005AA782138468DF8148001F059FA022893
:1021000000F0AC80CDF80090022305AA7821384673
:10211000ADF8148001F04CFA022878D04FF48051C9
:10212000ADF81410CDF80090022305AA78213846A6
:1021300001F03EFA022843D00DF12F02002314F8DB
:10214000331002F8011F0133802BF8D13222CDE980
:1021500001320CAB0093402201237821384601F074
:10216000B9FB022805D001345445BAD12DB0BDE8E1
:10217000F08F384601F002FA03230993402211231D
:1021800006A92846CDE90623CDF82880CDF8208081
:10219000082600F0A9FE00224021284601F02CF874
:1021A000002000F0BFFD013E01224021284601F041
:1021B00023F816F0FF06EED1384601F017F9D2E702
:1021C000384601F0DBF9032309934022112306A9C5
:1021D0002846CDE90623CDF82880CDF820800826B2
:1021E00000F082FE00224021284601F005F8002080
:1021F00000F098FD013E01224021284600F0FCFF3E
:1022000016F0FF06EED1384601F0F0F894E73846B4
:1022100001F0B4F9032309934022112306A92846AB
:10222000CDE90623CDF82880CDF82080082600F0DF
:102230005BFE00224021284600F0DEFF002000F077
:1022400071FD013E01224021284600F0D5FF16F025
:10225000FF06EED1384601F0C9F85FE7384601F0D5
:102260008DF9032309934022112306A92846CDE9BD
:102270000623CDF82880CDF82080082600F034FE13
:1022800000224021284600F0B7FF002000F04AFD60
:10229000013E01224021284600F0AEFF16F0FF0665
:1022A000EED1384601F0A2F82CE700BF600A00200A
:1022B000E80900200004024030B505208BB000F092
:1022C00031FDE320FFF7E6FDAE20FFF7E3FD6420DC
:1022D00000F028FD0020FFF7DDFD1020FFF7DAFDFC
:1022E0000020FFF7D7FDB020FFF7D4FD8120FFF7D6
:1022F000D1FDFF20FFF7CEFDA120FFF7CBFDA620EB
:10230000FFF7C8FDC820FFF7C5FDD320FFF7C2FDCA
:102310000020FFF7BFFDD520FFF7BCFD8020FFF7B1
:10232000B9FDD920FFF7B6FD1F20FFF7B3FDA820A8
:10233000FFF7B0FD3F20FFF7ADFDDA20FFF7AAFD64
:102340001220FFF7A7FDDB20FFF7A4FD4020FFF7D9
:10235000A1FD8D20FFF79EFD0A2300932B484FF42B
:10236000A054022303AA7821ADF80C4001F020F913
:10237000022824D0264B0022C3E90022C3E902220E
:10238000C3E90422C3E90622C3E90822C3E90A22F9
:10239000C3E90C22C3E90E2208210CB203EBC100F1
:1023A0000131C9B2802943F834204260F5D1FFF7EA
:1023B00089FEAF200BB0BDE83040FFF76BBD13487E
:1023C00001F0DCF840240023112503221148069374
:1023D00004A9CDE90445CDE9072300F085FD0D4DA5
:1023E000082400224021284600F006FF002000F0CB
:1023F00099FC01224021284600F0FEFE631E13F0E6
:10240000FF04EED1014800F0F1FFB3E7E809002036
:10241000600A00200004024030B4064B06491D68E3
:10242000044600230C60A868022230BC194603F061
:10243000CBB900BF0C000020E00E0020022801D81C
:102440000120704708B503F02FF90923036000202D
:1024500008BD00BF0138012810B50CD8094B14463F
:10246000186892B24FF0FF3302F0B2FD002818BF97
:102470000524204610BD03F017F9092303604FF02F
:10248000FF34F6E7E00E0020022801D80020704754
:1024900008B503F009F9092303604FF0FF3008BDC8
:1024A00008B503F001F9092303604FF0FF3008BDC0
:1024B00008B558B9094A4FF0FF331068012202F0FD
:1024C00035FE00280CBF0120052008BD03F0ECF804
:1024D000092303604FF0FF3008BD00BFE00E00206D
:1024E000022808B504D84FF400534B60002008BD03
:1024F00003F0DAF809230360002008BD82B00C4B1A
:10250000002100915A6C42F480425A645A6C02F4E1
:1025100080420092009A01911A6C42F080521A6433
:102520001B6C03F080530193019B02B0704700BF06
:1025300000380240FEE700BFFEE700BFFEE700BF35
:10254000FEE700BFFEE700BF704700BF704700BF57
:10255000704700BF00F0D4BB014802F08FBB00BF42
:10256000E80E0020014802F089BB00BFE80E002001
:10257000014802F083BB00BFE80E0020014802F0D2
:102580007DBB00BFE80E0020014802F077BB00BF12
:10259000300F0020014802F071BB00BF780F00200F
:1025A000014802F06BBB00BFC00F0020014802F0E1
:1025B000F1BE00BF081000200120704708B503F0ED
:1025C00073F8162303604FF0FF3008BD08B503F021
:1025D0006BF816230360FEE710B50C4C0C4B0D494D
:1025E0002268591A2AB11044884207D82060104640
:1025F00010BD094A226010448842F7D903F054F80C
:102600000C234FF0FF320360104610BDE40E002093
:10261000000002200004000098100020704700BF56
:1026200030B5002497B0202221460EA8CDE90344FE
:10263000CDE90744CDE90944CDE90B440294009467
:1026400006940594019403F059F83048304A8461A7
:1026500040F2E733C0E900234BF67E33C0E9024382
:10266000C0E9044401F000FD00283CD14FF4805340
:102670002648029302A902F04BFA002843D12348CE
:1026800001F0BEFD00283BD1002200231F4869460F
:10269000CDE9002302F09CFB00282ED16024002508
:1026A000CDE9064500220024002518480C9206A911
:1026B000CDE90845CDE90A4502F02AF9D0B9002351
:1026C0000022CDE90E23CDE9102300244FF400555C
:1026D00000230E4815930EA9CDE9124502F0B0FB78
:1026E00020B917B030BDFFF703FABFE7FFF700FAD4
:1026F00017B030BDFFF7FCF9E1E7FFF7F9F9CDE7D7
:10270000FFF7F6F9C0E7FFF7F3F9B8E7E80E0020A6
:102710000000014000B51B481B4A026040F2E7324E
:10272000002387B042604BF67F32CDE90233CDE91A
:102730000433CDE90033C0E902320361836101F063
:1027400093FC98B94FF480530E48029302A902F00B
:10275000DFF998B9002200230A486946CDE9002331
:1027600002F036FB28B907B05DF804FBFFF7C0F9AB
:10277000E8E7FFF7BDF907B05DF804FBFFF7B8F92C
:10278000E8E700BFC00F00200008004010B5036854
:102790004A4A8CB000249342CDE90644CDE908446E
:1027A0000A941ED0B3F1804F48D0454A93425BD083
:1027B000444A934201D00CB010BD434B05941A6CAF
:1027C00042F004021A641B6C03F0040305931E20FC
:1027D00022462146059B00F0C9FA1E2000F004FBAA
:1027E000E9E7394B0194596C41F0010159645B6C84
:1027F00003F001032246214601931820019B00F0BB
:10280000B5FA182000F0F0FA22462146192000F00F
:10281000ADFA192000F0E8FA224621461A2000F00D
:10282000A5FA1A2000F0E0FA224621461B2000F00B
:102830009DFA1B2000F0D8FA0CB010BD03F50E3342
:102840000294196C41F0010119641B6C03F001033F
:102850002246214602931C20029B00F087FA1C208E
:1028600000F0C2FA0CB010BD174B03941A6C174855
:1028700042F002021A641A6C02F002020392039AF6
:1028800004941A6B42F002021A631B6B03F00203FA
:10289000049302220223CDE9062306A902230A9308
:1028A000049A00F021FB224621461D2000F05EFA2A
:1028B0001D2000F099FA0CB010BD00BF00000140CF
:1028C00000040040000800400038024000040240BC
:1028D00030B502688BB00023B2F1804FCDE90433EC
:1028E000CDE90633089304D025498A4231D00BB094
:1028F00030BD02F50E320193116B224841F0010107
:102900001163116B01F00101019101990293136BA5
:1029100043F002031363136B03F0020302930124D9
:1029200004A94FF400420223CDE904230894029B3A
:1029300000F0DAFA08220223CDE9042312480894B1
:102940000022002304A9CDE9062300F0CDFA0BB044
:1029500030BD0E4A0393136B0B4843F0020313631D
:10296000136B03F00203039330240223022504A90E
:10297000CDE90445039A089300F0B6FA0BB030BDD8
:102980000004004000000240000402400038024001
:1029900030B536488FB00023CDE90233CDE904339A
:1029A000CDE90033CDE90633CDE90833CDE90A336B
:1029B0000C938360036183614FF080426323C0E91D
:1029C000002340F67F43C36001F04EFB002833D163
:1029D0004FF480532548029302A902F099F8002889
:1029E00040D1224801F00CFC002838D100220023FD
:1029F0001E486946CDE9002302F0EAF960BB0022D7
:102A0000602400251948089206A9CDE906450A92D6
:102A100001F07EFFE8B91548042206A901F078FF0D
:102A2000A0B91248082206A901F072FF38B90F4870
:102A3000FFF74EFF0FB030BDFFF75AF8C8E7FFF7BA
:102A400057F80A48FFF744FF0FB030BDFFF750F8C2
:102A5000E7E7FFF74DF8DEE7FFF74AF8CFE7FFF7C4
:102A600047F8C3E7FFF744F8BBE700BF300F00208B
:102A700030B54048404A93B00023CDE90633CDE954
:102A80000833CDE90033CDE90A33CDE90C33CDE984
:102A90000E33CDE90233CDE9043310938360036133
:102AA00083616323C0E9002340F67F43C36001F0E4
:102AB000DBFA002841D14FF480532E48069306A933
:102AC00002F026F8002851D12A4801F099FB00288D
:102AD00049D1284801F076FC002841D1002200238A
:102AE00024486946CDE9002302F072F9002834D168
:102AF00060200021CDE90A0100221E480C920AA99B
:102B00000E9201F005FF28BB1A4804220AA901F021
:102B1000FFFEE0B90A240125CDE90245154800244D
:102B200000250C2202A9CDE9044501F01BFE38B9AD
:102B30001048FFF7CDFE13B030BDFEF7D9FFBAE75E
:102B4000FEF7D6FF0B48FFF7C3FE13B030BDFEF70C
:102B5000CFFFDFE7FEF7CCFFD6E7FEF7C9FFC7E7F9
:102B6000FEF7C6FFBAE7FEF7C3FFB2E7FEF7C0FF06
:102B7000AAE700BF780F00200004004010B50B4802
:102B80000B4C00234FF4E1310C22C0E90041C0E9B5
:102B90000233C0E90432C0E9063302F07FF900B91C
:102BA00010BDBDE81040FEF7A3BF00BF0810002015
:102BB0000044004030B51C4B026889B000249A42A2
:102BC000CDE90244CDE90444069401D009B030BDFA
:102BD00003F5FA3300941A6C144842F400321A6474
:102BE0001A6C02F400320092009A01941A6B42F0BF
:102BF00001021A631B6B03F0010301930C220223F1
:102C0000CDE9022302A907230322CDE90523019D73
:102C100000F06AF922462146262000F0A7F8262077
:102C200000F0E2F809B030BD00440040000002406E
:102C3000DFF834D00D480E490E4A002302E0D45884
:102C4000C4500433C4188C42F9D30B4A0B4C0023F4
:102C500001E013600432A242FBD3FFF7DFFC02F075
:102C600029FDFEF799FE70470000022000000020B9
:102C7000B8090020FCBB0008B8090020981000200B
:102C8000FEE7000038B50E4A0E4B12781B68054669
:102C90004FF47A70B0FBF2F0B3FBF0F000F0B2F852
:102CA00008B90F2D01D9012038BD04460246294636
:102CB0004FF0FF3000F05AF8034B20461D6038BD3E
:102CC00004000020000000200800002008B50B4B85
:102CD0001A6842F400721A601A6842F480621A603C
:102CE0001A6842F480721A60032000F02DF80F2059
:102CF000FFF7C8FFFFF702FC002008BD003C0240C0
:102D0000034A044B11681B780B441360704700BFE3
:102D10004C10002004000020014B1868704700BFD1
:102D20004C10002038B50446FFF7F6FF631C05463B
:102D300002D0044B1B781C44FFF7EEFF401BA0425F
:102D4000FAD338BD040000200749CA6803024FF6D1
:102D5000FF0003F4E0630240134343F0BF6343F416
:102D60000033CB60704700BF00ED00E01C4BDB6818
:102D7000C3F3022300B5C3F1070EBEF1040F03F144
:102D8000040C28BF4FF0040EBCF1060F1BD9033B07
:102D90004FF0FF3C0CFA03FC22EA0C024FF0FF3C20
:102DA0000CFA0EFC21EA0C019940002841EA0201CC
:102DB0000CDB00F16040090100F56140C9B280F808
:102DC00000135DF804FB00221346E7E7054B00F013
:102DD0000F0009010344C9B219765DF804FB00BF76
:102DE00000ED00E0FCEC00E0002808DB4109044AAB
:102DF00000F01F00012303FA00F042F821007047A1
:102E000000E100E00138B0F1807F0FD210B44FF044
:102E1000E023074C58614FF0F00C84F823C00022E7
:102E2000072110469A6110BC196170470120704754
:102E300000ED00E070B50446866DFFF76DFF94F875
:102E40003530022B06D00023802284F834306265AE
:102E5000012070BD23681A6822F016021A605A69B0
:102E600022F080025A61226C054632B31A6822F0C1
:102E700008021A601A6822F001021A6005E0FFF7E2
:102E80004BFF431B052B0FD823681B6813F001036E
:102E9000F5D1E16D3F228A400121B26084F83510FE
:102EA00084F83430184670BD032020220023626568
:102EB00084F8343084F8350070BDA26C002AD5D176
:102EC000D8E700BF90F83530022B03D0802343654C
:102ED000012070470268052380F83530136823F01D
:102EE00001030020136070472DE9F04F00220C68A9
:102EF0006F4E85B013464FF0010A894604E0013356
:102F0000102B02F102027AD00AFA03F101EA040B53
:102F1000A143F4D1D9F804C00CF003014D1E012DDA
:102F200070D9032940F0B0809140CD4307683D40FF
:102F300029431CF4403F0160E1D05E4D0021039124
:102F4000696C41F480416964696C01F480410391CA
:102F5000039923F0030101F1804101F59C3103F055
:102F60000307D1F808E0BF000F25BD402EEA050594
:102F7000DFF844E1704519D00EF5806E704500F021
:102F80008780DFF838E1704500F08680DFF830E1B7
:102F9000704500F08780DFF82CE170450CBF4FF0E2
:102FA000040E4FF0070E0EFA07F73D438D60B1682F
:102FB0006FEA0B071CF4801F0CBF39404BEA01017C
:102FC000B160F5681CF4001F0CBF3D404BEA0505DD
:102FD000F56075681CF4003F0CBF3D404BEA0505E9
:102FE000756031681CF4803F03F101030CBF394068
:102FF0004BEA0101102B316002F1020284D105B0CD
:10300000BDE8F08FD9F80C50876805FA02F803255F
:1030100005FA02FE27EA0E0748EA070787604768B5
:103020006FEA0E0527EA0B0ECCF300179F4047EA24
:103030000E074760C76807EA050ED9F80870974081
:1030400047EA0E070229C76001FA02F17FF46EAF6A
:103050004FEAD30E00EB8E0E03F00708DEF8207067
:103060000097D9F810704FEA880807FA08F7019717
:103070000F2707FA08F8009F27EA0808019F47EA88
:103080000807CEF8207051E703259540ED43D1E7BE
:103090000AFA07F73D4389E74FF0020E0EFA07F7E9
:1030A0003D4383E74FF0030E0EFA07F73D437DE7FC
:1030B000003C01400038024000000240000802408D
:1030C000000C0240001002402DE9F04F0023424F57
:1030D00001264FF00F094FF0030A02E00133102BD5
:1030E0006AD006FA03F232EA010402EA010CF5D1D1
:1030F00023F0030505F1804505F59C35DFF8DCB0CC
:10310000D5F808E003F00304A40009FA04F85845D0
:1031100008EA0E0E52D00BF5806B584550D0DFF800
:10312000C0B058454FD0DFF8BCB0584550D0DFF89C
:10313000B8B0584514BF4FF0070B4FF0040B0BFA13
:1031400004F4A64513D13C6824EA0C043C607C6876
:1031500024EA0C047C60FC6824EA0C04FC60BC6873
:1031600024EA0C04BC60AC6824EA0804AC6005687E
:103170005C000AFA04F44FEAD30C25EA040500EBDC
:103180008C0C056003F00705DCF820E0AD0009FABF
:1031900005F52EEA0505CCF82050C56825EA04059A
:1031A000C560456825EA020242608268013322EA6E
:1031B0000404102B846094D1BDE8F08F0024C0E794
:1031C00006FA04F4BDE74FF0020B0BFA04F4B8E77B
:1031D0000AFA04F4B5E700BF003C014000000240D9
:1031E00000080240000C024000100240036919422E
:1031F00014BF01200020704702B9090481617047A3
:103200002DE9F04F046883B098462368DDF83090CC
:10321000DDF834B043F4807306468A4617462360CF
:10322000B9F1FF3F35D16569E807FCD50AF0FE0129
:103230002161B9F1FF3F03D04EE061694D055CD4D7
:1032400061698B07F9D50023019363690193A36931
:103250000193019BB9F1FF3F40F0878063691A0633
:1032600063D463695B05F9D5002220236FF4806184
:103270006161326386F83D3086F83E20336C86F813
:103280003C2043F004033364336C042B66D00120EC
:103290001FE06369D907C9D4FFF73EFDA0EB0B001F
:1032A000814504D3B9F1000F01D03468B8E7002399
:1032B0002022336386F83D2086F83E30326C316838
:1032C00086F83C3042F0200232640B68DC0535D4CD
:1032D000032003B0BDE8F08F63699807B3D4636936
:1032E0005A050AD4FFF718FDA0EB0B0081454ED319
:1032F000B9F1000F4BD034689BE7236843F40073A7
:10330000236000226FF4806120236161326386F8BC
:103310003D3086F83E20336C86F83C2043F00403B1
:103320000120336403B0BDE8F08FB8F1010F09D17B
:10333000FFB20020276103B0BDE8F08F4FF40073A7
:103340003364C5E73B0A2361B9F1FF3F2ED16369BE
:103350001906EDD463695A05F9D585E73268136813
:1033600043F4007301201360B3E763691D06DCD4E6
:10337000636959053FF578AFFFF7CEFCA0EB0B036F
:10338000994525D3B9F1000F22D0346862E70022B5
:103390002023326386F83D3086F83E20336C86F871
:1033A0003C2043F020033364012092E763691B064D
:1033B000BED4636958053FF557AFFFF7ADFCA0EBEE
:1033C0000B03994504D3B9F1000F01D03468BBE772
:1033D00000222023326386F83D3086F83E20336C8D
:1033E00086F83C2043F0200333644DE7002800F0CA
:1033F000B98070B590F83D30044603F0FF02002B11
:1034000000F098802368242284F83D201A6822F076
:1034100001021A601A6842F400421A601A6822F423
:1034200000421A6000F000FE63684F498B424FD89B
:103430004E4A90427CD94E4D5A00A5FB0035431EA2
:10344000B3FBF2F32268506820F03F0040EA954059
:103450005060A90C01F1010C116A21F03F0141EA11
:103460000C011162D16940F6FC7E013321F44F4119
:1034700013EA0E0F21F0FF0161D104230B43D36146
:10348000D4E907301168034321F0C0010B431360F6
:103490009168D4E9030321F40341034321F0FF01C0
:1034A0000B439360D4E90530D168034321F0FF0159
:1034B0000B43D3601168002341F00101202011600B
:1034C000236484F83D00236384F83E30184670BDC1
:1034D000284A90422CD9264D274EA5FB002C226865
:1034E000556825F03F0545EA9C4555604FEA9C41EB
:1034F0004FF4967505FB01F1A6FB0151156A890988
:1035000025F03F05013129431162D169A56821F4F5
:103510004F4121F0FF01ADB9013803EB4303B0FB8C
:10352000F3F30133C3F30B03D3B143F40043A5E733
:10353000012070BD80F83C20FEF788F962E7C3F3F4
:103540000B039BE703EB8303013803EB8303B0FB1F
:10355000F3F30133C3F30B0313B143F440438DE79B
:1035600001238BE701207047A08601007F841E00A5
:1035700083DE1B43FF083D00D34D6210B0B10268EB
:10358000242310B580F83D30136823F0010304466E
:103590001360FEF793F90023236484F83C3084F829
:1035A0003D30236384F83E30184610BD012070473B
:1035B0002DE9F04F054683B099460C9F8846924608
:1035C000FFF7AAFB95F83D30202B03D0022003B073
:1035D000BDE8F08F064605E0FFF79EFB801B19282B
:1035E00000F2F5802C68A3696FEA030C1CF0020B53
:1035F000F2D095F83C30012BE8D0012385F83C301F
:103600002368D9076FD52368974A23F400632360A2
:10361000212385F83D30102385F83E3000232B64AC
:10362000A5F82A906B8DEA622B85EB6AC5F824A079
:10363000082B06D0012B04D0934202D02B6B122B07
:1036400003D1236843F4807323607B1C3DD16369FD
:10365000D807FCD52B69B3F5804F49D108F0FE019E
:103660002161781C04D0D8E063695A0500F1BD805F
:1036700063699907F8D50023019363690193A369EE
:1036800001932B8D019A002B74D0791C7FD1636933
:103690001A0641D463695B05F9D5002220236FF433
:1036A000806161612A6385F83D3085F83E202B6C8E
:1036B00085F83C2043F004032B642B6C042B00F0B2
:1036C000E480012003B0BDE8F08F6369D907C1D45D
:1036D000FFF722FB801B8742C0F0AF80002F00F075
:1036E000AC802C68B1E7236843F0010323608AE7CC
:1036F0004FEAE81303F0060343F0F00323617B1C59
:1037000003D0B3E0636959056FD463691807F9D52D
:103710005FFA88F32361A4E7686AB5F828C0014618
:103720000CF1FF3211F8013B23616B8D6962013BA3
:103730009BB26B85636992B259072A850CD55AB141
:10374000437823616B8D013BACF1020C02309BB2DC
:10375000A5F828C068626B85781C28D16369590771
:1037600005D463695A0598D463695907F9D52B8D37
:10377000002B8AD12368002043F4007320222360A9
:1037800085F83D2085F83C0085F83E001FE7636919
:103790001806C1D4636958053FF57FAFFFF7BCFA3F
:1037A000801B874278D3002F76D02C686DE7636941
:1037B0005B07DCD463695B053FF56FAFFFF7ACFADD
:1037C000801B874268D3002F66D02C68C4E7202373
:1037D000C5F830B085F83D3085F83EB02B6C85F8E3
:1037E0003CB043F020032B64F0E6236843F40073FD
:1037F000236000226FF48061202361612A6385F8D1
:103800003D3085F83E202B6C85F83C2043F00403C6
:1038100001202B6403B0BDE8F08F63699B073FF57F
:103820002AAF63695B05E0D4FFF776FA801B874215
:1038300040D3002F3ED02C6813E7002320222B63B7
:1038400085F83D2085F83E302A6C296885F83C30A3
:1038500042F020022A640B68DA057FF532AF4FF49C
:1038600000732B642DE700BF0000FFFF63691A0798
:103870003FF54EAF63695A05B7D4FFF74DFA831B86
:103880009F4217D3B7B12C6839E72A68136843F40D
:103890000073012013609AE6002220232A6385F832
:1038A0003D3085F83E202B6C85F83C2043F020030A
:1038B0002B6402E7002220232A6385F83D3085F837
:1038C0003E202B6C85F83C2043F020032B64012024
:1038D0007DE600BF2DE9F04F044683B09946BDF860
:1038E00034A00E9E0F469046FFF716FA94F83D302E
:1038F000202B04D00227384603B0BDE8F08F0546E0
:1039000005E0FFF709FA401B192800F2AA80206899
:1039100083696FEA030C1CF0020BF2D094F83C3080
:10392000012BE7D0012384F83C300368DB0771D515
:103930003946076827F4006707600C986062212009
:10394000CDE9006584F83D00402084F83E00002069
:103950002064A4F82AA0608D20855748E0624B4679
:1039600042462046FFF74CFC0746F8B9238D002B52
:1039700000F0A0802368721C58D15A6910061AD42E
:103980005A695105F9D500226FF4806020215861F1
:10399000226384F83D1084F83E20236C84F83C2098
:1039A00043F004032364236C042B38D001273846EA
:1039B00003B0BDE8F08FD4F824C0B4F828E0614625
:1039C0000EF1FF3011F8012B1A61628D6162013A2C
:1039D00092B2628582B258692285400717D542B9F2
:1039E000721C59D15A69500749D45A695105F9D501
:1039F000C9E79CF8011019610CF102016162618D47
:103A0000AEF10202013992B289B222856185002AA3
:103A1000B1D1E5E7036843F00103036088E722685A
:103A2000136843F400730127136064E75A691206B0
:103A3000C1D45A695105A6D4FFF76EF9401B8642DE
:103A400001D3002E96D100222023226384F83D303A
:103A500084F83E20236C84F83C2043F02003236448
:103A6000A1E72023C4F830B084F83D3084F83EB09C
:103A7000236C84F83CB043F0200323643AE71A68CF
:103A8000002142F4007220201A6084F83D0084F87E
:103A90003C1084F83E102EE75A695207EFD45A6959
:103AA00051053FF570AFFFF737F9431B9E42CAD36C
:103AB000002EC8D0236893E70000FFFF002800F025
:103AC000A2812DE9F0410368DD0782B004462FD5BD
:103AD0009E498A6802F00C02042A00F0ED808A6890
:103AE00002F00C02082A00F0E3806368B3F5803F1F
:103AF00000F0EC80B3F5A02F00F07581934D2A689B
:103B000022F480322A602A6822F480222A60002B64
:103B100040F0E180FFF700F9064605E0FFF7FCF80A
:103B2000801B642800F201812B689B03F6D4236874
:103B30009F0728D5854A916811F00C0F00F09080FE
:103B4000916801F00C01082900F08680E368002BE1
:103B500000F00E817E4B7D4E01221A60FFF7DCF8EB
:103B6000054605E0FFF7D8F8401B022800F2DD808B
:103B700033689807F6D53368226923F0F80343EADF
:103B8000C203336023681A0751D458072FD56F4AF0
:103B9000136C13F080537FD000256E4E3368D90527
:103BA00040F1B380A368012B00F0C380052B00F027
:103BB0002C81664E326F22F001023267326F22F0A2
:103BC00004023267002B40F0B980FFF7A5F841F2FC
:103BD0008838074605E0FFF79FF8C01B404500F214
:103BE000A480336F9807F6D4002D40F00681A069B9
:103BF000C8B1564DAB6803F00C03082B00F0C98028
:103C0000534B002202281A6600F00981FFF784F85E
:103C1000044605E0FFF780F8001B022800F28580CB
:103C20002B689B01F6D4002002B0BDE8F0816369E7
:103C30000BB3474B454E0122C3F8802EFFF76CF8BB
:103C4000054604E0FFF768F8401B02286DD8736F43
:103C50009B07F7D5236898E7526856023FF576AF81
:103C60003A4A1268950744D5E268012A41D00120FA
:103C700002B0BDE8F081364A344EC2F8803EFFF70C
:103C80004BF8054604E0FFF747F8401B02284CD8E4
:103C9000736F9F07F7D4DDE70193136C43F08053F4
:103CA0001364136C03F080530193019B012574E7A7
:103CB0004A6850027FF519AF244A126891037FF5D4
:103CC00037AF6268002A7FF433AFD0E71F4A13682A
:103CD00043F480331360FFF71FF81C4E054604E0E1
:103CE000FFF71AF8401B64281FD833689A03F7D5EA
:103CF0001DE7164920690A6822F0F80242EAC0026C
:103D00000A601A077FF541AF91E7336843F4807387
:103D10003360FFF701F807463368DA053FF542AF35
:103D2000FEF7FAFFC01B0228F6D9032002B0BDE857
:103D3000F081064A136F43F001031367FEF7ECFFAF
:103D4000024F064641F288380BE000BF00380240BF
:103D50000000474200700040FEF7DEFF801B404538
:103D6000E3D83B6F9B07F7D5002D3FF440AF44E00D
:103D7000424A434E1360FEF7CFFF054604E0FEF7CC
:103D8000CBFF401B0228D0D833689907F7D42368AB
:103D9000F9E601283FF448AF6B68E26903F480015B
:103DA00091427FF464AF226A03F03F0191427FF4B5
:103DB0005EAF616A47F6C0721A40B2EB811F7FF4B2
:103DC00056AFA26A520803F44031013AB1EB024FF8
:103DD0007FF44DAFE26A03F07063B3EB026F14BF80
:103DE0000120002020E7264B1A6842F480221A6046
:103DF0001A6842F480321A606DE7214A136C23F08E
:103E000080531364F3E6012070471D4B1A6F42F094
:103E100004021A671A6F42F001021A678EE7FEF772
:103E20007BFF064605E0FEF777FF801B02283FF682
:103E30007CAF2B689901F6D4D4E90731626A0B4351
:103E400043EA8213D4E90A21520843EA0163013AA2
:103E50000A4943EA024301226B600A66FEF75CFFEF
:103E6000074D044605E0FEF757FF001B02283FF60A
:103E70005CAF2B689A01F6D5D5E600BF000047423B
:103E800000380240164908B58B6803F00C03042B78
:103E90001BD0082B17D14A684B68496813F480037C
:103EA00002F03F0213D10F48C1F38811A1FB0001BA
:103EB000FCF79AFD0A4B5B68C3F3014301335B00D7
:103EC000B0FBF3F008BD074808BD074808BD064829
:103ED000C1F388110023A1FB0001FCF785FDE9E790
:103EE000003802400024F40040787D01002800F0F2
:103EF0008780484A136803F007038B422DE9F0419D
:103F00000D46044609D2CBB21370136803F00703C1
:103F10008B4202D00120BDE8F0812368980714D5B8
:103F2000590704D53C498A6842F4E0528A601A076E
:103F300004D539498A6842F460428A603649A068EB
:103F40008A6822F0F00202438A60DF0721D56268A6
:103F5000012A57D0931E012B2F4B1B684DD999076F
:103F6000D8D52D4EB36823F003031343B360FEF797
:103F7000D3FE41F28838074604E0FEF7CDFEC01BB1
:103F8000404544D8B368626803F00C03B3EB820F7A
:103F9000F3D1204A136803F00703AB4206D9EBB212
:103FA0001370136803F00703AB42B3D123685A07B9
:103FB00006D51949E0688A6822F4E05202438A6013
:103FC0001B0707D5144A2169936823F4604343EA29
:103FD000C1039360FFF756FF0F4A104C92681049D7
:103FE000C2F303120346A25C0E48D34000680B6084
:103FF000FEF748FE0020BDE8F0819801B1D489E7C2
:1040000001207047044B1B689E03AAD482E703205B
:1040100081E700BF003C024000380240D0B70008F2
:104020000000002008000020044B05499B68054A59
:104030000868C3F38223D35CD8407047003802403D
:1040400000000020E0B70008044B05499B68054AC2
:104050000868C3F34233D35CD8407047003802404D
:1040600000000020E0B70008002876D010B590F8D6
:104070003D30044603F0FF02002B55D0226838493A
:10408000022384F83D308A42136852D0B2F1804F47
:1040900021D0A1F57C418A421DD001F580618A4280
:1040A00019D001F580618A4215D001F59A318A4212
:1040B00015D001F580618A4211D001F580618A42F4
:1040C0000DD0A069E16823F08003034313606368A7
:1040D000D162936210E0A16823F070030B43206962
:1040E000A16923F44073034323F08003E0680B438A
:1040F00061681360D06291620123536184F8463095
:1041000084F83E3084F83F3084F8403084F8413001
:1041100084F8423084F8433084F8443084F84530E1
:1041200084F83D30002010BD80F83C20FEF72EFBC7
:10413000A4E7A068216923F07003034323F44073CC
:104140000B43A16923F080030B431360E368D36240
:104150006368936263691363CEE70120704700BF11
:104160000000014090F83D30012B27D1036815492C
:10417000022280F83D20DA688B4242F00102DA60C8
:1041800011D0B3F1804F0ED00F4A93420BD002F5FD
:104190008062934207D002F58062934203D002F519
:1041A0009A32934204D19A6802F00702062A07D095
:1041B0001A6842F0010200201A607047012070471F
:1041C0000020704700000140000400400368DA68E6
:1041D00022F00102DA601A6A41F211110A4208D192
:1041E000196A40F24442114203D11A6822F00102D6
:1041F0001A60012380F83D3000207047704700BFEF
:10420000002876D010B590F83D30044603F0FF0248
:10421000002B55D022683849022384F83D308A4269
:10422000136852D0B2F1804F21D0A1F57C418A426F
:104230001DD001F580618A4219D001F580618A4262
:1042400015D001F59A318A4215D001F580618A4274
:1042500011D001F580618A420DD0A069E16823F098
:104260008003034313606368D162936210E0A16826
:1042700023F070030B432069A16923F440730343C7
:1042800023F08003E0680B4361681360D0629162A1
:104290000123536184F8463084F83E3084F83F307F
:1042A00084F8403084F8413084F8423084F8433058
:1042B00084F8443084F8453084F83D30002010BD47
:1042C00080F83C20FFF79AFFA4E7A068216923F05B
:1042D0007003034323F440730B43A16923F080036D
:1042E0000B431360E368D36263689362636913638B
:1042F000CEE70120704700BF0000014099BB90F855
:104300003E30012B43D1022380F83E300368012266
:10431000186A01F01F0102FA01F120EA0100186297
:10432000186A254A01439342196240D0B3F1804F85
:104330000ED0224A93420BD002F58062934207D0FE
:1043400002F58062934203D002F59A32934204D17F
:104350009A6802F00702062A27D01A6842F0010282
:1043600000201A607047042913D008290BD090F858
:104370004130012B0BD104290FD0082911D0022381
:1043800080F84130C2E790F84030012B09D001207D
:10439000704790F83F30012BF9D1022380F83F306D
:1043A000B4E7022380F84030B0E7002070475A6C31
:1043B00042F400425A64CBE7000001400004004090
:1043C000704700BF002876D010B590F83D30044605
:1043D00003F0FF02002B55D022683849022384F8ED
:1043E0003D308A42136852D0B2F1804F21D0A1F5FE
:1043F0007C418A421DD001F580618A4219D001F5C5
:1044000080618A4215D001F59A318A4215D001F5B2
:1044100080618A4211D001F580618A420DD0A06985
:10442000E16823F08003034313606368D162936201
:1044300010E0A16823F070030B432069A16923F405
:104440004073034323F08003E0680B43616813600B
:10445000D06291620123536184F8463084F83E3083
:1044600084F83F3084F8403084F8413084F842309A
:1044700084F8433084F8443084F8453084F83D3083
:10448000002010BD80F83C20FFF79AFFA4E7A06849
:10449000216923F07003034323F440730B43A169A4
:1044A00023F080030B431360E368D3626368936275
:1044B00063691363CEE70120704700BF000001402D
:1044C000844661B990F83E3090F84220D8B2D3B219
:1044D000012802D1012B11D0704701207047042917
:1044E0004AD008290BBF90F8403090F8413090F83E
:1044F000442090F84520D8B2D3B2E9E7022300293E
:1045000041D0042946D008290BBF8CF840308CF8E4
:1045100041308CF844308CF84530DCF80030012212
:10452000186A01F01F0102FA01F120EA0100186285
:10453000186A1B4A01439342196212D0B3F1804FAB
:104540000FD0A2F57C4293420BD002F580629342D9
:1045500007D002F58062934203D002F59A3293426B
:1045600004D19A6802F00702062A11D01A6842F0B4
:10457000010200201A60704790F83F3090F8432005
:10458000D8B2D3B2A4E78CF83E308CF84230C4E7FE
:104590000020A1E78CF83F308CF84330BDE700BF26
:1045A00000000140036810B41A6A01F01F044FF0C4
:1045B000010C0CFA04FC22EA0C021A621A6A1A6252
:1045C0001C6A41F21112144204D11C6A40F24442A6
:1045D000144217D0012331B980F83E3080F84230C0
:1045E00010BC00207047042911D008290BBF80F8A7
:1045F000403080F8413080F8443080F8453010BCBD
:10460000002070471A6822F001021A60E2E780F881
:104610003F3080F8433010BC0020704784460029AA
:1046200046D190F83E3090F84220D8B2D3B201285B
:1046300002D1012B02D0704701207047002946D1DA
:104640000222DCF800308CF83E208CF84220DA6838
:1046500042F00202DA60186A012201F01F0102FA38
:1046600001F120EA01001862186A3D4A01439342B1
:10467000196212D0B3F1804F0FD0A2F57C42934261
:104680000BD002F58062934207D002F5806293421C
:1046900003D002F59A32934204D19A6802F00702DD
:1046A000062A5BD01A6842F0010200201A607047A7
:1046B00004294CD008290BBF90F8403090F84130C5
:1046C00090F8442090F84520D8B2D3B2AFE704293F
:1046D0002AD008291CD002220B1F8CF841208CF80C
:1046E0004520082BA8D801A252F823F03347000830
:1046F0003946000839460008394600081B470008BB
:104700003946000839460008394600084147000884
:1047100002238CF840308CF84430DCF80030DA6842
:1047200042F00802DA6096E702238CF83F308CF8FA
:104730004330DCF80030DA6842F00402DA608AE7DD
:10474000DCF80030DA6842F01002DA6083E790F8B3
:104750003F3090F84320D8B2D3B268E700206AE730
:1047600000000140034690F83C00012800F0CC8096
:104770000120F0B483F83C005AB1042A4CD0082A36
:1047800000F09A800C2A71D0002283F83C20F0BC03
:1047900070471A68DFF874C1166AC86826F0010607
:1047A000D1E90045624516629769166A15D0B2F1E3
:1047B000804F12D0ACF57C4C62450ED00CF5806C6D
:1047C00062450AD00CF5806C624506D00CF59A3C27
:1047D000624502D047F0010C03E027F0030C45EAE4
:1047E0000C0C00012CF0F00CC0B240EA0C009061FF
:1047F00026F00A0504F00A002843106290698C68CC
:1048000020F00C009061916921439161002283F8AE
:104810003C200020F0BC70471A68D1E90006156AF8
:10482000000125F0100500F0A004C86815628D682D
:10483000916921F4407141EA0621000380B221F41C
:1048400070410143106A916120F0A0002043106282
:10485000946924F440649461916941EA052191616D
:10486000002283F83C200020F0BC70471A68D1E990
:104870000006156A000325F4805500F42044C8683A
:1048800015628D68D16921F44071000341EA062167
:1048900080B221F470410143106AD16120F42040BC
:1048A00020431062D46924F44064D461D16941EAA0
:1048B00005210020D16167E71A68D1E90004166A72
:1048C000000226F4807600F42065C86816628E68BF
:1048D000D16921F0030121430001C0B221F0F001B0
:1048E0000143106AD16120F4206028431062D4692A
:1048F00024F00C04D461D1693143D161002283F8E2
:104900003C200020F0BC70470220704700000140AE
:10491000034690F83C00012800F0C5800120F0B467
:1049200083F83C000C2A08D8DFE802F03B070707B1
:1049300065070707920707070D00002283F83C2050
:104940000120F0BC70471A680E68106A20F480508D
:104950001062106A5568D46924F4E64444EA0624D7
:104960008E6820F4005040EA0630684EB24200F0F3
:10497000B8805560D4614C6814641062D0690D69C8
:1049800040F40060D061D46924F48064D461D169BA
:1049900041EA0521D161002283F83C200020F0BCCF
:1049A00070471A680E68106A20F001001062106AE1
:1049B0005568946924F0730434438E6820F0020033
:1049C0003043524EB24270D0556094614C6854638B
:1049D000106290690D6940F008009061946924F0BC
:1049E00004049461916929439161002283F83C2079
:1049F0000020F0BC70471A680E68106A20F01000A2
:104A00001062106A5568946924F4E64444EA062466
:104A10008E6820F0200040EA06103C4EB24251D091
:104A2000556094614C689463106290690D6940F41C
:104A300000609061946924F480649461916941EA12
:104A400005219161002283F83C200020F0BC7047D2
:104A50001A680E68106A20F480701062106A556837
:104A6000D46924F0730434438E6820F4007040EA63
:104A70000620264EB2423AD05560D4614C68D463C9
:104A80001062D0690D6940F00800D061D46924F04B
:104A90000404D461D1692943D161002283F83C2008
:104AA0000020F0BC704702207047CE6820F008005C
:104AB0003043D1E9056725F440753E4320F00400FA
:104AC000354381E7CE6820F0800040EA0610D1E946
:104AD000056725F440653E4320F0400045EA860521
:104AE0009EE74E6925F4804545EA861541E7CE6884
:104AF00020F4006040EA0620D1E9056725F440551E
:104B00003E4320F4806045EA0615B5E70000014009
:104B100090F83C30012B75D0024630B40223046873
:104B200082F83D30012082F83C00A36823F47F43E3
:104B300023F07703A3600B68602B65D024D8402B4B
:104B40007CD04BD9502B17D14868CD68216A236A95
:104B500023F001032362A36921F00A0123F0F0038B
:104B6000014343EA0513A3612162A36823F07003A4
:104B700043F057030020A3600121002382F83D1079
:104B800082F83C3030BC7047B3F5805F38D0B3F565
:104B9000005F10D1D1E90153A0682B43CD6820F408
:104BA0007F4143EA05230B43A360A36843F480439A
:104BB0000020A360E0E7702BDED1D1E90153A068AB
:104BC0002B43CD6820F47F4143EA05230B43A360C8
:104BD000A36843F077030020A360CDE7202B02D029
:104BE0000AD9302BC8D1A16821F070010B4343F0E2
:104BF00007030020A360BFE733F01001BCD1F2E748
:104C00000020B9E702207047206ACB684D6820F089
:104C100010002062A16921F4704141EA0331236A46
:104C2000A16123F0A00343EA05132362A36823F0E4
:104C3000700343F067030020A3609DE74868CD68D8
:104C4000216A236A23F001032362A36921F00A0188
:104C500023F0F003014343EA0513A3612162A36833
:104C600023F0700343F047030020A36084E700BFF4
:104C7000704700BF704700BF704700BF03681A69E4
:104C8000910710B5044602D5DA6892075FD41A6915
:104C9000500702D5DA68510746D41A69120702D5BF
:104CA000DA6810072ED41A69D20602D5DA68D0065F
:104CB00018D41A69D10702D5DA68D2075DD41A6907
:104CC000100602D5DA6811065FD41A69520602D5B9
:104CD000DA68500661D41A69910602D5DA6892063C
:104CE00043D410BD6FF01001082219612277DB69EF
:104CF00013F4407F204664D0FCF7BCFE00222368FA
:104D00002277D6E76FF00801042219612277DB6968
:104D10009907204652D1FFF7ABFF2046FFF7AAFFC5
:104D2000002223682277BEE76FF004010222196196
:104D300022779B6913F4407F20463CD1FFF798FF10
:104D40002046FFF797FF002223682277A5E76FF040
:104D500002010122196102779B699B0725D0FCF7AC
:104D600089FE00222368227791E76FF02002204617
:104D70001A61BDE8104000F08DB86FF001021A61B1
:104D80002046FCF79BFE236899E76FF080021A61CA
:104D9000204600F081F8236897E76FF040021A611F
:104DA0002046FFF769FF236895E7FFF761FF20467C
:104DB000FFF760FFD5E7FCF75DFEC4E7FCF75AFE9E
:104DC000AEE7FFF755FF2046FFF754FF96E700BF19
:104DD00090F83C30012B2FD00368022230B480F8C9
:104DE0003D205A680D689C6822F070022A435A6080
:104DF000124A934212D0B3F1804F0FD0A2F57C42F9
:104E000093420BD002F58062934207D002F5806294
:104E1000934203D002F59A32934204D14A6824F0B7
:104E2000800414439C600023012280F83D2080F818
:104E30003C3030BC184670470220704700000140EB
:104E400090F83C30012B22D010B4D1E9024323F476
:104E500040730246234348680C6823F4806303438D
:104E600023F400630869234323F480530343486910
:104E7000CC6923F40053034323F4804310680021DA
:104E80002343436482F83C10084610BC704702205C
:104E9000704700BF704700BF704700BF002800F098
:104EA0008F8038B590F83D30044603F0FF02002BA8
:104EB00000F081802368E068242284F83D20DA68CD
:104EC00022F40052DA601969A26821F440510143CA
:104ED0002069196102436069D9680243E06921F4DD
:104EE000164121F00C0102430A43DA605A69A069B5
:104EF000344922F4407202438B425A6135D0324A1F
:104F0000934232D0FFF790F8E369B3F5004F32D007
:104F1000636819219A00A0FB01019B0FFBF764FD58
:104F20002A49A1FB00325209642505FB1200000149
:104F300032302368A1FB0010120102EB5010986080
:104F40001A6922F490421A615A6922F02A025A61BF
:104F5000DA680025202142F40052DA60256484F8E2
:104F60003D1084F83E10284638BDFFF76DF8E36920
:104F7000B3F5004FCCD16268192192184FF00003AD
:104F80005B41A0FB0101FBF72FFD104BA3FB0021B0
:104F90004D09642202FB1502D2003232A3FB023219
:104FA000C2F342111209236801EB051102F4F872F1
:104FB0000A449A60C4E780F83C20FDF7FBFD79E7DE
:104FC0000120704700100140001401401F85EB5183
:104FD0002DE9F843044690F83D00202877D1884613
:104FE000002940D01746002A3DD01D4694F83C3099
:104FF000012B6CD0012384F83C304FF000092123B1
:10500000C4F8409084F83D30FDF786FEA368A7847D
:10501000B3F5805FE78406465CD0E38C00229BB248
:1050200084F83C20002B7ED02368691C1ED11A68AE
:105030001206FCD5B8F1000F44D018F8012B5A60C5
:10504000E28C013A92B2E284E28C92B2002AECD174
:10505000681C45D11A685106FCD5202384F83D30E0
:105060000020BDE8F8830120BDE8F8831A68170620
:10507000E0D42DB1FDF750FE801B85422368D4D2C9
:1050800003F10C0252E8002F22F4D07203F10C005D
:1050900040E800210029F3D103F1140252E8002F67
:1050A00022F0010203F1140040E800210029F3D1AD
:1050B000202384F83D3084F83C1084F83E300320EF
:1050C000BDE8F88339F8022BC2F30802B7E70220E3
:1050D000BDE8F8832369002B9FD1C14698469CE721
:1050E0001A685206B9D42DB1FDF716FE831B9D42F6
:1050F0002368ADD203F10C0252E8002F22F4D072E3
:1051000003F10C0040E800210029F3D103F114025F
:1051100052E8002F22F0010203F1140040E80021C0
:105120000029F3D1C4E7236892E700BF2DE9F843D3
:10513000044690F83E00202840F0838088460029ED
:1051400046D01646002A43D01F4694F83C30012B27
:1051500077D0012384F83C304FF000092223C4F8B3
:10516000409084F83E30C4F83090FDF7D5FDA36838
:10517000A685B3F5805FE685054665D0E38D002200
:105180009BB284F83C20EBB1781C236823D11A68C9
:105190009106FCD5B8F1000F4DD0A268B2F5805F42
:1051A00004D0002A43D12269002A40D15B68DBB2D7
:1051B00008F8013BE28D013A92B2E285E38D9BB2A1
:1051C000002BE1D1202384F83E300020BDE8F88395
:1051D0000120BDE8F8831A689206DBD42FB1FDF7F1
:1051E0009BFD401B8742CFD2236803F10C0252E89B
:1051F000002F22F4D07203F10C0040E800210029B6
:10520000F3D103F1140252E8002F22F0010203F15E
:10521000140040E800210029F3D1202384F83D3018
:1052200084F83C1084F83E300320BDE8F8835B68C6
:1052300003F07F03BCE75B68C3F3080329F8023B74
:10524000B8E70220BDE8F8832369002B96D1C14658
:10525000984693E790F83E30202B1FD1E1B1DAB1A8
:1052600090F83C30012B19D00023036380F83C30C8
:10527000C2850364036981622221828580F83E1021
:1052800073B903685A6942F001025A61DA6842F060
:1052900020020020DA60704701207047022070472A
:1052A0000368DA6842F48072DA60EBE7704700BFA7
:1052B000704700BF08B5806B0023C385C384FFF728
:1052C000F7FF08BD704700BF8368B3F5805F44D027
:1052D000826A002B39D003685B6803F07F03137088
:1052E000836A01338362C38D013B9BB2C385002B6C
:1052F00032D10268D16821F0200100B5D160D168B7
:1053000021F48071D16051694FF0200C21F001012E
:10531000516180F83EC0016B012983B028D103633D
:1053200002F10C0353E8003F23F0100302F10C0CD0
:105330004CE800310029F3D11368DB0622D4818DBB
:10534000FFF7C0FF03B05DF804FB0369002BC2D177
:1053500003685B681370C3E7704703696BB9026841
:10536000836A5268C2F3080223F8022B8362BAE709
:10537000FCF774FB03B05DF804FB0368826A5B68AA
:105380001370ADE7002301931368019353680193F1
:10539000019BD4E730B503681A68D9685D6912F0DB
:1053A0000F0F83B004466ED1950602D58D0600F12D
:1053B000B180206B01280BD0100602D50D0600F13C
:1053C000B380500602D54A0600F1CD8003B030BD4F
:1053D000D506F1D5C806EFD5002201921A680192D0
:1053E0005A680192019A5A69550640F11681A06BDC
:1053F0000268526892B2002AE8D0A18D9142E5D9A4
:10540000E285C269B2F5807F36D003F10C0252E822
:10541000002F22F4807203F10C0545E800210029D9
:10542000F3D103F1140252E8002F22F0010203F13C
:10543000140545E800210029F3D103F1140252E8D4
:10544000002F22F0400203F1140545E80021002955
:10545000F3D1202284F83E20216303F10C0252E8AC
:10546000002F22F0100203F10C0545E8002100296D
:10547000F3D1FDF7DFFCA18DE38DC91A204689B277
:10548000FFF720FFA2E705F0010501F49070284323
:105490008FD0D00705D5C80503D5206C40F001009A
:1054A0002064500731D54DB1206C40F002002064DB
:1054B000900703D5206C40F004002064100707D546
:1054C00001F02000284303D0206C40F00800206445
:1054D000206C00283FF47AAF900609D5890607D5DD
:1054E00094F83E20222A03D12046FFF7EDFE2368E0
:1054F0005A69256C02F0400205F0080515433DD1BC
:105500002046FFF7D5FE256460E79007D6D5002D2D
:10551000D0D1D3E790F83E30222B7FF457AF03B0C1
:10552000BDE83040FFF7D0BE94F83D20212A7FF43B
:105530004DAFA268B2F5805F00F0A880226A511CCE
:10554000216212785A60E28C013A92B2E284002A17
:105550007FF43CAFDA6822F08002DA60DA6842F069
:105560004002DA6032E7DA68202122F04002DA6095
:10557000204684F83D10FFF799FE27E703F10C025F
:1055800052E8002F22F4907203F10C0040E8002151
:105590000029F3D103F1140252E8002F22F0010296
:1055A00003F1140040E800210029F3D1226B012A05
:1055B00022D00022202184F83E1022635A6952062C
:1055C00027D503F1140252E8002F22F0400203F124
:1055D000140040E800210029F3D1A06BC8B1314B81
:1055E0000365FDF76FFC00283FF4F0AEA06B036D80
:1055F00003B0BDE83040184703F10C0252E8002F19
:1056000022F0100203F10C0040E800210029F3D140
:10561000CFE72046FFF74CFED8E6E18DE28D92B24F
:1056200089B2002A3FF4D2AEA28D511A89B2002964
:105630003FF4CCAE03F10C0252E8002F22F490723A
:1056400003F10C0545E800200028F3D103F1140212
:1056500052E8002F22F0010203F1140545E8002072
:105660000028F3D1202284F83E20206303F10C02AD
:1056700052E8002F22F0100203F10C0545E800204B
:105680000028F3D12046FFF71DFE9FE62269002A7D
:105690007FF454AF226A32F8021BC1F3080159604B
:1056A000226250E7B5520008014B1868704700BFEE
:1056B0000C00002070B50D4E0D4D761BB61006D0B7
:1056C000002455F8043B01349847A642F9D1094E0D
:1056D000094D761B06F06CF8B61006D0002455F87C
:1056E000043B01349847A642F9D170BDF0BB0008D5
:1056F000F0BB0008F8BB0008F0BB0008830730B51A
:1057000048D0541E002A3FD0CAB2034601E0013CF3
:105710003AD303F8012B9D07F9D1032C2DD9CDB233
:1057200045EA05250F2C45EA054536D9A4F11002B6
:1057300022F00F0C03F1200EE6444FEA121C03F195
:10574000100242E9045542E9025510327245F8D17F
:105750000CF1010214F00C0F03EB021204F00F0C19
:1057600013D0ACF1040323F003030433134442F8D1
:10577000045B9342FBD10CF003042CB1CAB21C446D
:1057800003F8012B9C42FBD130BD64461346002C2C
:10579000F4D1F9E703461446BFE71A46A446E0E70A
:1057A0000FB400B5074983B004AB086853F8042B65
:1057B0008168019300F0E0F803B05DF804EB04B0F9
:1057C000704700BF0C0000202DE9F043694CD4F86D
:1057D000008083B004460E4617461D46B8F1000F00
:1057E00003D0D8F83830002B77D0022F05D0012F06
:1057F00000F2AC80002DC0F2A980636EDA0752D5AA
:105800002146404602F062FF216B41B104F14003A2
:10581000994202D0404603F085F800232363B4F98F
:105820000CC000231CF0800FA361636064D12CF4D2
:105830004A6C2CF0030C022FA4F80CC06AD001AB08
:105840006A462146404603F013FAA3891843A08113
:10585000002D2FD0002E2ED0D8F83830002B38D085
:10586000009B2660AB42B4F90C301CBF43F40063CC
:10587000A381012F04BF43F00103A3819AB213F067
:105880000803C4E904652CD0D1075DD56D42A5613C
:10589000656E002315F00105A36027D0002528467A
:1058A00003B0BDE8F083A3899B05A9D4A06D03F0E4
:1058B0006BF9A5E7009D284603F00AFA0646002882
:1058C00047D0A38943F08003A381D8F83830002B58
:1058D000C6D1404602F02EFFC2E7404602F02AFF42
:1058E00083E7A360656E15F00105D7D1930524D534
:1058F000284603B0BDE8F0832169404603F012F862
:10590000B4F90CC02CF44A6C2CF0030C022FA4F850
:105910000CC094D10025002204F14303A2600122AF
:10592000C4E904322360636E4CF0020CD807A4F87B
:105930000CC0DDD41CF4007FDAD1A06D03F026F991
:10594000284603B0BDE8F083A560CBE74FF0FF35F4
:10595000CEE7DDF80090A94504D0484603F0B8F939
:10596000064620B9B4F90CC04FF0FF35D3E74D46D9
:10597000A7E700BF0C0000202DE9F04FD5B01C4672
:10598000079191460546099003F0F6F802681792D0
:1059900010460E94FBF7B4FA16901DB1AB6B002BBA
:1059A00000F02A82079A536EDD0740F13881B2F980
:1059B0000C2091B28F0409D4079B42F400529A81C3
:1059C00091B21A465B6E23F4005353660E0740F102
:1059D000CB80079B1B69002B00F0C68001F01A03E7
:1059E0000A2B00F0CF8000242BAB4D46CDE9294493
:1059F000CDE91944CDE91B44129428939846189494
:105A000000230B940024CDE914342B78002B00F0F4
:105A10009D81AA4604E01AF8013F002B00F0C780E0
:105A2000252BF8D1BAEB050640F0C5809AF8003076
:105A3000002B00F08B8100234FF0FF329AF80160B9
:105A40008DF883300A930AF1010A08921F462B242D
:105A50004FF020090AF1010AA6F120035A2B00F2A7
:105A6000ED80DFE813F0EB02EB00EB00E602EB0069
:105A7000EB00EB006A00EB00EB005C028002EB0045
:105A800067028A02EB0085025B005B005B005B0043
:105A90005B005B005B005B005B00EB00EB00EB007E
:105AA000EB00EB00EB00EB007A01EB00F801D20118
:105AB0007A017A017A01EB00EB00EB00EB00E102E6
:105AC000EB00EB002D02EB00EB00EB000202EB0021
:105AD000A402EB00EB008307EB00EB00EB00EB0014
:105AE000EB00EB00EB00EB007A01EB00F801D401D6
:105AF0007A017A017A01C702D401CD01EB00D40208
